{
  "contractName": "DistributeToken",
  "abi": [
    {
      "constant": true,
      "inputs": [],
      "name": "weiBal",
      "outputs": [
        {
          "name": "",
          "type": "uint256"
        }
      ],
      "payable": false,
      "stateMutability": "view",
      "type": "function"
    },
    {
      "constant": true,
      "inputs": [],
      "name": "name",
      "outputs": [
        {
          "name": "",
          "type": "string"
        }
      ],
      "payable": false,
      "stateMutability": "view",
      "type": "function"
    },
    {
      "constant": false,
      "inputs": [
        {
          "name": "_spender",
          "type": "address"
        },
        {
          "name": "_value",
          "type": "uint256"
        }
      ],
      "name": "approve",
      "outputs": [
        {
          "name": "success",
          "type": "bool"
        }
      ],
      "payable": false,
      "stateMutability": "nonpayable",
      "type": "function"
    },
    {
      "constant": true,
      "inputs": [],
      "name": "totalSupply",
      "outputs": [
        {
          "name": "",
          "type": "uint256"
        }
      ],
      "payable": false,
      "stateMutability": "view",
      "type": "function"
    },
    {
      "constant": false,
      "inputs": [
        {
          "name": "_from",
          "type": "address"
        },
        {
          "name": "_to",
          "type": "address"
        },
        {
          "name": "_value",
          "type": "uint256"
        }
      ],
      "name": "transferFrom",
      "outputs": [
        {
          "name": "success",
          "type": "bool"
        }
      ],
      "payable": false,
      "stateMutability": "nonpayable",
      "type": "function"
    },
    {
      "constant": true,
      "inputs": [
        {
          "name": "",
          "type": "address"
        }
      ],
      "name": "balances",
      "outputs": [
        {
          "name": "",
          "type": "uint256"
        }
      ],
      "payable": false,
      "stateMutability": "view",
      "type": "function"
    },
    {
      "constant": true,
      "inputs": [],
      "name": "decimals",
      "outputs": [
        {
          "name": "",
          "type": "uint8"
        }
      ],
      "payable": false,
      "stateMutability": "view",
      "type": "function"
    },
    {
      "constant": true,
      "inputs": [
        {
          "name": "",
          "type": "address"
        },
        {
          "name": "",
          "type": "address"
        }
      ],
      "name": "allowed",
      "outputs": [
        {
          "name": "",
          "type": "uint256"
        }
      ],
      "payable": false,
      "stateMutability": "view",
      "type": "function"
    },
    {
      "constant": true,
      "inputs": [],
      "name": "freeze",
      "outputs": [
        {
          "name": "",
          "type": "bool"
        }
      ],
      "payable": false,
      "stateMutability": "view",
      "type": "function"
    },
    {
      "constant": true,
      "inputs": [
        {
          "name": "_owner",
          "type": "address"
        }
      ],
      "name": "balanceOf",
      "outputs": [
        {
          "name": "balance",
          "type": "uint256"
        }
      ],
      "payable": false,
      "stateMutability": "view",
      "type": "function"
    },
    {
      "constant": false,
      "inputs": [],
      "name": "renounceOwnership",
      "outputs": [],
      "payable": false,
      "stateMutability": "nonpayable",
      "type": "function"
    },
    {
      "constant": true,
      "inputs": [],
      "name": "owner",
      "outputs": [
        {
          "name": "",
          "type": "address"
        }
      ],
      "payable": false,
      "stateMutability": "view",
      "type": "function"
    },
    {
      "constant": true,
      "inputs": [],
      "name": "baseCost",
      "outputs": [
        {
          "name": "",
          "type": "uint256"
        }
      ],
      "payable": false,
      "stateMutability": "view",
      "type": "function"
    },
    {
      "constant": true,
      "inputs": [],
      "name": "symbol",
      "outputs": [
        {
          "name": "",
          "type": "string"
        }
      ],
      "payable": false,
      "stateMutability": "view",
      "type": "function"
    },
    {
      "constant": false,
      "inputs": [
        {
          "name": "_to",
          "type": "address"
        },
        {
          "name": "_value",
          "type": "uint256"
        }
      ],
      "name": "transfer",
      "outputs": [
        {
          "name": "success",
          "type": "bool"
        }
      ],
      "payable": false,
      "stateMutability": "nonpayable",
      "type": "function"
    },
    {
      "constant": true,
      "inputs": [
        {
          "name": "_owner",
          "type": "address"
        },
        {
          "name": "_spender",
          "type": "address"
        }
      ],
      "name": "allowance",
      "outputs": [
        {
          "name": "remaining",
          "type": "uint256"
        }
      ],
      "payable": false,
      "stateMutability": "view",
      "type": "function"
    },
    {
      "constant": false,
      "inputs": [
        {
          "name": "_newOwner",
          "type": "address"
        }
      ],
      "name": "transferOwnership",
      "outputs": [],
      "payable": false,
      "stateMutability": "nonpayable",
      "type": "function"
    },
    {
      "inputs": [
        {
          "name": "_tokenRegistry",
          "type": "address"
        },
        {
          "name": "_reputationRegistry",
          "type": "address"
        }
      ],
      "payable": false,
      "stateMutability": "nonpayable",
      "type": "constructor"
    },
    {
      "payable": true,
      "stateMutability": "payable",
      "type": "fallback"
    },
    {
      "anonymous": false,
      "inputs": [
        {
          "indexed": false,
          "name": "amountMinted",
          "type": "uint256"
        },
        {
          "indexed": false,
          "name": "totalCost",
          "type": "uint256"
        },
        {
          "indexed": false,
          "name": "minter",
          "type": "address"
        }
      ],
      "name": "LogMint",
      "type": "event"
    },
    {
      "anonymous": false,
      "inputs": [
        {
          "indexed": false,
          "name": "amountWithdrawn",
          "type": "uint256"
        },
        {
          "indexed": false,
          "name": "reward",
          "type": "uint256"
        },
        {
          "indexed": false,
          "name": "seller",
          "type": "address"
        }
      ],
      "name": "LogWithdraw",
      "type": "event"
    },
    {
      "anonymous": false,
      "inputs": [
        {
          "indexed": true,
          "name": "previousOwner",
          "type": "address"
        }
      ],
      "name": "OwnershipRenounced",
      "type": "event"
    },
    {
      "anonymous": false,
      "inputs": [
        {
          "indexed": true,
          "name": "previousOwner",
          "type": "address"
        },
        {
          "indexed": true,
          "name": "newOwner",
          "type": "address"
        }
      ],
      "name": "OwnershipTransferred",
      "type": "event"
    },
    {
      "anonymous": false,
      "inputs": [
        {
          "indexed": true,
          "name": "_from",
          "type": "address"
        },
        {
          "indexed": true,
          "name": "_to",
          "type": "address"
        },
        {
          "indexed": false,
          "name": "_value",
          "type": "uint256"
        }
      ],
      "name": "Transfer",
      "type": "event"
    },
    {
      "anonymous": false,
      "inputs": [
        {
          "indexed": true,
          "name": "_owner",
          "type": "address"
        },
        {
          "indexed": true,
          "name": "_spender",
          "type": "address"
        },
        {
          "indexed": false,
          "name": "_value",
          "type": "uint256"
        }
      ],
      "name": "Approval",
      "type": "event"
    },
    {
      "constant": false,
      "inputs": [],
      "name": "freezeContract",
      "outputs": [],
      "payable": false,
      "stateMutability": "nonpayable",
      "type": "function"
    },
    {
      "constant": false,
      "inputs": [],
      "name": "unfreezeContract",
      "outputs": [],
      "payable": false,
      "stateMutability": "nonpayable",
      "type": "function"
    },
    {
      "constant": false,
      "inputs": [
        {
          "name": "_newTokenRegistry",
          "type": "address"
        }
      ],
      "name": "updateTokenRegistry",
      "outputs": [],
      "payable": false,
      "stateMutability": "nonpayable",
      "type": "function"
    },
    {
      "constant": false,
      "inputs": [
        {
          "name": "_newReputationRegistry",
          "type": "address"
        }
      ],
      "name": "updateReputationRegistry",
      "outputs": [],
      "payable": false,
      "stateMutability": "nonpayable",
      "type": "function"
    },
    {
      "constant": true,
      "inputs": [],
      "name": "currentPrice",
      "outputs": [
        {
          "name": "",
          "type": "uint256"
        }
      ],
      "payable": false,
      "stateMutability": "view",
      "type": "function"
    },
    {
      "constant": true,
      "inputs": [
        {
          "name": "_tokens",
          "type": "uint256"
        }
      ],
      "name": "weiRequired",
      "outputs": [
        {
          "name": "",
          "type": "uint256"
        }
      ],
      "payable": false,
      "stateMutability": "view",
      "type": "function"
    },
    {
      "constant": false,
      "inputs": [
        {
          "name": "_tokens",
          "type": "uint256"
        }
      ],
      "name": "mint",
      "outputs": [],
      "payable": true,
      "stateMutability": "payable",
      "type": "function"
    },
    {
      "constant": false,
      "inputs": [
        {
          "name": "_tokens",
          "type": "uint256"
        }
      ],
      "name": "burn",
      "outputs": [],
      "payable": false,
      "stateMutability": "nonpayable",
      "type": "function"
    },
    {
      "constant": false,
      "inputs": [
        {
          "name": "_tokens",
          "type": "uint256"
        }
      ],
      "name": "sell",
      "outputs": [],
      "payable": false,
      "stateMutability": "nonpayable",
      "type": "function"
    },
    {
      "constant": false,
      "inputs": [
        {
          "name": "_address",
          "type": "address"
        },
        {
          "name": "_weiValue",
          "type": "uint256"
        }
      ],
      "name": "transferWeiTo",
      "outputs": [],
      "payable": false,
      "stateMutability": "nonpayable",
      "type": "function"
    },
    {
      "constant": false,
      "inputs": [
        {
          "name": "_address",
          "type": "address"
        },
        {
          "name": "_tokens",
          "type": "uint256"
        }
      ],
      "name": "transferTokensTo",
      "outputs": [],
      "payable": false,
      "stateMutability": "nonpayable",
      "type": "function"
    },
    {
      "constant": false,
      "inputs": [
        {
          "name": "_weiValue",
          "type": "uint256"
        }
      ],
      "name": "returnWei",
      "outputs": [],
      "payable": false,
      "stateMutability": "nonpayable",
      "type": "function"
    },
    {
      "constant": false,
      "inputs": [
        {
          "name": "_owner",
          "type": "address"
        },
        {
          "name": "_tokens",
          "type": "uint256"
        }
      ],
      "name": "transferToEscrow",
      "outputs": [
        {
          "name": "",
          "type": "bool"
        }
      ],
      "payable": false,
      "stateMutability": "nonpayable",
      "type": "function"
    },
    {
      "constant": false,
      "inputs": [
        {
          "name": "_receipient",
          "type": "address"
        },
        {
          "name": "_tokens",
          "type": "uint256"
        }
      ],
      "name": "transferFromEscrow",
      "outputs": [
        {
          "name": "",
          "type": "bool"
        }
      ],
      "payable": false,
      "stateMutability": "nonpayable",
      "type": "function"
    }
  ],
  "bytecode": "0x6080604052652d79883d2000600a553480156200001b57600080fd5b506040516040806200137583398101604081815282516020938401518284018352601984527f4469737472696275746564205574696c69747920546f6b656e000000000000008585019081528351808501855260038082527f4453540000000000000000000000000000000000000000000000000000000000828901523360009081526001909852948720879055868055855193969295929492936012939192620000c7929162000165565b506004805460ff191660ff84161790558051620000ec90600590602084019062000165565b505060068054600160a060020a031916331790555050600754600160a060020a03161590508015620001275750600854600160a060020a0316155b15156200013357600080fd5b60078054600160a060020a03938416600160a060020a031991821617909155600880549290931691161790556200020a565b828054600181600116156101000203166002900490600052602060002090601f016020900481019282601f10620001a857805160ff1916838001178555620001d8565b82800160010185558215620001d8579182015b82811115620001d8578251825591602001919060010190620001bb565b50620001e6929150620001ea565b5090565b6200020791905b80821115620001e65760008155600101620001f1565b90565b61115b806200021a6000396000f30060806040526004361061018a5763ffffffff7c0100000000000000000000000000000000000000000000000000000000600035041663065d5d0a811461018c57806306fdde03146101b3578063095ea7b31461023d57806318160ddd146102755780631fa915a41461028a57806323b872dd146102ab5780632737c84c146102d557806327e235e3146102ed578063283760fa1461030e5780632be8c2a514610332578063313ce5671461035657806342966c681461038157806353c333cd146103995780635c658165146103bd57806362a5af3b146103e457806370a08231146103f9578063715018a61461041a5780638da5cb5b1461042f578063938225571461046057806395d89b41146104755780639d1b464a1461048a5780639e88fd811461049f578063a0712d68146104c3578063a584a9b5146104ce578063a9059cbb146104e3578063dd62ed3e14610507578063e0a267e01461052e578063e4849b321461054f578063e99364ed14610567578063f2fde38b1461057f578063f4917dd3146105a0575b005b34801561019857600080fd5b506101a16105b5565b60408051918252519081900360200190f35b3480156101bf57600080fd5b506101c86105bb565b6040805160208082528351818301528351919283929083019185019080838360005b838110156102025781810151838201526020016101ea565b50505050905090810190601f16801561022f5780820380516001836020036101000a031916815260200191505b509250505060405180910390f35b34801561024957600080fd5b50610261600160a060020a0360043516602435610649565b604080519115158252519081900360200190f35b34801561028157600080fd5b506101a16106af565b34801561029657600080fd5b5061018a600160a060020a03600435166106b5565b3480156102b757600080fd5b50610261600160a060020a03600435811690602435166044356106fb565b3480156102e157600080fd5b506101a16004356107ff565b3480156102f957600080fd5b506101a1600160a060020a036004351661082c565b34801561031a57600080fd5b50610261600160a060020a036004351660243561083e565b34801561033e57600080fd5b5061018a600160a060020a03600435166024356108fd565b34801561036257600080fd5b5061036b61093c565b6040805160ff9092168252519081900360200190f35b34801561038d57600080fd5b5061018a600435610945565b3480156103a557600080fd5b5061018a600160a060020a03600435166024356109a9565b3480156103c957600080fd5b506101a1600160a060020a0360043581169060243516610a3a565b3480156103f057600080fd5b50610261610a57565b34801561040557600080fd5b506101a1600160a060020a0360043516610a60565b34801561042657600080fd5b5061018a610a7b565b34801561043b57600080fd5b50610444610ae9565b60408051600160a060020a039092168252519081900360200190f35b34801561046c57600080fd5b506101a1610af8565b34801561048157600080fd5b506101c8610afe565b34801561049657600080fd5b506101a1610b59565b3480156104ab57600080fd5b50610261600160a060020a0360043516602435610bad565b61018a600435610c31565b3480156104da57600080fd5b5061018a610d04565b3480156104ef57600080fd5b50610261600160a060020a0360043516602435610d2a565b34801561051357600080fd5b506101a1600160a060020a0360043581169060243516610db4565b34801561053a57600080fd5b5061018a600160a060020a0360043516610ddf565b34801561055b57600080fd5b5061018a600435610e25565b34801561057357600080fd5b5061018a600435610efc565b34801561058b57600080fd5b5061018a600160a060020a0360043516610f2e565b3480156105ac57600080fd5b5061018a610f51565b60095481565b6003805460408051602060026001851615610100026000190190941693909304601f810184900484028201840190925281815292918301828280156106415780601f1061061657610100808354040283529160200191610641565b820191906000526020600020905b81548152906001019060200180831161062457829003601f168201915b505050505081565b336000818152600260209081526040808320600160a060020a038716808552908352818420869055815186815291519394909390927f8c5be1e5ebec7d5bd14f71427d1e84f3dd0314c0f7b2291e5b200ac8c7c3b925928290030190a350600192915050565b60005481565b600654600160a060020a031633146106cc57600080fd5b6007805473ffffffffffffffffffffffffffffffffffffffff1916600160a060020a0392909216919091179055565b600160a060020a03831660008181526002602090815260408083203384528252808320549383526001909152812054909190831180159061073c5750828110155b151561074757600080fd5b600160a060020a03808516600090815260016020526040808220805487019055918716815220805484900390556000198110156107a957600160a060020a03851660009081526002602090815260408083203384529091529020805484900390555b83600160a060020a031685600160a060020a03167fddf252ad1be2c89b69c2b068fc378daa952ba7f163c4a11628f55a4df523b3ef856040518082815260200191505060405180910390a3506001949350505050565b600080821161080d57600080fd5b6108268261081a84610f74565b9063ffffffff61104c16565b92915050565b60016020526000908152604090205481565b600754600090600160a060020a0316331461085857600080fd5b600b5460ff161561086857600080fd5b3360009081526001602052604090205482111561088457600080fd5b336000908152600160205260409020546108a4908363ffffffff61108216565b3360009081526001602052604080822092909255600160a060020a038516815220546108d6908363ffffffff61109416565b600160a060020a038416600090815260016020819052604090912091909155905092915050565b600754600160a060020a0316331461091457600080fd5b6000805482018155600160a060020a0390921682526001602052604090912080549091019055565b60045460ff1681565b600754600160a060020a0316331461095c57600080fd5b600b5460ff161561096c57600080fd5b600054811115801561097e5750600081115b151561098957600080fd5b336000908152600160205260408120805483900390558054919091039055565b600754600160a060020a03163314806109cc5750600854600160a060020a031633145b15156109d757600080fd5b600b5460ff16156109e757600080fd5b6009548111156109f657600080fd5b600980548290039055604051600160a060020a0383169082156108fc029083906000818181858888f19350505050158015610a35573d6000803e3d6000fd5b505050565b600260209081526000928352604080842090915290825290205481565b600b5460ff1681565b600160a060020a031660009081526001602052604090205490565b600654600160a060020a03163314610a9257600080fd5b600654604051600160a060020a03909116907ff8df31144d9c2f0f6b59d69b8b98abd5459d07f2742c4df920b25aae33c6482090600090a26006805473ffffffffffffffffffffffffffffffffffffffff19169055565b600654600160a060020a031681565b600a5481565b6005805460408051602060026001851615610100026000190190941693909304601f810184900484028201840190925281815292918301828280156106415780601f1061061657610100808354040283529160200191610641565b60008060095460001480610b6d5750600054155b15610b7c57600a549150610ba9565b600054600954610b919163ffffffff6110a316565b9050600a548110610ba25780610ba6565b600a545b91505b5090565b600754600090600160a060020a03163314610bc757600080fd5b600b5460ff1615610bd757600080fd5b600160a060020a038316600090815260016020526040902054821115610bfc57600080fd5b50600160a060020a03821660009081526001602081905260408083208054859003905533835290912080548301905592915050565b600b54600090819060ff1615610c4657600080fd5b610c4f836107ff565b915034821115610c5e57600080fd5b60008054840181553380825260016020908152604092839020805487019055600980548601905582518681529081018590528083019190915290517f069f32c3ba6c04af74b4df17018ae12dcb81758b55034ebc186243562f89a1e99181900360600190a181340390506000811115610a3557604051339082156108fc029083906000818181858888f19350505050158015610cfe573d6000803e3d6000fd5b50505050565b600654600160a060020a03163314610d1b57600080fd5b600b805460ff19166001179055565b33600090815260016020526040812054821115610d4657600080fd5b33600081815260016020908152604080832080548790039055600160a060020a03871680845292819020805487019055805186815290519293927fddf252ad1be2c89b69c2b068fc378daa952ba7f163c4a11628f55a4df523b3ef929181900390910190a350600192915050565b600160a060020a03918216600090815260026020908152604080832093909416825291909152205490565b600654600160a060020a03163314610df657600080fd5b6008805473ffffffffffffffffffffffffffffffffffffffff1916600160a060020a0392909216919091179055565b60008082118015610e455750336000908152600160205260409020548211155b1515610e5057600080fd5b610e58610b59565b33600090815260016020526040812080548590039055549083029150610e84908363ffffffff61108216565b6000556009805482900390556040805183815260208101839052338183015290517f58ce9149db93606f6e2fe336cde14f1c115d7afeb11dd3a28934c26dbca189ea9181900360600190a1604051339082156108fc029083906000818181858888f19350505050158015610a35573d6000803e3d6000fd5b600754600160a060020a03163314610f1357600080fd5b600b5460ff1615610f2357600080fd5b600980549091019055565b600654600160a060020a03163314610f4557600080fd5b610f4e816110b1565b50565b600654600160a060020a03163314610f6857600080fd5b600b805460ff19169055565b6000806000610f81610b59565b9150836000540190506103e873__Division______________________________622c1a9e868460036040518463ffffffff167c010000000000000000000000000000000000000000000000000000000002815260040180848152602001838152602001828152602001935050505060206040518083038186803b15801561100857600080fd5b505af415801561101c573d6000803e3d6000fd5b505050506040513d602081101561103257600080fd5b50516103e801830281151561104357fe5b04949350505050565b60008083151561105f576000915061107b565b5082820282848281151561106f57fe5b041461107757fe5b8091505b5092915050565b60008282111561108e57fe5b50900390565b60008282018381101561107757fe5b600080828481151561104357fe5b600160a060020a03811615156110c657600080fd5b600654604051600160a060020a038084169216907f8be0079c531659141344cd1fd0a4f28419497f9722a3daafe3b4186f6b6457e090600090a36006805473ffffffffffffffffffffffffffffffffffffffff1916600160a060020a03929092169190911790555600a165627a7a723058200d686b698dea5819105c48d5742bffdbdd78981baeca38a9e08b6f853a0c21480029",
  "source": "pragma solidity ^0.4.21;\n\nimport \"./library/EIP20.sol\";\nimport \"./library/SafeMath.sol\";\nimport \"./library/Division.sol\";\nimport \"./library/Ownable.sol\";\n\n/**\n@title Bonded Curve Implementation of an ERC20 token\n@author Team: Jessica Marshall, Ashoka Finley\n@notice This contract implements functionality to be controlled by a TokenRegistry & a ReputationRegistry.\n@dev This contract must be initialized with both a TokenRegistry & a ReputationRegistry.\n*/\ncontract DistributeToken is EIP20(0, \"Distributed Utility Token\", 18, \"DST\"), Ownable {\n\n    using SafeMath for uint256;\n\n    // =====================================================================\n    // EVENTS\n    // =====================================================================\n\n    event LogMint(uint256 amountMinted, uint256 totalCost, address minter);\n    event LogWithdraw(uint256 amountWithdrawn, uint256 reward, address seller);\n\n    // =====================================================================\n    // STATE VARIABLES\n    // =====================================================================\n\n    address tokenRegistryAddress;\n    address reputationRegistryAddress;\n\n    uint256 public weiBal;\n\n    // .00005 ether\n    uint256 public baseCost = 50000000000000;\n\n    bool public freeze;\n\n    // =====================================================================\n    // MODIFIERS\n    // =====================================================================\n\n\n    modifier onlyTR() {\n        require(msg.sender == tokenRegistryAddress);\n        _;\n    }\n\n    modifier onlyTRorRR() {\n        require(\n            msg.sender == tokenRegistryAddress ||\n            msg.sender == reputationRegistryAddress\n        );\n        _;\n    }\n\n    // =====================================================================\n    // CONSTRUCTOR\n    // =====================================================================\n\n    /**\n    @dev Initialize the DistributeToken contract with the address of a TokenRegistry contract & a\n    ReputationRegistry contract\n    @param _tokenRegistry Address of the TokenRegistry\n    @param _reputationRegistry Address of the ReputationRegistry\n    */\n    constructor (address _tokenRegistry, address _reputationRegistry) public {\n        require(tokenRegistryAddress == 0 && reputationRegistryAddress == 0);\n        tokenRegistryAddress = _tokenRegistry;\n        reputationRegistryAddress = _reputationRegistry;\n    }\n\n    // =====================================================================\n    // OWNABLE\n    // =====================================================================\n\n    /**\n     * @dev Freezes the distribute token contract and allows existing token holders to withdraw tokens\n     */\n    function freezeContract() external onlyOwner {\n        freeze = true;\n    }\n\n    /**\n     * @dev Unfreezes the distribute token contract and allows existing token holders to withdraw tokens\n     */\n    function unfreezeContract() external onlyOwner {\n        freeze = false;\n    }\n\n    /**\n     * @dev Update the address of the token registry\n     * @param _newTokenRegistry Address of the new token registry\n     */\n    function updateTokenRegistry(address _newTokenRegistry) external onlyOwner {\n        tokenRegistryAddress = _newTokenRegistry;\n    }\n\n    /**\n     * @dev Update the address of the reputation registry\n     * @param _newReputationRegistry Address of the new reputation registry\n     */\n    function updateReputationRegistry(address _newReputationRegistry) external onlyOwner {\n        reputationRegistryAddress = _newReputationRegistry;\n    }\n\n    // =====================================================================\n    // UTILITY\n    // =====================================================================\n\n    /**\n    @notice Returns the current sell price of a token calculated as the contract wei balance divided\n    by the token supply\n    @return The current sell price of 1 token in wei\n    */\n    function currentPrice() public view returns (uint256) {\n        //calculated current burn reward of 1 token at current weiBal and token supply\n        if (weiBal == 0 || totalSupply == 0) { return baseCost; }\n        // If totalTokenSupply is greater than weiBal this will fail\n        uint256 price = weiBal.div(totalSupply);     // added SafeMath\n        return price < baseCost\n            ? baseCost\n            : price;\n    }\n\n    /**\n    @notice Return the wei required to mint `_tokens` tokens\n    @dev Calulates the target price and multiplies it by the number of tokens desired\n    @dev A helper function to provide clarity for mint()\n    @param _tokens The number of tokens requested to be minted\n    @return The wei required to purchase the given amount of tokens\n    */\n    function weiRequired(uint256 _tokens) public view returns (uint256) {\n        require(_tokens > 0);\n        return targetPrice(_tokens).mul(_tokens);\n    }\n\n    /**\n    @notice Calulates the price of `_tokens` tokens dependent on the market share that `_tokens`\n    tokens represent.\n    @dev A helper function to provide clarity for weiRequired()\n    @param _tokens The number of tokens requested to be minted\n    @return The target price of the amount of tokens requested\n    */\n    function targetPrice(uint _tokens) internal view returns (uint256) {\n        uint256 cp = currentPrice();\n        uint256 newSupply = totalSupply + _tokens;\n        return cp * (1000 + Division.percent(_tokens, newSupply, 3)) / 1000;    // does this need SafeMath?\n    }\n\n    // =====================================================================\n    // TOKEN\n    // =====================================================================\n\n    /**\n    @notice Mint `_tokens` tokens, add `_tokens` to the contract totalSupply and add the weiRequired to\n    the contract weiBalance\n    @dev The required amount of wei must be transferred as the msg.value\n    @param _tokens The number of tokens requested to be minted\n    */\n    function mint(uint _tokens) external payable {\n        require(!freeze);\n        uint256 weiRequiredVal = weiRequired(_tokens);\n        require(msg.value >= weiRequiredVal);\n\n        totalSupply += _tokens;\n        balances[msg.sender] += _tokens;\n        weiBal += weiRequiredVal;\n        emit LogMint(_tokens, weiRequiredVal, msg.sender);\n        uint256 fundsLeft = msg.value - weiRequiredVal;\n        if (fundsLeft > 0) { msg.sender.transfer(fundsLeft); }\n    }\n\n    /**\n    @notice Burn `_tokens` tokens by removing them from the total supply, and from the Token Registry\n    balance.\n    @dev Only to be called by the Token Registry initialized during construction\n    @param _tokens The number of tokens to burn\n    */\n    function burn(uint256 _tokens) external onlyTR {\n        require(!freeze);\n        require(_tokens <= totalSupply && _tokens > 0);\n        balances[msg.sender] -= _tokens;\n        totalSupply -= _tokens;\n    }\n\n    /**\n    @notice Sell `_tokens` tokens at the current token price.\n    @dev Checks that `_tokens` is greater than 0 and that `msg.sender` has sufficient balance. The\n    corresponding amount of wei is transferred to the `msg.sender`\n    @param _tokens The number of tokens to sell.\n    */\n    function sell(uint256 _tokens) external {\n        require(_tokens > 0 && (_tokens <= balances[msg.sender]));\n\n        uint256 weiVal = _tokens * currentPrice();\n        balances[msg.sender] -= _tokens;\n        totalSupply = totalSupply.sub(_tokens);\n        weiBal -= weiVal;\n        emit LogWithdraw(_tokens, weiVal, msg.sender);\n        msg.sender.transfer(weiVal);\n    }\n\n    // =====================================================================\n    // TRANSFER\n    // =====================================================================\n\n    /**\n    @notice Transfer `_weiValue` wei to `_address`       // check where this is used and add that here\n    @dev Only callable by the TokenRegistry or ReputationRegistry initialized during contract\n    construction\n    @param _address Recipient of wei value\n    @param _weiValue The amount of wei to transfer to the _address\n    */\n    function transferWeiTo(address _address, uint256 _weiValue) external onlyTRorRR {\n        require(!freeze);\n        require(_weiValue <= weiBal);\n        weiBal -= _weiValue;\n        _address.transfer(_weiValue);\n    }\n\n    /**\n    @notice Transfer `_tokens` wei to `_address`       // check where this is used and add that here\n    @dev Only callable by the TokenRegistry initialized during contract construction\n    @param _address Recipient of tokens\n    @param _tokens The amount of tokens to transfer to the _address\n    */\n\n    function transferTokensTo(address _address, uint256 _tokens) external onlyTR {\n        // check for overflow\n        totalSupply += _tokens;\n        balances[_address] += _tokens;\n    }\n\n    /**\n    @notice Return `_weiValue` wei back to Distribute Token contract\n    @dev Only callable by the TokenRegistry initialized during contract construction\n    @param _weiValue The amount of wei to transfer back to the token contract\n    */\n    function returnWei(uint _weiValue) external onlyTR {\n        require(!freeze);\n        // check for overflow\n        weiBal += _weiValue;\n    }\n\n    /**\n    @notice Transfer `_tokens` tokens from the balance of `_owner` to the TokenRegistry escrow\n    @dev Only callable by the TokenRegistry initialized during contract construction\n    @param _owner Owner of the tokens being transferred\n    @param _tokens The number of tokens to transfer\n    */\n    function transferToEscrow(address _owner, uint256 _tokens) external onlyTR returns (bool) {\n        require(!freeze);\n        require(balances[_owner] >= _tokens);\n        balances[_owner] -= _tokens;\n        balances[msg.sender] += _tokens;\n        return true;\n    }\n\n    /**\n    @notice Transfer `_tokens` tokens from the TokenRegistry escrow to the balance of `_`\n    @dev Only callable by the TokenRegistry initialized during contract construction\n    @param _receipient  address of where the tokens being transferred\n    @param _tokens The number of tokens to transfer\n    */\n    function transferFromEscrow(address _receipient, uint256 _tokens) external onlyTR returns (bool) {\n        require(!freeze);\n        require(balances[msg.sender] >= _tokens);\n        balances[msg.sender] = balances[msg.sender].sub(_tokens);\n        balances[_receipient] = balances[_receipient].add(_tokens);\n        return true;\n    }\n\n    // =====================================================================\n    // FALLBACK\n    // =====================================================================\n\n    function() public payable {}\n\n}\n",
  "sourcePath": "/media/000/Documents/Distribute/distribute-app/contracts/contracts/DistributeToken.sol",
  "compiler": {
    "name": "solc",
    "version": "0.4.24+commit.e67f0147.Emscripten.clang"
  },
  "schemaVersion": "2.0.1",
  "updatedAt": "2018-10-12T18:33:50.838Z"
}