{
  "contractName": "ProjectLibrary",
  "abi": [
    {
      "anonymous": false,
      "inputs": [
        {
          "indexed": false,
          "name": "staker",
          "type": "address"
        },
        {
          "indexed": false,
          "name": "refund",
          "type": "uint256"
        }
      ],
      "name": "TokenRefund",
      "type": "event"
    },
    {
      "anonymous": false,
      "inputs": [
        {
          "indexed": false,
          "name": "projectAddress",
          "type": "address"
        },
        {
          "indexed": false,
          "name": "staker",
          "type": "address"
        },
        {
          "indexed": false,
          "name": "refund",
          "type": "uint256"
        }
      ],
      "name": "ReputationRefund",
      "type": "event"
    },
    {
      "anonymous": false,
      "inputs": [
        {
          "indexed": false,
          "name": "taskAddress",
          "type": "address"
        },
        {
          "indexed": false,
          "name": "projectAddress",
          "type": "address"
        },
        {
          "indexed": false,
          "name": "pollNonce",
          "type": "uint256"
        }
      ],
      "name": "LogTaskVote",
      "type": "event"
    },
    {
      "anonymous": false,
      "inputs": [
        {
          "indexed": false,
          "name": "taskAddress",
          "type": "address"
        },
        {
          "indexed": false,
          "name": "projectAddress",
          "type": "address"
        },
        {
          "indexed": false,
          "name": "confirmation",
          "type": "bool"
        }
      ],
      "name": "LogTaskValidated",
      "type": "event"
    },
    {
      "anonymous": false,
      "inputs": [
        {
          "indexed": false,
          "name": "projectAddress",
          "type": "address"
        },
        {
          "indexed": false,
          "name": "index",
          "type": "uint256"
        },
        {
          "indexed": false,
          "name": "claimer",
          "type": "address"
        },
        {
          "indexed": false,
          "name": "weiReward",
          "type": "uint256"
        },
        {
          "indexed": false,
          "name": "reputationReward",
          "type": "uint256"
        }
      ],
      "name": "LogClaimTaskReward",
      "type": "event"
    },
    {
      "anonymous": false,
      "inputs": [
        {
          "indexed": false,
          "name": "projectAddress",
          "type": "address"
        }
      ],
      "name": "LogProjectExpired",
      "type": "event"
    },
    {
      "constant": true,
      "inputs": [
        {
          "name": "_projectAddress",
          "type": "address"
        },
        {
          "name": "_staker",
          "type": "address"
        }
      ],
      "name": "isStaker",
      "outputs": [
        {
          "name": "",
          "type": "bool"
        }
      ],
      "payable": false,
      "stateMutability": "view",
      "type": "function"
    },
    {
      "constant": true,
      "inputs": [
        {
          "name": "_projectAddress",
          "type": "address"
        }
      ],
      "name": "isStaked",
      "outputs": [
        {
          "name": "",
          "type": "bool"
        }
      ],
      "payable": false,
      "stateMutability": "view",
      "type": "function"
    },
    {
      "constant": true,
      "inputs": [
        {
          "name": "_projectAddress",
          "type": "address"
        }
      ],
      "name": "timesUp",
      "outputs": [
        {
          "name": "",
          "type": "bool"
        }
      ],
      "payable": false,
      "stateMutability": "view",
      "type": "function"
    },
    {
      "constant": true,
      "inputs": [
        {
          "name": "_projectAddress",
          "type": "address"
        },
        {
          "name": "_address",
          "type": "address"
        }
      ],
      "name": "calculateWeightOfAddress",
      "outputs": [
        {
          "name": "",
          "type": "uint256"
        }
      ],
      "payable": false,
      "stateMutability": "view",
      "type": "function"
    },
    {
      "constant": false,
      "inputs": [
        {
          "name": "_projectAddress",
          "type": "address"
        }
      ],
      "name": "checkStaked",
      "outputs": [
        {
          "name": "",
          "type": "bool"
        }
      ],
      "payable": false,
      "stateMutability": "nonpayable",
      "type": "function"
    },
    {
      "constant": false,
      "inputs": [
        {
          "name": "_projectAddress",
          "type": "address"
        },
        {
          "name": "_taskHash",
          "type": "bytes32"
        },
        {
          "name": "_taskListWeighting",
          "type": "uint256"
        },
        {
          "name": "_tokenRegistryAddress",
          "type": "address"
        },
        {
          "name": "_reputationRegistryAddress",
          "type": "address"
        },
        {
          "name": "_distributeTokenAddress",
          "type": "address"
        }
      ],
      "name": "checkActive",
      "outputs": [
        {
          "name": "",
          "type": "bool"
        }
      ],
      "payable": false,
      "stateMutability": "nonpayable",
      "type": "function"
    },
    {
      "constant": false,
      "inputs": [
        {
          "name": "_projectAddress",
          "type": "address"
        },
        {
          "name": "_tokenRegistryAddress",
          "type": "address"
        },
        {
          "name": "_distributeTokenAddress",
          "type": "address"
        }
      ],
      "name": "checkValidate",
      "outputs": [
        {
          "name": "",
          "type": "bool"
        }
      ],
      "payable": false,
      "stateMutability": "nonpayable",
      "type": "function"
    },
    {
      "constant": false,
      "inputs": [
        {
          "name": "_projectAddress",
          "type": "address"
        },
        {
          "name": "_tokenRegistryAddress",
          "type": "address"
        },
        {
          "name": "_distributeTokenAddress",
          "type": "address"
        },
        {
          "name": "_plcrVoting",
          "type": "address"
        }
      ],
      "name": "checkVoting",
      "outputs": [
        {
          "name": "",
          "type": "bool"
        }
      ],
      "payable": false,
      "stateMutability": "nonpayable",
      "type": "function"
    },
    {
      "constant": false,
      "inputs": [
        {
          "name": "_projectAddress",
          "type": "address"
        },
        {
          "name": "_tokenRegistryAddress",
          "type": "address"
        },
        {
          "name": "_distributeTokenAddress",
          "type": "address"
        },
        {
          "name": "_plcrVoting",
          "type": "address"
        },
        {
          "name": "_reputationRegistryAddress",
          "type": "address"
        }
      ],
      "name": "checkEnd",
      "outputs": [
        {
          "name": "",
          "type": "uint256"
        }
      ],
      "payable": false,
      "stateMutability": "nonpayable",
      "type": "function"
    },
    {
      "constant": false,
      "inputs": [
        {
          "name": "_projectAddress",
          "type": "address"
        },
        {
          "name": "_validator",
          "type": "address"
        },
        {
          "name": "_taskIndex",
          "type": "uint256"
        },
        {
          "name": "_validationState",
          "type": "bool"
        }
      ],
      "name": "validate",
      "outputs": [],
      "payable": false,
      "stateMutability": "nonpayable",
      "type": "function"
    },
    {
      "constant": false,
      "inputs": [
        {
          "name": "_projectAddress",
          "type": "address"
        }
      ],
      "name": "calculatePassAmount",
      "outputs": [
        {
          "name": "",
          "type": "uint256"
        }
      ],
      "payable": false,
      "stateMutability": "nonpayable",
      "type": "function"
    },
    {
      "constant": false,
      "inputs": [
        {
          "name": "_projectAddress",
          "type": "address"
        },
        {
          "name": "_index",
          "type": "uint256"
        },
        {
          "name": "_claimer",
          "type": "address"
        }
      ],
      "name": "claimTaskReward",
      "outputs": [
        {
          "name": "",
          "type": "uint256"
        }
      ],
      "payable": false,
      "stateMutability": "nonpayable",
      "type": "function"
    },
    {
      "constant": false,
      "inputs": [
        {
          "name": "_projectAddress",
          "type": "address"
        },
        {
          "name": "_staker",
          "type": "address"
        }
      ],
      "name": "refundStaker",
      "outputs": [
        {
          "name": "",
          "type": "uint256"
        }
      ],
      "payable": false,
      "stateMutability": "nonpayable",
      "type": "function"
    }
  ],
  "bytecode": "0x613d0b610030600b82828239805160001a6073146000811461002057610022565bfe5b5030600052607381538281f30073000000000000000000000000000000000000000030146080604052600436106100c25763ffffffff60e060020a6000350416631e00d38c81146100c7578063247f8e14146100f857806325bc963e1461012d57806343fa21d71461016a5780636177fd181461018457806363878328146101985780637c6d052c146101d357806392fd3fbc14610206578063a3ffcc4714610227578063af8e4c761461024e578063dc4bc5f61461027b578063f60b0d5c146102b4578063f9859219146102ce575b600080fd5b8180156100d357600080fd5b506100f6600160a060020a036004358116906024351660443560643515156102e2565b005b81801561010457600080fd5b50610119600160a060020a0360043516610582565b604080519115158252519081900360200190f35b81801561013957600080fd5b50610158600160a060020a0360043581169060243590604435166107b2565b60408051918252519081900360200190f35b610158600160a060020a0360043581169060243516610ba8565b610119600160a060020a036004351661100f565b8180156101a457600080fd5b50610119600160a060020a03600435811690602435906044359060643581169060843581169060a4351661120a565b8180156101df57600080fd5b50610119600160a060020a03600435811690602435811690604435811690606435166117a3565b81801561021257600080fd5b50610158600160a060020a0360043516612334565b81801561023357600080fd5b50610158600160a060020a0360043581169060243516612616565b81801561025a57600080fd5b50610119600160a060020a0360043581169060243581169060443516612853565b81801561028757600080fd5b50610158600160a060020a0360043581169060243581169060443581169060643581169060843516612d4c565b610119600160a060020a03600435811690602435166137ac565b610119600160a060020a03600435166138d5565b60008085915081600160a060020a031663c19d93fb6040518163ffffffff1660e060020a028152600401602060405180830381600087803b15801561032657600080fd5b505af115801561033a573d6000803e3d6000fd5b505050506040513d602081101561035057600080fd5b505160041461035e57600080fd5b81600160a060020a0316638d977672856040518263ffffffff1660e060020a02815260040180828152602001915050602060405180830381600087803b1580156103a757600080fd5b505af11580156103bb573d6000803e3d6000fd5b505050506040513d60208110156103d157600080fd5b5051604080517f522e11770000000000000000000000000000000000000000000000000000000081529051919250600160a060020a0383169163522e1177916004808201926020929091908290030181600087803b15801561043257600080fd5b505af1158015610446573d6000803e3d6000fd5b505050506040513d602081101561045c57600080fd5b5051151560011461046c57600080fd5b826104f657604080517fabb9406b000000000000000000000000000000000000000000000000000000008152600160a060020a03878116600483015260006024830181905292519084169263abb9406b926044808201939182900301818387803b1580156104d957600080fd5b505af11580156104ed573d6000803e3d6000fd5b5050505061057a565b604080517fabb9406b000000000000000000000000000000000000000000000000000000008152600160a060020a0387811660048301526001602483015291519183169163abb9406b9160448082019260009290919082900301818387803b15801561056157600080fd5b505af1158015610575573d6000803e3d6000fd5b505050505b505050505050565b600080600083915081600160a060020a031663c19d93fb6040518163ffffffff1660e060020a028152600401602060405180830381600087803b1580156105c857600080fd5b505af11580156105dc573d6000803e3d6000fd5b505050506040513d60208110156105f257600080fd5b505160011461060057600080fd5b6106098461100f565b156106f25781600160a060020a031663710c096e6040518163ffffffff1660e060020a028152600401602060405180830381600087803b15801561064c57600080fd5b505af1158015610660573d6000803e3d6000fd5b505050506040513d602081101561067657600080fd5b50516040805160e260020a632e75deff0281526002600482015242909201602483018190529051909250600160a060020a0384169163b9d77bfc91604480830192600092919082900301818387803b1580156106d157600080fd5b505af11580156106e5573d6000803e3d6000fd5b50505050600192506107ab565b6106fb846138d5565b156107a6576040805160e260020a632e75deff028152600860048201526000602482018190529151600160a060020a0385169263b9d77bfc926044808201939182900301818387803b15801561075057600080fd5b505af1158015610764573d6000803e3d6000fd5b505060408051600160a060020a038816815290517f8a2d20119a8f9e329bdf9d217c2ae6154c9dbc7a76f84a508e80c831d1a761659350908190036020019150a15b600092505b5050919050565b600080600080600087935083600160a060020a0316638d977672886040518263ffffffff1660e060020a02815260040180828152602001915050602060405180830381600087803b15801561080657600080fd5b505af115801561081a573d6000803e3d6000fd5b505050506040513d602081101561083057600080fd5b5051604080517fd379be230000000000000000000000000000000000000000000000000000000081529051919450600160a060020a03808916929086169163d379be239160048083019260209291908290030181600087803b15801561089557600080fd5b505af11580156108a9573d6000803e3d6000fd5b505050506040513d60208110156108bf57600080fd5b5051600160a060020a031614801561093d575082600160a060020a031663edb151a86040518163ffffffff1660e060020a028152600401602060405180830381600087803b15801561091057600080fd5b505af1158015610924573d6000803e3d6000fd5b505050506040513d602081101561093a57600080fd5b50515b151561094857600080fd5b82600160a060020a0316637b5668606040518163ffffffff1660e060020a028152600401602060405180830381600087803b15801561098657600080fd5b505af115801561099a573d6000803e3d6000fd5b505050506040513d60208110156109b057600080fd5b5051604080517fed1ff6d80000000000000000000000000000000000000000000000000000000081529051919350600160a060020a0385169163ed1ff6d8916004808201926020929091908290030181600087803b158015610a1157600080fd5b505af1158015610a25573d6000803e3d6000fd5b505050506040513d6020811015610a3b57600080fd5b5051604080517f73cc18da00000000000000000000000000000000000000000000000000000000815260006004820181905260248201819052600160a060020a038a811660448401529251939450918616926373cc18da9260648084019391929182900301818387803b158015610ab157600080fd5b505af1158015610ac5573d6000803e3d6000fd5b5050505083600160a060020a031663b10bbaab87846040518363ffffffff1660e060020a0281526004018083600160a060020a0316600160a060020a0316815260200182815260200192505050600060405180830381600087803b158015610b2c57600080fd5b505af1158015610b40573d6000803e3d6000fd5b505060408051600160a060020a03808d168252602082018c90528a1681830152606081018690526080810185905290517fc2c4343576cc4c1e068e9519653fe8bfe66692ff7af8d10ba5eeb3a14b38677f93509081900360a0019150a1979650505050505050565b6000808084610bb781866137ac565b156110015780600160a060020a031663b23dcdaf6040518163ffffffff1660e060020a028152600401602060405180830381600087803b158015610bfa57600080fd5b505af1158015610c0e573d6000803e3d6000fd5b505050506040513d6020811015610c2457600080fd5b50511515610c36576000925082610dd7565b73__Division______________________________622c1a9e82600160a060020a03166353e0a9be886040518263ffffffff1660e060020a0281526004018082600160a060020a0316600160a060020a03168152602001915050602060405180830381600087803b158015610caa57600080fd5b505af1158015610cbe573d6000803e3d6000fd5b505050506040513d6020811015610cd457600080fd5b5051604080517fb23dcdaf0000000000000000000000000000000000000000000000000000000081529051600160a060020a0386169163b23dcdaf9160048083019260209291908290030181600087803b158015610d3157600080fd5b505af1158015610d45573d6000803e3d6000fd5b505050506040513d6020811015610d5b57600080fd5b50516040805160e060020a63ffffffff861602815260048101939093526024830191909152600f6044830152516064808301926020929190829003018186803b158015610da757600080fd5b505af4158015610dbb573d6000803e3d6000fd5b505050506040513d6020811015610dd157600080fd5b50519250825b5080600160a060020a03166399a033166040518163ffffffff1660e060020a028152600401602060405180830381600087803b158015610e1657600080fd5b505af1158015610e2a573d6000803e3d6000fd5b505050506040513d6020811015610e4057600080fd5b50511515610e52576000915081610ff3565b73__Division______________________________622c1a9e82600160a060020a031663523fba7f886040518263ffffffff1660e060020a0281526004018082600160a060020a0316600160a060020a03168152602001915050602060405180830381600087803b158015610ec657600080fd5b505af1158015610eda573d6000803e3d6000fd5b505050506040513d6020811015610ef057600080fd5b5051604080517f99a033160000000000000000000000000000000000000000000000000000000081529051600160a060020a038616916399a033169160048083019260209291908290030181600087803b158015610f4d57600080fd5b505af1158015610f61573d6000803e3d6000fd5b505050506040513d6020811015610f7757600080fd5b50516040805160e060020a63ffffffff861602815260048101939093526024830191909152600f6044830152516064808301926020929190829003018186803b158015610fc357600080fd5b505af4158015610fd7573d6000803e3d6000fd5b505050506040513d6020811015610fed57600080fd5b50519150815b506002838301049350611006565b600093505b50505092915050565b60008082905080600160a060020a03166312ff35bc6040518163ffffffff1660e060020a028152600401602060405180830381600087803b15801561105357600080fd5b505af1158015611067573d6000803e3d6000fd5b505050506040513d602081101561107d57600080fd5b5051604080517f065d5d0a0000000000000000000000000000000000000000000000000000000081529051600160a060020a0384169163065d5d0a9160048083019260209291908290030181600087803b1580156110da57600080fd5b505af11580156110ee573d6000803e3d6000fd5b505050506040513d602081101561110457600080fd5b505110801590611203575080600160a060020a03166336df7df76040518163ffffffff1660e060020a028152600401602060405180830381600087803b15801561114d57600080fd5b505af1158015611161573d6000803e3d6000fd5b505050506040513d602081101561117757600080fd5b5051604080517fb23dcdaf0000000000000000000000000000000000000000000000000000000081529051600160a060020a0384169163b23dcdaf9160048083019260209291908290030181600087803b1580156111d457600080fd5b505af11580156111e8573d6000803e3d6000fd5b505050506040513d60208110156111fe57600080fd5b505110155b9392505050565b600080600088915081600160a060020a031663c19d93fb6040518163ffffffff1660e060020a028152600401602060405180830381600087803b15801561125057600080fd5b505af1158015611264573d6000803e3d6000fd5b505050506040513d602081101561127a57600080fd5b505160021461128857600080fd5b611291896138d5565b156117925787158015906112a55750603287115b1561138e5781600160a060020a031663ff04322d6040518163ffffffff1660e060020a028152600401602060405180830381600087803b1580156112e857600080fd5b505af11580156112fc573d6000803e3d6000fd5b505050506040513d602081101561131257600080fd5b50516040805160e260020a632e75deff0281526003600482015242909201602483018190529051909250600160a060020a0384169163b9d77bfc91604480830192600092919082900301818387803b15801561136d57600080fd5b505af1158015611381573d6000803e3d6000fd5b5050505060019250611797565b6040805160e260020a632e75deff028152600760048201526000602482018190529151600160a060020a0385169263b9d77bfc926044808201939182900301818387803b1580156113de57600080fd5b505af11580156113f2573d6000803e3d6000fd5b5050505085600160a060020a0316636d1b229d83600160a060020a03166399a033166040518163ffffffff1660e060020a028152600401602060405180830381600087803b15801561144357600080fd5b505af1158015611457573d6000803e3d6000fd5b505050506040513d602081101561146d57600080fd5b50516040805160e060020a63ffffffff8516028152600481019290925251602480830192600092919082900301818387803b1580156114ab57600080fd5b505af11580156114bf573d6000803e3d6000fd5b5050505084600160a060020a0316639c6c343983600160a060020a031663b23dcdaf6040518163ffffffff1660e060020a028152600401602060405180830381600087803b15801561151057600080fd5b505af1158015611524573d6000803e3d6000fd5b505050506040513d602081101561153a57600080fd5b50516040805160e060020a63ffffffff8516028152600481019290925251602480830192600092919082900301818387803b15801561157857600080fd5b505af115801561158c573d6000803e3d6000fd5b5050505085600160a060020a03166375f6857b83600160a060020a031663065d5d0a6040518163ffffffff1660e060020a028152600401602060405180830381600087803b1580156115dd57600080fd5b505af11580156115f1573d6000803e3d6000fd5b505050506040513d602081101561160757600080fd5b50516040805160e060020a63ffffffff8516028152600481019290925251602480830192600092919082900301818387803b15801561164557600080fd5b505af1158015611659573d6000803e3d6000fd5b5050505081600160a060020a0316637ec20fe88584600160a060020a031663065d5d0a6040518163ffffffff1660e060020a028152600401602060405180830381600087803b1580156116ab57600080fd5b505af11580156116bf573d6000803e3d6000fd5b505050506040513d60208110156116d557600080fd5b50516040805160e060020a63ffffffff8616028152600160a060020a039093166004840152602483019190915251604480830192600092919082900301818387803b15801561172357600080fd5b505af1158015611737573d6000803e3d6000fd5b5050505081600160a060020a031663476da5666040518163ffffffff1660e060020a028152600401600060405180830381600087803b15801561177957600080fd5b505af115801561178d573d6000803e3d6000fd5b505050505b600092505b50509695505050505050565b60008060008060008060008060008c975087600160a060020a031663c19d93fb6040518163ffffffff1660e060020a028152600401602060405180830381600087803b1580156117f257600080fd5b505af1158015611806573d6000803e3d6000fd5b505050506040513d602081101561181c57600080fd5b505160041461182a57600080fd5b6118338d6138d5565b1561231f5787600160a060020a031663b7eabbf96040518163ffffffff1660e060020a028152600401602060405180830381600087803b15801561187657600080fd5b505af115801561188a573d6000803e3d6000fd5b505050506040513d60208110156118a057600080fd5b5051604080517fb11eda5a0000000000000000000000000000000000000000000000000000000081529051600160a060020a038b169163b11eda5a9160048083019260209291908290030181600087803b1580156118fd57600080fd5b505af1158015611911573d6000803e3d6000fd5b505050506040513d602081101561192757600080fd5b50516040805160e260020a632e75deff028152600560048201524290920192909201602482018190529151919850600160a060020a038a169163b9d77bfc9160448082019260009290919082900301818387803b15801561198757600080fd5b505af115801561199b573d6000803e3d6000fd5b505050508b9550899450600093505b87600160a060020a031663c17a340e6040518163ffffffff1660e060020a028152600401602060405180830381600087803b1580156119e857600080fd5b505af11580156119fc573d6000803e3d6000fd5b505050506040513d6020811015611a1257600080fd5b50518410156123165787600160a060020a0316638d977672856040518263ffffffff1660e060020a02815260040180828152602001915050602060405180830381600087803b158015611a6457600080fd5b505af1158015611a78573d6000803e3d6000fd5b505050506040513d6020811015611a8e57600080fd5b5051604080517f522e11770000000000000000000000000000000000000000000000000000000081529051919450600160a060020a0385169163522e1177916004808201926020929091908290030181600087803b158015611aef57600080fd5b505af1158015611b03573d6000803e3d6000fd5b505050506040513d6020811015611b1957600080fd5b50511561230b5782600160a060020a031663704d31266040518163ffffffff1660e060020a028152600401602060405180830381600087803b158015611b5e57600080fd5b505af1158015611b72573d6000803e3d6000fd5b505050506040513d6020811015611b8857600080fd5b5051151580611bff575082600160a060020a031663fc6ebece6040518163ffffffff1660e060020a028152600401602060405180830381600087803b158015611bd057600080fd5b505af1158015611be4573d6000803e3d6000fd5b505050506040513d6020811015611bfa57600080fd5b505115155b1515611c0a57600080fd5b82600160a060020a031663704d31266040518163ffffffff1660e060020a028152600401602060405180830381600087803b158015611c4857600080fd5b505af1158015611c5c573d6000803e3d6000fd5b505050506040513d6020811015611c7257600080fd5b505115801590611cea575082600160a060020a031663fc6ebece6040518163ffffffff1660e060020a028152600401602060405180830381600087803b158015611cbb57600080fd5b505af1158015611ccf573d6000803e3d6000fd5b505050506040513d6020811015611ce557600080fd5b505115155b15611f545784600160a060020a03166332ed3d6060338a600160a060020a031663b11eda5a6040518163ffffffff1660e060020a028152600401602060405180830381600087803b158015611d3e57600080fd5b505af1158015611d52573d6000803e3d6000fd5b505050506040513d6020811015611d6857600080fd5b5051604080517fb7eabbf90000000000000000000000000000000000000000000000000000000081529051600160a060020a038e169163b7eabbf99160048083019260209291908290030181600087803b158015611dc557600080fd5b505af1158015611dd9573d6000803e3d6000fd5b505050506040513d6020811015611def57600080fd5b50516040805160e060020a63ffffffff87160281526004810194909452602484019290925260448301525160648083019260209291908290030181600087803b158015611e3b57600080fd5b505af1158015611e4f573d6000803e3d6000fd5b505050506040513d6020811015611e6557600080fd5b5051604080517fa58fcbaa000000000000000000000000000000000000000000000000000000008152600481018390529051919350600160a060020a0385169163a58fcbaa9160248082019260009290919082900301818387803b158015611ecc57600080fd5b505af1158015611ee0573d6000803e3d6000fd5b505050507ff9c1ff30cd80dfe5edf038abaaeaae7e397d81edf49212bb6a48b4b4945b35f0838e846040518084600160a060020a0316600160a060020a0316815260200183600160a060020a0316600160a060020a03168152602001828152602001935050505060405180910390a161230b565b82600160a060020a031663fc6ebece6040518163ffffffff1660e060020a028152600401602060405180830381600087803b158015611f9257600080fd5b505af1158015611fa6573d6000803e3d6000fd5b505050506040513d6020811015611fbc57600080fd5b505115156120a157604080517fb1ed11d1000000000000000000000000000000000000000000000000000000008152600160048201529051600160a060020a0385169163b1ed11d19160248083019260209291908290030181600087803b15801561202657600080fd5b505af115801561203a573d6000803e3d6000fd5b505050506040513d602081101561205057600080fd5b505060408051600160a060020a0380861682528f16602082015260018183015290517f978ee0a4f44fe5ddffb59f674aaad2064b139b1148bfdd1f79982c4b50ccbe939181900360600190a161230b565b82600160a060020a031663b1ed11d160006040518263ffffffff1660e060020a0281526004018082151515158152602001915050602060405180830381600087803b1580156120ef57600080fd5b505af1158015612103573d6000803e3d6000fd5b505050506040513d602081101561211957600080fd5b5050604080517f7b5668600000000000000000000000000000000000000000000000000000000081529051600160a060020a03851691637b5668609160048083019260209291908290030181600087803b15801561217657600080fd5b505af115801561218a573d6000803e3d6000fd5b505050506040513d60208110156121a057600080fd5b5051604080517f75f6857b000000000000000000000000000000000000000000000000000000008152600481018390529051919250600160a060020a038816916375f6857b9160248082019260009290919082900301818387803b15801561220757600080fd5b505af115801561221b573d6000803e3d6000fd5b5050505087600160a060020a0316637ec20fe88c836040518363ffffffff1660e060020a0281526004018083600160a060020a0316600160a060020a0316815260200182815260200192505050600060405180830381600087803b15801561228257600080fd5b505af1158015612296573d6000803e3d6000fd5b505050507f978ee0a4f44fe5ddffb59f674aaad2064b139b1148bfdd1f79982c4b50ccbe93838e60006040518084600160a060020a0316600160a060020a0316815260200183600160a060020a0316600160a060020a0316815260200182151515158152602001935050505060405180910390a15b6001909301926119aa565b60019850612324565b600098505b5050505050505050949350505050565b600080600080600085935083600160a060020a031663c19d93fb6040518163ffffffff1660e060020a028152600401602060405180830381600087803b15801561237d57600080fd5b505af1158015612391573d6000803e3d6000fd5b505050506040513d60208110156123a757600080fd5b50516005146123b557600080fd5b600091505b83600160a060020a031663c17a340e6040518163ffffffff1660e060020a028152600401602060405180830381600087803b1580156123f857600080fd5b505af115801561240c573d6000803e3d6000fd5b505050506040513d602081101561242257600080fd5b50518210156125ab5783600160a060020a0316638d977672836040518263ffffffff1660e060020a02815260040180828152602001915050602060405180830381600087803b15801561247457600080fd5b505af1158015612488573d6000803e3d6000fd5b505050506040513d602081101561249e57600080fd5b5051604080517fedb151a80000000000000000000000000000000000000000000000000000000081529051919250600160a060020a0383169163edb151a8916004808201926020929091908290030181600087803b1580156124ff57600080fd5b505af1158015612513573d6000803e3d6000fd5b505050506040513d602081101561252957600080fd5b5051156125a05780600160a060020a031663599b6d236040518163ffffffff1660e060020a028152600401602060405180830381600087803b15801561256e57600080fd5b505af1158015612582573d6000803e3d6000fd5b505050506040513d602081101561259857600080fd5b505192909201915b6001909101906123ba565b83600160a060020a0316630df44ec5846040518263ffffffff1660e060020a02815260040180828152602001915050600060405180830381600087803b1580156125f457600080fd5b505af1158015612608573d6000803e3d6000fd5b509498975050505050505050565b60008083905080600160a060020a031663c19d93fb6040518163ffffffff1660e060020a028152600401602060405180830381600087803b15801561265a57600080fd5b505af115801561266e573d6000803e3d6000fd5b505050506040513d602081101561268457600080fd5b5051600614806126fd575080600160a060020a031663c19d93fb6040518163ffffffff1660e060020a028152600401602060405180830381600087803b1580156126cd57600080fd5b505af11580156126e1573d6000803e3d6000fd5b505050506040513d60208110156126f757600080fd5b50516008145b151561270857600080fd5b604080517fb532b1130000000000000000000000000000000000000000000000000000000081523360048201529051600160a060020a0383169163b532b1139160248083019260209291908290030181600087803b15801561276957600080fd5b505af115801561277d573d6000803e3d6000fd5b505050506040513d602081101561279357600080fd5b5051156127ab576127a48184613949565b915061284c565b604080517fb5b298380000000000000000000000000000000000000000000000000000000081523360048201529051600160a060020a0383169163b5b298389160248083019260209291908290030181600087803b15801561280c57600080fd5b505af1158015612820573d6000803e3d6000fd5b505050506040513d602081101561283657600080fd5b505115612847576127a48184613b11565b600091505b5092915050565b600080600080600080600089955085600160a060020a031663c19d93fb6040518163ffffffff1660e060020a028152600401602060405180830381600087803b15801561289f57600080fd5b505af11580156128b3573d6000803e3d6000fd5b505050506040513d60208110156128c957600080fd5b50516003146128d757600080fd5b6128e08a6138d5565b15612d3a5785600160a060020a031663859558966040518163ffffffff1660e060020a028152600401602060405180830381600087803b15801561292357600080fd5b505af1158015612937573d6000803e3d6000fd5b505050506040513d602081101561294d57600080fd5b50516040805160e260020a632e75deff02815260048181015242909201602483018190529051909650600160a060020a0388169163b9d77bfc91604480830192600092919082900301818387803b1580156129a757600080fd5b505af11580156129bb573d6000803e3d6000fd5b50505050889350600092505b85600160a060020a031663c17a340e6040518163ffffffff1660e060020a028152600401602060405180830381600087803b158015612a0557600080fd5b505af1158015612a19573d6000803e3d6000fd5b505050506040513d6020811015612a2f57600080fd5b5051831015612d315785600160a060020a0316638d977672846040518263ffffffff1660e060020a02815260040180828152602001915050602060405180830381600087803b158015612a8157600080fd5b505af1158015612a95573d6000803e3d6000fd5b505050506040513d6020811015612aab57600080fd5b5051604080517f522e11770000000000000000000000000000000000000000000000000000000081529051919350600160a060020a0384169163522e1177916004808201926020929091908290030181600087803b158015612b0c57600080fd5b505af1158015612b20573d6000803e3d6000fd5b505050506040513d6020811015612b3657600080fd5b50511515612d265781600160a060020a0316637b5668606040518163ffffffff1660e060020a028152600401602060405180830381600087803b158015612b7c57600080fd5b505af1158015612b90573d6000803e3d6000fd5b505050506040513d6020811015612ba657600080fd5b5051604080517f75f6857b000000000000000000000000000000000000000000000000000000008152600481018390529051919250600160a060020a038616916375f6857b9160248082019260009290919082900301818387803b158015612c0d57600080fd5b505af1158015612c21573d6000803e3d6000fd5b5050505085600160a060020a0316637ec20fe889836040518363ffffffff1660e060020a0281526004018083600160a060020a0316600160a060020a0316815260200182815260200192505050600060405180830381600087803b158015612c8857600080fd5b505af1158015612c9c573d6000803e3d6000fd5b5050604080517f73cc18da00000000000000000000000000000000000000000000000000000000815260006004820181905260248201819052604482018190529151600160a060020a03871694506373cc18da93506064808301939282900301818387803b158015612d0d57600080fd5b505af1158015612d21573d6000803e3d6000fd5b505050505b6001909201916129c7565b60019650612d3f565b600096505b5050505050509392505050565b60008060008060008060008b955085600160a060020a031663c19d93fb6040518163ffffffff1660e060020a028152600401602060405180830381600087803b158015612d9857600080fd5b505af1158015612dac573d6000803e3d6000fd5b505050506040513d6020811015612dc257600080fd5b5051600514612dd057600080fd5b612dd98c6138d5565b15613798578a9450889350600092505b85600160a060020a031663c17a340e6040518163ffffffff1660e060020a028152600401602060405180830381600087803b158015612e2757600080fd5b505af1158015612e3b573d6000803e3d6000fd5b505050506040513d6020811015612e5157600080fd5b50518310156133c65785600160a060020a0316638d977672846040518263ffffffff1660e060020a02815260040180828152602001915050602060405180830381600087803b158015612ea357600080fd5b505af1158015612eb7573d6000803e3d6000fd5b505050506040513d6020811015612ecd57600080fd5b5051604080517f6f13ab000000000000000000000000000000000000000000000000000000000081529051919350600160a060020a03841691636f13ab00916004808201926020929091908290030181600087803b158015612f2e57600080fd5b505af1158015612f42573d6000803e3d6000fd5b505050506040513d6020811015612f5857600080fd5b5051156133bb5783600160a060020a031663ee68483083600160a060020a0316636f13ab006040518163ffffffff1660e060020a028152600401602060405180830381600087803b158015612fac57600080fd5b505af1158015612fc0573d6000803e3d6000fd5b505050506040513d6020811015612fd657600080fd5b50516040805160e060020a63ffffffff851602815260048101929092525160248083019260209291908290030181600087803b15801561301557600080fd5b505af1158015613029573d6000803e3d6000fd5b505050506040513d602081101561303f57600080fd5b5051156133bb5783600160a060020a0316634940318383600160a060020a0316636f13ab006040518163ffffffff1660e060020a028152600401602060405180830381600087803b15801561309357600080fd5b505af11580156130a7573d6000803e3d6000fd5b505050506040513d60208110156130bd57600080fd5b50516040805160e060020a63ffffffff851602815260048101929092525160248083019260209291908290030181600087803b1580156130fc57600080fd5b505af1158015613110573d6000803e3d6000fd5b505050506040513d602081101561312657600080fd5b5051156131c157604080517fb1ed11d1000000000000000000000000000000000000000000000000000000008152600160048201529051600160a060020a0384169163b1ed11d19160248083019260209291908290030181600087803b15801561318f57600080fd5b505af11580156131a3573d6000803e3d6000fd5b505050506040513d60208110156131b957600080fd5b506133bb9050565b81600160a060020a031663b1ed11d160006040518263ffffffff1660e060020a0281526004018082151515158152602001915050602060405180830381600087803b15801561320f57600080fd5b505af1158015613223573d6000803e3d6000fd5b505050506040513d602081101561323957600080fd5b5050604080517f7b5668600000000000000000000000000000000000000000000000000000000081529051600160a060020a03841691637b5668609160048083019260209291908290030181600087803b15801561329657600080fd5b505af11580156132aa573d6000803e3d6000fd5b505050506040513d60208110156132c057600080fd5b5051604080517f75f6857b000000000000000000000000000000000000000000000000000000008152600481018390529051919250600160a060020a038716916375f6857b9160248082019260009290919082900301818387803b15801561332757600080fd5b505af115801561333b573d6000803e3d6000fd5b5050505085600160a060020a0316637ec20fe88b836040518363ffffffff1660e060020a0281526004018083600160a060020a0316600160a060020a0316815260200182815260200192505050600060405180830381600087803b1580156133a257600080fd5b505af11580156133b6573d6000803e3d6000fd5b505050505b600190920191612de9565b6133cf8c612334565b5085600160a060020a0316634b3a9a2c6040518163ffffffff1660e060020a028152600401602060405180830381600087803b15801561340e57600080fd5b505af1158015613422573d6000803e3d6000fd5b505050506040513d602081101561343857600080fd5b5051604080517f9bebba0a0000000000000000000000000000000000000000000000000000000081529051600160a060020a03891691639bebba0a9160048083019260209291908290030181600087803b15801561349557600080fd5b505af11580156134a9573d6000803e3d6000fd5b505050506040513d60208110156134bf57600080fd5b505110613537576040805160e260020a632e75deff028152600660048201526000602482018190529151600160a060020a0389169263b9d77bfc926044808201939182900301818387803b15801561351657600080fd5b505af115801561352a573d6000803e3d6000fd5b505050506001965061379d565b6040805160e260020a632e75deff028152600760048201526000602482018190529151600160a060020a0389169263b9d77bfc926044808201939182900301818387803b15801561358757600080fd5b505af115801561359b573d6000803e3d6000fd5b505050508a600160a060020a0316636d1b229d87600160a060020a03166399a033166040518163ffffffff1660e060020a028152600401602060405180830381600087803b1580156135ec57600080fd5b505af1158015613600573d6000803e3d6000fd5b505050506040513d602081101561361657600080fd5b50516040805160e060020a63ffffffff8516028152600481019290925251602480830192600092919082900301818387803b15801561365457600080fd5b505af1158015613668573d6000803e3d6000fd5b5050505087600160a060020a0316639c6c343987600160a060020a031663b23dcdaf6040518163ffffffff1660e060020a028152600401602060405180830381600087803b1580156136b957600080fd5b505af11580156136cd573d6000803e3d6000fd5b505050506040513d60208110156136e357600080fd5b50516040805160e060020a63ffffffff8516028152600481019290925251602480830192600092919082900301818387803b15801561372157600080fd5b505af1158015613735573d6000803e3d6000fd5b5050505085600160a060020a031663476da5666040518163ffffffff1660e060020a028152600401600060405180830381600087803b15801561377757600080fd5b505af115801561378b573d6000803e3d6000fd5b505050506002965061379d565b600096505b50505050505095945050505050565b600080839050600081600160a060020a031663523fba7f856040518263ffffffff1660e060020a0281526004018082600160a060020a0316600160a060020a03168152602001915050602060405180830381600087803b15801561380f57600080fd5b505af1158015613823573d6000803e3d6000fd5b505050506040513d602081101561383957600080fd5b505111806138cd5750600081600160a060020a03166353e0a9be856040518263ffffffff1660e060020a0281526004018082600160a060020a0316600160a060020a03168152602001915050602060405180830381600087803b15801561389f57600080fd5b505af11580156138b3573d6000803e3d6000fd5b505050506040513d60208110156138c957600080fd5b5051115b949350505050565b600081600160a060020a031663205179846040518163ffffffff1660e060020a028152600401602060405180830381600087803b15801561391557600080fd5b505af1158015613929573d6000803e3d6000fd5b505050506040513d602081101561393f57600080fd5b5051421192915050565b60008083600160a060020a03166399a033166040518163ffffffff1660e060020a028152600401602060405180830381600087803b15801561398a57600080fd5b505af115801561399e573d6000803e3d6000fd5b505050506040513d60208110156139b457600080fd5b505115613ac657606484600160a060020a0316639bebba0a6040518163ffffffff1660e060020a028152600401602060405180830381600087803b1580156139fb57600080fd5b505af1158015613a0f573d6000803e3d6000fd5b505050506040513d6020811015613a2557600080fd5b5051604080517f523fba7f000000000000000000000000000000000000000000000000000000008152600160a060020a03878116600483015291519188169163523fba7f916024808201926020929091908290030181600087803b158015613a8c57600080fd5b505af1158015613aa0573d6000803e3d6000fd5b505050506040513d6020811015613ab657600080fd5b505102811515613ac257fe5b0490505b60408051600160a060020a03851681526020810183905281517f50ea9274879b4e2a584129ff0e7d656cf15144ef80e8935d4cf890390f8f1580929181900390910190a19392505050565b60008083600160a060020a031663b23dcdaf6040518163ffffffff1660e060020a028152600401602060405180830381600087803b158015613b5257600080fd5b505af1158015613b66573d6000803e3d6000fd5b505050506040513d6020811015613b7c57600080fd5b505115613c8e57606484600160a060020a0316639bebba0a6040518163ffffffff1660e060020a028152600401602060405180830381600087803b158015613bc357600080fd5b505af1158015613bd7573d6000803e3d6000fd5b505050506040513d6020811015613bed57600080fd5b5051604080517f53e0a9be000000000000000000000000000000000000000000000000000000008152600160a060020a0387811660048301529151918816916353e0a9be916024808201926020929091908290030181600087803b158015613c5457600080fd5b505af1158015613c68573d6000803e3d6000fd5b505050506040513d6020811015613c7e57600080fd5b505102811515613c8a57fe5b0490505b60408051600160a060020a0380871682528516602082015280820183905290517f4a0f9497a6a719002da342ea1c08ed0834369f978c47d05dceaed8389fadb4d49181900360600190a193925050505600a165627a7a72305820579143aea69d514025e91e6dec99aeba415231b53d0b45006551c664c6c8562e0029",
  "source": "pragma solidity ^0.4.21;\n\nimport \"./Project.sol\";\nimport \"./TokenRegistry.sol\";\nimport \"./ProjectRegistry.sol\";\nimport \"./ReputationRegistry.sol\";\nimport \"./Task.sol\";\nimport \"./library/SafeMath.sol\";\nimport \"./library/PLCRVoting.sol\";\nimport \"./library/Division.sol\";\n\n/**\n@title Function Library for Distribute Network Projects\n@author Team: Jessica Marshall, Ashoka Finley\n@dev This library is imported into all the Registries to manage project interactions\n*/\nlibrary ProjectLibrary {\n\n  using SafeMath for uint256;\n\n    // =====================================================================\n    // EVENTS\n    // =====================================================================\n\n    event TokenRefund(address staker, uint256 refund);\n    event ReputationRefund(address projectAddress, address staker, uint256 refund);\n    event LogTaskVote(address taskAddress, address projectAddress, uint pollNonce);\n    event LogTaskValidated(address taskAddress, address projectAddress, bool confirmation);\n    event LogClaimTaskReward(address projectAddress, uint256 index, address claimer, uint256 weiReward, uint256 reputationReward);\n    event LogProjectExpired(address projectAddress);\n\n    // =====================================================================\n    // UTILITY\n    // =====================================================================\n\n    /**\n    @notice Returns true if `_staker` is either a token or reputation staker on project at `_projectAddress`\n    @dev Used to define control access to relevant project functions\n    @param _projectAddress Address of the project\n    @param _staker Address of the staker\n    @return A boolean representing staker status\n    */\n    function isStaker(address _projectAddress, address _staker) public view returns(bool) {\n        Project project = Project(_projectAddress);\n        return project.tokenBalances(_staker) > 0 || project.reputationBalances(_staker) > 0;\n    }\n\n    /**\n    @notice Return true if the project at `_projectAddress` is fully staked with both tokens and reputation\n    @dev Check project staked status\n    @param _projectAddress Address of the project\n    @return A boolean representing the project staked status\n    */\n    function isStaked(address _projectAddress) public view returns (bool) {\n        Project project = Project(_projectAddress);\n        return project.weiBal() >= project.weiCost() && project.reputationStaked() >= project.reputationCost();\n    }\n\n    /**\n    @notice Return true if the current time is greater than the next deadline of the project at `_projectAddress`\n    @dev Uses block.timestamp as a time variable. Note that this is subject to variability\n    @param _projectAddress Address of the project\n    @return A boolean representing whether the project has passed its next deadline.\n    */\n    function timesUp(address _projectAddress) public view returns (bool) {\n        return (now > Project(_projectAddress).nextDeadline());\n    }\n\n    /**\n    @notice Calculates the relative staking weight of `_address` on project at `_projectAddress.\n    Weighting is calculated by the proportional amount of both reputation and tokens that have been\n    staked on the project.\n    @dev Returns an average of the token staking and reputation staking to understand the relative influence of a staker\n    @param _projectAddress Address of the project\n    @param _address Address of the staker\n    @return The relative weight of a staker as a whole integer\n    */\n    function calculateWeightOfAddress(\n        address _projectAddress,\n        address _address\n    ) public view returns (uint256) {\n        uint256 reputationWeight;\n        uint256 tokenWeight;\n        Project project = Project(_projectAddress);\n        if(isStaker(_projectAddress, _address)){\n          project.reputationStaked() != 0\n              ? reputationWeight = Division.percent(\n                  project.reputationBalances(_address),\n                  project.reputationStaked(), 15)\n              : reputationWeight = 0;\n          project.tokensStaked() != 0\n              ? tokenWeight = Division.percent(project.tokenBalances(_address), project.tokensStaked(), 15)\n              : tokenWeight = 0;\n          return (reputationWeight + tokenWeight) / 2;\n        }\n        return 0;\n    }\n\n    // =====================================================================\n    // STATE CHANGE\n    // =====================================================================\n\n    /**\n    @notice Checks if project at `_projectAddress` is fully staked with both reputation and tokens.\n    If the project is staked the project moves to state 2: Staked, and the next deadline is set.\n    If the current time is passed the staking period, the project expires and is moved to state 8: Expired.\n    @dev The nextDeadline value for the staked state is set in the project state variables.\n    @param _projectAddress Address of the project.\n    @return Returns a bool denoting the project is in the staked state.\n    */\n    function checkStaked(address _projectAddress) public returns (bool) {\n        Project project = Project(_projectAddress);\n        require(project.state() == 1);\n\n        if(isStaked(_projectAddress)) {\n            uint256 nextDeadline = now + project.stakedStatePeriod();\n            project.setState(2, nextDeadline);\n            return true;\n        } else if(timesUp(_projectAddress)) {\n            project.setState(8, 0);\n            // this line bugs for some reason\n            /* project.clearProposerStake(); */\n            emit LogProjectExpired(_projectAddress);\n        }\n        return false;\n    }\n\n    /**\n    @notice Checks if the project at `_projectAddress` has passed its next deadline, and if a\n    valid task hash exists, meaning that the accounts who have staked on the project have successfully\n    curated a list of tasks relating to project work. If a task hash exists the project is moved\n    to state 3: Active and the next deadline is set. If no task hash exists once the deadline has passed,\n    the project is moved to state 7: Failed.\n    @dev The nextDeadline value for the active state is set in the project state variables.\n    @param _projectAddress Address of the project\n    @param _taskHash Address of the top weighted task hash\n    @return Returns a bool denoting the project is in the active state.\n    */\n    function checkActive(address _projectAddress, bytes32 _taskHash, uint256 _taskListWeighting, address _tokenRegistryAddress, address _reputationRegistryAddress, address _distributeTokenAddress) public returns (bool) {\n        Project project = Project(_projectAddress);\n        require(project.state() == 2);\n\n        if(timesUp(_projectAddress)) {\n            uint256 nextDeadline;\n            if(_taskHash != 0 && _taskListWeighting > 50) {\n                nextDeadline = now + project.activeStatePeriod();\n                project.setState(3, nextDeadline);\n                return true;\n            } else {\n                project.setState(7, 0);\n                TokenRegistry(_tokenRegistryAddress).burnTokens(project.tokensStaked());\n                ReputationRegistry(_reputationRegistryAddress).burnReputation(project.reputationStaked());\n                TokenRegistry(_tokenRegistryAddress).revertWei(project.weiBal());\n                project.returnWei(_distributeTokenAddress, project.weiBal());\n                project.clearStake();\n            }\n        }\n        return false;\n    }\n\n    /**\n    @notice Checks if the project at `_projectAddress` has passed its next deadline, and if it has\n    moves the project to state 4: Validation. It interates through the project task list and checks if the\n    project tasks have been marked complete. If a task hasn't been marked complete, its wei reward,\n    is returned to the network balance, the task reward is zeroed.\n    @dev This is an interative function and gas costs will vary depending on the number of tasks.\n    @param _projectAddress Address of the project\n    @param _tokenRegistryAddress Address of the systems Token Registry contract\n    @param _distributeTokenAddress Address of the systems DistributeToken contract\n    @return Returns a bool denoting if the project is in the validation state.\n    */\n    function checkValidate(\n        address _projectAddress,\n        address _tokenRegistryAddress,\n        address _distributeTokenAddress\n    ) public returns (bool) {\n        Project project = Project(_projectAddress);\n        require(project.state() == 3);\n\n        if (timesUp(_projectAddress)) {\n            uint256 nextDeadline = now + project.validateStatePeriod();\n            project.setState(4, nextDeadline);\n            TokenRegistry tr = TokenRegistry(_tokenRegistryAddress);\n            for(uint i = 0; i < project.getTaskCount(); i++) {\n                Task task = Task(project.tasks(i));\n                if (task.complete() == false) {\n                    uint reward = task.weiReward();\n                    tr.revertWei(reward);\n                    project.returnWei(_distributeTokenAddress, reward);\n                    task.setTaskReward(0, 0, 0);\n                }\n            }\n            return true;\n        }\n        return false;\n    }\n\n    /**\n    @notice Checks if the project at `_projectAddress` has passed its next deadline, and if it has,\n    moves the project to state 5: Voting. It iterates through the project task list and checks if\n    there are opposing validators for each task. If there are then its starts a plcr for each\n    disputed task, otherwise it marks the task claimable by the validators, as well as by the reputation holder\n    who claimed the task if the validators approved the task.\n    @dev This is an interative function and gas costs will vary depending on the number of tasks.\n    @param _projectAddress Address of the project\n    @param _tokenRegistryAddress Address of the systems token registry contract\n    @param _distributeTokenAddress Address of the systems token contract\n    @param _plcrVoting Address of the systems PLCR Voting contract\n    @return Returns a bool denoting if the project is in the voting state.\n    */\n    function checkVoting(\n        address _projectAddress,\n        address _tokenRegistryAddress,\n        address _distributeTokenAddress,\n        address _plcrVoting\n    ) public returns (bool) {\n        Project project = Project(_projectAddress);\n        require(project.state() == 4);\n        if (timesUp(_projectAddress)) {\n            uint256 nextDeadline = now + project.voteCommitPeriod() + project.voteRevealPeriod();\n            project.setState(5, nextDeadline);\n            TokenRegistry tr = TokenRegistry(_tokenRegistryAddress);\n            PLCRVoting plcr = PLCRVoting(_plcrVoting);\n            for(uint i = 0; i < project.getTaskCount(); i++) {\n                Task task = Task(project.tasks(i));\n                if (task.complete()) {\n                    // require that one of the indexes is not zero, meaning that a validator existss\n                    require(task.affirmativeIndex() != 0 || task.negativeIndex() != 0);\n                    if (task.affirmativeIndex() != 0 && task.negativeIndex() != 0) { // there is an opposing validator, poll required\n                        uint pollNonce = plcr.startPoll(51, project.voteCommitPeriod(), project.voteRevealPeriod());\n                        task.setPollId(pollNonce); // function handles storage of voting pollId\n                        emit LogTaskVote(task, _projectAddress, pollNonce);\n                    } else {\n                        if (task.negativeIndex() == 0) {\n                          // this means that there are no negative validators, the task passes, and reward is claimable.\n                          task.markTaskClaimable(true);\n                          emit LogTaskValidated(task, _projectAddress, true);\n                        } else {\n                          task.markTaskClaimable(false);\n                          uint reward = task.weiReward();\n                          tr.revertWei(reward);\n                          project.returnWei(_distributeTokenAddress, reward);\n                          emit LogTaskValidated(task, _projectAddress, false);\n                        }\n                    }\n                }\n            }\n            return true;\n        }\n        return false;\n    }\n\n    /**\n    @notice Checks if the project at `_projectAddress` has passed its next deadline. It iterates through\n    the project task list, and checks the projects which have polls to see the poll state. If the poll has\n    passed the task is marked claimable by both the approve validators and the task claimer. Otherwise\n    the task is marked claimable for the deny validators, and the task reward is returned to the networks\n    wei balance. The amount of tasks that have passed is then calculated. If the total weighting of those\n    tasks passes the project passThreshold then the project is moved to state 6: Complete, otherwise it\n    moves to state 7: Expired.\n    @dev The project pass passThreshold is set in the project state variables\n    @param _projectAddress Address of the project\n    @param _tokenRegistryAddress Address of the systems token registry contract\n    @param _distributeTokenAddress Address of the systems token contract\n    @param _plcrVoting Address of the systems PLCR Voting contract\n    @return Returns a bool denoting if the project is its final state.\n    */\n    function checkEnd(\n        address _projectAddress,\n        address _tokenRegistryAddress,\n        address _distributeTokenAddress,\n        address _plcrVoting,\n        address _reputationRegistryAddress\n    ) public returns (uint) {\n        Project project = Project(_projectAddress);\n        require(project.state() == 5);\n\n        if (timesUp(_projectAddress)) {\n            TokenRegistry tr = TokenRegistry(_tokenRegistryAddress);\n            PLCRVoting plcr = PLCRVoting(_plcrVoting);\n            for (uint i = 0; i < project.getTaskCount(); i++) {\n                Task task = Task(project.tasks(i));\n                if (task.pollId() != 0) {      // check tasks with polls only\n                    if (plcr.pollEnded(task.pollId())) {\n                        if (plcr.isPassed(task.pollId())) {\n                            task.markTaskClaimable(true);\n                        } else {\n                            task.markTaskClaimable(false);\n                            uint reward = task.weiReward();\n                            tr.revertWei(reward);\n                            project.returnWei(_distributeTokenAddress, reward);\n                        }\n                    }\n                }\n            }\n            calculatePassAmount(_projectAddress);\n            if (project.passAmount() >= project.passThreshold()) {\n              project.setState(6, 0);\n              return 1;\n            } else {\n              project.setState(7, 0);\n              TokenRegistry(_tokenRegistryAddress).burnTokens(project.tokensStaked());\n              ReputationRegistry(_reputationRegistryAddress).burnReputation(project.reputationStaked());\n              project.clearStake();\n              return 2;\n            }\n        }\n        return 0;\n    }\n\n    // =====================================================================\n    // VALIDATION\n    // =====================================================================\n\n    /**\n    @notice Stake tokens on whether the task at index `i` has been successful or not. Validator\n    `_validator` can validate either approve or deny, with `tokens` tokens.\n    @param _projectAddress Address of the project\n    @param _validator Address of the validator\n    @param _taskIndex Index of the task in the projects task array\n    @param _validationState Bool representing validators choice.s\n    */\n    function validate(\n        address _projectAddress,\n        address _validator,\n        uint256 _taskIndex,\n        bool _validationState\n    ) public {\n        Project project = Project(_projectAddress);\n        require(project.state() == 4);\n        Task task = Task(project.tasks(_taskIndex));\n        require(task.complete() == true);\n        _validationState\n            ? task.setValidator(_validator, 1)\n            : task.setValidator(_validator, 0);\n    }\n\n    /**\n    @notice Calculates the amount of tasks that have passed for project at `_projectAddress`\n    @param _projectAddress Address of the project\n    @return Sum of the weightings of the task which have passed.\n    */\n    function calculatePassAmount(address _projectAddress) public returns (uint){\n        Project project = Project(_projectAddress);\n        require(project.state() == 5);\n\n        uint totalWeighting;\n        for (uint i = 0; i < project.getTaskCount(); i++) {\n            Task task = Task(project.tasks(i));\n            if (task.claimableByRep()) { totalWeighting += task.weighting(); }\n        }\n        project.setPassAmount(totalWeighting);\n        return totalWeighting;\n    }\n\n    // =====================================================================\n    // TASK\n    // =====================================================================\n\n    /**\n    @notice Claim the task reward from task at index `_index` from the task array of project at\n    `_projectAddress`. If task is claimable by the reputation holder, Clears the task reward, and\n    transfers the wei reward to the task claimer. Returns the reputation reward for the claimer.\n    @param _projectAddress Address of the project\n    @param _index Index of the task in project task array\n    @param _claimer Address of account claiming task reward.\n    @return The amount of reputation the claimer staked on the task\n    */\n    function claimTaskReward(\n        address _projectAddress,\n        uint256 _index,\n        address _claimer\n    ) public returns (uint256) {\n        Project project = Project(_projectAddress);\n        Task task = Task(project.tasks(_index));\n        require(task.claimer() == _claimer && task.claimableByRep());\n\n        uint256 weiReward = task.weiReward();\n        uint256 reputationReward = task.reputationReward();\n        task.setTaskReward(0, 0, _claimer);\n        project.transferWeiReward(_claimer, weiReward);\n        emit LogClaimTaskReward(_projectAddress, _index, _claimer, weiReward, reputationReward);\n        return reputationReward;\n    }\n\n    // =====================================================================\n    // STAKER\n    // =====================================================================\n\n    /**\n    @notice Refund both either reputation or token staker `_staker` for project at address `_projectAddress`\n    @dev Calls internal functions to handle either staker case.\n    @param _projectAddress Address of the project\n    @param _staker Address of the staker\n    @return The amount to be refunded to the staker.\n    */\n    function refundStaker(address _projectAddress, address _staker) public returns (uint256) {\n        Project project = Project(_projectAddress);\n        require(project.state() == 6 || project.state() == 8);\n\n        if (project.isTR(msg.sender)) {\n            return handleTokenStaker(project, _staker);\n        } else if (project.isRR(msg.sender)) {\n            return handleReputationStaker(project, _staker);\n        } else {\n            return 0;\n        }\n    }\n\n    /**\n    @notice Handle token staker at _address on project `_project`, stake reward is multiplied by the pass amount.\n    @dev Only used internally.\n    @param _project Project instance\n    @param _staker Token staker address\n    @return The token refund to be returned to the token staker.\n    */\n    function handleTokenStaker(Project _project, address _staker) internal returns (uint256) {\n        uint256 refund;\n        // account for proportion of successful tasks\n        if(_project.tokensStaked() != 0) {\n            refund = _project.tokenBalances(_staker) * _project.passAmount() / 100;\n        }\n        emit TokenRefund(_staker, refund);\n        return refund;\n    }\n\n    /**\n    @notice Handle reputation staker at _address on project `_project`, stake reward is multiplied by the pass amount.\n    @dev Only used internally.\n    @param _project Project instance\n    @param _staker Reputation staker address\n    @return The reputation refund to be returned to the reputation staker.\n    */\n    function handleReputationStaker(Project _project, address _staker) internal returns (uint256) {\n        uint256 refund;\n        if(_project.reputationStaked() != 0) {\n            refund = _project.reputationBalances(_staker) * _project.passAmount() / 100;\n        }\n        emit ReputationRefund(address(_project), _staker, refund);\n        return refund;\n    }\n}\n",
  "sourcePath": "/media/000/Documents/Distribute/distribute-app/contracts/contracts/ProjectLibrary.sol",
  "compiler": {
    "name": "solc",
    "version": "0.4.24+commit.e67f0147.Emscripten.clang"
  },
  "schemaVersion": "2.0.1",
  "updatedAt": "2018-10-12T18:33:50.872Z"
}