{
  "contractName": "Project",
  "abi": [
    {
      "constant": true,
      "inputs": [],
      "name": "reputationRegistryAddress",
      "outputs": [
        {
          "name": "",
          "type": "address"
        }
      ],
      "payable": false,
      "stateMutability": "view",
      "type": "function"
    },
    {
      "constant": true,
      "inputs": [],
      "name": "weiBal",
      "outputs": [
        {
          "name": "",
          "type": "uint256"
        }
      ],
      "payable": false,
      "stateMutability": "view",
      "type": "function"
    },
    {
      "constant": true,
      "inputs": [],
      "name": "proposerStake",
      "outputs": [
        {
          "name": "",
          "type": "uint256"
        }
      ],
      "payable": false,
      "stateMutability": "view",
      "type": "function"
    },
    {
      "constant": true,
      "inputs": [],
      "name": "weiCost",
      "outputs": [
        {
          "name": "",
          "type": "uint256"
        }
      ],
      "payable": false,
      "stateMutability": "view",
      "type": "function"
    },
    {
      "constant": true,
      "inputs": [],
      "name": "proposerType",
      "outputs": [
        {
          "name": "",
          "type": "uint256"
        }
      ],
      "payable": false,
      "stateMutability": "view",
      "type": "function"
    },
    {
      "constant": true,
      "inputs": [],
      "name": "nextDeadline",
      "outputs": [
        {
          "name": "",
          "type": "uint256"
        }
      ],
      "payable": false,
      "stateMutability": "view",
      "type": "function"
    },
    {
      "constant": true,
      "inputs": [],
      "name": "reputationCost",
      "outputs": [
        {
          "name": "",
          "type": "uint256"
        }
      ],
      "payable": false,
      "stateMutability": "view",
      "type": "function"
    },
    {
      "constant": true,
      "inputs": [],
      "name": "hashListSubmitted",
      "outputs": [
        {
          "name": "",
          "type": "bool"
        }
      ],
      "payable": false,
      "stateMutability": "view",
      "type": "function"
    },
    {
      "constant": true,
      "inputs": [],
      "name": "passThreshold",
      "outputs": [
        {
          "name": "",
          "type": "uint256"
        }
      ],
      "payable": false,
      "stateMutability": "view",
      "type": "function"
    },
    {
      "constant": true,
      "inputs": [
        {
          "name": "",
          "type": "address"
        }
      ],
      "name": "tokenBalances",
      "outputs": [
        {
          "name": "",
          "type": "uint256"
        }
      ],
      "payable": false,
      "stateMutability": "view",
      "type": "function"
    },
    {
      "constant": true,
      "inputs": [
        {
          "name": "",
          "type": "address"
        }
      ],
      "name": "reputationBalances",
      "outputs": [
        {
          "name": "",
          "type": "uint256"
        }
      ],
      "payable": false,
      "stateMutability": "view",
      "type": "function"
    },
    {
      "constant": true,
      "inputs": [],
      "name": "turnoverTime",
      "outputs": [
        {
          "name": "",
          "type": "uint256"
        }
      ],
      "payable": false,
      "stateMutability": "view",
      "type": "function"
    },
    {
      "constant": true,
      "inputs": [],
      "name": "proposedCost",
      "outputs": [
        {
          "name": "",
          "type": "uint256"
        }
      ],
      "payable": false,
      "stateMutability": "view",
      "type": "function"
    },
    {
      "constant": true,
      "inputs": [],
      "name": "tokenRegistryAddress",
      "outputs": [
        {
          "name": "",
          "type": "address"
        }
      ],
      "payable": false,
      "stateMutability": "view",
      "type": "function"
    },
    {
      "constant": true,
      "inputs": [],
      "name": "stakedStatePeriod",
      "outputs": [
        {
          "name": "",
          "type": "uint256"
        }
      ],
      "payable": false,
      "stateMutability": "view",
      "type": "function"
    },
    {
      "constant": true,
      "inputs": [],
      "name": "validateStatePeriod",
      "outputs": [
        {
          "name": "",
          "type": "uint256"
        }
      ],
      "payable": false,
      "stateMutability": "view",
      "type": "function"
    },
    {
      "constant": true,
      "inputs": [],
      "name": "validationReward",
      "outputs": [
        {
          "name": "",
          "type": "uint256"
        }
      ],
      "payable": false,
      "stateMutability": "view",
      "type": "function"
    },
    {
      "constant": true,
      "inputs": [
        {
          "name": "",
          "type": "uint256"
        }
      ],
      "name": "tasks",
      "outputs": [
        {
          "name": "",
          "type": "address"
        }
      ],
      "payable": false,
      "stateMutability": "view",
      "type": "function"
    },
    {
      "constant": true,
      "inputs": [],
      "name": "tokensStaked",
      "outputs": [
        {
          "name": "",
          "type": "uint256"
        }
      ],
      "payable": false,
      "stateMutability": "view",
      "type": "function"
    },
    {
      "constant": true,
      "inputs": [],
      "name": "passAmount",
      "outputs": [
        {
          "name": "",
          "type": "uint256"
        }
      ],
      "payable": false,
      "stateMutability": "view",
      "type": "function"
    },
    {
      "constant": true,
      "inputs": [],
      "name": "proposer",
      "outputs": [
        {
          "name": "",
          "type": "address"
        }
      ],
      "payable": false,
      "stateMutability": "view",
      "type": "function"
    },
    {
      "constant": true,
      "inputs": [],
      "name": "voteCommitPeriod",
      "outputs": [
        {
          "name": "",
          "type": "uint256"
        }
      ],
      "payable": false,
      "stateMutability": "view",
      "type": "function"
    },
    {
      "constant": true,
      "inputs": [],
      "name": "reputationStaked",
      "outputs": [
        {
          "name": "",
          "type": "uint256"
        }
      ],
      "payable": false,
      "stateMutability": "view",
      "type": "function"
    },
    {
      "constant": true,
      "inputs": [],
      "name": "projectRegistryAddress",
      "outputs": [
        {
          "name": "",
          "type": "address"
        }
      ],
      "payable": false,
      "stateMutability": "view",
      "type": "function"
    },
    {
      "constant": true,
      "inputs": [],
      "name": "voteRevealPeriod",
      "outputs": [
        {
          "name": "",
          "type": "uint256"
        }
      ],
      "payable": false,
      "stateMutability": "view",
      "type": "function"
    },
    {
      "constant": true,
      "inputs": [],
      "name": "state",
      "outputs": [
        {
          "name": "",
          "type": "uint256"
        }
      ],
      "payable": false,
      "stateMutability": "view",
      "type": "function"
    },
    {
      "constant": true,
      "inputs": [],
      "name": "ipfsHash",
      "outputs": [
        {
          "name": "",
          "type": "bytes"
        }
      ],
      "payable": false,
      "stateMutability": "view",
      "type": "function"
    },
    {
      "constant": true,
      "inputs": [],
      "name": "activeStatePeriod",
      "outputs": [
        {
          "name": "",
          "type": "uint256"
        }
      ],
      "payable": false,
      "stateMutability": "view",
      "type": "function"
    },
    {
      "inputs": [],
      "payable": false,
      "stateMutability": "nonpayable",
      "type": "constructor"
    },
    {
      "payable": true,
      "stateMutability": "payable",
      "type": "fallback"
    },
    {
      "anonymous": false,
      "inputs": [
        {
          "indexed": false,
          "name": "weiCost",
          "type": "uint256"
        },
        {
          "indexed": false,
          "name": "reputationCost",
          "type": "uint256"
        },
        {
          "indexed": false,
          "name": "state",
          "type": "uint256"
        },
        {
          "indexed": false,
          "name": "nextDeadline",
          "type": "uint256"
        },
        {
          "indexed": false,
          "name": "proposer",
          "type": "address"
        },
        {
          "indexed": false,
          "name": "proposerType",
          "type": "uint256"
        },
        {
          "indexed": false,
          "name": "ipfsHash",
          "type": "bytes"
        },
        {
          "indexed": false,
          "name": "stakedStatePeriod",
          "type": "uint256"
        },
        {
          "indexed": false,
          "name": "activeStatePeriod",
          "type": "uint256"
        },
        {
          "indexed": false,
          "name": "turnoverTime",
          "type": "uint256"
        },
        {
          "indexed": false,
          "name": "validateStatePeriod",
          "type": "uint256"
        },
        {
          "indexed": false,
          "name": "voteCommitPeriod",
          "type": "uint256"
        },
        {
          "indexed": false,
          "name": "voteRevealPeriod",
          "type": "uint256"
        },
        {
          "indexed": false,
          "name": "passThreshold",
          "type": "uint256"
        }
      ],
      "name": "LogProjectDetails",
      "type": "event"
    },
    {
      "constant": true,
      "inputs": [
        {
          "name": "_sender",
          "type": "address"
        }
      ],
      "name": "isTR",
      "outputs": [
        {
          "name": "",
          "type": "bool"
        }
      ],
      "payable": false,
      "stateMutability": "view",
      "type": "function"
    },
    {
      "constant": true,
      "inputs": [
        {
          "name": "_sender",
          "type": "address"
        }
      ],
      "name": "isRR",
      "outputs": [
        {
          "name": "",
          "type": "bool"
        }
      ],
      "payable": false,
      "stateMutability": "view",
      "type": "function"
    },
    {
      "constant": false,
      "inputs": [
        {
          "name": "_cost",
          "type": "uint256"
        },
        {
          "name": "_costProportion",
          "type": "uint256"
        },
        {
          "name": "_stakingPeriod",
          "type": "uint256"
        },
        {
          "name": "_proposer",
          "type": "address"
        },
        {
          "name": "_proposerType",
          "type": "uint256"
        },
        {
          "name": "_proposerStake",
          "type": "uint256"
        },
        {
          "name": "_ipfsHash",
          "type": "bytes"
        },
        {
          "name": "_reputationRegistry",
          "type": "address"
        },
        {
          "name": "_tokenRegistry",
          "type": "address"
        }
      ],
      "name": "setup",
      "outputs": [],
      "payable": false,
      "stateMutability": "nonpayable",
      "type": "function"
    },
    {
      "constant": true,
      "inputs": [],
      "name": "getTaskCount",
      "outputs": [
        {
          "name": "",
          "type": "uint256"
        }
      ],
      "payable": false,
      "stateMutability": "view",
      "type": "function"
    },
    {
      "constant": false,
      "inputs": [
        {
          "name": "_state",
          "type": "uint256"
        },
        {
          "name": "_nextDeadline",
          "type": "uint256"
        }
      ],
      "name": "setState",
      "outputs": [],
      "payable": false,
      "stateMutability": "nonpayable",
      "type": "function"
    },
    {
      "constant": false,
      "inputs": [],
      "name": "clearProposerStake",
      "outputs": [],
      "payable": false,
      "stateMutability": "nonpayable",
      "type": "function"
    },
    {
      "constant": false,
      "inputs": [
        {
          "name": "_staker",
          "type": "address"
        }
      ],
      "name": "clearTokenStake",
      "outputs": [],
      "payable": false,
      "stateMutability": "nonpayable",
      "type": "function"
    },
    {
      "constant": false,
      "inputs": [
        {
          "name": "_staker",
          "type": "address"
        }
      ],
      "name": "clearReputationStake",
      "outputs": [],
      "payable": false,
      "stateMutability": "nonpayable",
      "type": "function"
    },
    {
      "constant": false,
      "inputs": [],
      "name": "clearStake",
      "outputs": [],
      "payable": false,
      "stateMutability": "nonpayable",
      "type": "function"
    },
    {
      "constant": false,
      "inputs": [
        {
          "name": "_tasksLength",
          "type": "uint256"
        }
      ],
      "name": "setTaskLength",
      "outputs": [],
      "payable": false,
      "stateMutability": "nonpayable",
      "type": "function"
    },
    {
      "constant": false,
      "inputs": [
        {
          "name": "_taskAddress",
          "type": "address"
        },
        {
          "name": "_index",
          "type": "uint256"
        }
      ],
      "name": "setTaskAddress",
      "outputs": [],
      "payable": false,
      "stateMutability": "nonpayable",
      "type": "function"
    },
    {
      "constant": false,
      "inputs": [],
      "name": "setHashListSubmitted",
      "outputs": [],
      "payable": false,
      "stateMutability": "nonpayable",
      "type": "function"
    },
    {
      "constant": false,
      "inputs": [
        {
          "name": "_passAmount",
          "type": "uint256"
        }
      ],
      "name": "setPassAmount",
      "outputs": [],
      "payable": false,
      "stateMutability": "nonpayable",
      "type": "function"
    },
    {
      "constant": false,
      "inputs": [
        {
          "name": "_staker",
          "type": "address"
        },
        {
          "name": "_tokens",
          "type": "uint256"
        },
        {
          "name": "_weiValue",
          "type": "uint256"
        }
      ],
      "name": "stakeTokens",
      "outputs": [],
      "payable": false,
      "stateMutability": "nonpayable",
      "type": "function"
    },
    {
      "constant": false,
      "inputs": [
        {
          "name": "_staker",
          "type": "address"
        },
        {
          "name": "_tokens",
          "type": "uint256"
        },
        {
          "name": "_distributeTokenAddress",
          "type": "address"
        }
      ],
      "name": "unstakeTokens",
      "outputs": [
        {
          "name": "",
          "type": "uint256"
        }
      ],
      "payable": false,
      "stateMutability": "nonpayable",
      "type": "function"
    },
    {
      "constant": false,
      "inputs": [
        {
          "name": "_staker",
          "type": "address"
        },
        {
          "name": "_reputation",
          "type": "uint256"
        }
      ],
      "name": "stakeReputation",
      "outputs": [],
      "payable": false,
      "stateMutability": "nonpayable",
      "type": "function"
    },
    {
      "constant": false,
      "inputs": [
        {
          "name": "_staker",
          "type": "address"
        },
        {
          "name": "_reputation",
          "type": "uint256"
        }
      ],
      "name": "unstakeReputation",
      "outputs": [],
      "payable": false,
      "stateMutability": "nonpayable",
      "type": "function"
    },
    {
      "constant": false,
      "inputs": [
        {
          "name": "_rewardee",
          "type": "address"
        },
        {
          "name": "_reward",
          "type": "uint256"
        }
      ],
      "name": "transferWeiReward",
      "outputs": [],
      "payable": false,
      "stateMutability": "nonpayable",
      "type": "function"
    },
    {
      "constant": false,
      "inputs": [
        {
          "name": "_distributeToken",
          "type": "address"
        },
        {
          "name": "_value",
          "type": "uint256"
        }
      ],
      "name": "returnWei",
      "outputs": [],
      "payable": false,
      "stateMutability": "nonpayable",
      "type": "function"
    }
  ],
  "bytecode": "0x608060405234801561001057600080fd5b5061136a806100206000396000f3006080604052600436106102395763ffffffff7c010000000000000000000000000000000000000000000000000000000060003504166232be7f811461023b57806303f2f9281461026c578063065d5d0a1461029057806306a5ab2c146102b75780630c328306146102d85780630cff8e8f146102ed5780630df44ec51461031457806312ff35bc1461032c57806316ddf02114610341578063181f8d2414610356578063205179841461038157806326c1bffe1461039657806336df7df7146103ab578063378c12da146103c05780633c79fe74146103e9578063476da5661461040d5780634b3a9a2c14610422578063523fba7f1461043757806353e0a9be146104585780635a6fb81f146104795780635b9c161a1461048e5780635be2aca0146104a3578063710c096e146104b8578063764c8a00146104cd5780637ec20fe8146104ee5780637f306ba11461051257806385955896146105365780638a77e9151461054b5780638cf86deb146105635780638d9776721461057857806399a03316146105905780639bebba0a146105a5578063a8e4fb90146105ba578063b10bbaab146105cf578063b11eda5a146105f3578063b23dcdaf14610608578063b532b1131461061d578063b56750fd1461063e578063b5b2983814610653578063b7eabbf914610674578063b9d77bfc14610689578063c17a340e146106a4578063c19d93fb146106b9578063c623674f146106ce578063cbd368bc14610758578063f58a1adb1461076d578063ff04322d14610800575b005b34801561024757600080fd5b50610250610815565b60408051600160a060020a039092168252519081900360200190f35b34801561027857600080fd5b50610239600160a060020a0360043516602435610824565b34801561029c57600080fd5b506102a561088b565b60408051918252519081900360200190f35b3480156102c357600080fd5b50610239600160a060020a0360043516610891565b3480156102e457600080fd5b506102a56108c2565b3480156102f957600080fd5b50610239600160a060020a03600435166024356044356108c8565b34801561032057600080fd5b50610239600435610954565b34801561033857600080fd5b506102a5610970565b34801561034d57600080fd5b506102a5610976565b34801561036257600080fd5b506102a5600160a060020a03600435811690602435906044351661097c565b34801561038d57600080fd5b506102a5610b11565b3480156103a257600080fd5b50610239610b17565b3480156103b757600080fd5b506102a5610b3d565b3480156103cc57600080fd5b506103d5610b43565b604080519115158252519081900360200190f35b3480156103f557600080fd5b50610239600160a060020a0360043516602435610b4c565b34801561041957600080fd5b50610239610bf7565b34801561042e57600080fd5b506102a5610c1a565b34801561044357600080fd5b506102a5600160a060020a0360043516610c20565b34801561046457600080fd5b506102a5600160a060020a0360043516610c32565b34801561048557600080fd5b506102a5610c44565b34801561049a57600080fd5b506102a5610c4a565b3480156104af57600080fd5b50610250610c50565b3480156104c457600080fd5b506102a5610c5f565b3480156104d957600080fd5b50610239600160a060020a0360043516610c65565b3480156104fa57600080fd5b50610239600160a060020a0360043516602435610c96565b34801561051e57600080fd5b50610239600160a060020a0360043516602435610d00565b34801561054257600080fd5b506102a5610d76565b34801561055757600080fd5b50610239600435610d7c565b34801561056f57600080fd5b506102a5610da3565b34801561058457600080fd5b50610250600435610da9565b34801561059c57600080fd5b506102a5610dd1565b3480156105b157600080fd5b506102a5610dd7565b3480156105c657600080fd5b50610250610ddd565b3480156105db57600080fd5b50610239600160a060020a0360043516602435610dec565b3480156105ff57600080fd5b506102a5610e1a565b34801561061457600080fd5b506102a5610e20565b34801561062957600080fd5b506103d5600160a060020a0360043516610e26565b34801561064a57600080fd5b50610250610e4c565b34801561065f57600080fd5b506103d5600160a060020a0360043516610e5b565b34801561068057600080fd5b506102a5610e7a565b34801561069557600080fd5b50610239600435602435610e80565b3480156106b057600080fd5b506102a5610ea2565b3480156106c557600080fd5b506102a5610ea9565b3480156106da57600080fd5b506106e3610eaf565b6040805160208082528351818301528351919283929083019185019080838360005b8381101561071d578181015183820152602001610705565b50505050905090810190601f16801561074a5780820380516001836020036101000a031916815260200191505b509250505060405180910390f35b34801561076457600080fd5b50610239610f3d565b34801561077957600080fd5b50604080516020601f60c43560048181013592830184900484028501840190955281845261023994803594602480359560443595600160a060020a0360643516956084359560a435953695919460e494919390920191819084018382808284375094975050600160a060020a038535811696506020909501359094169350610f5b92505050565b34801561080c57600080fd5b506102a5611254565b600154600160a060020a031681565b600254600160a060020a0316331461083b57600080fd5b600380541461084957600080fd5b81601b8281548110151561085957fe5b9060005260206000200160006101000a815481600160a060020a030219169083600160a060020a031602179055505050565b600e5481565b600054600160a060020a031633146108a857600080fd5b600160a060020a0316600090815260176020526040812055565b600d5481565b600054600160a060020a031633146108df57600080fd5b6003546001146108ee57600080fd5b600160a060020a038316600090815260176020526040902054610917818463ffffffff61125a16565b1161092157600080fd5b600160a060020a039092166000908152601760205260409020805482019055601580549091019055600e80549091019055565b600254600160a060020a0316331461096b57600080fd5b601a55565b60125481565b600c5481565b600080548190600160a060020a0316331461099657600080fd5b6003546001146109a557600080fd5b600160a060020a0385166000908152601760205260409020546109ce818663ffffffff61127016565b11156109d957600080fd5b6402540be400600e5473__Division______________________________622c1a9e87601554600a6040518463ffffffff167c010000000000000000000000000000000000000000000000000000000002815260040180848152602001838152602001828152602001935050505060206040518083038186803b158015610a5f57600080fd5b505af4158015610a73573d6000803e3d6000fd5b505050506040513d6020811015610a8957600080fd5b505102811515610a9557fe5b049050600e548111151515610aa957600080fd5b600160a060020a0380861660009081526017602052604080822080548890039055601580548890039055600e80548590039055519185169183156108fc0291849190818181858888f19350505050158015610b08573d6000803e3d6000fd5b50949350505050565b600f5481565b600254600160a060020a03163314610b2e57600080fd5b6019805460ff19166001179055565b60135481565b60195460ff1681565b600154600160a060020a03163314610b6357600080fd5b600354600114610b7257600080fd5b600160a060020a038216600090815260186020526040902054610b9b818363ffffffff61127016565b108015610bc05750600160a060020a0382166000908152601860205260409020548111155b1515610bcb57600080fd5b600160a060020a0390911660009081526018602052604090208054829003905560168054919091039055565b600254600160a060020a03163314610c0e57600080fd5b60006015819055601655565b600a5481565b60176020526000908152604090205481565b60186020526000908152604090205481565b60065481565b60105481565b600054600160a060020a031681565b60045481565b600154600160a060020a03163314610c7c57600080fd5b600160a060020a0316600090815260186020526040812055565b600254600160a060020a03163314610cad57600080fd5b600e54811115610cbc57600080fd5b600e80548290039055604051600160a060020a0383169082156108fc029083906000818181858888f19350505050158015610cfb573d6000803e3d6000fd5b505050565b600154600160a060020a03163314610d1757600080fd5b600354600114610d2657600080fd5b600160a060020a03821660009081526018602052604090205481810111610d4c57600080fd5b600160a060020a039091166000908152601860205260409020805482019055601680549091019055565b60075481565b600254600160a060020a03163314610d9357600080fd5b80610d9f601b82611282565b5050565b60115481565b601b805482908110610db757fe5b600091825260209091200154600160a060020a0316905081565b60155481565b601a5481565b600b54600160a060020a031681565b600054600160a060020a0316331480610e0f5750600154600160a060020a031633145b1515610cad57600080fd5b60085481565b60165481565b60008054600160a060020a03838116911614610e43576000610e46565b60015b92915050565b600254600160a060020a031681565b600154600090600160a060020a03838116911614610e43576000610e46565b60095481565b600254600160a060020a03163314610e9757600080fd5b600391909155600f55565b601b545b90565b60035481565b6014805460408051602060026001851615610100026000190190941693909304601f81018490048402820184019092528181529291830182828015610f355780601f10610f0a57610100808354040283529160200191610f35565b820191906000526020600020905b815481529060010190602001808311610f1857829003601f168201915b505050505081565b600254600160a060020a03163314610f5457600080fd5b6000600d55565b8251602e14610f6957600080fd5b600154600160a060020a031615610f7f57600080fd5b60018054600160a060020a0380851673ffffffffffffffffffffffffffffffffffffffff199283161790925560008054928416928216929092179091556002805490911633179055606460058a0204601181905560108a90558901601255604080517f18160ddd00000000000000000000000000000000000000000000000000000000815290516402540be40091600160a060020a038516916318160ddd916004808201926020929091908290030181600087803b15801561104057600080fd5b505af1158015611054573d6000803e3d6000fd5b505050506040513d602081101561106a57600080fd5b5051890281151561107757fe5b046013556001600355600f879055600b805473ffffffffffffffffffffffffffffffffffffffff1916600160a060020a038816179055600c859055600d84905582516110ca9060149060208601906112a6565b5062093a80600481905562127500600581905560068290556007829055600882905560098290556064600a819055601254601354600354600f54600b54600c54604080518781526020810187905290810185905260608101849052600160a060020a039092166080830181905260a0830182905260e083018a90526101008381018a905261012084018b905261014084018b905261016084018b905261018084018b90526101a084018990526101c060c0850181815260148054600260018216159095026000190116939093049186018290527fa5b28abb07796d793327f8b0d715bb0b67648f84f7eba00b16b0ff4913abcd3c9c999b989a979996989397949692959294859384938493849392916101e08301908b90801561122e5780601f106112035761010080835404028352916020019161122e565b820191906000526020600020905b81548152906001019060200180831161121157829003601f168201915b50509f5050505050505050505050505050505060405180910390a1505050505050505050565b60055481565b60008282018381101561126957fe5b9392505050565b60008282111561127c57fe5b50900390565b815481835581811115610cfb57600083815260209020610cfb918101908301611324565b828054600181600116156101000203166002900490600052602060002090601f016020900481019282601f106112e757805160ff1916838001178555611314565b82800160010185558215611314579182015b828111156113145782518255916020019190600101906112f9565b50611320929150611324565b5090565b610ea691905b80821115611320576000815560010161132a5600a165627a7a723058205d6ee8f1bb00a2322821edc0948fbaa213fed32ff2ab5e781c247030b10f2a390029",
  "source": "pragma solidity ^0.4.21;\n\nimport \"./ProjectRegistry.sol\";\nimport \"./ReputationRegistry.sol\";\nimport \"./Task.sol\";\nimport \"./library/SafeMath.sol\";\nimport \"./library/Division.sol\";\n\n/**\n@title An individual project in the distribute DAO system\n@author Team: Jessica Marshall, Ashoka Finley\n@notice This contract is used to manage the state of all project related parameters while also\nmaintaining a wei balance to be used in the case of reward. The project can be in 8 states, represented by\nintegers. They are as follows: [1: Proposed, 2: Staked, 3: Active, 4: Validation, 5: Voting, 6: Complete,\n7: Failed, 8: Expired]\n@dev This contract is managed and deployed by a Project Registry contract, and must be initialized\nwith a ReputationRegistry and TokenRegistry for full control.\n*/\ncontract Project {\n\n    using SafeMath for uint256;\n\n    // =====================================================================\n    // EVENTS\n    // =====================================================================\n\n    event LogProjectDetails(\n      uint weiCost,\n      uint reputationCost,\n      uint state,\n      uint nextDeadline,\n      address proposer,\n      uint proposerType,\n      bytes ipfsHash,\n      uint stakedStatePeriod,\n      uint activeStatePeriod,\n      uint turnoverTime,\n      uint validateStatePeriod,\n      uint voteCommitPeriod,\n      uint voteRevealPeriod,\n      uint passThreshold\n    );\n\n    // =====================================================================\n    // STATE VARIABLES\n    // =====================================================================\n\n    address public tokenRegistryAddress;\n    address public reputationRegistryAddress;\n    address public projectRegistryAddress;\n\n    uint256 public state;\n\n    /*\n    POSSIBLE PROJECT STATES\n        1: Proposed,\n        2: Staked,\n        3: Active,\n        4: Validation,\n        5: Voting,\n        6: Complete,\n        7: Failed,\n        8: Expired\n    */\n\n    uint256 public stakedStatePeriod;\n    uint256 public activeStatePeriod;\n    uint256 public turnoverTime;\n    uint256 public validateStatePeriod;\n    uint256 public voteCommitPeriod;\n    uint256 public voteRevealPeriod;\n    uint256 public passThreshold;\n\n    address public proposer;\n    uint256 public proposerType;\n    uint256 public proposerStake;\n    uint256 public weiBal;\n    uint256 public nextDeadline;\n    uint256 public proposedCost;\n    uint256 public validationReward;\n    uint256 public weiCost;\n    uint256 public reputationCost;\n\n    bytes public ipfsHash;\n\n    uint256 public tokensStaked;\n    uint256 public reputationStaked;\n    mapping (address => uint) public tokenBalances;\n    mapping (address => uint) public reputationBalances;\n\n    bool public hashListSubmitted;\n    uint256 public passAmount;\n\n    // MAKE THIS A DLL EVENTUALLY?\n    address[] public tasks;\n\n    // =====================================================================\n    // MODIFIERS\n    // =====================================================================\n\n    modifier onlyPR() {\n        require(msg.sender == projectRegistryAddress);\n        _;\n    }\n\n    modifier onlyTR() {\n        require(msg.sender == tokenRegistryAddress);\n        _;\n    }\n\n    modifier onlyRR() {\n        require(msg.sender == reputationRegistryAddress);\n        _;\n    }\n\n    modifier onlyTRorRR() {\n        require(msg.sender == tokenRegistryAddress || msg.sender == reputationRegistryAddress);\n        _;\n    }\n\n    function isTR(address _sender) external view returns (bool) {\n        return _sender == tokenRegistryAddress\n            ? true\n            : false;\n    }\n\n    function isRR(address _sender) external view returns (bool) {\n        return _sender == reputationRegistryAddress\n            ? true\n            : false;\n    }\n\n    // =====================================================================\n    // CONSTRUCTOR\n    // =====================================================================\n\n    constructor () public {}\n    /**\n    @dev Used for proxy deployment of this contract. Initialize a Project with a Reputation Registry\n    and a Token Registry, and all related project values.\n    @param _cost The total cost of the project in wei\n    @param _costProportion The proportion of the project cost divided by theDistributeToken weiBal\n    represented as integer\n    @param _stakingPeriod The length of time the project is open for staking\n    @param _proposer The address of the user proposing the project\n    @param _proposerType Denotes if a proposer is proposing a project with reputation or tokens,\n    value must be 1: tokens or 2: reputation\n    @param _proposerStake The amount of reputation or tokens needed to create the proposal (5% of project cost)\n    @param _ipfsHash The ipfs hash of the full project description\n    @param _reputationRegistry Address of the Reputation Registry\n    @param _tokenRegistry Address of the Token Registry\n    */\n    function setup(\n        uint256 _cost,\n        uint256 _costProportion,\n        uint256 _stakingPeriod,\n        address _proposer,\n        uint256 _proposerType,\n        uint256 _proposerStake,\n        bytes _ipfsHash,\n        address _reputationRegistry,\n        address _tokenRegistry\n    ) public {\n        require(bytes(_ipfsHash).length == 46);\n        require(reputationRegistryAddress == 0);\n        reputationRegistryAddress = _reputationRegistry;\n        tokenRegistryAddress = _tokenRegistry;\n        projectRegistryAddress = msg.sender;\n        validationReward = _cost * 5 / 100;\n        proposedCost = _cost;\n        weiCost = proposedCost + validationReward;\n        reputationCost = _costProportion * ReputationRegistry(_reputationRegistry).totalSupply() / 10000000000;\n        state = 1;\n        nextDeadline = _stakingPeriod;\n        proposer = _proposer;\n        proposerType = _proposerType;\n        proposerStake = _proposerStake;\n        ipfsHash = _ipfsHash;\n        // Proxies don't initialize variables\n        stakedStatePeriod = 1 weeks;\n        activeStatePeriod = 2 weeks;\n        turnoverTime = 1 weeks;\n        validateStatePeriod = 1 weeks;\n        voteCommitPeriod = 1 weeks;\n        voteRevealPeriod = 1 weeks;\n        passThreshold = 100;\n        emit LogProjectDetails(\n          weiCost,\n          reputationCost,\n          state,\n          nextDeadline,\n          proposer,\n          proposerType,\n          ipfsHash,\n          stakedStatePeriod,\n          activeStatePeriod,\n          turnoverTime,\n          validateStatePeriod,\n          voteCommitPeriod,\n          voteRevealPeriod,\n          passThreshold\n        );\n\n    }\n\n\n\n    // =====================================================================\n    // FALLBACK\n    // =====================================================================\n\n    function() public payable {}\n\n    // =====================================================================\n    // GETTERS\n    // =====================================================================\n    /**\n    @notice The amount of tasks created in the project during the Staked period.\n    @dev Helper function used by the project library to get the length of the task array\n    @return The number of tasks in the task array\n    */\n    function getTaskCount() external view returns (uint256) {\n        return tasks.length;\n    }\n\n    /* function getTaskAddress(uint256 _index) external view returns (address) {\n        return tasks[_index];\n    } */\n\n    // =====================================================================\n    // SETTERS\n    // =====================================================================\n\n    /**\n    @notice Set the project state to `_state`, and update the nextDeadline to `_nextDeadline`\n    @dev Only callable by the Project Registry that was initialized during construction\n    @param _state The state to update the project to\n    @param _nextDeadline The nextDeadline to transition project to the next state\n    */\n    function setState(uint256 _state, uint256 _nextDeadline) external onlyPR {\n        state = _state;\n        nextDeadline = _nextDeadline;\n    }\n\n    /**\n    @notice Clears the proposer stake on proposal expiration\n    @dev Only callable by the Project Registry initialized during construction\n    */\n    function clearProposerStake() external onlyPR {\n        proposerStake = 0;\n    }\n\n    /**\n    @notice Clear the token stake of `_staker`, used during stake claiming\n    @dev Only callable by the Token Registry initialized during construction\n    @param _staker Address of the staker\n    */\n    function clearTokenStake(address _staker) external onlyTR {\n        tokenBalances[_staker] = 0;\n    }\n\n    /**\n    @notice Clear the reputation stake of `_staker`, used during stake claiming\n    @dev Only callable by the Reputation Registry initialized during construction\n    @param _staker Address of the staker\n    */\n    function clearReputationStake(address _staker) external onlyRR {\n        reputationBalances[_staker] = 0;\n    }\n\n    /**\n    @notice Clear the stake of all stakers in the event of Project failure\n    @dev Only callable by the Project Registry initialized during construction, in the case of project failure\n    */\n    function clearStake() external onlyPR {\n        tokensStaked = 0;\n        reputationStaked = 0;\n    }\n\n    /**\n    @notice Set the number of project tasks to `_tasksLength` as defined by the project stakers\n    @dev Only callable by the Project Registry initialized during construction\n    @param _tasksLength The amount of tasks as defined by the project stakers\n    */\n    function setTaskLength(uint _tasksLength) external onlyPR {\n        tasks.length = _tasksLength;\n    }\n\n    /**\n    @notice Set the address of a task at index `_index`\n    @dev Only callable by the Project Registry initialized during construction\n    @param _taskAddress Address of the task contract\n    @param _index Index of the task in the tasks array\n    */\n    function setTaskAddress(address _taskAddress, uint _index) external onlyPR {\n        require(state == 3);\n        tasks[_index] = _taskAddress;\n    }\n\n    function setHashListSubmitted() external onlyPR {\n      hashListSubmitted = true;\n    }\n\n    /**\n    @notice Set the weighting of the amount of tasks that passed to `_passAmount`\n    @dev Only callable by the Project Registry initialized during construction\n    @param _passAmount The total weighting of all tasks which passed\n    */\n    function setPassAmount(uint256 _passAmount) external onlyPR {\n        passAmount = _passAmount;\n    }\n\n    // =====================================================================\n    // STAKE\n    // =====================================================================\n\n    /**\n    @notice Stake `_tokens` tokens from `_staker` and add `_weiValue` to the project ether balance\n    @dev Only callable by the Token Registry initialized during construction, to maintain control flow\n    @param _staker Address of the staker who is staking\n    @param _tokens Amount of tokens to stake on the project\n    @param _weiValue Amount of wei transferred to the project\n    */\n    function stakeTokens(address _staker, uint256 _tokens, uint256 _weiValue) external onlyTR {\n        require(state == 1);\n        require(\n            tokenBalances[_staker].add(_tokens) > tokenBalances[_staker]    // check overflow\n        );\n        tokenBalances[_staker] += _tokens;\n        tokensStaked += _tokens;\n        weiBal += _weiValue;\n    }\n\n    /**\n    @notice Unstake `_tokens` tokens from the project, subtract this value from the balance of `_staker`\n    Returns the amount of ether to subtract from the project's ether balance\n    @dev Only callable by the Token Registry initialized during construction, to maintain control flow\n    @dev Only callable before the staking period of a proposed project ends (state must still be 1)\n    @param _staker Address of the staker who is unstaking\n    @param _tokens Amount of tokens to unstake on the project\n    @param _distributeTokenAddress Address of distribute token contract\n    @return The amount of ether to deduct from the projects balance\n\n    */\n    function unstakeTokens(address _staker, uint256 _tokens, address _distributeTokenAddress) external onlyTR returns (uint256) {\n        require(state == 1);\n        require(\n            tokenBalances[_staker].sub(_tokens) <= tokenBalances[_staker]\n        );\n\n        uint256 weiVal = (Division.percent(_tokens, tokensStaked, 10) * weiBal) / 10000000000;\n        require(weiVal <= weiBal);\n        tokenBalances[_staker] -= _tokens;\n        tokensStaked -= _tokens;\n        weiBal -= weiVal;\n        _distributeTokenAddress.transfer(weiVal);\n        return weiVal;\n    }\n\n    /**\n    @notice Stake `_reputation` reputation from `_staker`\n    @dev Only callable by the Reputation Registry initialized during construction, to maintain control flow\n    @param _staker Address of the staker who is staking\n    @param _reputation Amount of reputation to stake on the project\n    */\n    function stakeReputation(address _staker, uint256 _reputation) external onlyRR {\n        require(state == 1);\n        require(reputationBalances[_staker] + _reputation > reputationBalances[_staker]);\n\n        reputationBalances[_staker] += _reputation;\n        reputationStaked += _reputation;\n    }\n\n    /**\n    @notice Unstake `_reputation` reputation from the project, and update staked balance of `_staker`\n    @dev Only callable by the Reputation Registry initialized during construction, to maintain control flow\n    @dev Only callable before the staking period of a proposed project ends (state must still be 1)\n    @param _staker Address of the staker who is unstaking\n    @param _reputation Amount of reputation to unstake on the project\n    */\n    function unstakeReputation(address _staker, uint256 _reputation) external onlyRR {\n        require(state == 1);\n        require(\n            reputationBalances[_staker].sub(_reputation) < reputationBalances[_staker] &&  //check overflow\n            reputationBalances[_staker] >= _reputation //make sure _staker has the tokens staked to unstake\n        );\n\n        reputationBalances[_staker] -= _reputation;\n        reputationStaked -= _reputation;\n    }\n\n    // =====================================================================\n    // REWARD\n    // =====================================================================\n\n    /**\n    @notice Transfer `_reward` wei as reward for completing a task to `_rewardee\n    @dev Only callable by the Reputation Registry initialized during construction, to maintain control flow\n    @param _rewardee The account who claimed and completed the task.\n    @param _reward The amount of wei to transfer.\n    */\n    function transferWeiReward(address _rewardee, uint _reward) external onlyTRorRR {\n        require(_reward <= weiBal);\n        weiBal -= _reward;\n        _rewardee.transfer(_reward);\n    }\n\n    /**\n    @notice Transfer `_value` wei back to distribute token balance on task failure\n    @dev Only callable by the Project Registry initialized during construction, to maintain control flow\n    @param _distributeToken The address of the systems token contract.\n    @param _value The amount of ether to send\n    */\n    function returnWei(address _distributeToken, uint _value) external onlyPR {\n        require(_value <= weiBal);\n        weiBal -= _value;\n        _distributeToken.transfer(_value);\n    }\n\n}\n",
  "sourcePath": "/media/000/Documents/Distribute/distribute-app/contracts/contracts/Project.sol",
  "compiler": {
    "name": "solc",
    "version": "0.4.24+commit.e67f0147.Emscripten.clang"
  },
  "schemaVersion": "2.0.1",
  "updatedAt": "2018-10-12T18:33:50.853Z"
}