{
  "contractName": "ProjectRegistry",
  "abi": [
    {
      "constant": true,
      "inputs": [
        {
          "name": "",
          "type": "uint256"
        }
      ],
      "name": "projectsList",
      "outputs": [
        {
          "name": "",
          "type": "address"
        }
      ],
      "payable": false,
      "stateMutability": "view",
      "type": "function"
    },
    {
      "constant": false,
      "inputs": [],
      "name": "renounceOwnership",
      "outputs": [],
      "payable": false,
      "stateMutability": "nonpayable",
      "type": "function"
    },
    {
      "constant": true,
      "inputs": [
        {
          "name": "",
          "type": "address"
        }
      ],
      "name": "projects",
      "outputs": [
        {
          "name": "",
          "type": "bool"
        }
      ],
      "payable": false,
      "stateMutability": "view",
      "type": "function"
    },
    {
      "constant": true,
      "inputs": [
        {
          "name": "",
          "type": "uint256"
        }
      ],
      "name": "validationRewardWeightings",
      "outputs": [
        {
          "name": "",
          "type": "uint256"
        }
      ],
      "payable": false,
      "stateMutability": "view",
      "type": "function"
    },
    {
      "constant": true,
      "inputs": [],
      "name": "owner",
      "outputs": [
        {
          "name": "",
          "type": "address"
        }
      ],
      "payable": false,
      "stateMutability": "view",
      "type": "function"
    },
    {
      "constant": true,
      "inputs": [
        {
          "name": "",
          "type": "address"
        }
      ],
      "name": "stakedProjects",
      "outputs": [
        {
          "name": "topTaskHash",
          "type": "bytes32"
        }
      ],
      "payable": false,
      "stateMutability": "view",
      "type": "function"
    },
    {
      "constant": false,
      "inputs": [
        {
          "name": "_newOwner",
          "type": "address"
        }
      ],
      "name": "transferOwnership",
      "outputs": [],
      "payable": false,
      "stateMutability": "nonpayable",
      "type": "function"
    },
    {
      "anonymous": false,
      "inputs": [
        {
          "indexed": true,
          "name": "projectAddress",
          "type": "address"
        },
        {
          "indexed": false,
          "name": "proposerCost",
          "type": "uint256"
        }
      ],
      "name": "LogProjectCreated",
      "type": "event"
    },
    {
      "anonymous": false,
      "inputs": [
        {
          "indexed": false,
          "name": "projectAddress",
          "type": "address"
        },
        {
          "indexed": false,
          "name": "staked",
          "type": "bool"
        }
      ],
      "name": "LogProjectFullyStaked",
      "type": "event"
    },
    {
      "anonymous": false,
      "inputs": [
        {
          "indexed": false,
          "name": "projectAddress",
          "type": "address"
        },
        {
          "indexed": false,
          "name": "taskHash",
          "type": "bytes32"
        },
        {
          "indexed": false,
          "name": "submitter",
          "type": "address"
        },
        {
          "indexed": false,
          "name": "weighting",
          "type": "uint256"
        }
      ],
      "name": "LogTaskHashSubmitted",
      "type": "event"
    },
    {
      "anonymous": false,
      "inputs": [
        {
          "indexed": false,
          "name": "projectAddress",
          "type": "address"
        },
        {
          "indexed": false,
          "name": "topTaskHash",
          "type": "bytes32"
        },
        {
          "indexed": false,
          "name": "active",
          "type": "bool"
        }
      ],
      "name": "LogProjectActive",
      "type": "event"
    },
    {
      "anonymous": false,
      "inputs": [
        {
          "indexed": false,
          "name": "taskAddress",
          "type": "address"
        },
        {
          "indexed": false,
          "name": "projectAddress",
          "type": "address"
        },
        {
          "indexed": false,
          "name": "finalTaskHash",
          "type": "bytes32"
        },
        {
          "indexed": false,
          "name": "index",
          "type": "uint256"
        }
      ],
      "name": "LogFinalTaskCreated",
      "type": "event"
    },
    {
      "anonymous": false,
      "inputs": [
        {
          "indexed": false,
          "name": "projectAddress",
          "type": "address"
        },
        {
          "indexed": false,
          "name": "index",
          "type": "uint256"
        },
        {
          "indexed": false,
          "name": "reputationVal",
          "type": "uint256"
        },
        {
          "indexed": false,
          "name": "claimer",
          "type": "address"
        }
      ],
      "name": "LogTaskClaimed",
      "type": "event"
    },
    {
      "anonymous": false,
      "inputs": [
        {
          "indexed": false,
          "name": "projectAddress",
          "type": "address"
        },
        {
          "indexed": false,
          "name": "index",
          "type": "uint256"
        },
        {
          "indexed": false,
          "name": "validationFee",
          "type": "uint256"
        }
      ],
      "name": "LogSubmitTaskComplete",
      "type": "event"
    },
    {
      "anonymous": false,
      "inputs": [
        {
          "indexed": false,
          "name": "projectAddress",
          "type": "address"
        },
        {
          "indexed": false,
          "name": "validate",
          "type": "bool"
        }
      ],
      "name": "LogProjectValidate",
      "type": "event"
    },
    {
      "anonymous": false,
      "inputs": [
        {
          "indexed": false,
          "name": "projectAddress",
          "type": "address"
        },
        {
          "indexed": false,
          "name": "vote",
          "type": "bool"
        }
      ],
      "name": "LogProjectVoting",
      "type": "event"
    },
    {
      "anonymous": false,
      "inputs": [
        {
          "indexed": false,
          "name": "projectAddress",
          "type": "address"
        },
        {
          "indexed": false,
          "name": "end",
          "type": "uint256"
        }
      ],
      "name": "LogProjectEnd",
      "type": "event"
    },
    {
      "anonymous": false,
      "inputs": [
        {
          "indexed": false,
          "name": "projectAddress",
          "type": "address"
        },
        {
          "indexed": false,
          "name": "originator",
          "type": "address"
        },
        {
          "indexed": false,
          "name": "reward",
          "type": "uint256"
        }
      ],
      "name": "LogRewardOriginator",
      "type": "event"
    },
    {
      "anonymous": false,
      "inputs": [
        {
          "indexed": false,
          "name": "projectAddress",
          "type": "address"
        },
        {
          "indexed": false,
          "name": "contractCaller",
          "type": "uint256"
        },
        {
          "indexed": false,
          "name": "proposer",
          "type": "address"
        },
        {
          "indexed": false,
          "name": "proposedCost",
          "type": "uint256"
        },
        {
          "indexed": false,
          "name": "proposedStake",
          "type": "uint256"
        }
      ],
      "name": "LogRefundProposer",
      "type": "event"
    },
    {
      "anonymous": false,
      "inputs": [
        {
          "indexed": true,
          "name": "previousOwner",
          "type": "address"
        }
      ],
      "name": "OwnershipRenounced",
      "type": "event"
    },
    {
      "anonymous": false,
      "inputs": [
        {
          "indexed": true,
          "name": "previousOwner",
          "type": "address"
        },
        {
          "indexed": true,
          "name": "newOwner",
          "type": "address"
        }
      ],
      "name": "OwnershipTransferred",
      "type": "event"
    },
    {
      "constant": false,
      "inputs": [
        {
          "name": "_distributeToken",
          "type": "address"
        },
        {
          "name": "_tokenRegistry",
          "type": "address"
        },
        {
          "name": "_reputationRegistry",
          "type": "address"
        },
        {
          "name": "_plcrVoting",
          "type": "address"
        },
        {
          "name": "_projectAddress",
          "type": "address"
        },
        {
          "name": "_taskAddress",
          "type": "address"
        }
      ],
      "name": "init",
      "outputs": [],
      "payable": false,
      "stateMutability": "nonpayable",
      "type": "function"
    },
    {
      "constant": false,
      "inputs": [],
      "name": "freezeContract",
      "outputs": [],
      "payable": false,
      "stateMutability": "nonpayable",
      "type": "function"
    },
    {
      "constant": false,
      "inputs": [],
      "name": "unfreezeContract",
      "outputs": [],
      "payable": false,
      "stateMutability": "nonpayable",
      "type": "function"
    },
    {
      "constant": false,
      "inputs": [
        {
          "name": "_newPlcrVoting",
          "type": "address"
        }
      ],
      "name": "updatePLCRVoting",
      "outputs": [],
      "payable": false,
      "stateMutability": "nonpayable",
      "type": "function"
    },
    {
      "constant": false,
      "inputs": [
        {
          "name": "_newDistributeToken",
          "type": "address"
        }
      ],
      "name": "updateDistributeToken",
      "outputs": [],
      "payable": false,
      "stateMutability": "nonpayable",
      "type": "function"
    },
    {
      "constant": false,
      "inputs": [
        {
          "name": "_newProjectContract",
          "type": "address"
        }
      ],
      "name": "updateProjectContract",
      "outputs": [],
      "payable": false,
      "stateMutability": "nonpayable",
      "type": "function"
    },
    {
      "constant": false,
      "inputs": [
        {
          "name": "_newTaskContract",
          "type": "address"
        }
      ],
      "name": "updateTaskContract",
      "outputs": [],
      "payable": false,
      "stateMutability": "nonpayable",
      "type": "function"
    },
    {
      "constant": false,
      "inputs": [
        {
          "name": "_newTokenRegistry",
          "type": "address"
        }
      ],
      "name": "updateTokenRegistry",
      "outputs": [],
      "payable": false,
      "stateMutability": "nonpayable",
      "type": "function"
    },
    {
      "constant": false,
      "inputs": [
        {
          "name": "_newReputationRegistry",
          "type": "address"
        }
      ],
      "name": "updateReputationRegistry",
      "outputs": [],
      "payable": false,
      "stateMutability": "nonpayable",
      "type": "function"
    },
    {
      "constant": false,
      "inputs": [
        {
          "name": "_projectAddress",
          "type": "address"
        }
      ],
      "name": "checkStaked",
      "outputs": [
        {
          "name": "",
          "type": "bool"
        }
      ],
      "payable": false,
      "stateMutability": "nonpayable",
      "type": "function"
    },
    {
      "constant": false,
      "inputs": [
        {
          "name": "_projectAddress",
          "type": "address"
        }
      ],
      "name": "checkActive",
      "outputs": [
        {
          "name": "",
          "type": "bool"
        }
      ],
      "payable": false,
      "stateMutability": "nonpayable",
      "type": "function"
    },
    {
      "constant": false,
      "inputs": [
        {
          "name": "_projectAddress",
          "type": "address"
        }
      ],
      "name": "checkValidate",
      "outputs": [],
      "payable": false,
      "stateMutability": "nonpayable",
      "type": "function"
    },
    {
      "constant": false,
      "inputs": [
        {
          "name": "_projectAddress",
          "type": "address"
        }
      ],
      "name": "checkVoting",
      "outputs": [],
      "payable": false,
      "stateMutability": "nonpayable",
      "type": "function"
    },
    {
      "constant": false,
      "inputs": [
        {
          "name": "_projectAddress",
          "type": "address"
        }
      ],
      "name": "checkEnd",
      "outputs": [],
      "payable": false,
      "stateMutability": "nonpayable",
      "type": "function"
    },
    {
      "constant": false,
      "inputs": [
        {
          "name": "_cost",
          "type": "uint256"
        },
        {
          "name": "_costProportion",
          "type": "uint256"
        },
        {
          "name": "_stakingPeriod",
          "type": "uint256"
        },
        {
          "name": "_proposer",
          "type": "address"
        },
        {
          "name": "_proposerType",
          "type": "uint256"
        },
        {
          "name": "_proposerStake",
          "type": "uint256"
        },
        {
          "name": "_ipfsHash",
          "type": "bytes"
        },
        {
          "name": "_proposerCost",
          "type": "uint256"
        }
      ],
      "name": "createProject",
      "outputs": [
        {
          "name": "",
          "type": "address"
        }
      ],
      "payable": false,
      "stateMutability": "nonpayable",
      "type": "function"
    },
    {
      "constant": false,
      "inputs": [
        {
          "name": "_projectAddress",
          "type": "address"
        },
        {
          "name": "proposer",
          "type": "address"
        }
      ],
      "name": "refundProposer",
      "outputs": [
        {
          "name": "",
          "type": "uint256[2]"
        }
      ],
      "payable": false,
      "stateMutability": "nonpayable",
      "type": "function"
    },
    {
      "constant": false,
      "inputs": [
        {
          "name": "_projectAddress",
          "type": "address"
        },
        {
          "name": "_taskHash",
          "type": "bytes32"
        }
      ],
      "name": "addTaskHash",
      "outputs": [],
      "payable": false,
      "stateMutability": "nonpayable",
      "type": "function"
    },
    {
      "constant": false,
      "inputs": [
        {
          "name": "_projectAddress",
          "type": "address"
        }
      ],
      "name": "rewardOriginator",
      "outputs": [],
      "payable": false,
      "stateMutability": "nonpayable",
      "type": "function"
    },
    {
      "constant": false,
      "inputs": [
        {
          "name": "_projectAddress",
          "type": "address"
        },
        {
          "name": "_hashes",
          "type": "bytes32[]"
        }
      ],
      "name": "submitHashList",
      "outputs": [],
      "payable": false,
      "stateMutability": "nonpayable",
      "type": "function"
    },
    {
      "constant": false,
      "inputs": [
        {
          "name": "_projectAddress",
          "type": "address"
        },
        {
          "name": "_index",
          "type": "uint256"
        },
        {
          "name": "_taskDescription",
          "type": "bytes32"
        },
        {
          "name": "_claimer",
          "type": "address"
        },
        {
          "name": "_weighting",
          "type": "uint256"
        },
        {
          "name": "_weiVal",
          "type": "uint256"
        },
        {
          "name": "_reputationVal",
          "type": "uint256"
        }
      ],
      "name": "claimTask",
      "outputs": [],
      "payable": false,
      "stateMutability": "nonpayable",
      "type": "function"
    },
    {
      "constant": false,
      "inputs": [
        {
          "name": "_projectAddress",
          "type": "address"
        },
        {
          "name": "_index",
          "type": "uint256"
        }
      ],
      "name": "submitTaskComplete",
      "outputs": [],
      "payable": false,
      "stateMutability": "nonpayable",
      "type": "function"
    }
  ],
  "bytecode": "0x600060075561012060405260246080908152601860a052601160c052600d60e052600a610100526200003690600b9060056200004f565b5060008054600160a060020a03191633179055620000b7565b826005810192821562000085579160200282015b8281111562000085578251829060ff1690559160200191906001019062000063565b506200009392915062000097565b5090565b620000b491905b808211156200009357600081556001016200009e565b90565b612bee80620000c76000396000f30060806040526004361061014f5763ffffffff60e060020a600035041662211353811461015457806304b53415146101775780631fa915a414610198578063247f8e14146101b957806324875148146101ee5780632a5ec8901461020f5780633330dcd81461023057806338a63d7a1461026857806347c34c0b1461029c57806352a220b7146102c9578063715018a6146102ea57806377fd49f0146102ff578063840e78fd14610343578063873299b4146103645780638da5cb5b1461038e5780638e03db2b146103a357806399e133f9146103c45780639dff79ea14610403578063a584a9b514610427578063aab1d6df1461043c578063b6de356d1461049e578063c00296a7146104bf578063dfd57179146104e3578063e0a267e014610504578063ed7dd44e14610525578063ef12f3f814610546578063f2fde38b14610567578063f4917dd314610588575b600080fd5b34801561016057600080fd5b50610175600160a060020a036004351661059d565b005b34801561018357600080fd5b50610175600160a060020a03600435166106e9565b3480156101a457600080fd5b50610175600160a060020a0360043516610722565b3480156101c557600080fd5b506101da600160a060020a036004351661075b565b604080519115158252519081900360200190f35b3480156101fa57600080fd5b50610175600160a060020a0360043516610887565b34801561021b57600080fd5b50610175600160a060020a03600435166109dd565b34801561023c57600080fd5b50610175600160a060020a0360043581169060243590604435906064351660843560a43560c435610b1d565b34801561027457600080fd5b50610280600435611084565b60408051600160a060020a039092168252519081900360200190f35b3480156102a857600080fd5b5061017560048035600160a060020a0316906024803590810191013561109f565b3480156102d557600080fd5b50610175600160a060020a036004351661148c565b3480156102f657600080fd5b506101756114c5565b34801561030b57600080fd5b506102806004803590602480359160443591600160a060020a0360643516916084359160a4359160c43591820191013560e435611524565b34801561034f57600080fd5b506101da600160a060020a036004351661164c565b34801561037057600080fd5b5061037c600435611661565b60408051918252519081900360200190f35b34801561039a57600080fd5b50610280611675565b3480156103af57600080fd5b50610175600160a060020a0360043516611684565b3480156103d057600080fd5b50610175600160a060020a0360043581169060243581169060443581169060643581169060843581169060a43516611952565b34801561040f57600080fd5b50610175600160a060020a0360043516602435611a03565b34801561043357600080fd5b50610175611d2b565b34801561044857600080fd5b50610463600160a060020a0360043581169060243516611d51565b6040518082600260200280838360005b8381101561048b578181015183820152602001610473565b5050505090500191505060405180910390f35b3480156104aa57600080fd5b50610175600160a060020a0360043516612114565b3480156104cb57600080fd5b50610175600160a060020a036004351660243561214d565b3480156104ef57600080fd5b50610175600160a060020a036004351661263b565b34801561051057600080fd5b50610175600160a060020a0360043516612674565b34801561053157600080fd5b506101da600160a060020a03600435166126ad565b34801561055257600080fd5b5061037c600160a060020a0360043516612834565b34801561057357600080fd5b50610175600160a060020a0360043516612846565b34801561059457600080fd5b50610175612869565b60105460009060ff16156105b057600080fd5b600160a060020a03821660009081526009602052604090205460ff1615156001146105da57600080fd5b60025460048054600154604080517f7c6d052c000000000000000000000000000000000000000000000000000000008152600160a060020a03808916958201959095529484166024860152918316604485015290911660648301525173__ProjectLibrary________________________91637c6d052c916084808301926020929190829003018186803b15801561067157600080fd5b505af4158015610685573d6000803e3d6000fd5b505050506040513d602081101561069b57600080fd5b505160408051600160a060020a0385168152821515602082015281519293507f37bd5a62e640f819aac850a373cda33112e317349df9078ad691c1ddc4d3e3d6929081900390910190a15050565b600054600160a060020a0316331461070057600080fd5b60048054600160a060020a031916600160a060020a0392909216919091179055565b600054600160a060020a0316331461073957600080fd5b60028054600160a060020a031916600160a060020a0392909216919091179055565b601054600090819060ff161561077057600080fd5b600160a060020a03831660009081526009602052604090205460ff16151560011461079a57600080fd5b604080517f247f8e14000000000000000000000000000000000000000000000000000000008152600160a060020a0385166004820152905173__ProjectLibrary________________________9163247f8e14916024808301926020929190829003018186803b15801561080d57600080fd5b505af4158015610821573d6000803e3d6000fd5b505050506040513d602081101561083757600080fd5b505160408051600160a060020a0386168152821515602082015281519293507f03b2a7169c93359adc7bcdba20f946c933f072fe39862d09ce4706c45dcf3f41929081900390910190a192915050565b60105460009060ff161561089a57600080fd5b600160a060020a03821660009081526009602052604090205460ff1615156001146108c457600080fd5b60025460048054600154600354604080517fdc4bc5f6000000000000000000000000000000000000000000000000000000008152600160a060020a03808a169682019690965295851660248701529284166044860152908316606485015290911660848301525173__ProjectLibrary________________________9163dc4bc5f69160a4808301926020929190829003018186803b15801561096657600080fd5b505af415801561097a573d6000803e3d6000fd5b505050506040513d602081101561099057600080fd5b505160408051600160a060020a03851681526020810183905281519293507f583c564adc05446725f3783bd9e1cb2dbdc2ff335608c5c0b32ae4edb33564db929081900390910190a15050565b60105460009060ff16156109f057600080fd5b600160a060020a03821660009081526009602052604090205460ff161515600114610a1a57600080fd5b60025460048054604080517faf8e4c76000000000000000000000000000000000000000000000000000000008152600160a060020a03808816948201949094529383166024850152911660448301525173__ProjectLibrary________________________9163af8e4c76916064808301926020929190829003018186803b158015610aa557600080fd5b505af4158015610ab9573d6000803e3d6000fd5b505050506040513d6020811015610acf57600080fd5b505160408051600160a060020a0385168152821515602082015281519293507f18e45157321a6ae0b1eb5c8b4616e488a21fdf73dd887c197e8052168739aa1e929081900390910190a15050565b6003546000908190600160a060020a03163314610b3957600080fd5b60105460ff1615610b4957600080fd5b88915081600160a060020a031663c19d93fb6040518163ffffffff1660e060020a028152600401602060405180830381600087803b158015610b8a57600080fd5b505af1158015610b9e573d6000803e3d6000fd5b505050506040513d6020811015610bb457600080fd5b5051600314610bc257600080fd5b81600160a060020a0316638d977672896040518263ffffffff1660e060020a02815260040180828152602001915050602060405180830381600087803b158015610c0b57600080fd5b505af1158015610c1f573d6000803e3d6000fd5b505050506040513d6020811015610c3557600080fd5b5051604080517fb3e9fd2c0000000000000000000000000000000000000000000000000000000081529051919250600160a060020a0383169163b3e9fd2c916004808201926020929091908290030181600087803b158015610c9657600080fd5b505af1158015610caa573d6000803e3d6000fd5b505050506040513d6020811015610cc057600080fd5b50516040805160208181018b9052818301899052825180830384018152606090920192839052815191929182918401908083835b60208310610d135780518252601f199092019160209182019101610cf4565b6001836020036101000a038019825116818451168082178552505050505050905001915050604051809103902060001916141515610d5057600080fd5b80600160a060020a031663d379be236040518163ffffffff1660e060020a028152600401602060405180830381600087803b158015610d8e57600080fd5b505af1158015610da2573d6000803e3d6000fd5b505050506040513d6020811015610db857600080fd5b5051600160a060020a03161580610f31575081600160a060020a0316635a6fb81f6040518163ffffffff1660e060020a028152600401602060405180830381600087803b158015610e0857600080fd5b505af1158015610e1c573d6000803e3d6000fd5b505050506040513d6020811015610e3257600080fd5b5051604080517f27b3bf110000000000000000000000000000000000000000000000000000000081529051600160a060020a038416916327b3bf119160048083019260209291908290030181600087803b158015610e8f57600080fd5b505af1158015610ea3573d6000803e3d6000fd5b505050506040513d6020811015610eb957600080fd5b50510142118015610f31575080600160a060020a031663522e11776040518163ffffffff1660e060020a028152600401602060405180830381600087803b158015610f0357600080fd5b505af1158015610f17573d6000803e3d6000fd5b505050506040513d6020811015610f2d57600080fd5b5051155b1515610f3c57600080fd5b80600160a060020a0316630a139925866040518263ffffffff1660e060020a02815260040180828152602001915050600060405180830381600087803b158015610f8557600080fd5b505af1158015610f99573d6000803e3d6000fd5b5050604080517f73cc18da0000000000000000000000000000000000000000000000000000000081526004810188905260248101879052600160a060020a038a81166044830152915191851693506373cc18da925060648082019260009290919082900301818387803b15801561100f57600080fd5b505af1158015611023573d6000803e3d6000fd5b505060408051600160a060020a03808e168252602082018d90528183018890528a16606082015290517fb6cd4ebe37ffd3a9a83f46c752d50ebbe3582bb9eb119a901ab9bdcdcb0167ae9350908190036080019150a1505050505050505050565b600860205260009081526040902054600160a060020a031681565b6010546000908190819060ff16156110b657600080fd5b600160a060020a03861660009081526009602052604090205460ff1615156001146110e057600080fd5b85925082600160a060020a031663c19d93fb6040518163ffffffff1660e060020a028152600401602060405180830381600087803b15801561112157600080fd5b505af1158015611135573d6000803e3d6000fd5b505050506040513d602081101561114b57600080fd5b505160031461115957600080fd5b600160a060020a0386166000908152600a602090815260409182902054915187918791810190819084908402808284378201915050925050506040516020818303038152906040526040518082805190602001908083835b602083106111d05780518252601f1990920191602091820191016111b1565b6001836020036101000a03801982511681845116808217855250505050505090500191505060405180910390206000191614151561120d57600080fd5b82600160a060020a031663378c12da6040518163ffffffff1660e060020a028152600401602060405180830381600087803b15801561124b57600080fd5b505af115801561125f573d6000803e3d6000fd5b505050506040513d602081101561127557600080fd5b50511561128157600080fd5b604080517f8a77e915000000000000000000000000000000000000000000000000000000008152600481018690529051600160a060020a03851691638a77e91591602480830192600092919082900301818387803b1580156112e257600080fd5b505af11580156112f6573d6000803e3d6000fd5b50505050600091505b8382101561142e5761133a85858481811061131657fe5b6002546003546020909202939093013592600160a060020a0390811692501661288c565b905082600160a060020a03166303f2f92882846040518363ffffffff1660e060020a0281526004018083600160a060020a0316600160a060020a0316815260200182815260200192505050600060405180830381600087803b15801561139f57600080fd5b505af11580156113b3573d6000803e3d6000fd5b505050507f86643aebbf3239007ea12bcc9e3c180d63677565a4f20660a0cc594eae9b5eae818787878681811015156113e857fe5b60408051600160a060020a0396871681529490951660208581019190915202919091013582840152506060810185905290519081900360800190a16001909101906112ff565b82600160a060020a03166326c1bffe6040518163ffffffff1660e060020a028152600401600060405180830381600087803b15801561146c57600080fd5b505af1158015611480573d6000803e3d6000fd5b50505050505050505050565b600054600160a060020a031633146114a357600080fd5b60018054600160a060020a031916600160a060020a0392909216919091179055565b600054600160a060020a031633146114dc57600080fd5b60008054604051600160a060020a03909116917ff8df31144d9c2f0f6b59d69b8b98abd5459d07f2742c4df920b25aae33c6482091a260008054600160a060020a0319169055565b6002546000908190600160a060020a031633148061154c5750600354600160a060020a031633145b151561155757600080fd5b60105460ff161561156757600080fd5b6115ba8b8b8b8b8b8b8b8b8080601f0160208091040260200160405190810160405280939291908181526020018383808284375050600354600254600160a060020a0391821695501692506128df915050565b600160a060020a0381166000818152600960209081526040808320805460ff1916600190811790915560078054855260088452938290208054600160a060020a031916861790558354019092558151878152915193945091927f6b61832f73724e06f070cedd6e55103b55f27ab70744e391ed721c5092a80837929181900390910190a29a9950505050505050505050565b60096020526000908152604090205460ff1681565b600b816005811061166e57fe5b0154905081565b600054600160a060020a031681565b600080600083925082600160a060020a031663c19d93fb6040518163ffffffff1660e060020a028152600401602060405180830381600087803b1580156116ca57600080fd5b505af11580156116de573d6000803e3d6000fd5b505050506040513d60208110156116f457600080fd5b505160061461170257600080fd5b600160a060020a038481166000908152600a6020908152604080832080548452600381019092529091205490935016331461173c57600080fd5b8154600090815260038301602090815260408083208054600160a060020a03191690556004805482517f065d5d0a0000000000000000000000000000000000000000000000000000000081529251600295600160a060020a039092169463065d5d0a948085019491939083900390910190829087803b1580156117be57600080fd5b505af11580156117d2573d6000803e3d6000fd5b505050506040513d60208110156117e857600080fd5b5051604080517f5b9c161a0000000000000000000000000000000000000000000000000000000081529051600160a060020a03871691635b9c161a9160048083019260209291908290030181600087803b15801561184557600080fd5b505af1158015611859573d6000803e3d6000fd5b505050506040513d602081101561186f57600080fd5b50510181151561187b57fe5b600254604080517f0805c8a300000000000000000000000000000000000000000000000000000000815233600482015293909204602484018190529151919350600160a060020a031691630805c8a391604480830192600092919082900301818387803b1580156118eb57600080fd5b505af11580156118ff573d6000803e3d6000fd5b505060408051600160a060020a038816815233602082015280820185905290517f1e57a8c75c06eaa931a65d028137c3d9743bee74f11998843853a8754619ed159350908190036060019150a150505050565b600254600160a060020a03161580156119745750600354600160a060020a0316155b80156119895750600454600160a060020a0316155b151561199457600080fd5b60048054600160a060020a0319908116600160a060020a0398891617909155600280548216968816969096179095556003805486169487169490941790935560018054851692861692909217909155600580548416918516919091179055600680549092169216919091179055565b6010546000908190819081908190819060ff1615611a2057600080fd5b600160a060020a03881660009081526009602052604090205460ff161515600114611a4a57600080fd5b879550611a56886126ad565b5085600160a060020a031663c19d93fb6040518163ffffffff1660e060020a028152600401602060405180830381600087803b158015611a9557600080fd5b505af1158015611aa9573d6000803e3d6000fd5b505050506040513d6020811015611abf57600080fd5b5051600214611acd57600080fd5b60035460028054604080517f8be1c84e0000000000000000000000000000000000000000000000000000000081523360048201529051600160a060020a03948516995093909116965090918691638be1c84e9160248083019260209291908290030181600087803b158015611b4157600080fd5b505af1158015611b55573d6000803e3d6000fd5b505050506040513d6020811015611b6b57600080fd5b5051604080517f8be1c84e0000000000000000000000000000000000000000000000000000000081523360048201529051600160a060020a03891691638be1c84e9160248083019260209291908290030181600087803b158015611bce57600080fd5b505af1158015611be2573d6000803e3d6000fd5b505050506040513d6020811015611bf857600080fd5b505101811515611c0457fe5b604080517f43fa21d7000000000000000000000000000000000000000000000000000000008152600160a060020a038c166004820152336024820152905192909104945073__ProjectLibrary________________________916343fa21d791604480820192602092909190829003018186803b158015611c8457600080fd5b505af4158015611c98573d6000803e3d6000fd5b505050506040513d6020811015611cae57600080fd5b505191505060028282010460008111611cc657600080fd5b611cd288338984612998565b60408051600160a060020a038a1681526020810189905233818301526060810183905290517f712ba985aadc7e1ad004710632e7c8567d64eb8729e251f0e8aba9a8ef5fe6299181900360800190a15050505050505050565b600054600160a060020a03163314611d4257600080fd5b6010805460ff19166001179055565b611d59612ba7565b600080611d64612ba7565b600254600160a060020a0316331480611d875750600354600160a060020a031633145b1515611d9257600080fd5b60105460ff1615611da257600080fd5b600160a060020a03861660009081526009602052604090205460ff161515600114611dcc57600080fd5b859250600183600160a060020a031663c19d93fb6040518163ffffffff1660e060020a028152600401602060405180830381600087803b158015611e0f57600080fd5b505af1158015611e23573d6000803e3d6000fd5b505050506040513d6020811015611e3957600080fd5b5051118015611eb2575082600160a060020a031663c19d93fb6040518163ffffffff1660e060020a028152600401602060405180830381600087803b158015611e8157600080fd5b505af1158015611e95573d6000803e3d6000fd5b505050506040513d6020811015611eab57600080fd5b5051600814155b1515611ebd57600080fd5b600083600160a060020a0316630c3283066040518163ffffffff1660e060020a028152600401602060405180830381600087803b158015611efd57600080fd5b505af1158015611f11573d6000803e3d6000fd5b505050506040513d6020811015611f2757600080fd5b505111611f3357600080fd5b600254600160a060020a03163314611f4f576000915081611f55565b60019150815b5082600160a060020a0316635b9c161a6040518163ffffffff1660e060020a028152600401602060405180830381600087803b158015611f9457600080fd5b505af1158015611fa8573d6000803e3d6000fd5b505050506040513d6020811015611fbe57600080fd5b50518152604080517f0c3283060000000000000000000000000000000000000000000000000000000081529051600160a060020a03851691630c3283069160048083019260209291908290030181600087803b15801561201d57600080fd5b505af1158015612031573d6000803e3d6000fd5b505050506040513d602081101561204757600080fd5b505181600160200201818152505082600160a060020a031663cbd368bc6040518163ffffffff1660e060020a028152600401600060405180830381600087803b15801561209357600080fd5b505af11580156120a7573d6000803e3d6000fd5b5050825160208085015160408051600160a060020a038d81168252938101899052928b16838201526060830193909352608082015290517fc5cc5183e8103bb14e37de404da57bdfeb4a953307ac7ac167c7aa56d65677cd93509081900360a0019150a195945050505050565b600054600160a060020a0316331461212b57600080fd5b60068054600160a060020a031916600160a060020a0392909216919091179055565b60105460009081908190819060ff161561216657600080fd5b85935083600160a060020a0316638d977672866040518263ffffffff1660e060020a02815260040180828152602001915050602060405180830381600087803b1580156121b257600080fd5b505af11580156121c6573d6000803e3d6000fd5b505050506040513d60208110156121dc57600080fd5b505160048054604080517fd379be230000000000000000000000000000000000000000000000000000000081529051939650600160a060020a03918216955033939187169263d379be239282820192602092908290030181600087803b15801561224557600080fd5b505af1158015612259573d6000803e3d6000fd5b505050506040513d602081101561226f57600080fd5b5051600160a060020a03161461228457600080fd5b82600160a060020a031663522e11776040518163ffffffff1660e060020a028152600401602060405180830381600087803b1580156122c257600080fd5b505af11580156122d6573d6000803e3d6000fd5b505050506040513d60208110156122ec57600080fd5b5051156122f857600080fd5b83600160a060020a031663c19d93fb6040518163ffffffff1660e060020a028152600401602060405180830381600087803b15801561233657600080fd5b505af115801561234a573d6000803e3d6000fd5b505050506040513d602081101561236057600080fd5b505160031461236e57600080fd5b82600160a060020a03166318d35b6483600160a060020a0316639d1b464a6040518163ffffffff1660e060020a028152600401602060405180830381600087803b1580156123bb57600080fd5b505af11580156123cf573d6000803e3d6000fd5b505050506040513d60208110156123e557600080fd5b5051604080517f5b9c161a0000000000000000000000000000000000000000000000000000000081529051606491600160a060020a038a1691635b9c161a916004808201926020929091908290030181600087803b15801561244657600080fd5b505af115801561245a573d6000803e3d6000fd5b505050506040513d602081101561247057600080fd5b5051604080517f599b6d230000000000000000000000000000000000000000000000000000000081529051600160a060020a038a169163599b6d239160048083019260209291908290030181600087803b1580156124cd57600080fd5b505af11580156124e1573d6000803e3d6000fd5b505050506040513d60208110156124f757600080fd5b50510281151561250357fe5b0481151561250d57fe5b046040518263ffffffff1660e060020a02815260040180828152602001915050602060405180830381600087803b15801561254757600080fd5b505af115801561255b573d6000803e3d6000fd5b505050506040513d602081101561257157600080fd5b5051604080517fc41a32650000000000000000000000000000000000000000000000000000000081529051919250600160a060020a0385169163c41a32659160048082019260009290919082900301818387803b1580156125d157600080fd5b505af11580156125e5573d6000803e3d6000fd5b505060408051600160a060020a038a1681526020810189905280820185905290517f588e0a15e65b36b54949b7a818337b1a6b9f1fc22a215fa4c67036196c1e44c89350908190036060019150a1505050505050565b600054600160a060020a0316331461265257600080fd5b60058054600160a060020a031916600160a060020a0392909216919091179055565b600054600160a060020a0316331461268b57600080fd5b60038054600160a060020a031916600160a060020a0392909216919091179055565b6010546000908190819060ff16156126c457600080fd5b600160a060020a03841660009081526009602052604090205460ff1615156001146126ee57600080fd5b600160a060020a038085166000818152600a60209081526040808320805480855260029182018452938290205490546003546004805485517f63878328000000000000000000000000000000000000000000000000000000008152918201989098526024810187905260448101939093529087166064830152861660848201529390941660a4840152925190945073__ProjectLibrary________________________9263638783289260c48082019391829003018186803b1580156127b357600080fd5b505af41580156127c7573d6000803e3d6000fd5b505050506040513d60208110156127dd57600080fd5b505160408051600160a060020a0387168152602081018590528215158183015290519192507ffdb6091d8f7d352113b2378dc581309cbfd268312b3e25458d4c0421fc0c22c9919081900360600190a19392505050565b600a6020526000908152604090205481565b600054600160a060020a0316331461285d57600080fd5b61286681612a99565b50565b600054600160a060020a0316331461288057600080fd5b6010805460ff19169055565b6040805163ae4d1af66004820152602481018590526044810184905260648082018490528152608481019091526006546000919082906128d590600160a060020a031683612b09565b9695505050505050565b6000606060008551602e1415156128f557600080fd5b604051915063f58a1adb60048301528b60248301528a60448301528960648301528860848301528760a48301528660c483015261012060e48301528461010483015283610124830152602e6101448301526020860151610164830152604086015161018483015261017282526101928201604052612988600560009054906101000a9004600160a060020a031683612b09565b9c9b505050505050505050505050565b600160a060020a038085166000908152600a60209081526040808320938716835260018401909152812054156129fc5750600160a060020a038416600090815260018201602090815260408083205480845260028501909252909120805484900390555b60008481526002830160209081526040808320805487019055600160a060020a0380891684526001860183528184208890558784526003860190925290912054161515612a6d57600084815260038301602052604090208054600160a060020a031916600160a060020a0387161790555b81546000908152600283016020526040808220548683529120541115612a91578382555b505050505050565b600160a060020a0381161515612aae57600080fd5b60008054604051600160a060020a03808516939216917f8be0079c531659141344cd1fd0a4f28419497f9722a3daafe3b4186f6b6457e091a360008054600160a060020a031916600160a060020a0392909216919091179055565b6000612b158383612b1c565b9392505050565b600060405183601482015276603160008181600b9039f360008080808036809280377381527f5af43d828181803e808314602f57f35bfd0000000000000000000000000000006034820152603c600982016000f09150813b1515612b7f57600080fd5b82518015612b9f5760008082602087016000875af11515612b9f57600080fd5b505092915050565b604080518082018252906002908290803883395091929150505600a165627a7a723058206f0e6ee5ac96f07a7a7b5f4a755e4db8bdb0b24d5d031b2a005d4ec35bab08230029",
  "source": "pragma solidity ^0.4.21;\n\nimport \"./library/PLCRVoting.sol\";\nimport \"./ReputationRegistry.sol\";\nimport \"./DistributeToken.sol\";\nimport \"./ProjectLibrary.sol\";\nimport \"./Task.sol\";\nimport \"bytes/BytesLib.sol\";\nimport \"./library/SafeMath.sol\";\nimport \"./library/Ownable.sol\";\n\n/**\n@title Project Registry for Distribute Network\n@author Team: Jessica Marshall, Ashoka Finley\n@notice This project uses the Project Library to manage the state of Distribute Network projects.\n@dev This contract must be initialized with the address of a valid Token Registry, Reputation Registry\nand Distribute Token\n*/\ncontract ProjectRegistry is Ownable {\n\n    using ProjectLibrary for address;\n    using BytesLib for bytes;\n    using SafeMath for uint256;\n\n    // =====================================================================\n    // EVENTS\n    // =====================================================================\n\n    event LogProjectCreated(address indexed projectAddress, uint256 proposerCost);\n    event LogProjectFullyStaked(address projectAddress, bool staked);\n    event LogTaskHashSubmitted(address projectAddress, bytes32 taskHash, address submitter, uint weighting);\n    event LogProjectActive(address projectAddress, bytes32 topTaskHash, bool active);\n    event LogFinalTaskCreated(address taskAddress, address projectAddress, bytes32 finalTaskHash, uint256 index);\n    event LogTaskClaimed(address projectAddress, uint256 index, uint256 reputationVal, address claimer);\n    event LogSubmitTaskComplete(address projectAddress, uint256 index, uint256 validationFee);\n    event LogProjectValidate(address projectAddress, bool validate);\n    event LogProjectVoting(address projectAddress, bool vote);\n    event LogProjectEnd(address projectAddress, uint end);\n    event LogRewardOriginator(address projectAddress, address originator, uint256 reward);\n    event LogRefundProposer(address projectAddress, uint256 contractCaller, address proposer, uint256 proposedCost, uint256 proposedStake);\n\n    /* event ProxyDeployed(address proxyAddress, address targetAddress); */\n\n    // =====================================================================\n    // STATE VARIABLES\n    // =====================================================================\n\n    PLCRVoting plcrVoting;\n    address tokenRegistryAddress;\n    address reputationRegistryAddress;\n    address distributeTokenAddress;\n    address projectContractAddress;\n    address taskContractAddress;\n\n    uint256 projectNonce = 0;\n    mapping (uint => address) public projectsList;\n    mapping (address => bool) public projects;\n\n    struct StakedState {\n        bytes32 topTaskHash;\n        mapping(address => bytes32) taskHashSubmissions;\n        mapping(bytes32 => uint256) numSubmissionsByWeight;\n        mapping(bytes32 => address) originator;\n    }\n\n    mapping (address => StakedState) public stakedProjects;\n\n    uint[5] public validationRewardWeightings = [36, 24, 17, 13, 10];\n\n    bool freeze;\n\n    // =====================================================================\n    // MODIFIERS\n    // =====================================================================\n\n    modifier onlyTR() {\n        require(msg.sender == tokenRegistryAddress);\n        _;\n    }\n\n    modifier onlyRR() {\n        require(msg.sender == reputationRegistryAddress);\n        _;\n    }\n    modifier onlyTRorRR() {\n        require(msg.sender == tokenRegistryAddress || msg.sender == reputationRegistryAddress);\n        _;\n    }\n\n    // =====================================================================\n    // CONSTRUCTOR\n    // =====================================================================\n\n    /**\n    @notice\n    @dev Quasi constructor is called after thr project is deployed. Requires that all relevant contract\n    address are not yet intialized.\n    @param _distributeToken Address of the distributeToken contract\n    @param _tokenRegistry Address of the token registry contract\n    @param _reputationRegistry Address of the reputation registry contract\n    @param _plcrVoting Address of the plcr voting contract\n    */\n    function init(\n        address _distributeToken,\n        address _tokenRegistry,\n        address _reputationRegistry,\n        address _plcrVoting,\n        address _projectAddress,\n        address _taskAddress\n    ) public {       //contract is created\n              /* address _proxyFactory */\n        require(\n            tokenRegistryAddress == 0 &&\n            reputationRegistryAddress == 0 &&\n            distributeTokenAddress == 0\n        );\n        distributeTokenAddress = _distributeToken;\n        tokenRegistryAddress = _tokenRegistry;\n        reputationRegistryAddress = _reputationRegistry;\n        plcrVoting = PLCRVoting(_plcrVoting);\n        projectContractAddress = _projectAddress;\n        taskContractAddress = _taskAddress;\n        /* proxyFactory = ProxyFactory(_proxyFactory); */\n    }\n\n    // =====================================================================\n    // OWNABLE\n    // =====================================================================\n\n    /**\n     * @dev Freezes the distribute token contract and allows existing token holders to withdraw tokens\n     */\n    function freezeContract() external onlyOwner {\n        freeze = true;\n    }\n\n    /**\n     * @dev Unfreezes the distribute token contract and allows existing token holders to withdraw tokens\n     */\n    function unfreezeContract() external onlyOwner {\n        freeze = false;\n    }\n\n    /**\n     * @dev Instantiate a new instance of plcrVoting contract\n     * @param _newPlcrVoting Address of the new plcr contract\n     */\n    function updatePLCRVoting(address _newPlcrVoting) external onlyOwner {\n        plcrVoting = PLCRVoting(_newPlcrVoting);\n    }\n\n    /**\n     * @dev Update the address of the distributeToken\n     * @param _newDistributeToken Address of the new distribute token\n     */\n    function updateDistributeToken(address _newDistributeToken) external onlyOwner {\n        distributeTokenAddress = _newDistributeToken;\n    }\n\n    /**\n     * @dev Update the address of the base product proxy contract\n     * @param _newProjectContract Address of the new project contract\n     */\n    function updateProjectContract(address _newProjectContract) external onlyOwner {\n        projectContractAddress = _newProjectContract;\n    }\n\n    /**\n     * @dev Update the address of the base task proxy contract\n     * @param _newTaskContract Address of the new task contract\n     */\n    function updateTaskContract(address _newTaskContract) external onlyOwner {\n        taskContractAddress = _newTaskContract;\n    }\n\n    /**\n     * @dev Update the address of the token registry\n     * @param _newTokenRegistry Address of the new token registry\n     */\n    function updateTokenRegistry(address _newTokenRegistry) external onlyOwner {\n        tokenRegistryAddress = _newTokenRegistry;\n    }\n\n    /**\n     * @dev Update the address of the reputation registry\n     * @param _newReputationRegistry Address of the new reputation registry\n     */\n    function updateReputationRegistry(address _newReputationRegistry) external onlyOwner {\n        reputationRegistryAddress = _newReputationRegistry;\n    }\n\n    // =====================================================================\n    // PROXY DEPLOYER\n    // =====================================================================\n\n    function createProxy(address _target, bytes _data)\n        internal\n        returns (address proxyContract)\n    {\n        proxyContract = createProxyImpl(_target, _data);\n\n        /* emit ProxyDeployed(proxyContract, _target); */\n    }\n\n    function createProxyImpl(address _target, bytes _data)\n        internal\n        returns (address proxyContract)\n    {\n        assembly {\n            let contractCode := mload(0x40) // Find empty storage location using \"free memory pointer\"\n\n            mstore(add(contractCode, 0x14), _target) // Add target address, with a 20 bytes [i.e. 32 - (32 - 20)] offset to later accomodate first part of the bytecode\n            mstore(contractCode, 0x000000000000000000603160008181600b9039f3600080808080368092803773) // First part of the bytecode, padded with 9 bytes of zeros to the left, overwrites left padding of target address\n            mstore(add(contractCode, 0x34), 0x5af43d828181803e808314602f57f35bfd000000000000000000000000000000) // Final part of bytecode, offset by 52 bytes\n\n            proxyContract := create(0, add(contractCode, 0x09), 60) // total length 60 bytes\n            if iszero(extcodesize(proxyContract)) {\n                revert(0, 0)\n            }\n\n            // check if the _data.length > 0 and if it is forward it to the newly created contract\n            let dataLength := mload(_data)\n            if iszero(iszero(dataLength)) {\n                if iszero(call(gas, proxyContract, 0, add(_data, 0x20), dataLength, 0, 0)) {\n                    revert(0, 0)\n                }\n            }\n        }\n    }\n\n    function createProxyProject(\n        uint256 _cost,\n        uint256 _costProportion,\n        uint256 _stakingPeriod,\n        address _proposer,\n        uint256 _proposerType,\n        uint256 _proposerStake,\n        bytes _ipfsHash,\n        address _reputationRegistry,\n        address _tokenRegistry\n    ) internal returns (address) {\n        require(_ipfsHash.length == 46);\n        bytes memory dataToSend;\n        assembly {\n            //let ipfsHashSize := mload(_ipfsHash)\n            dataToSend := mload(0x40) // Find empty memory location using \"free memory pointer\"\n            mstore(add(dataToSend, 0x4), 0xf58a1adb)  // this is the function ID\n            mstore(add(dataToSend, 0x24), _cost)\n            mstore(add(dataToSend, 0x44), _costProportion)\n            mstore(add(dataToSend, 0x64), _stakingPeriod)\n            mstore(add(dataToSend, 0x84), _proposer)\n            mstore(add(dataToSend, 0xa4), _proposerType)\n            mstore(add(dataToSend, 0xc4), _proposerStake)\n            mstore(add(dataToSend, 0xe4), 0x120) // <--- _ipfsHash data location part (length + contents)\n            mstore(add(dataToSend, 0x104), _reputationRegistry)\n            mstore(add(dataToSend, 0x124), _tokenRegistry)\n            mstore(add(dataToSend, 0x144), 46) // <--- Length of the IPFS hash size\n            mstore(add(dataToSend, 0x164), mload(add(_ipfsHash, 0x20)))\n            mstore(add(dataToSend, 0x184), mload(add(_ipfsHash, 0x40)))\n            mstore(dataToSend, 0x172) // 4 bytes (function ID) + 32 bytes per parameter * 9 + 32 bytes of \"length of bytes\" + first 32 bytes of bytes data + 14 bytes = 370 bytes [0x172 bytes]\n\n            // updating the free memory pointer with the length of tightly packed\n            mstore(0x40, add(dataToSend, 0x192)) // 0x192 == 0x172 + 0x20\n        }\n        address projectAddress = createProxy(projectContractAddress, dataToSend);\n        return projectAddress;\n    }\n\n    function createProxyTask(\n        bytes32 _hash,\n        address _tokenRegistry,\n        address _reputationRegistry\n    ) internal returns (address) {\n        bytes memory dataToSend;\n        assembly {\n          dataToSend := mload(0x40)\n          mstore(add(dataToSend, 0x4), 0xae4d1af6)\n          mstore(add(dataToSend, 0x24), _hash)\n          mstore(add(dataToSend, 0x44), _tokenRegistry)\n          mstore(add(dataToSend, 0x64), _reputationRegistry)\n          mstore(dataToSend, 0x64)/// 4 + 32 * 3 == 100 bytes\n          mstore(0x40, add(dataToSend, 0x84))\n        }\n        address taskAddress = createProxy(taskContractAddress, dataToSend);\n        return taskAddress;\n    }\n\n    // =====================================================================\n    // STATE CHANGE\n    // =====================================================================\n\n    /**\n    @notice Calls the project library checkStaked function\n    @dev Used to create the correct msg.sender to manage control\n    @param _projectAddress Address of the project\n    @return Boolean representing Staked status\n    */\n    function checkStaked(address _projectAddress) external returns (bool) {\n        require(!freeze);\n        require(projects[_projectAddress] == true);\n        bool staked = _projectAddress.checkStaked();\n        emit LogProjectFullyStaked(_projectAddress, staked);\n        return staked;\n    }\n\n    /**\n    @notice Calls the project library checkActive function, passing along the topTaskHash of the\n    project at `_projectAddress`\n    @dev Used to create the correct msg.sender to manage control\n    @param _projectAddress Address of the project\n    @return Boolean representing Active status\n    */\n    function checkActive(address _projectAddress) public returns (bool) {\n        require(!freeze);\n        require(projects[_projectAddress] == true);\n        bytes32 topTaskHash = stakedProjects[_projectAddress].topTaskHash;\n        bool active = _projectAddress.checkActive(topTaskHash, stakedProjects[_projectAddress].numSubmissionsByWeight[topTaskHash], tokenRegistryAddress, reputationRegistryAddress, distributeTokenAddress);\n        emit LogProjectActive(_projectAddress, topTaskHash, active);\n        return active;\n    }\n\n    /**\n    @notice Calls the project library checkValidate function\n    @dev Used to create the correct msg.sender to manage control\n    @param _projectAddress Address of the project\n    @return Boolean representing Validate status\n    */\n    function checkValidate(address _projectAddress) external {\n        require(!freeze);\n        require(projects[_projectAddress] == true);\n        bool validate = _projectAddress.checkValidate(tokenRegistryAddress, distributeTokenAddress);\n        emit LogProjectValidate(_projectAddress, validate);\n    }\n\n    /**\n    @notice Calls the project library checkVoting function\n    @dev Used to create the correct msg.sender to manage control\n    @param _projectAddress Address of the project\n    @return Boolean representing Voting status\n    */\n    function checkVoting(address _projectAddress) external {\n        require(!freeze);\n        require(projects[_projectAddress] == true);\n        bool vote = _projectAddress.checkVoting(tokenRegistryAddress, distributeTokenAddress, address(plcrVoting));\n        emit LogProjectVoting(_projectAddress, vote);\n    }\n\n    /**\n    @notice Calls the project library checkEnd function. Burns tokens and reputation if the project fails\n    @dev Used to create the correct msg.sender to manage control\n    @param _projectAddress Address of the project\n    @return uint representing Final Status\n    */\n    function checkEnd(address _projectAddress) external {\n        require(!freeze);\n        require(projects[_projectAddress] == true);\n        uint end = _projectAddress.checkEnd(tokenRegistryAddress, distributeTokenAddress, address(plcrVoting), reputationRegistryAddress);\n        emit LogProjectEnd(_projectAddress, end);\n    }\n\n    // =====================================================================\n    // PROPOSER\n    // =====================================================================\n\n    /**\n    @notice Create a project with a cost of `_cost`, a ratio of `_costProportion`, a staking period\n    length of `_stakingPeriod`, by proposer `_proposer` of type `_proposerType` with stake of\n    `_proposerStake` defined by ipfsHash `_ipfsHash`\n    @dev Only callable by the ReputationRegistry or TokenRegistry, after proposer stake is confirmed.\n    @param _cost The total cost of the project in wei\n    @param _costProportion The proportion of the project cost divided by the DistributeToken weiBal\n    represented as integer\n    @param _stakingPeriod The length of time this project is open for staking\n    @param _proposer The address of the user proposing the project\n    @param _proposerType Denotes if a proposer is using reputation or tokens,\n    value must be 1: tokens or 2: reputation\n    @param _proposerStake The amount of reputation or tokens needed to create the proposal\n    @param _ipfsHash The ipfs hash of the full project description\n    @return Address of the created project\n    */\n    function createProject(\n        uint256 _cost,\n        uint256 _costProportion,\n        uint256 _stakingPeriod,\n        address _proposer,\n        uint256 _proposerType,\n        uint256 _proposerStake,\n        bytes _ipfsHash,\n        uint256 _proposerCost\n    ) external onlyTRorRR returns (address) {\n        require(!freeze);\n        address projectAddress = createProxyProject(\n            _cost,\n            _costProportion,\n            _stakingPeriod,\n            _proposer,\n            _proposerType,\n            _proposerStake,\n            _ipfsHash,\n            reputationRegistryAddress,\n            tokenRegistryAddress\n        );\n        projects[projectAddress] = true;\n        projectsList[projectNonce] = projectAddress;\n        projectNonce += 1;\n        emit LogProjectCreated(projectAddress, _proposerCost);\n        return projectAddress;\n    }\n\n    /**\n    @notice Refund a proposer if the project at `_projectAddress` is not in state: 1 Proposed or\n    state: 8 Expired.\n    @dev Only called by the TokenRegistry or ReputationRegistry\n    @param _projectAddress Address of the project\n    @return An array with the weiCost of the project and the proposers stake\n    */\n    function refundProposer(address _projectAddress, address proposer) external onlyTRorRR returns (uint256[2]) {\n        require(!freeze);\n        require(projects[_projectAddress] == true);\n        Project project = Project(_projectAddress);\n        require(project.state() > 1 && project.state() != 8);\n        require(project.proposerStake() > 0);\n        uint256 contractCaller;\n        msg.sender == tokenRegistryAddress\n          ? contractCaller = 1\n          : contractCaller = 0;\n\n        uint256[2] memory returnValues;\n        returnValues[0] = project.proposedCost();\n        returnValues[1] = project.proposerStake();\n        project.clearProposerStake();\n        emit LogRefundProposer(_projectAddress, contractCaller, proposer, returnValues[0], returnValues[1]);\n        return returnValues;\n    }\n\n    // =====================================================================\n    // STAKED\n    // =====================================================================\n\n    /**\n    @notice Submit a hash of a task list `_taskHash` to project at `_projectAddress` by staker\n    `msg.sender`. Makes sure the Project is in the Active State, and calls stakedTaskHash.\n    @dev This library is imported into all the Registries to manage project interactions\n    @param _projectAddress Address of the project\n    @param _taskHash Hash of the task list\n    */\n    function addTaskHash(address _projectAddress, bytes32 _taskHash) external  { // format of has should be 'description', 'percentage', check via js that percentages add up to 100 prior to calling contract\n        require(!freeze);\n        require(projects[_projectAddress] == true);\n        Project project = Project(_projectAddress);\n        checkActive(_projectAddress);\n        require(project.state() == 2);\n        ReputationRegistry rr = ReputationRegistry(reputationRegistryAddress);\n        TokenRegistry tr = TokenRegistry(tokenRegistryAddress);\n        uint256 networkWeight = (rr.calculateWeightOfAddress(msg.sender) + tr.calculateWeightOfAddress(msg.sender)) / 2;\n        uint256 stakerWeight = _projectAddress.calculateWeightOfAddress(msg.sender);\n        uint256 totalWeight = (networkWeight + stakerWeight) / 2;\n        require(totalWeight > 0);\n        stakedTaskHash(_projectAddress, msg.sender, _taskHash, totalWeight);\n        emit LogTaskHashSubmitted(_projectAddress, _taskHash, msg.sender, totalWeight);\n    }\n\n    /**\n    @notice Calculates the taskHash that has the highest weight of all tasks hashes submitted by stakers\n    and stores this as the top task hash.\n    @dev Internal helper function used to calculate the top task hash.\n    @param _projectAddress Address of the project\n    @param _staker Address of the staker\n    @param _taskHash Hash of the task list\n    @param _stakerWeight Weight of the staker\n    */\n    function stakedTaskHash(\n        address _projectAddress,\n        address _staker,\n        bytes32 _taskHash,\n        uint256 _stakerWeight\n    ) internal {\n        StakedState storage ss = stakedProjects[_projectAddress];\n        if(ss.taskHashSubmissions[_staker] !=  0) {   //Not first time submission for this particular address\n            bytes32 submittedTaskHash = ss.taskHashSubmissions[_staker];\n            ss.numSubmissionsByWeight[submittedTaskHash] -= _stakerWeight;\n        }\n        ss.numSubmissionsByWeight[_taskHash] += _stakerWeight;\n        ss.taskHashSubmissions[_staker] = _taskHash;\n        if (ss.originator[_taskHash] == 0) {\n          ss.originator[_taskHash] = _staker;\n        }\n        if(ss.numSubmissionsByWeight[_taskHash] > ss.numSubmissionsByWeight[ss.topTaskHash]) {\n            ss.topTaskHash = _taskHash;\n        }\n    }\n    /**\n    @notice Rewards the originator of a project plan in tokens.\n    @param _projectAddress Address of the project\n    */\n    function rewardOriginator(\n      address _projectAddress\n    ) external {\n      Project project =  Project(_projectAddress);\n      require(project.state() == 6);\n      StakedState storage ss = stakedProjects[_projectAddress];\n      require(msg.sender == ss.originator[ss.topTaskHash]);\n      ss.originator[ss.topTaskHash] = 0;\n      uint amount = (project.proposedCost() + DistributeToken(distributeTokenAddress).weiBal()) / 2;\n      TokenRegistry(tokenRegistryAddress).rewardOriginator(msg.sender, amount);\n      emit LogRewardOriginator(_projectAddress, msg.sender, amount);\n\n    }\n    // =====================================================================\n    // ACTIVE\n    // =====================================================================\n\n    /**\n    @notice Submit the final task list with hashed tasks `_hashes` for project at `_projectAddress`.\n    Hashes the submitted task list to validate it is the top task hash list, and creates a task for\n    each list item with the respective hash.\n    @dev This function is an interation and requires variable gas.\n    @param _projectAddress Address of the project\n    @param _hashes Array of task hashes\n    */\n    // Doesn't Change State Here Could Possibly move to ProjectLibrary\n    function submitHashList(address _projectAddress, bytes32[] _hashes) external {\n        require(!freeze);\n        require(projects[_projectAddress] == true);\n        Project project = Project(_projectAddress);\n        require(project.state() == 3);\n        require(keccak256(abi.encodePacked(_hashes)) == stakedProjects[_projectAddress].topTaskHash);\n        // Fail project if topTaskHash is not over 50\n        require(project.hashListSubmitted() == false);\n        project.setTaskLength(_hashes.length);\n        for (uint256 i = 0; i < _hashes.length; i++) {\n            address newTask = createProxyTask(_hashes[i], tokenRegistryAddress, reputationRegistryAddress);\n            project.setTaskAddress(newTask, i);\n            emit LogFinalTaskCreated(newTask, _projectAddress, _hashes[i], i);\n        }\n        project.setHashListSubmitted();\n    }\n\n    /**\n    @notice Claim a task at index `_index` from project at `_projectAddress` with description\n    `_taskDescription`, weighting `_weighting` by claimer `_claimer. Set the ether reward of the task\n    to `_weiVal` and the reputation needed to claim the task to `_reputationVal`\n    @dev Only callable by the ReputationRegistry\n    @param _projectAddress Address of project\n    @param _index Index of the task in task array.\n    @param _taskDescription Description of the task.\n    @param _claimer Address of account to claim task.\n    @param _weighting Weighting of this particular task (proportion of project funds)\n    @param _weiVal Ether reward of task\n    @param _reputationVal Reputation required to claim task\n    */\n    // Doesn't Change State Here Could Possibly move to ProjectLibrary\n    function claimTask(\n        address _projectAddress,\n        uint256 _index,\n        bytes32 _taskDescription,\n        address _claimer,\n        uint _weighting,\n        uint _weiVal,\n        uint _reputationVal\n    ) external onlyRR {\n        require(!freeze);\n        Project project = Project(_projectAddress);\n        require(project.state() == 3);\n        Task task = Task(project.tasks(_index));\n        require(keccak256(abi.encodePacked(_taskDescription, _weighting)) == task.taskHash());\n        require(\n            task.claimer() == 0 ||\n            (now > (task.claimTime() + project.turnoverTime()) && !task.complete())\n        );\n        task.setWeighting(_weighting);\n        task.setTaskReward(_weiVal, _reputationVal, _claimer);\n        emit LogTaskClaimed(_projectAddress, _index, _reputationVal, _claimer);\n    }\n\n    /**\n    @notice Mark that task at index `_index` in project at `_projectAddress` as completed by the claimer\n    `msg.sender`\n    @param _projectAddress Address of project\n    @param _index Index of the task in task array\n    */\n    // Doesn't Change State Here Could Possibly move to ProjectLibrary\n    function submitTaskComplete(address _projectAddress, uint256 _index) external {\n        require(!freeze);\n        Project project = Project(_projectAddress);\n        Task task = Task(project.tasks(_index));\n        DistributeToken dt = DistributeToken(distributeTokenAddress);\n        require(task.claimer() == msg.sender);\n        require(task.complete() == false);\n        require(project.state() == 3);\n        uint256 validationFee = task.setValidationEntryFee((task.weighting() * project.proposedCost() / 100) / dt.currentPrice());\n        task.markTaskComplete();\n        emit LogSubmitTaskComplete(_projectAddress, _index, validationFee);\n    }\n}\n",
  "sourcePath": "/media/000/Documents/Distribute/distribute-app/contracts/contracts/ProjectRegistry.sol",
  "compiler": {
    "name": "solc",
    "version": "0.4.24+commit.e67f0147.Emscripten.clang"
  },
  "schemaVersion": "2.0.1",
  "updatedAt": "2018-10-12T18:33:50.787Z"
}