{
  "contractName": "TokenRegistry",
  "abi": [
    {
      "constant": false,
      "inputs": [],
      "name": "renounceOwnership",
      "outputs": [],
      "payable": false,
      "stateMutability": "nonpayable",
      "type": "function"
    },
    {
      "constant": true,
      "inputs": [],
      "name": "owner",
      "outputs": [
        {
          "name": "",
          "type": "address"
        }
      ],
      "payable": false,
      "stateMutability": "view",
      "type": "function"
    },
    {
      "constant": false,
      "inputs": [
        {
          "name": "_newOwner",
          "type": "address"
        }
      ],
      "name": "transferOwnership",
      "outputs": [],
      "payable": false,
      "stateMutability": "nonpayable",
      "type": "function"
    },
    {
      "payable": true,
      "stateMutability": "payable",
      "type": "fallback"
    },
    {
      "anonymous": false,
      "inputs": [
        {
          "indexed": false,
          "name": "projectAddress",
          "type": "address"
        },
        {
          "indexed": false,
          "name": "weiCost",
          "type": "uint256"
        },
        {
          "indexed": false,
          "name": "tokenCost",
          "type": "uint256"
        }
      ],
      "name": "LogProjectCreated",
      "type": "event"
    },
    {
      "anonymous": false,
      "inputs": [
        {
          "indexed": true,
          "name": "projectAddress",
          "type": "address"
        },
        {
          "indexed": false,
          "name": "tokens",
          "type": "uint256"
        },
        {
          "indexed": false,
          "name": "weiChange",
          "type": "uint256"
        },
        {
          "indexed": false,
          "name": "staker",
          "type": "address"
        },
        {
          "indexed": false,
          "name": "staked",
          "type": "bool"
        }
      ],
      "name": "LogStakedTokens",
      "type": "event"
    },
    {
      "anonymous": false,
      "inputs": [
        {
          "indexed": true,
          "name": "projectAddress",
          "type": "address"
        },
        {
          "indexed": false,
          "name": "tokens",
          "type": "uint256"
        },
        {
          "indexed": false,
          "name": "weiChange",
          "type": "uint256"
        },
        {
          "indexed": false,
          "name": "unstaker",
          "type": "address"
        }
      ],
      "name": "LogUnstakedTokens",
      "type": "event"
    },
    {
      "anonymous": false,
      "inputs": [
        {
          "indexed": true,
          "name": "projectAddress",
          "type": "address"
        },
        {
          "indexed": false,
          "name": "validationFee",
          "type": "uint256"
        },
        {
          "indexed": false,
          "name": "validationState",
          "type": "bool"
        },
        {
          "indexed": false,
          "name": "taskIndex",
          "type": "uint256"
        },
        {
          "indexed": false,
          "name": "validator",
          "type": "address"
        }
      ],
      "name": "LogValidateTask",
      "type": "event"
    },
    {
      "anonymous": false,
      "inputs": [
        {
          "indexed": true,
          "name": "projectAddress",
          "type": "address"
        },
        {
          "indexed": false,
          "name": "index",
          "type": "uint256"
        },
        {
          "indexed": false,
          "name": "weiReward",
          "type": "uint256"
        },
        {
          "indexed": false,
          "name": "returnAmount",
          "type": "uint256"
        },
        {
          "indexed": false,
          "name": "validator",
          "type": "address"
        }
      ],
      "name": "LogRewardValidator",
      "type": "event"
    },
    {
      "anonymous": false,
      "inputs": [
        {
          "indexed": true,
          "name": "projectAddress",
          "type": "address"
        },
        {
          "indexed": false,
          "name": "index",
          "type": "uint256"
        },
        {
          "indexed": false,
          "name": "tokens",
          "type": "uint256"
        },
        {
          "indexed": false,
          "name": "secretHash",
          "type": "bytes32"
        },
        {
          "indexed": false,
          "name": "pollId",
          "type": "uint256"
        },
        {
          "indexed": false,
          "name": "voter",
          "type": "address"
        }
      ],
      "name": "LogTokenVoteCommitted",
      "type": "event"
    },
    {
      "anonymous": false,
      "inputs": [
        {
          "indexed": true,
          "name": "projectAddress",
          "type": "address"
        },
        {
          "indexed": false,
          "name": "index",
          "type": "uint256"
        },
        {
          "indexed": false,
          "name": "voteOption",
          "type": "uint256"
        },
        {
          "indexed": false,
          "name": "salt",
          "type": "uint256"
        },
        {
          "indexed": false,
          "name": "voter",
          "type": "address"
        }
      ],
      "name": "LogTokenVoteRevealed",
      "type": "event"
    },
    {
      "anonymous": false,
      "inputs": [
        {
          "indexed": true,
          "name": "projectAddress",
          "type": "address"
        },
        {
          "indexed": false,
          "name": "index",
          "type": "uint256"
        },
        {
          "indexed": false,
          "name": "pollId",
          "type": "uint256"
        },
        {
          "indexed": false,
          "name": "voter",
          "type": "address"
        }
      ],
      "name": "LogTokenVoteRescued",
      "type": "event"
    },
    {
      "anonymous": false,
      "inputs": [
        {
          "indexed": true,
          "name": "previousOwner",
          "type": "address"
        }
      ],
      "name": "OwnershipRenounced",
      "type": "event"
    },
    {
      "anonymous": false,
      "inputs": [
        {
          "indexed": true,
          "name": "previousOwner",
          "type": "address"
        },
        {
          "indexed": true,
          "name": "newOwner",
          "type": "address"
        }
      ],
      "name": "OwnershipTransferred",
      "type": "event"
    },
    {
      "constant": false,
      "inputs": [
        {
          "name": "_distributeToken",
          "type": "address"
        },
        {
          "name": "_projectRegistry",
          "type": "address"
        },
        {
          "name": "_plcrVoting",
          "type": "address"
        }
      ],
      "name": "init",
      "outputs": [],
      "payable": false,
      "stateMutability": "nonpayable",
      "type": "function"
    },
    {
      "constant": false,
      "inputs": [],
      "name": "freezeContract",
      "outputs": [],
      "payable": false,
      "stateMutability": "nonpayable",
      "type": "function"
    },
    {
      "constant": false,
      "inputs": [],
      "name": "unfreezeContract",
      "outputs": [],
      "payable": false,
      "stateMutability": "nonpayable",
      "type": "function"
    },
    {
      "constant": false,
      "inputs": [
        {
          "name": "_newPlcrVoting",
          "type": "address"
        }
      ],
      "name": "updatePLCRVoting",
      "outputs": [],
      "payable": false,
      "stateMutability": "nonpayable",
      "type": "function"
    },
    {
      "constant": false,
      "inputs": [
        {
          "name": "_newDistributeToken",
          "type": "address"
        }
      ],
      "name": "updateDistributeToken",
      "outputs": [],
      "payable": false,
      "stateMutability": "nonpayable",
      "type": "function"
    },
    {
      "constant": false,
      "inputs": [
        {
          "name": "_newProjectRegistry",
          "type": "address"
        }
      ],
      "name": "updateProjectRegistry",
      "outputs": [],
      "payable": false,
      "stateMutability": "nonpayable",
      "type": "function"
    },
    {
      "constant": false,
      "inputs": [
        {
          "name": "_cost",
          "type": "uint256"
        },
        {
          "name": "_stakingPeriod",
          "type": "uint256"
        },
        {
          "name": "_ipfsHash",
          "type": "bytes"
        }
      ],
      "name": "proposeProject",
      "outputs": [],
      "payable": false,
      "stateMutability": "nonpayable",
      "type": "function"
    },
    {
      "constant": false,
      "inputs": [
        {
          "name": "_projectAddress",
          "type": "address"
        }
      ],
      "name": "refundProposer",
      "outputs": [],
      "payable": false,
      "stateMutability": "nonpayable",
      "type": "function"
    },
    {
      "constant": false,
      "inputs": [
        {
          "name": "_rewardee",
          "type": "address"
        },
        {
          "name": "_amount",
          "type": "uint256"
        }
      ],
      "name": "rewardOriginator",
      "outputs": [],
      "payable": false,
      "stateMutability": "nonpayable",
      "type": "function"
    },
    {
      "constant": false,
      "inputs": [
        {
          "name": "_projectAddress",
          "type": "address"
        },
        {
          "name": "_tokens",
          "type": "uint256"
        }
      ],
      "name": "stakeTokens",
      "outputs": [],
      "payable": false,
      "stateMutability": "nonpayable",
      "type": "function"
    },
    {
      "constant": false,
      "inputs": [
        {
          "name": "_projectAddress",
          "type": "address"
        },
        {
          "name": "_tokens",
          "type": "uint256"
        }
      ],
      "name": "unstakeTokens",
      "outputs": [],
      "payable": false,
      "stateMutability": "nonpayable",
      "type": "function"
    },
    {
      "constant": true,
      "inputs": [
        {
          "name": "_address",
          "type": "address"
        }
      ],
      "name": "calculateWeightOfAddress",
      "outputs": [
        {
          "name": "",
          "type": "uint256"
        }
      ],
      "payable": false,
      "stateMutability": "view",
      "type": "function"
    },
    {
      "constant": false,
      "inputs": [
        {
          "name": "_projectAddress",
          "type": "address"
        },
        {
          "name": "_taskIndex",
          "type": "uint256"
        },
        {
          "name": "_validationState",
          "type": "bool"
        }
      ],
      "name": "validateTask",
      "outputs": [],
      "payable": false,
      "stateMutability": "nonpayable",
      "type": "function"
    },
    {
      "constant": false,
      "inputs": [
        {
          "name": "_projectAddress",
          "type": "address"
        },
        {
          "name": "_index",
          "type": "uint256"
        }
      ],
      "name": "rewardValidator",
      "outputs": [],
      "payable": false,
      "stateMutability": "nonpayable",
      "type": "function"
    },
    {
      "constant": false,
      "inputs": [
        {
          "name": "_projectAddress",
          "type": "address"
        },
        {
          "name": "_index",
          "type": "uint256"
        },
        {
          "name": "_votes",
          "type": "uint256"
        },
        {
          "name": "_secretHash",
          "type": "bytes32"
        },
        {
          "name": "_prevPollID",
          "type": "uint256"
        }
      ],
      "name": "voteCommit",
      "outputs": [],
      "payable": false,
      "stateMutability": "nonpayable",
      "type": "function"
    },
    {
      "constant": false,
      "inputs": [
        {
          "name": "_projectAddress",
          "type": "address"
        },
        {
          "name": "_index",
          "type": "uint256"
        },
        {
          "name": "_voteOption",
          "type": "uint256"
        },
        {
          "name": "_salt",
          "type": "uint256"
        }
      ],
      "name": "voteReveal",
      "outputs": [],
      "payable": false,
      "stateMutability": "nonpayable",
      "type": "function"
    },
    {
      "constant": false,
      "inputs": [
        {
          "name": "_votes",
          "type": "uint256"
        }
      ],
      "name": "refundVotingTokens",
      "outputs": [],
      "payable": false,
      "stateMutability": "nonpayable",
      "type": "function"
    },
    {
      "constant": false,
      "inputs": [
        {
          "name": "_projectAddress",
          "type": "address"
        }
      ],
      "name": "refundStaker",
      "outputs": [],
      "payable": false,
      "stateMutability": "nonpayable",
      "type": "function"
    },
    {
      "constant": false,
      "inputs": [
        {
          "name": "_projectAddress",
          "type": "address"
        },
        {
          "name": "_index",
          "type": "uint256"
        }
      ],
      "name": "rescueTokens",
      "outputs": [],
      "payable": false,
      "stateMutability": "nonpayable",
      "type": "function"
    },
    {
      "constant": false,
      "inputs": [
        {
          "name": "_value",
          "type": "uint256"
        }
      ],
      "name": "revertWei",
      "outputs": [],
      "payable": false,
      "stateMutability": "nonpayable",
      "type": "function"
    },
    {
      "constant": false,
      "inputs": [
        {
          "name": "_tokens",
          "type": "uint256"
        }
      ],
      "name": "burnTokens",
      "outputs": [],
      "payable": false,
      "stateMutability": "nonpayable",
      "type": "function"
    }
  ],
  "bytecode": "0x6080604052642e90edd000600455606460055560008054600160a060020a03191633179055613ccb806100336000396000f3006080604052600436106101245763ffffffff60e060020a60003504166304b5341581146101265780630805c8a314610147578063184b95591461016b5780632f27ea1f146101985780634012c2a2146101c557806352a220b7146101e657806357376198146102075780635c3523181461022b5780636d1b229d1461024c578063715018a61461026457806374f8c4d21461027957806375f6857b146102a157806379a83f5a146102b95780638be1c84e146102dd5780638da5cb5b146103105780639ab6767314610341578063a584a9b514610359578063bdbff2f11461036e578063c71ce41514610392578063e096fff0146103bb578063e89a173e146103e5578063f2fde38b14610409578063f3e6e08a1461042a578063f4917dd31461044b575b005b34801561013257600080fd5b50610124600160a060020a0360043516610460565b34801561015357600080fd5b50610124600160a060020a03600435166024356104a6565b34801561017757600080fd5b50610124600160a060020a0360043581169060243581169060443516610557565b3480156101a457600080fd5b50610124600160a060020a03600435166024356044356064356084356105e5565b3480156101d157600080fd5b50610124600160a060020a0360043516610ad1565b3480156101f257600080fd5b50610124600160a060020a0360043516610da4565b34801561021357600080fd5b50610124600160a060020a0360043516602435610dea565b34801561023757600080fd5b50610124600160a060020a036004351661105e565b34801561025857600080fd5b5061012460043561131a565b34801561027057600080fd5b506101246113c2565b34801561028557600080fd5b506101246004803590602480359160443591820191013561142e565b3480156102ad57600080fd5b5061012460043561190c565b3480156102c557600080fd5b50610124600160a060020a0360043516602435611999565b3480156102e957600080fd5b506102fe600160a060020a0360043516612034565b60408051918252519081900360200190f35b34801561031c57600080fd5b506103256121d6565b60408051600160a060020a039092168252519081900360200190f35b34801561034d57600080fd5b506101246004356121e5565b34801561036557600080fd5b506101246123b2565b34801561037a57600080fd5b50610124600160a060020a03600435166024356123d8565b34801561039e57600080fd5b50610124600160a060020a03600435166024356044351515613210565b3480156103c757600080fd5b50610124600160a060020a03600435166024356044356064356135c0565b3480156103f157600080fd5b50610124600160a060020a036004351660243561384e565b34801561041557600080fd5b50610124600160a060020a0360043516613b76565b34801561043657600080fd5b50610124600160a060020a0360043516613b99565b34801561045757600080fd5b50610124613bdf565b600054600160a060020a0316331461047757600080fd5b6002805473ffffffffffffffffffffffffffffffffffffffff1916600160a060020a0392909216919091179055565b600154600160a060020a031633146104bd57600080fd5b60065460ff16156104cd57600080fd5b600254604080517f53c333cd000000000000000000000000000000000000000000000000000000008152600160a060020a03858116600483015260248201859052915191909216916353c333cd91604480830192600092919082900301818387803b15801561053b57600080fd5b505af115801561054f573d6000803e3d6000fd5b505050505050565b600254600160a060020a03161580156105795750600154600160a060020a0316155b801561058e5750600354600160a060020a0316155b151561059957600080fd5b60028054600160a060020a0394851673ffffffffffffffffffffffffffffffffffffffff1991821617909155600180549385169382169390931790925560038054919093169116179055565b6006546000908190819060ff16156105fc57600080fd5b6001546040805160e060020a63840e78fd028152600160a060020a038b811660048301529151919092169163840e78fd9160248083019260209291908290030181600087803b15801561064e57600080fd5b505af1158015610662573d6000803e3d6000fd5b505050506040513d602081101561067857600080fd5b5051151560011461068857600080fd5b87600160a060020a0316638d977672886040518263ffffffff1660e060020a02815260040180828152602001915050602060405180830381600087803b1580156106d157600080fd5b505af11580156106e5573d6000803e3d6000fd5b505050506040513d60208110156106fb57600080fd5b5051604080517f6f13ab000000000000000000000000000000000000000000000000000000000081529051600160a060020a0390921691636f13ab00916004808201926020929091908290030181600087803b15801561075a57600080fd5b505af115801561076e573d6000803e3d6000fd5b505050506040513d602081101561078457600080fd5b5051600354604080517f9f68ce54000000000000000000000000000000000000000000000000000000008152336004820152600160248201529051929550600160a060020a0390911691639f68ce54916044808201926020929091908290030181600087803b1580156107f657600080fd5b505af115801561080a573d6000803e3d6000fd5b505050506040513d602081101561082057600080fd5b50519150858210156109d55761083582613c02565b61083e87613c02565b6002546040805160e060020a6370a0823102815233600482015290519390920393508392600160a060020a03909116916370a082319160248083019260209291908290030181600087803b15801561089557600080fd5b505af11580156108a9573d6000803e3d6000fd5b505050506040513d60208110156108bf57600080fd5b505110156108cc57600080fd5b6002546040805160e060020a639e88fd81028152336004820152602481018490529051600160a060020a0390921691639e88fd81916044808201926020929091908290030181600087803b15801561092357600080fd5b505af1158015610937573d6000803e3d6000fd5b505050506040513d602081101561094d57600080fd5b5050600354604080517fc5fa801b00000000000000000000000000000000000000000000000000000000815233600482015284890360248201529051600160a060020a039092169163c5fa801b9160448082019260009290919082900301818387803b1580156109bc57600080fd5b505af11580156109d0573d6000803e3d6000fd5b505050505b600354604080517f5e28fd5e000000000000000000000000000000000000000000000000000000008152336004820152602481018690526044810188905260648101899052608481018790529051600160a060020a0390921691635e28fd5e9160a48082019260009290919082900301818387803b158015610a5657600080fd5b505af1158015610a6a573d6000803e3d6000fd5b5050604080518a8152602081018a9052808201899052606081018790523360808201529051600160a060020a038c1693507f68221fadcfe0c0fde343f46140139a9eb6c6207de21b416db6fff5c8af60354c92509081900360a00190a25050505050505050565b6000610adb613c84565b60065460ff1615610aeb57600080fd5b82915033600160a060020a031682600160a060020a031663a8e4fb906040518163ffffffff1660e060020a028152600401602060405180830381600087803b158015610b3657600080fd5b505af1158015610b4a573d6000803e3d6000fd5b505050506040513d6020811015610b6057600080fd5b5051600160a060020a031614610b7557600080fd5b81600160a060020a03166316ddf0216040518163ffffffff1660e060020a028152600401602060405180830381600087803b158015610bb357600080fd5b505af1158015610bc7573d6000803e3d6000fd5b505050506040513d6020811015610bdd57600080fd5b5051600114610beb57600080fd5b600154604080517faab1d6df000000000000000000000000000000000000000000000000000000008152600160a060020a038681166004830152336024830152825193169263aab1d6df926044808401939192918290030181600087803b158015610c5557600080fd5b505af1158015610c69573d6000803e3d6000fd5b505050506040513d601f19601f820116820180604052506040811015610c8e57600080fd5b506002546020808301516040805160e160020a63141bb07d028152336004820152602481019290925251939450600160a060020a039092169263283760fa9260448082019392918290030181600087803b158015610ceb57600080fd5b505af1158015610cff573d6000803e3d6000fd5b505050506040513d6020811015610d1557600080fd5b50506002548151604080517f53c333cd0000000000000000000000000000000000000000000000000000000081523360048201526014909204602483015251600160a060020a03909216916353c333cd9160448082019260009290919082900301818387803b158015610d8757600080fd5b505af1158015610d9b573d6000803e3d6000fd5b50505050505050565b600054600160a060020a03163314610dbb57600080fd5b6003805473ffffffffffffffffffffffffffffffffffffffff1916600160a060020a0392909216919091179055565b60065460009060ff1615610dfd57600080fd5b6001546040805160e060020a63840e78fd028152600160a060020a0386811660048301529151919092169163840e78fd9160248083019260209291908290030181600087803b158015610e4f57600080fd5b505af1158015610e63573d6000803e3d6000fd5b505050506040513d6020811015610e7957600080fd5b50511515600114610e8957600080fd5b82600160a060020a0316638d977672836040518263ffffffff1660e060020a02815260040180828152602001915050602060405180830381600087803b158015610ed257600080fd5b505af1158015610ee6573d6000803e3d6000fd5b505050506040513d6020811015610efc57600080fd5b5051604080517f6f13ab000000000000000000000000000000000000000000000000000000000081529051600160a060020a0390921691636f13ab00916004808201926020929091908290030181600087803b158015610f5b57600080fd5b505af1158015610f6f573d6000803e3d6000fd5b505050506040513d6020811015610f8557600080fd5b5051600354604080517f57376198000000000000000000000000000000000000000000000000000000008152336004820152602481018490529051929350600160a060020a039091169163573761989160448082019260009290919082900301818387803b158015610ff657600080fd5b505af115801561100a573d6000803e3d6000fd5b5050604080518581526020810185905233818301529051600160a060020a03871693507f2f5ad399033fbb479a9133244f1ac6c0f52e6eacc10a0c83200149062c877e7c92509081900360600190a2505050565b60065460009060ff161561107157600080fd5b6001546040805160e060020a63840e78fd028152600160a060020a0385811660048301529151919092169163840e78fd9160248083019260209291908290030181600087803b1580156110c357600080fd5b505af11580156110d7573d6000803e3d6000fd5b505050506040513d60208110156110ed57600080fd5b505115156001146110fd57600080fd5b604080517fa3ffcc47000000000000000000000000000000000000000000000000000000008152600160a060020a0384166004820152336024820152905173__ProjectLibrary________________________9163a3ffcc47916044808301926020929190829003018186803b15801561117657600080fd5b505af415801561118a573d6000803e3d6000fd5b505050506040513d60208110156111a057600080fd5b50519050600081116111b157600080fd5b604080517f06a5ab2c0000000000000000000000000000000000000000000000000000000081523360048201529051600160a060020a038416916306a5ab2c91602480830192600092919082900301818387803b15801561121157600080fd5b505af1158015611225573d6000803e3d6000fd5b50506002546040805160e160020a63141bb07d028152336004820152602481018690529051600160a060020a03909216935063283760fa92506044808201926020929091908290030181600087803b15801561128057600080fd5b505af1158015611294573d6000803e3d6000fd5b505050506040513d60208110156112aa57600080fd5b5050600254604080517f2be8c2a50000000000000000000000000000000000000000000000000000000081523360048201526014840460248201529051600160a060020a0390921691632be8c2a59160448082019260009290919082900301818387803b15801561053b57600080fd5b600154600160a060020a0316331461133157600080fd5b60065460ff161561134157600080fd5b600254604080517f42966c68000000000000000000000000000000000000000000000000000000008152600481018490529051600160a060020a03909216916342966c689160248082019260009290919082900301818387803b1580156113a757600080fd5b505af11580156113bb573d6000803e3d6000fd5b5050505050565b600054600160a060020a031633146113d957600080fd5b60008054604051600160a060020a03909116917ff8df31144d9c2f0f6b59d69b8b98abd5459d07f2742c4df920b25aae33c6482091a26000805473ffffffffffffffffffffffffffffffffffffffff19169055565b6006546000908190819060ff161561144557600080fd5b85421080156114545750600087115b151561145f57600080fd5b73__Division______________________________622c1a9e88600260009054906101000a9004600160a060020a0316600160a060020a031663065d5d0a6040518163ffffffff1660e060020a028152600401602060405180830381600087803b1580156114cc57600080fd5b505af11580156114e0573d6000803e3d6000fd5b505050506040513d60208110156114f657600080fd5b50516040805160e060020a63ffffffff861602815260048101939093526024830191909152600a6044830152516064808301926020929190829003018186803b15801561154257600080fd5b505af4158015611556573d6000803e3d6000fd5b505050506040513d602081101561156c57600080fd5b5051600254604080517f18160ddd00000000000000000000000000000000000000000000000000000000815290519295506402540be40092600160a060020a03909216916318160ddd916004808201926020929091908290030181600087803b1580156115d857600080fd5b505af11580156115ec573d6000803e3d6000fd5b505050506040513d602081101561160257600080fd5b505160048054604080517e2c1a9e0000000000000000000000000000000000000000000000000000000081529283018890526024830191909152600a60448301525173__Division______________________________91622c1a9e916064808301926020929190829003018186803b15801561167e57600080fd5b505af4158015611692573d6000803e3d6000fd5b505050506040513d60208110156116a857600080fd5b5051028115156116b457fe5b6002546040805160e060020a6370a0823102815233600482015290519390920494508492600160a060020a03909116916370a082319160248083019260209291908290030181600087803b15801561170b57600080fd5b505af115801561171f573d6000803e3d6000fd5b505050506040513d602081101561173557600080fd5b5051101561174257600080fd5b6002546040805160e060020a639e88fd81028152336004820152602481018590529051600160a060020a0390921691639e88fd81916044808201926020929091908290030181600087803b15801561179957600080fd5b505af11580156117ad573d6000803e3d6000fd5b505050506040513d60208110156117c357600080fd5b5050600180546040517f77fd49f0000000000000000000000000000000000000000000000000000000008152600481018a815260248201879052604482018a905233606483018190526084830185905260a4830187905260e4830187905261010060c4840190815261010484018a9052600160a060020a03909416946377fd49f0948d948a948e9493928b928f928f9285926101240185858082843782019150509a5050505050505050505050602060405180830381600087803b15801561188a57600080fd5b505af115801561189e573d6000803e3d6000fd5b505050506040513d60208110156118b457600080fd5b505160408051600160a060020a0383168152602081018a905280820185905290519192507f809523e516336d444261958e529ac0ff837801879a12fe6b90c087a267adde4a919081900360600190a150505050505050565b600154600160a060020a0316331461192357600080fd5b60065460ff161561193357600080fd5b600254604080517fe99364ed000000000000000000000000000000000000000000000000000000008152600481018490529051600160a060020a039092169163e99364ed9160248082019260009290919082900301818387803b1580156113a757600080fd5b600654600090819081908190819081908190819060ff16156119ba57600080fd5b6001546040805160e060020a63840e78fd028152600160a060020a038d811660048301529151919092169163840e78fd9160248083019260209291908290030181600087803b158015611a0c57600080fd5b505af1158015611a20573d6000803e3d6000fd5b505050506040513d6020811015611a3657600080fd5b50511515600114611a4657600080fd5b6002546040805160e060020a6370a0823102815233600482015290518b92600160a060020a0316916370a082319160248083019260209291908290030181600087803b158015611a9557600080fd5b505af1158015611aa9573d6000803e3d6000fd5b505050506040513d6020811015611abf57600080fd5b50511015611acc57600080fd5b600154604080517f247f8e14000000000000000000000000000000000000000000000000000000008152600160a060020a03808e16600483015291518d9b50919092169163247f8e149160248083019260209291908290030181600087803b158015611b3757600080fd5b505af1158015611b4b573d6000803e3d6000fd5b505050506040513d6020811015611b6157600080fd5b5050604080517fc19d93fb0000000000000000000000000000000000000000000000000000000081529051600160a060020a038a169163c19d93fb9160048083019260209291908290030181600087803b158015611bbe57600080fd5b505af1158015611bd2573d6000803e3d6000fd5b505050506040513d6020811015611be857600080fd5b5051600114611bf657600080fd5b87600160a060020a031663065d5d0a6040518163ffffffff1660e060020a028152600401602060405180830381600087803b158015611c3457600080fd5b505af1158015611c48573d6000803e3d6000fd5b505050506040513d6020811015611c5e57600080fd5b5051604080517f12ff35bc0000000000000000000000000000000000000000000000000000000081529051600160a060020a038b16916312ff35bc9160048083019260209291908290030181600087803b158015611cbb57600080fd5b505af1158015611ccf573d6000803e3d6000fd5b505050506040513d6020811015611ce557600080fd5b505103965060008711611cf757600080fd5b600260009054906101000a9004600160a060020a0316600160a060020a0316639d1b464a6040518163ffffffff1660e060020a028152600401602060405180830381600087803b158015611d4a57600080fd5b505af1158015611d5e573d6000803e3d6000fd5b505050506040513d6020811015611d7457600080fd5b505195508886029450868511935083611d8d5784611d8f565b865b925083611d9c5788611dac565b8587811515611da757fe5b046001015b604080517f0cff8e8f00000000000000000000000000000000000000000000000000000000815233600482015260248101839052604481018690529051919350600160a060020a038a1691630cff8e8f9160648082019260009290919082900301818387803b158015611e1e57600080fd5b505af1158015611e32573d6000803e3d6000fd5b5050600254604080517f53c333cd000000000000000000000000000000000000000000000000000000008152600160a060020a038f811660048301526024820189905291519190921693506353c333cd9250604480830192600092919082900301818387803b158015611ea457600080fd5b505af1158015611eb8573d6000803e3d6000fd5b50506002546040805160e060020a639e88fd81028152336004820152602481018790529051600160a060020a039092169350639e88fd8192506044808201926020929091908290030181600087803b158015611f1357600080fd5b505af1158015611f27573d6000803e3d6000fd5b505050506040513d6020811015611f3d57600080fd5b5050600154604080517f247f8e14000000000000000000000000000000000000000000000000000000008152600160a060020a038d811660048301529151919092169163247f8e149160248083019260209291908290030181600087803b158015611fa757600080fd5b505af1158015611fbb573d6000803e3d6000fd5b505050506040513d6020811015611fd157600080fd5b50516040805184815260208101869052338183015282151560608201529051919250600160a060020a038c16917fa8371176c22bf281f3dc4915c8ef1ce66ba9399788cdc0a97b11546e6a7fa58b9181900360800190a250505050505050505050565b6002546040805160e060020a6370a08231028152600160a060020a038481166004830152915160009373__Division______________________________93622c1a9e939116916370a082319160248082019260209290919082900301818987803b1580156120a257600080fd5b505af11580156120b6573d6000803e3d6000fd5b505050506040513d60208110156120cc57600080fd5b5051600254604080517f18160ddd0000000000000000000000000000000000000000000000000000000081529051600160a060020a03909216916318160ddd916004808201926020929091908290030181600087803b15801561212e57600080fd5b505af1158015612142573d6000803e3d6000fd5b505050506040513d602081101561215857600080fd5b50516040805160e060020a63ffffffff861602815260048101939093526024830191909152600f6044830152516064808301926020929190829003018186803b1580156121a457600080fd5b505af41580156121b8573d6000803e3d6000fd5b505050506040513d60208110156121ce57600080fd5b505192915050565b600054600160a060020a031681565b600654600090819060ff16156121fa57600080fd5b600354604080517f9f68ce54000000000000000000000000000000000000000000000000000000008152336004820152600160248201529051600160a060020a0390921691639f68ce54916044808201926020929091908290030181600087803b15801561226757600080fd5b505af115801561227b573d6000803e3d6000fd5b505050506040513d602081101561229157600080fd5b505191506122a0838303613c02565b6122a983613c02565b600354604080517fef348e40000000000000000000000000000000000000000000000000000000008152336004820152602481018890529051939092039350600160a060020a03169163ef348e409160448082019260009290919082900301818387803b15801561231957600080fd5b505af115801561232d573d6000803e3d6000fd5b50506002546040805160e160020a63141bb07d028152336004820152602481018690529051600160a060020a03909216935063283760fa92506044808201926020929091908290030181600087803b15801561238857600080fd5b505af115801561239c573d6000803e3d6000fd5b505050506040513d60208110156113bb57600080fd5b600054600160a060020a031633146123c957600080fd5b6006805460ff19166001179055565b600080600080600080600080600080600660009054906101000a900460ff1615151561240357600080fd5b6001546040805160e060020a63840e78fd028152600160a060020a038f811660048301529151919092169163840e78fd9160248083019260209291908290030181600087803b15801561245557600080fd5b505af1158015612469573d6000803e3d6000fd5b505050506040513d602081101561247f57600080fd5b5051151560011461248f57600080fd5b8b995089600160a060020a0316638d9776728c6040518263ffffffff1660e060020a02815260040180828152602001915050602060405180830381600087803b1580156124db57600080fd5b505af11580156124ef573d6000803e3d6000fd5b505050506040513d602081101561250557600080fd5b5051604080517faf38d7570000000000000000000000000000000000000000000000000000000081529051919a50600160a060020a038b169163af38d757916004808201926020929091908290030181600087803b15801561256657600080fd5b505af115801561257a573d6000803e3d6000fd5b505050506040513d602081101561259057600080fd5b5051151561259d57600080fd5b604080517f1fcc449e0000000000000000000000000000000000000000000000000000000081523360048201529051600160a060020a038b1691631fcc449e9160248083019260209291908290030181600087803b1580156125fe57600080fd5b505af1158015612612573d6000803e3d6000fd5b505050506040513d602081101561262857600080fd5b505196506005871061263957600080fd5b604080517f206cf0a80000000000000000000000000000000000000000000000000000000081523360048201529051600160a060020a038b169163206cf0a891602480830192600092919082900301818387803b15801561269957600080fd5b505af11580156126ad573d6000803e3d6000fd5b5050600154604080517f873299b4000000000000000000000000000000000000000000000000000000008152600481018c90529051600160a060020a03909216935063873299b492506024808201926020929091908290030181600087803b15801561271857600080fd5b505af115801561272c573d6000803e3d6000fd5b505050506040513d602081101561274257600080fd5b5051604080517fedb151a80000000000000000000000000000000000000000000000000000000081529051919750600160a060020a038b169163edb151a8916004808201926020929091908290030181600087803b1580156127a357600080fd5b505af11580156127b7573d6000803e3d6000fd5b505050506040513d60208110156127cd57600080fd5b50516127da5760006127dd565b60015b60ff16945088600160a060020a031663a310624f336040518263ffffffff1660e060020a0281526004018082600160a060020a0316600160a060020a03168152602001915050602060405180830381600087803b15801561283d57600080fd5b505af1158015612851573d6000803e3d6000fd5b505050506040513d602081101561286757600080fd5b5051851415612e2e5788600160a060020a03166376e567636040518163ffffffff1660e060020a028152600401602060405180830381600087803b1580156128ae57600080fd5b505af11580156128c2573d6000803e3d6000fd5b505050506040513d60208110156128d857600080fd5b5051604080517fa310624f00000000000000000000000000000000000000000000000000000000815233600482015290519990910198600160a060020a038b169163a310624f9160248083019260209291908290030181600087803b15801561294057600080fd5b505af1158015612954573d6000803e3d6000fd5b505050506040513d602081101561296a57600080fd5b505160011415612a775733600160a060020a031689600160a060020a03166379fd9576896040518263ffffffff1660e060020a02815260040180828152602001915050602060405180830381600087803b1580156129c757600080fd5b505af11580156129db573d6000803e3d6000fd5b505050506040513d60208110156129f157600080fd5b5051600160a060020a031614612a0657600080fd5b88600160a060020a031663704d31266040518163ffffffff1660e060020a028152600401602060405180830381600087803b158015612a4457600080fd5b505af1158015612a58573d6000803e3d6000fd5b505050506040513d6020811015612a6e57600080fd5b50519350612b76565b33600160a060020a031689600160a060020a0316634a7de6dd896040518263ffffffff1660e060020a02815260040180828152602001915050602060405180830381600087803b158015612aca57600080fd5b505af1158015612ade573d6000803e3d6000fd5b505050506040513d6020811015612af457600080fd5b5051600160a060020a031614612b0957600080fd5b88600160a060020a031663fc6ebece6040518163ffffffff1660e060020a028152600401602060405180830381600087803b158015612b4757600080fd5b505af1158015612b5b573d6000803e3d6000fd5b505050506040513d6020811015612b7157600080fd5b505193505b6005841015612c40578391505b6005821015612c2f57600154604080517f873299b4000000000000000000000000000000000000000000000000000000008152600481018590529051600160a060020a039092169163873299b4916024808201926020929091908290030181600087803b158015612bf357600080fd5b505af1158015612c07573d6000803e3d6000fd5b505050506040513d6020811015612c1d57600080fd5b50519290920191600190910190612b83565b8383811515612c3a57fe5b04860195505b612710868a600160a060020a031663599b6d236040518163ffffffff1660e060020a028152600401602060405180830381600087803b158015612c8257600080fd5b505af1158015612c96573d6000803e3d6000fd5b505050506040513d6020811015612cac57600080fd5b5051604080517f8cf86deb0000000000000000000000000000000000000000000000000000000081529051600160a060020a038f1691638cf86deb9160048083019260209291908290030181600087803b158015612d0957600080fd5b505af1158015612d1d573d6000803e3d6000fd5b505050506040513d6020811015612d3357600080fd5b50510202811515612d4057fe5b04905089600160a060020a031663b10bbaab33836040518363ffffffff1660e060020a0281526004018083600160a060020a0316600160a060020a0316815260200182815260200192505050600060405180830381600087803b158015612da657600080fd5b505af1158015612dba573d6000803e3d6000fd5b505050508b600160a060020a03167f93695f5e3157c7a48c3ea364f7eeb208c65b7cb4a92de4eed5621e667b08b71a8c838b336040518085815260200184815260200183815260200182600160a060020a0316600160a060020a0316815260200194505050505060405180910390a261312d565b50600060018514612ed05733600160a060020a031689600160a060020a03166379fd9576896040518263ffffffff1660e060020a02815260040180828152602001915050602060405180830381600087803b158015612e8c57600080fd5b505af1158015612ea0573d6000803e3d6000fd5b505050506040513d6020811015612eb657600080fd5b5051600160a060020a031614612ecb57600080fd5b612f62565b33600160a060020a031689600160a060020a0316634a7de6dd896040518263ffffffff1660e060020a02815260040180828152602001915050602060405180830381600087803b158015612f2357600080fd5b505af1158015612f37573d6000803e3d6000fd5b505050506040513d6020811015612f4d57600080fd5b5051600160a060020a031614612f6257600080fd5b600289600160a060020a03166376e567636040518163ffffffff1660e060020a028152600401602060405180830381600087803b158015612fa257600080fd5b505af1158015612fb6573d6000803e3d6000fd5b505050506040513d6020811015612fcc57600080fd5b5051811515612fd757fe5b0488019750600260009054906101000a9004600160a060020a0316600160a060020a03166342966c68898b600160a060020a03166376e567636040518163ffffffff1660e060020a028152600401602060405180830381600087803b15801561303f57600080fd5b505af1158015613053573d6000803e3d6000fd5b505050506040513d602081101561306957600080fd5b50516040805160e060020a63ffffffff861602815292909103600483015251602480830192600092919082900301818387803b1580156130a857600080fd5b505af11580156130bc573d6000803e3d6000fd5b505050508b600160a060020a03167f93695f5e3157c7a48c3ea364f7eeb208c65b7cb4a92de4eed5621e667b08b71a8c60008b336040518085815260200184815260200183815260200182600160a060020a0316600160a060020a0316815260200194505050505060405180910390a25b604080518c8152602081018390528082018a90523360608201529051600160a060020a038e16917f93695f5e3157c7a48c3ea364f7eeb208c65b7cb4a92de4eed5621e667b08b71a919081900360800190a26002546040805160e160020a63141bb07d028152336004820152602481018b90529051600160a060020a039092169163283760fa916044808201926020929091908290030181600087803b1580156131d657600080fd5b505af11580156131ea573d6000803e3d6000fd5b505050506040513d602081101561320057600080fd5b5050505050505050505050505050565b6006546000908190819060ff161561322757600080fd5b6001546040805160e060020a63840e78fd028152600160a060020a0389811660048301529151919092169163840e78fd9160248083019260209291908290030181600087803b15801561327957600080fd5b505af115801561328d573d6000803e3d6000fd5b505050506040513d60208110156132a357600080fd5b505115156001146132b357600080fd5b85925082600160a060020a0316638d977672866040518263ffffffff1660e060020a02815260040180828152602001915050602060405180830381600087803b1580156132ff57600080fd5b505af1158015613313573d6000803e3d6000fd5b505050506040513d602081101561332957600080fd5b5051604080517f76e567630000000000000000000000000000000000000000000000000000000081529051919350600160a060020a038416916376e56763916004808201926020929091908290030181600087803b15801561338a57600080fd5b505af115801561339e573d6000803e3d6000fd5b505050506040513d60208110156133b457600080fd5b50516002546040805160e060020a6370a0823102815233600482015290519293508392600160a060020a03909216916370a08231916024808201926020929091908290030181600087803b15801561340b57600080fd5b505af115801561341f573d6000803e3d6000fd5b505050506040513d602081101561343557600080fd5b5051101561344257600080fd5b6002546040805160e060020a639e88fd81028152336004820152602481018490529051600160a060020a0390921691639e88fd81916044808201926020929091908290030181600087803b15801561349957600080fd5b505af11580156134ad573d6000803e3d6000fd5b505050506040513d60208110156134c357600080fd5b5050604080517f1e00d38c000000000000000000000000000000000000000000000000000000008152600160a060020a0388166004820152336024820152604481018790528515156064820152905173__ProjectLibrary________________________91631e00d38c916084808301926000929190829003018186803b15801561354d57600080fd5b505af4158015613561573d6000803e3d6000fd5b50506040805184815287151560208201528082018990523360608201529051600160a060020a038a1693507ffcf6e0d779a85721c9473df9f29a18721c43158bf6a1a0dad03051657d3835ec92509081900360800190a2505050505050565b60065460ff16156135d057600080fd5b6001546040805160e060020a63840e78fd028152600160a060020a0387811660048301529151919092169163840e78fd9160248083019260209291908290030181600087803b15801561362257600080fd5b505af1158015613636573d6000803e3d6000fd5b505050506040513d602081101561364c57600080fd5b5051151560011461365c57600080fd5b600354604080517f8d977672000000000000000000000000000000000000000000000000000000008152600481018690529051600160a060020a039283169263bfd9957192339291891691638d977672916024808201926020929091908290030181600087803b1580156136cf57600080fd5b505af11580156136e3573d6000803e3d6000fd5b505050506040513d60208110156136f957600080fd5b5051604080517f6f13ab000000000000000000000000000000000000000000000000000000000081529051600160a060020a0390921691636f13ab00916004808201926020929091908290030181600087803b15801561375857600080fd5b505af115801561376c573d6000803e3d6000fd5b505050506040513d602081101561378257600080fd5b50516040805160e060020a63ffffffff8616028152600160a060020a0390931660048401526024830191909152604482018690526064820185905251608480830192600092919082900301818387803b1580156137de57600080fd5b505af11580156137f2573d6000803e3d6000fd5b505060408051868152602081018690528082018590523360608201529051600160a060020a03881693507fcd3cc68af7e16451e0a3813cbed811e5b4fbf81d420f05de34eb66a57e45802e92509081900360800190a250505050565b60065460009060ff161561386157600080fd5b6001546040805160e060020a63840e78fd028152600160a060020a0386811660048301529151919092169163840e78fd9160248083019260209291908290030181600087803b1580156138b357600080fd5b505af11580156138c7573d6000803e3d6000fd5b505050506040513d60208110156138dd57600080fd5b505115156001146138ed57600080fd5b600154604080517f247f8e14000000000000000000000000000000000000000000000000000000008152600160a060020a0386811660048301529151919092169163247f8e149160248083019260209291908290030181600087803b15801561395557600080fd5b505af1158015613969573d6000803e3d6000fd5b505050506040513d602081101561397f57600080fd5b5050600254604080517f181f8d2400000000000000000000000000000000000000000000000000000000815233600482015260248101859052600160a060020a03928316604482015290519185169163181f8d24916064808201926020929091908290030181600087803b1580156139f657600080fd5b505af1158015613a0a573d6000803e3d6000fd5b505050506040513d6020811015613a2057600080fd5b5051600254604080517fe99364ed000000000000000000000000000000000000000000000000000000008152600481018490529051929350600160a060020a039091169163e99364ed9160248082019260009290919082900301818387803b158015613a8b57600080fd5b505af1158015613a9f573d6000803e3d6000fd5b50506002546040805160e160020a63141bb07d028152336004820152602481018790529051600160a060020a03909216935063283760fa92506044808201926020929091908290030181600087803b158015613afa57600080fd5b505af1158015613b0e573d6000803e3d6000fd5b505050506040513d6020811015613b2457600080fd5b5050604080518381526020810183905233818301529051600160a060020a038516917f62d1d6ab164da3479211e8a3d70cd851b256bafcd0944d19e63f4cc7a844dcc1919081900360600190a2505050565b600054600160a060020a03163314613b8d57600080fd5b613b9681613c07565b50565b600054600160a060020a03163314613bb057600080fd5b6001805473ffffffffffffffffffffffffffffffffffffffff1916600160a060020a0392909216919091179055565b600054600160a060020a03163314613bf657600080fd5b6006805460ff19169055565b800290565b600160a060020a0381161515613c1c57600080fd5b60008054604051600160a060020a03808516939216917f8be0079c531659141344cd1fd0a4f28419497f9722a3daafe3b4186f6b6457e091a36000805473ffffffffffffffffffffffffffffffffffffffff1916600160a060020a0392909216919091179055565b604080518082018252906002908290803883395091929150505600a165627a7a7230582002a9bf169fedc8b72181df5e8b080c0284a2a05f66581ee6c845f8fc8558808b0029",
  "source": "pragma solidity ^0.4.21;\n\nimport \"./ProjectRegistry.sol\";\nimport \"./DistributeToken.sol\";\nimport \"./Project.sol\";\nimport \"./ProjectLibrary.sol\";\nimport \"./Task.sol\";\nimport \"./library/PLCRVoting.sol\";\nimport \"./library/Division.sol\";\nimport \"./library/SafeMath.sol\";\nimport \"./library/Ownable.sol\";\n\n/**\n@title This contract serves as the interface through which users propose projects, stake tokens,\ncome to consensus around tasks, validate projects, vote on projects, refund their stakes, and\nclaim their rewards.\n@author Team: Jessica Marshall, Ashoka Finley\n@notice This contract implements how users perform actions using capital tokens in the various stages of a project.\n*/\ncontract TokenRegistry is Ownable {\n\n    using ProjectLibrary for address;\n    using SafeMath for uint256;\n\n    // =====================================================================\n    // EVENTS\n    // =====================================================================\n\n    event LogProjectCreated(address projectAddress, uint256 weiCost, uint256 tokenCost);\n    event LogStakedTokens(address indexed projectAddress, uint256 tokens, uint256 weiChange, address staker, bool staked);\n    event LogUnstakedTokens(address indexed projectAddress, uint256 tokens, uint256 weiChange, address unstaker);\n    event LogValidateTask(address indexed projectAddress, uint256 validationFee, bool validationState, uint256 taskIndex, address validator);\n    event LogRewardValidator(address indexed projectAddress, uint256 index, uint256 weiReward, uint256 returnAmount, address validator);\n    event LogTokenVoteCommitted(address indexed projectAddress, uint256 index, uint256 tokens, bytes32 secretHash, uint256 pollId, address voter);\n    event LogTokenVoteRevealed(address indexed projectAddress, uint256 index, uint256 voteOption, uint256 salt, address voter);\n    event LogTokenVoteRescued(address indexed projectAddress, uint256 index, uint256 pollId, address voter);\n\n    // =====================================================================\n    // STATE VARIABLES\n    // =====================================================================\n\n    ProjectRegistry projectRegistry;\n    DistributeToken distributeToken;\n    PLCRVoting plcrVoting;\n\n    uint256 proposeProportion = 200000000000;  // tokensupply/proposeProportion is the number of tokens the proposer must stake\n    uint256 rewardProportion = 100;\n\n    bool freeze;\n\n    // =====================================================================\n    // MODIFIERS\n    // =====================================================================\n\n    modifier onlyPR() {\n        require(msg.sender == address(projectRegistry));\n        _;\n    }\n\n    // =====================================================================\n    // CONSTRUCTOR\n    // =====================================================================\n\n    /**\n    @dev Quasi constructor is called after contract is deployed, must be called with distributeToken,\n    projectRegistry, and plcrVoting intialized to 0\n    @param _distributeToken Address of DistributeToken contract\n    @param _projectRegistry Address of ProjectRegistry contract\n    @param _plcrVoting Address of PLCRVoting contract\n    */\n    function init(address _distributeToken, address _projectRegistry, address _plcrVoting) public { //contract is created\n        require(\n            address(distributeToken) == 0 &&\n            address(projectRegistry) == 0 &&\n            address(plcrVoting) == 0\n        );\n\n        distributeToken = DistributeToken(_distributeToken);\n        projectRegistry = ProjectRegistry(_projectRegistry);\n        plcrVoting = PLCRVoting(_plcrVoting);\n    }\n\n    // =====================================================================\n    // OWNABLE\n    // =====================================================================\n\n    /**\n     * @dev Freezes the contract and allows existing token holders to withdraw tokens\n     */\n    function freezeContract() external onlyOwner {\n      freeze = true;\n    }\n\n    /**\n     * @dev Unfreezes the contract and allows existing token holders to withdraw tokens\n     */\n    function unfreezeContract() external onlyOwner {\n      freeze = false;\n    }\n\n    /**\n     * @dev Instantiate a new instance of plcrVoting contract\n     * @param _newPlcrVoting Address of the new plcr contract\n     */\n    function updatePLCRVoting(address _newPlcrVoting) external onlyOwner {\n      plcrVoting = PLCRVoting(_newPlcrVoting);\n    }\n\n    /**\n     * @dev Update the address of the distributeToken\n     * @param _newDistributeToken Address of the new distribute token\n     */\n    function updateDistributeToken(address _newDistributeToken) external onlyOwner {\n      distributeToken = DistributeToken(_newDistributeToken);\n    }\n\n    /**\n     * @dev Update the address of the base product proxy contract\n     * @param _newProjectRegistry Address of the new project contract\n     */\n    function updateProjectRegistry(address _newProjectRegistry) external onlyOwner {\n      projectRegistry = ProjectRegistry(_newProjectRegistry);\n    }\n\n    function squaredAmount(uint _amount) internal pure returns (uint) {\n      return _amount * _amount;\n    }\n\n\n    // =====================================================================\n    // FALLBACK\n    // =====================================================================\n\n    function() public payable {}\n\n    // =====================================================================\n    // PROPOSE\n    // =====================================================================\n\n    /**\n    @notice Propose a project of cost `_cost` with staking period `_stakingPeriod` and hash `_ipfsHash`,\n    with tokens.\n    @dev Calls ProjectRegistry.createProject to finalize transaction and emits ProjectCreated event\n    @param _cost Total project cost in wei\n    @param _stakingPeriod Length of time the project can be staked on before it expires\n    @param _ipfsHash Hash of the project description\n    */\n    function proposeProject(uint256 _cost, uint256 _stakingPeriod, bytes _ipfsHash) external {\n        require(!freeze);\n        require(now < _stakingPeriod && _cost > 0);\n        uint256 costProportion = Division.percent(_cost, distributeToken.weiBal(), 10);\n        uint256 proposerTokenCost = (\n            Division.percent(costProportion, proposeProportion, 10) *\n            distributeToken.totalSupply()) /\n            10000000000;           //divide by 20 to get 5 percent of tokens\n        require(distributeToken.balanceOf(msg.sender) >= proposerTokenCost);\n\n        distributeToken.transferToEscrow(msg.sender, proposerTokenCost);\n        address projectAddress = projectRegistry.createProject(\n            _cost,\n            costProportion,\n            _stakingPeriod,\n            msg.sender,\n            1,\n            proposerTokenCost,\n            _ipfsHash,\n            proposerTokenCost\n        );\n        emit LogProjectCreated(projectAddress, _cost, proposerTokenCost);\n    }\n\n    /**\n    @notice Refund a token proposer upon proposal success, transfer 1% of the project cost in\n    wei as a reward along with any tokens staked on the project.\n    @dev token proposer types are denoted by '1' and reputation proposers by '2'\n    @param _projectAddress Address of the project\n    */\n    function refundProposer(address _projectAddress) external {                                 //called by proposer to get refund once project is active\n        require(!freeze);\n        Project project = Project(_projectAddress);                            //called by proposer to get refund once project is active\n        require(project.proposer() == msg.sender);\n        require(project.proposerType() == 1);\n\n        uint256[2] memory proposerVals = projectRegistry.refundProposer(_projectAddress, msg.sender);        //call project to \"send back\" staked tokens to put in proposer's balances\n        distributeToken.transferFromEscrow(msg.sender, proposerVals[1]);\n        distributeToken.transferWeiTo(msg.sender, proposerVals[0] / (20));\n    }\n\n    /**\n    @notice Rewards the originator of a project plan in tokens.\n    @param _rewardee Address of the project\n    @param _amount Address of the project\n    */\n    function rewardOriginator(\n      address _rewardee,\n      uint _amount\n    /* ) external { */\n    ) external onlyPR {\n      require(!freeze);\n      distributeToken.transferWeiTo(_rewardee, _amount);\n    }\n\n    // =====================================================================\n    // STAKE\n    // =====================================================================\n\n    /**\n    @notice Stake `_tokens` tokens on project at `_projectAddress`\n    @dev Prevents over staking and returns any excess tokens staked.\n    @param _projectAddress Address of the project\n    @param _tokens Amount of tokens to stake\n    */\n    function stakeTokens(address _projectAddress, uint256 _tokens) external {\n        require(!freeze);\n        require(projectRegistry.projects(_projectAddress) == true);\n        require(distributeToken.balanceOf(msg.sender) >= _tokens);\n        Project project = Project(_projectAddress);\n        // handles edge case where someone attempts to stake past the staking deadline\n        projectRegistry.checkStaked(_projectAddress);\n        require(project.state() == 1);\n\n        // calculate amount of wei the project still needs\n        uint256 weiRemaining = project.weiCost() - project.weiBal();\n        require(weiRemaining > 0);\n\n        uint256 currentPrice = distributeToken.currentPrice();\n        uint256 weiVal =  currentPrice * _tokens;\n        bool flag = weiVal > weiRemaining;\n        uint256 weiChange = flag\n            ? weiRemaining\n            : weiVal;       //how much ether to send on change\n        uint256 tokens = flag\n            ? ((weiRemaining/currentPrice) + 1)     // round up to prevent loophole where user can stake without losing tokens\n            : _tokens;\n        // updating of P weiBal happens via the next line\n        project.stakeTokens(msg.sender, tokens, weiChange);\n        // the transfer of wei and the updating of DT weiBal happens via the next line\n        distributeToken.transferWeiTo(_projectAddress, weiChange);\n        distributeToken.transferToEscrow(msg.sender, tokens);\n        bool staked = projectRegistry.checkStaked(_projectAddress);\n        emit LogStakedTokens(_projectAddress, tokens, weiChange, msg.sender, staked);\n    }\n\n    /**\n    @notice Unstake `_tokens` tokens from project at `_projectAddress`\n    @dev Require tokens unstaked is greater than 0\n    @param _projectAddress Address of the project\n    @param _tokens Amount of reputation to unstake\n    */\n    function unstakeTokens(address _projectAddress, uint256 _tokens) external {\n        require(!freeze);\n        require(projectRegistry.projects(_projectAddress) == true);\n        // handles edge case where someone attempts to unstake past the staking deadline\n        projectRegistry.checkStaked(_projectAddress);\n\n        uint256 weiVal = Project(_projectAddress).unstakeTokens(msg.sender, _tokens, address(distributeToken));\n        // the actual wei is sent back to DT via Project.unstakeTokens()\n        // the weiBal is updated via the next line\n        distributeToken.returnWei(weiVal);\n        distributeToken.transferFromEscrow(msg.sender, _tokens);\n        emit LogUnstakedTokens(_projectAddress, _tokens, weiVal, msg.sender);\n    }\n\n    /**\n    @notice Calculates the relative weight of an `_address`.\n    Weighting is calculated by the proportional amount of tokens a user possess in relation to the total supply.\n    @param _address Address of the staker\n    @return The relative weight of a staker as a whole integer\n    */\n    function calculateWeightOfAddress(\n        address _address\n    ) public view returns (uint256) {\n        return Division.percent(distributeToken.balanceOf(_address), distributeToken.totalSupply(), 15);\n    }\n\n    // =====================================================================\n    // VALIDATION\n    // =====================================================================\n\n    /**\n    @notice Validate a task at index `_index` from project at `_projectAddress` with `_tokens`\n    tokens for validation state `_validationState`\n    @dev Requires the token balance of msg.sender to be greater than the reputationVal of the task\n    @param _projectAddress Address of the project\n    @param _taskIndex Index of the task\n    @param _validationState Approve or Deny task\n    */\n    function validateTask(\n        address _projectAddress,\n        uint256 _taskIndex,\n        bool _validationState\n    ) external {\n        require(!freeze);\n        require(projectRegistry.projects(_projectAddress) == true);\n        Project project = Project(_projectAddress);\n        Task task = Task(project.tasks(_taskIndex));\n        uint256 validationFee = task.validationEntryFee();\n        require(distributeToken.balanceOf(msg.sender) >= validationFee);\n        distributeToken.transferToEscrow(msg.sender, validationFee);\n        _projectAddress.validate(msg.sender, _taskIndex, _validationState);\n        emit LogValidateTask(_projectAddress, validationFee, _validationState, _taskIndex, msg.sender);\n    }\n\n    /**\n    @notice Reward the validator of a task if they have been determined to have validated correctly.\n    @param _projectAddress Address of the project\n    @param _index Index of the task\n    */\n    function rewardValidator(address _projectAddress, uint256 _index) external {\n        require(!freeze);\n        require(projectRegistry.projects(_projectAddress) == true);\n        Project project = Project(_projectAddress);\n        Task task = Task(project.tasks(_index));\n        require(task.claimable());\n        uint returnAmount;\n        uint index = task.getValidatorIndex(msg.sender);\n        require(index < 5);\n        task.setValidatorIndex(msg.sender);\n        uint rewardWeighting = projectRegistry.validationRewardWeightings(index);\n        uint statusNeed = task.claimableByRep() ? 1 : 0;\n\n        if (statusNeed == task.getValidatorStatus(msg.sender)) {\n            returnAmount += task.validationEntryFee();\n            uint validationIndex;\n            if (task.getValidatorStatus(msg.sender) == 1) {\n              require(task.affirmativeValidators(index) == msg.sender);\n              validationIndex = task.affirmativeIndex();\n            } else {\n              require(task.negativeValidators(index) == msg.sender);\n              validationIndex = task.negativeIndex();\n            }\n            if (validationIndex < 5) {\n                uint addtlWeighting;\n                for(uint i = validationIndex; i < 5; i++) {\n                    addtlWeighting += projectRegistry.validationRewardWeightings(i);\n                }\n                rewardWeighting += addtlWeighting / validationIndex;\n            }\n            uint256 weiReward = project.validationReward() * task.weighting() * rewardWeighting / 10000;\n            project.transferWeiReward(msg.sender, weiReward);\n            emit LogRewardValidator(_projectAddress, _index, weiReward, returnAmount, msg.sender);\n        } else {\n            weiReward = 0;\n            statusNeed == 1\n                ? require(task.negativeValidators(index) == msg.sender)\n                : require(task.affirmativeValidators(index) == msg.sender);\n            returnAmount += task.validationEntryFee() / 2;\n            distributeToken.burn(task.validationEntryFee() - returnAmount);\n            emit LogRewardValidator(_projectAddress, _index, 0, returnAmount, msg.sender);\n        }\n        emit LogRewardValidator(_projectAddress, _index, weiReward, returnAmount, msg.sender);\n        distributeToken.transferFromEscrow(msg.sender, returnAmount);\n    }\n\n    // =====================================================================\n    // VOTING\n    // =====================================================================\n\n    /**\n    @notice First part of voting process. Commits a vote using tokens to task at index `_index`\n    of project at `projectAddress` for tokens `_tokens`. Submits a secrect hash `_secretHash`,\n    which is a tightly packed hash of the voters choice and their salt\n    @param _projectAddress Address of the project\n    @param _index Index of the task\n    @param _votes Tokens to vote with\n    @param _secretHash Secret Hash of voter choice and salt\n    @param _prevPollID The nonce of the previous poll. This is stored off chain\n    */\n    function voteCommit(\n        address _projectAddress,\n        uint256 _index,\n        uint256 _votes,\n        bytes32 _secretHash,\n        uint256 _prevPollID\n    ) external {     // _secretHash Commit keccak256 hash of voter's choice and salt (tightly packed in this order), done off-chain\n        require(!freeze);\n        require(projectRegistry.projects(_projectAddress) == true);\n        uint256 pollId = Task(Project(_projectAddress).tasks(_index)).pollId();\n        // calculate available tokens for voting\n        uint256 availableVotes = plcrVoting.getAvailableTokens(msg.sender, 1);\n        // make sure msg.sender has tokens available in PLCR contract\n        // if not, request voting rights for token holder\n        if (availableVotes < _votes) {\n            uint votesCost = squaredAmount(_votes) - squaredAmount(availableVotes);\n            require(distributeToken.balanceOf(msg.sender) >= votesCost);\n            distributeToken.transferToEscrow(msg.sender, votesCost);\n            plcrVoting.requestVotingRights(msg.sender, _votes - availableVotes);\n        }\n        plcrVoting.commitVote(msg.sender, pollId, _secretHash, _votes, _prevPollID);\n        emit LogTokenVoteCommitted(_projectAddress, _index, _votes, _secretHash, pollId, msg.sender);\n    }\n\n    /**\n    @notice Second part of voting process. Reveal existing vote.\n    @param _projectAddress Address of the project\n    @param _index Index of the task\n    @param _voteOption Vote choice of account\n    @param _salt Salt of account\n    */\n    function voteReveal(\n        address _projectAddress,\n        uint256 _index,\n        uint256 _voteOption,\n        uint256 _salt\n    ) external {\n        require(!freeze);\n        require(projectRegistry.projects(_projectAddress) == true);\n        plcrVoting.revealVote(msg.sender, Task(Project(_projectAddress).tasks(_index)).pollId(), _voteOption, _salt);\n        emit LogTokenVoteRevealed(_projectAddress, _index, _voteOption, _salt, msg.sender);\n    }\n\n    /**\n    @notice Refunds staked tokens, thus also withdrawing voting rights from PLCR Contract\n    @param _votes Amount of tokens to withdraw\n    */\n    function refundVotingTokens(uint256 _votes) external {\n        require(!freeze);\n        uint userVotes = plcrVoting.getAvailableTokens(msg.sender, 1);\n        uint votesPrice = squaredAmount(userVotes) - squaredAmount(userVotes - _votes);\n        plcrVoting.withdrawVotingRights(msg.sender, _votes);\n        distributeToken.transferFromEscrow(msg.sender, votesPrice);\n    }\n\n    // =====================================================================\n    // COMPLETE\n    // =====================================================================\n\n    /**\n    @notice Refund a token staker from project at `_projectAddress`\n    @param _projectAddress Address of the project\n    */\n    function refundStaker(address _projectAddress) external {\n        require(!freeze);\n        require(projectRegistry.projects(_projectAddress) == true);\n        uint256 refund = _projectAddress.refundStaker(msg.sender);\n        require(refund > 0);\n\n        Project(_projectAddress).clearTokenStake(msg.sender);\n        distributeToken.transferFromEscrow(msg.sender, refund);\n        distributeToken.transferTokensTo(msg.sender, refund / 20);\n    }\n\n    /**\n    @notice Rescue unrevealed token votes from expired polls of task at `_index` of project at\n    `_projectAddress`\n    @param _projectAddress Address of the project\n    @param _index Index of the task\n    */\n    function rescueTokens(address _projectAddress, uint _index) external {\n        require(!freeze);\n        require(projectRegistry.projects(_projectAddress) == true);\n        //rescue locked tokens that weren't revealed\n        uint256 pollId = Task(Project(_projectAddress).tasks(_index)).pollId();\n        plcrVoting.rescueTokens(msg.sender, pollId);\n        emit LogTokenVoteRescued(_projectAddress, _index, pollId, msg.sender);\n    }\n\n    // =====================================================================\n    // FAILED\n    // =====================================================================\n\n    /**\n    @notice Return wei from project balance if task fails\n    @dev Only callable by the ProjectRegistry contract\n    @param _value Amount of wei to transfer to the distributeToken contract\n    */\n    function revertWei(uint256 _value) external onlyPR {\n        require(!freeze);\n        distributeToken.returnWei(_value);\n    }\n\n    /**\n    @notice Burn tokens in event of project failure\n    @dev Only callable by the ProjectRegistry contract\n    @param _tokens Amount of reputation to burn\n    */\n    function burnTokens(uint256 _tokens) external onlyPR {\n        require(!freeze);\n        distributeToken.burn(_tokens);\n    }\n\n}\n",
  "sourcePath": "/media/000/Documents/Distribute/distribute-app/contracts/contracts/TokenRegistry.sol",
  "compiler": {
    "name": "solc",
    "version": "0.4.24+commit.e67f0147.Emscripten.clang"
  },
  "schemaVersion": "2.0.1",
  "updatedAt": "2018-10-12T18:33:50.757Z"
}