{
  "contractName": "AttributeStore",
  "abi": [
    {
      "constant": true,
      "inputs": [
        {
          "name": "self",
          "type": "AttributeStore.Data storage"
        },
        {
          "name": "_UUID",
          "type": "bytes32"
        },
        {
          "name": "_attrName",
          "type": "string"
        }
      ],
      "name": "getAttribute",
      "outputs": [
        {
          "name": "",
          "type": "uint256"
        }
      ],
      "payable": false,
      "stateMutability": "view",
      "type": "function"
    },
    {
      "constant": false,
      "inputs": [
        {
          "name": "self",
          "type": "AttributeStore.Data storage"
        },
        {
          "name": "_UUID",
          "type": "bytes32"
        },
        {
          "name": "_attrName",
          "type": "string"
        },
        {
          "name": "_attrVal",
          "type": "uint256"
        }
      ],
      "name": "setAttribute",
      "outputs": [],
      "payable": false,
      "stateMutability": "nonpayable",
      "type": "function"
    }
  ],
  "bytecode": "0x610326610030600b82828239805160001a6073146000811461002057610022565bfe5b5030600052607381538281f30073000000000000000000000000000000000000000030146080604052600436106100625763ffffffff7c010000000000000000000000000000000000000000000000000000000060003504166350389f5c8114610067578063977aa031146100cc575b600080fd5b604080516020600460443581810135601f81018490048402850184019095528484526100ba9482359460248035953695946064949201919081908401838280828437509497506101309650505050505050565b60408051918252519081900360200190f35b8180156100d857600080fd5b50604080516020600460443581810135601f810184900484028501840190955284845261012e94823594602480359536959460649492019190819084018382808284375094975050933594506102189350505050565b005b600080838360405160200180836000191660001916815260200182805190602001908083835b602083106101755780518252601f199092019160209182019101610156565b6001836020036101000a038019825116818451168082178552505050505050905001925050506040516020818303038152906040526040518082805190602001908083835b602083106101d95780518252601f1990920191602091820191016101ba565b51815160209384036101000a60001901801990921691161790526040805192909401829003909120600090815299905250909620549695505050505050565b604080516020808201868152855160009488948894910191908401908083835b602083106102575780518252601f199092019160209182019101610238565b6001836020036101000a038019825116818451168082178552505050505050905001925050506040516020818303038152906040526040518082805190602001908083835b602083106102bb5780518252601f19909201916020918201910161029c565b51815160209384036101000a600019018019909216911617905260408051929094018290039091206000908152999052509096209290925550505050505600a165627a7a72305820dbe9c5dfa0dc92a91d2fb0c38d488e5791d8fd003c1b8ec8e79e2078233f075b0029",
  "source": "pragma solidity ^0.4.21;\r\n\r\nlibrary AttributeStore {\r\n    struct Data {\r\n        mapping(bytes32 => uint) store;\r\n    }\r\n\r\n    function getAttribute(Data storage self, bytes32 _UUID, string _attrName) public view returns (uint) {\r\n        bytes32 key = keccak256(abi.encodePacked(_UUID, _attrName));\r\n        return self.store[key];\r\n    }\r\n\r\n    function setAttribute(Data storage self, bytes32 _UUID, string _attrName, uint _attrVal) public {\r\n        bytes32 key = keccak256(abi.encodePacked(_UUID, _attrName));\r\n        self.store[key] = _attrVal;\r\n    }\r\n}\r\n",
  "sourcePath": "/Users/jessicamarshall/distribute-app/contracts/contracts/library/AttributeStore.sol",
  "compiler": {
    "name": "solc",
    "version": "0.4.24+commit.e67f0147.Emscripten.clang"
  },
  "schemaVersion": "2.0.1",
  "updatedAt": "2018-11-28T18:55:49.373Z"
}