{
  "contractName": "AttributeStore",
  "abi": [
    {
      "constant": true,
      "inputs": [
        {
          "name": "self",
          "type": "AttributeStore.Data storage"
        },
        {
          "name": "_UUID",
          "type": "bytes32"
        },
        {
          "name": "_attrName",
          "type": "string"
        }
      ],
      "name": "getAttribute",
      "outputs": [
        {
          "name": "",
          "type": "uint256"
        }
      ],
      "payable": false,
      "stateMutability": "view",
      "type": "function",
      "signature": "0x50389f5c"
    },
    {
      "constant": false,
      "inputs": [
        {
          "name": "self",
          "type": "AttributeStore.Data storage"
        },
        {
          "name": "_UUID",
          "type": "bytes32"
        },
        {
          "name": "_attrName",
          "type": "string"
        },
        {
          "name": "_attrVal",
          "type": "uint256"
        }
      ],
      "name": "setAttribute",
      "outputs": [],
      "payable": false,
      "stateMutability": "nonpayable",
      "type": "function",
      "signature": "0x977aa031"
    }
  ],
  "bytecode": "0x610329610030600b82828239805160001a6073146000811461002057610022565bfe5b5030600052607381538281f3fe730000000000000000000000000000000000000000301460806040526004361061005c577c0100000000000000000000000000000000000000000000000000000000600035046350389f5c8114610061578063977aa03114610125575b600080fd5b6101136004803603606081101561007757600080fd5b81359160208101359181019060608101604082013564010000000081111561009e57600080fd5b8201836020820111156100b057600080fd5b803590602001918460018302840111640100000000831117156100d257600080fd5b91908080601f0160208091040260200160405190810160405280939291908181526020018383808284376000920191909152509295506101e8945050505050565b60408051918252519081900360200190f35b81801561013157600080fd5b506101e66004803603608081101561014857600080fd5b81359160208101359181019060608101604082013564010000000081111561016f57600080fd5b82018360208201111561018157600080fd5b803590602001918460018302840111640100000000831117156101a357600080fd5b91908080601f0160208091040260200160405190810160405280939291908181526020018383808284376000920191909152509295505091359250610273915050565b005b60008083836040516020018083815260200182805190602001908083835b602083106102255780518252601f199092019160209182019101610206565b51815160209384036101000a60001901801990921691161790526040805192909401828103601f19018352845281519181019190912060009081529a90525090972054979650505050505050565b600083836040516020018083815260200182805190602001908083835b602083106102af5780518252601f199092019160209182019101610290565b51815160209384036101000a60001901801990921691161790526040805192909401828103601f19018352845281519181019190912060009081529a9052509097209390935550505050505056fea165627a7a72305820470adf73a637ef7c64b6ea0641373779f4e3fd0cc4a430c59bb29b3f8240ffae0029",
  "source": "pragma solidity ^0.5.00;\r\n\r\nlibrary AttributeStore {\r\n    struct Data {\r\n        mapping(bytes32 => uint) store;\r\n    }\r\n\r\n    function getAttribute(Data storage self, bytes32 _UUID, string memory _attrName) public view returns (uint) {\r\n        bytes32 key = keccak256(abi.encodePacked(_UUID, _attrName));\r\n        return self.store[key];\r\n    }\r\n\r\n    function setAttribute(Data storage self, bytes32 _UUID, string memory _attrName, uint _attrVal) public {\r\n        bytes32 key = keccak256(abi.encodePacked(_UUID, _attrName));\r\n        self.store[key] = _attrVal;\r\n    }\r\n}\r\n",
  "sourcePath": "/Users/shokishoki/development/hypha/distribute-app/contracts/contracts/library/AttributeStore.sol",
  "compiler": {
    "name": "solc",
    "version": "0.5.2+commit.1df8f40c.Emscripten.clang"
  },
  "schemaVersion": "3.0.0",
  "updatedAt": "2018-12-24T11:24:14.478Z",
  "devdoc": {
    "methods": {}
  },
  "userdoc": {
    "methods": {}
  }
}