{
  "contractName": "Division",
  "abi": [
    {
      "constant": true,
      "inputs": [
        {
          "name": "_numerator",
          "type": "uint256"
        },
        {
          "name": "_denominator",
          "type": "uint256"
        },
        {
          "name": "_precision",
          "type": "uint256"
        }
      ],
      "name": "percent",
      "outputs": [
        {
          "name": "",
          "type": "uint256"
        }
      ],
      "payable": false,
      "stateMutability": "pure",
      "type": "function",
      "signature": "0x002c1a9e"
    }
  ],
  "bytecode": "0x60f661002f600b82828239805160001a6073146000811461001f57610021565bfe5b5030600052607381538281f3fe730000000000000000000000000000000000000000301460806040526004361060545763ffffffff7c01000000000000000000000000000000000000000000000000000000006000350416622c1a9e81146059575b600080fd5b607f60048036036060811015606d57600080fd5b50803590602081013590604001356091565b60408051918252519081900360200190f35b6000808311609e57600080fd5b60018201600a90810a850290848281151560b457fe5b0460050181151560c057fe5b049594505050505056fea165627a7a7230582016e41bc96ae1984b829bd6ef24cb9758e550fa727742f30684fdf6b124dbaba00029",
  "source": "pragma solidity ^0.5.0;\n\n// divide by 10 ** precision at the very end\nlibrary Division {\n    function percent(uint256 _numerator, uint256 _denominator, uint256 _precision) public pure returns (uint256) {\n        require(_denominator > 0);\n        uint256 numerator = _numerator * 10 ** (_precision + 1);\n        // with rounding of last digit\n        return ((numerator / _denominator) + 5) / 10;\n    }\n}\n",
  "sourcePath": "/Users/shokishoki/development/hypha/distribute-app/contracts/contracts/library/Division.sol",
  "compiler": {
    "name": "solc",
    "version": "0.5.0+commit.1d4f565a.Emscripten.clang"
  },
  "schemaVersion": "3.0.0",
  "updatedAt": "2018-12-20T21:42:42.636Z",
  "devdoc": {
    "methods": {}
  },
  "userdoc": {
    "methods": {}
  }
}