{
  "contractName": "DLL",
  "abi": [
    {
      "constant": true,
      "inputs": [
        {
          "name": "self",
          "type": "DLL.Data storage"
        },
        {
          "name": "_curr",
          "type": "uint256"
        }
      ],
      "name": "getNext",
      "outputs": [
        {
          "name": "",
          "type": "uint256"
        }
      ],
      "payable": false,
      "stateMutability": "view",
      "type": "function",
      "signature": "0x07d29ac9"
    },
    {
      "constant": true,
      "inputs": [
        {
          "name": "self",
          "type": "DLL.Data storage"
        },
        {
          "name": "_curr",
          "type": "uint256"
        }
      ],
      "name": "getPrev",
      "outputs": [
        {
          "name": "",
          "type": "uint256"
        }
      ],
      "payable": false,
      "stateMutability": "view",
      "type": "function",
      "signature": "0x30fe0a0a"
    },
    {
      "constant": false,
      "inputs": [
        {
          "name": "self",
          "type": "DLL.Data storage"
        },
        {
          "name": "_prev",
          "type": "uint256"
        },
        {
          "name": "_curr",
          "type": "uint256"
        },
        {
          "name": "_next",
          "type": "uint256"
        }
      ],
      "name": "insert",
      "outputs": [],
      "payable": false,
      "stateMutability": "nonpayable",
      "type": "function",
      "signature": "0x9735c51b"
    },
    {
      "constant": false,
      "inputs": [
        {
          "name": "self",
          "type": "DLL.Data storage"
        },
        {
          "name": "_curr",
          "type": "uint256"
        }
      ],
      "name": "remove",
      "outputs": [],
      "payable": false,
      "stateMutability": "nonpayable",
      "type": "function",
      "signature": "0x6d900ed0"
    }
  ],
  "bytecode": "0x61020c610030600b82828239805160001a6073146000811461002057610022565bfe5b5030600052607381538281f3fe7300000000000000000000000000000000000000003014608060405260043610610072577c0100000000000000000000000000000000000000000000000000000000600035046307d29ac9811461007757806330fe0a0a146100ac5780636d900ed0146100cf5780639735c51b14610101575b600080fd5b61009a6004803603604081101561008d57600080fd5b508035906020013561013d565b60408051918252519081900360200190f35b61009a600480360360408110156100c257600080fd5b5080359060200135610150565b8180156100db57600080fd5b506100ff600480360360408110156100f257600080fd5b5080359060200135610166565b005b81801561010d57600080fd5b506100ff6004803603608081101561012457600080fd5b50803590602081013590604081013590606001356101b1565b6000908152602091909152604090205490565b6000908152602091909152604090206001015490565b6000610172838361013d565b905060006101808484610150565b6000838152602095909552604080862060019081018390559186528086209390935583855291909320828155015550565b60008281526020949094526040808520600180820186905590839055938552808520839055908452909220015556fea165627a7a7230582045b5c2b8d4186e900d82815b3d655fd3a10abb6a816f421dede0c69c7775c1dc0029",
  "source": "pragma solidity ^0.5.0;\r\n\r\nlibrary DLL {\r\n\tstruct Node {\r\n\t\tuint next;\r\n\t\tuint prev;\r\n\t}\r\n\r\n\tstruct Data {\r\n\t\tmapping(uint => Node) dll;\r\n\t}\r\n\r\n\tfunction getNext(Data storage self, uint _curr) public view returns (uint) {\r\n\t\treturn self.dll[_curr].next;\r\n\t}\r\n\r\n\tfunction getPrev(Data storage self, uint _curr) public view returns (uint) {\r\n\t\treturn self.dll[_curr].prev;\r\n\t}\r\n\r\n\tfunction insert(Data storage self, uint _prev, uint _curr, uint _next) public {\r\n\t\tself.dll[_curr].prev = _prev;\r\n\t\tself.dll[_curr].next = _next;\r\n\r\n\t\tself.dll[_prev].next = _curr;\r\n\t\tself.dll[_next].prev = _curr;\r\n\t}\r\n\r\n\tfunction remove(Data storage self, uint _curr) public {\r\n\t\tuint next = getNext(self, _curr);\r\n\t\tuint prev = getPrev(self, _curr);\r\n\r\n\t\tself.dll[next].prev = prev;\r\n\t\tself.dll[prev].next = next;\r\n\r\n\t\tself.dll[_curr].next = _curr;\r\n\t\tself.dll[_curr].prev = _curr;\r\n\t}\r\n}\r\n",
  "sourcePath": "/Users/shokishoki/development/hypha/hypha-app/contracts/contracts/library/DLL.sol",
  "compiler": {
    "name": "solc",
    "version": "0.5.2+commit.1df8f40c.Emscripten.clang"
  },
  "schemaVersion": "3.0.0",
  "updatedAt": "2019-02-11T01:12:42.759Z",
  "devdoc": {
    "methods": {}
  },
  "userdoc": {
    "methods": {}
  }
}