{
  "contractName": "DLL",
  "abi": [
    {
      "constant": true,
      "inputs": [
        {
          "name": "self",
          "type": "DLL.Data storage"
        },
        {
          "name": "_curr",
          "type": "uint256"
        }
      ],
      "name": "getNext",
      "outputs": [
        {
          "name": "",
          "type": "uint256"
        }
      ],
      "payable": false,
      "stateMutability": "view",
      "type": "function"
    },
    {
      "constant": true,
      "inputs": [
        {
          "name": "self",
          "type": "DLL.Data storage"
        },
        {
          "name": "_curr",
          "type": "uint256"
        }
      ],
      "name": "getPrev",
      "outputs": [
        {
          "name": "",
          "type": "uint256"
        }
      ],
      "payable": false,
      "stateMutability": "view",
      "type": "function"
    },
    {
      "constant": false,
      "inputs": [
        {
          "name": "self",
          "type": "DLL.Data storage"
        },
        {
          "name": "_prev",
          "type": "uint256"
        },
        {
          "name": "_curr",
          "type": "uint256"
        },
        {
          "name": "_next",
          "type": "uint256"
        }
      ],
      "name": "insert",
      "outputs": [],
      "payable": false,
      "stateMutability": "nonpayable",
      "type": "function"
    },
    {
      "constant": false,
      "inputs": [
        {
          "name": "self",
          "type": "DLL.Data storage"
        },
        {
          "name": "_curr",
          "type": "uint256"
        }
      ],
      "name": "remove",
      "outputs": [],
      "payable": false,
      "stateMutability": "nonpayable",
      "type": "function"
    }
  ],
  "bytecode": "0x6101b7610030600b82828239805160001a6073146000811461002057610022565bfe5b5030600052607381538281f30073000000000000000000000000000000000000000030146080604052600436106100785763ffffffff7c010000000000000000000000000000000000000000000000000000000060003504166307d29ac9811461007d57806330fe0a0a1461009d5780636d900ed0146100ab5780639735c51b146100c8575b600080fd5b61008b6004356024356100e9565b60408051918252519081900360200190f35b61008b6004356024356100fc565b8180156100b757600080fd5b506100c6600435602435610112565b005b8180156100d457600080fd5b506100c660043560243560443560643561015c565b6000908152602091909152604090205490565b6000908152602091909152604090206001015490565b60008061011f84846100e9565b915061012b84846100fc565b6000838152602095909552604080862060019081018390559186528086209390935583855291909320828155015550565b6000828152602094909452604080852060018082018690559083905593855280852083905590845290922001555600a165627a7a7230582077cbc8717397270f3f9e730abf1d9fcbcbccf2bcaeb9c12c64ce865a28d11e7e0029",
  "source": "pragma solidity ^0.4.21;\r\n\r\nlibrary DLL {\r\n\tstruct Node {\r\n\t\tuint next;\r\n\t\tuint prev;\r\n\t}\r\n\r\n\tstruct Data {\r\n\t\tmapping(uint => Node) dll;\r\n\t}\r\n\r\n\tfunction getNext(Data storage self, uint _curr) public view returns (uint) {\r\n\t\treturn self.dll[_curr].next;\r\n\t}\r\n\r\n\tfunction getPrev(Data storage self, uint _curr) public view returns (uint) {\r\n\t\treturn self.dll[_curr].prev;\r\n\t}\r\n\r\n\tfunction insert(Data storage self, uint _prev, uint _curr, uint _next) public {\r\n\t\tself.dll[_curr].prev = _prev;\r\n\t\tself.dll[_curr].next = _next;\r\n\r\n\t\tself.dll[_prev].next = _curr;\r\n\t\tself.dll[_next].prev = _curr;\r\n\t}\r\n\r\n\tfunction remove(Data storage self, uint _curr) public {\r\n\t\tuint next = getNext(self, _curr);\r\n\t\tuint prev = getPrev(self, _curr);\r\n\r\n\t\tself.dll[next].prev = prev;\r\n\t\tself.dll[prev].next = next;\r\n\r\n\t\tself.dll[_curr].next = _curr;\r\n\t\tself.dll[_curr].prev = _curr;\r\n\t}\r\n}\r\n",
  "sourcePath": "/Users/jessicamarshall/distribute-app/contracts/contracts/library/DLL.sol",
  "compiler": {
    "name": "solc",
    "version": "0.4.24+commit.e67f0147.Emscripten.clang"
  },
  "schemaVersion": "2.0.1",
  "updatedAt": "2018-11-28T18:55:49.375Z"
}