{
  "contractName": "PLCRVoting",
  "abi": [
    {
      "constant": true,
      "inputs": [],
      "name": "INITIAL_POLL_NONCE",
      "outputs": [
        {
          "name": "",
          "type": "uint256"
        }
      ],
      "payable": false,
      "stateMutability": "view",
      "type": "function",
      "signature": "0x2173a10f"
    },
    {
      "constant": true,
      "inputs": [
        {
          "name": "",
          "type": "address"
        }
      ],
      "name": "voteTokenBalance",
      "outputs": [
        {
          "name": "",
          "type": "uint256"
        }
      ],
      "payable": false,
      "stateMutability": "view",
      "type": "function",
      "signature": "0x3b930294"
    },
    {
      "constant": true,
      "inputs": [
        {
          "name": "",
          "type": "uint256"
        }
      ],
      "name": "pollMap",
      "outputs": [
        {
          "name": "commitEndDate",
          "type": "uint256"
        },
        {
          "name": "revealEndDate",
          "type": "uint256"
        },
        {
          "name": "voteQuorum",
          "type": "uint256"
        },
        {
          "name": "votesFor",
          "type": "uint256"
        },
        {
          "name": "votesAgainst",
          "type": "uint256"
        }
      ],
      "payable": false,
      "stateMutability": "view",
      "type": "function",
      "signature": "0x6148fed5"
    },
    {
      "constant": true,
      "inputs": [
        {
          "name": "",
          "type": "address"
        }
      ],
      "name": "voteReputationBalance",
      "outputs": [
        {
          "name": "",
          "type": "uint256"
        }
      ],
      "payable": false,
      "stateMutability": "view",
      "type": "function",
      "signature": "0x6b9deb65"
    },
    {
      "constant": true,
      "inputs": [],
      "name": "pollNonce",
      "outputs": [
        {
          "name": "",
          "type": "uint256"
        }
      ],
      "payable": false,
      "stateMutability": "view",
      "type": "function",
      "signature": "0x97508f36"
    },
    {
      "inputs": [
        {
          "name": "_tokenRegistry",
          "type": "address"
        },
        {
          "name": "_reputationRegistry",
          "type": "address"
        },
        {
          "name": "_projectRegistry",
          "type": "address"
        }
      ],
      "payable": false,
      "stateMutability": "nonpayable",
      "type": "constructor",
      "signature": "constructor"
    },
    {
      "anonymous": false,
      "inputs": [
        {
          "indexed": false,
          "name": "voter",
          "type": "address"
        },
        {
          "indexed": false,
          "name": "pollID",
          "type": "uint256"
        },
        {
          "indexed": false,
          "name": "numTokens",
          "type": "uint256"
        }
      ],
      "name": "VoteCommitted",
      "type": "event",
      "signature": "0x1d1ce8842c4b2d0eaed42eb6d7732092ca85f0992cae9c760d181efcb0aedf4e"
    },
    {
      "anonymous": false,
      "inputs": [
        {
          "indexed": false,
          "name": "voter",
          "type": "address"
        },
        {
          "indexed": false,
          "name": "pollID",
          "type": "uint256"
        },
        {
          "indexed": false,
          "name": "numTokens",
          "type": "uint256"
        },
        {
          "indexed": false,
          "name": "choice",
          "type": "uint256"
        }
      ],
      "name": "VoteRevealed",
      "type": "event",
      "signature": "0x7f9df012dd015e7e61a4a17ccf8db7fb6afbe211465b5696368d1d6408d03311"
    },
    {
      "anonymous": false,
      "inputs": [
        {
          "indexed": false,
          "name": "voteQuorum",
          "type": "uint256"
        },
        {
          "indexed": false,
          "name": "commitDuration",
          "type": "uint256"
        },
        {
          "indexed": false,
          "name": "revealDuration",
          "type": "uint256"
        },
        {
          "indexed": false,
          "name": "pollID",
          "type": "uint256"
        }
      ],
      "name": "PollCreated",
      "type": "event",
      "signature": "0xef096063d99f4ef9370b5e89d45025615c869845ca33878d173e8dca429b2be0"
    },
    {
      "anonymous": false,
      "inputs": [
        {
          "indexed": false,
          "name": "voter",
          "type": "address"
        },
        {
          "indexed": false,
          "name": "numTokens",
          "type": "uint256"
        }
      ],
      "name": "VotingRightsGranted",
      "type": "event",
      "signature": "0x4bdec44a53feb3aabedf51c989ff2b6aebe7369d3974f57c304758a8537281e1"
    },
    {
      "anonymous": false,
      "inputs": [
        {
          "indexed": false,
          "name": "voter",
          "type": "address"
        },
        {
          "indexed": false,
          "name": "numTokens",
          "type": "uint256"
        }
      ],
      "name": "VotingRightsWithdrawn",
      "type": "event",
      "signature": "0x2c88837e03c4eee367d64fb379bbf7dad76a371c52622230bcf8b79728b9c532"
    },
    {
      "anonymous": false,
      "inputs": [
        {
          "indexed": false,
          "name": "hash1",
          "type": "bytes32"
        },
        {
          "indexed": false,
          "name": "hash2",
          "type": "bytes32"
        },
        {
          "indexed": false,
          "name": "equal",
          "type": "bool"
        }
      ],
      "name": "Hashes",
      "type": "event",
      "signature": "0xd34a7536b3bf647ae76030cf58193b79c4bc0a711ac9aca9ef9738a040e15e12"
    },
    {
      "constant": false,
      "inputs": [
        {
          "name": "_tokenRegistry",
          "type": "address"
        },
        {
          "name": "_reputationRegistry",
          "type": "address"
        },
        {
          "name": "_projectRegistry",
          "type": "address"
        }
      ],
      "name": "setup",
      "outputs": [],
      "payable": false,
      "stateMutability": "nonpayable",
      "type": "function",
      "signature": "0x77b8b1c7"
    },
    {
      "constant": true,
      "inputs": [
        {
          "name": "_voter",
          "type": "address"
        },
        {
          "name": "_type",
          "type": "uint256"
        }
      ],
      "name": "getAvailableTokens",
      "outputs": [
        {
          "name": "",
          "type": "uint256"
        }
      ],
      "payable": false,
      "stateMutability": "view",
      "type": "function",
      "signature": "0x9f68ce54"
    },
    {
      "constant": false,
      "inputs": [
        {
          "name": "_staker",
          "type": "address"
        },
        {
          "name": "_numTokens",
          "type": "uint256"
        }
      ],
      "name": "requestVotingRights",
      "outputs": [],
      "payable": false,
      "stateMutability": "nonpayable",
      "type": "function",
      "signature": "0xc5fa801b"
    },
    {
      "constant": false,
      "inputs": [
        {
          "name": "_staker",
          "type": "address"
        },
        {
          "name": "_numTokens",
          "type": "uint256"
        }
      ],
      "name": "withdrawVotingRights",
      "outputs": [],
      "payable": false,
      "stateMutability": "nonpayable",
      "type": "function",
      "signature": "0xef348e40"
    },
    {
      "constant": false,
      "inputs": [
        {
          "name": "_staker",
          "type": "address"
        },
        {
          "name": "_pollID",
          "type": "uint256"
        }
      ],
      "name": "rescueTokens",
      "outputs": [],
      "payable": false,
      "stateMutability": "nonpayable",
      "type": "function",
      "signature": "0x57376198"
    },
    {
      "constant": false,
      "inputs": [
        {
          "name": "_staker",
          "type": "address"
        },
        {
          "name": "_pollID",
          "type": "uint256"
        },
        {
          "name": "_secretHash",
          "type": "bytes32"
        },
        {
          "name": "_numTokens",
          "type": "uint256"
        },
        {
          "name": "_prevPollID",
          "type": "uint256"
        }
      ],
      "name": "commitVote",
      "outputs": [],
      "payable": false,
      "stateMutability": "nonpayable",
      "type": "function",
      "signature": "0x5e28fd5e"
    },
    {
      "constant": true,
      "inputs": [
        {
          "name": "_prevID",
          "type": "uint256"
        },
        {
          "name": "_nextID",
          "type": "uint256"
        },
        {
          "name": "_voter",
          "type": "address"
        },
        {
          "name": "_numTokens",
          "type": "uint256"
        }
      ],
      "name": "validPosition",
      "outputs": [
        {
          "name": "valid",
          "type": "bool"
        }
      ],
      "payable": false,
      "stateMutability": "view",
      "type": "function",
      "signature": "0x819b0293"
    },
    {
      "constant": false,
      "inputs": [
        {
          "name": "_voter",
          "type": "address"
        },
        {
          "name": "_pollID",
          "type": "uint256"
        },
        {
          "name": "_voteOption",
          "type": "uint256"
        },
        {
          "name": "_salt",
          "type": "uint256"
        }
      ],
      "name": "revealVote",
      "outputs": [],
      "payable": false,
      "stateMutability": "nonpayable",
      "type": "function",
      "signature": "0xbfd99571"
    },
    {
      "constant": true,
      "inputs": [
        {
          "name": "_voter",
          "type": "address"
        },
        {
          "name": "_pollID",
          "type": "uint256"
        },
        {
          "name": "_salt",
          "type": "uint256"
        }
      ],
      "name": "getNumPassingTokens",
      "outputs": [
        {
          "name": "correctVotes",
          "type": "uint256"
        }
      ],
      "payable": false,
      "stateMutability": "view",
      "type": "function",
      "signature": "0xb43bd069"
    },
    {
      "constant": false,
      "inputs": [
        {
          "name": "_voteQuorum",
          "type": "uint256"
        },
        {
          "name": "_commitDuration",
          "type": "uint256"
        },
        {
          "name": "_revealDuration",
          "type": "uint256"
        }
      ],
      "name": "startPoll",
      "outputs": [
        {
          "name": "pollID",
          "type": "uint256"
        }
      ],
      "payable": false,
      "stateMutability": "nonpayable",
      "type": "function",
      "signature": "0x32ed3d60"
    },
    {
      "constant": true,
      "inputs": [
        {
          "name": "_pollID",
          "type": "uint256"
        }
      ],
      "name": "isPassed",
      "outputs": [
        {
          "name": "passed",
          "type": "bool"
        }
      ],
      "payable": false,
      "stateMutability": "view",
      "type": "function",
      "signature": "0x49403183"
    },
    {
      "constant": true,
      "inputs": [
        {
          "name": "_pollID",
          "type": "uint256"
        }
      ],
      "name": "getTotalNumberOfTokensForWinningOption",
      "outputs": [
        {
          "name": "numTokens",
          "type": "uint256"
        }
      ],
      "payable": false,
      "stateMutability": "view",
      "type": "function",
      "signature": "0x053e71a6"
    },
    {
      "constant": true,
      "inputs": [
        {
          "name": "_pollID",
          "type": "uint256"
        }
      ],
      "name": "pollEnded",
      "outputs": [
        {
          "name": "ended",
          "type": "bool"
        }
      ],
      "payable": false,
      "stateMutability": "view",
      "type": "function",
      "signature": "0xee684830"
    },
    {
      "constant": true,
      "inputs": [
        {
          "name": "_pollID",
          "type": "uint256"
        }
      ],
      "name": "commitPeriodActive",
      "outputs": [
        {
          "name": "active",
          "type": "bool"
        }
      ],
      "payable": false,
      "stateMutability": "view",
      "type": "function",
      "signature": "0xa4439dc5"
    },
    {
      "constant": true,
      "inputs": [
        {
          "name": "_pollID",
          "type": "uint256"
        }
      ],
      "name": "revealPeriodActive",
      "outputs": [
        {
          "name": "active",
          "type": "bool"
        }
      ],
      "payable": false,
      "stateMutability": "view",
      "type": "function",
      "signature": "0x441c77c0"
    },
    {
      "constant": true,
      "inputs": [
        {
          "name": "_voter",
          "type": "address"
        },
        {
          "name": "_pollID",
          "type": "uint256"
        }
      ],
      "name": "hasBeenRevealed",
      "outputs": [
        {
          "name": "revealed",
          "type": "bool"
        }
      ],
      "payable": false,
      "stateMutability": "view",
      "type": "function",
      "signature": "0x72d8e442"
    },
    {
      "constant": true,
      "inputs": [
        {
          "name": "_pollID",
          "type": "uint256"
        }
      ],
      "name": "pollExists",
      "outputs": [
        {
          "name": "exists",
          "type": "bool"
        }
      ],
      "payable": false,
      "stateMutability": "view",
      "type": "function",
      "signature": "0x88d21ff3"
    },
    {
      "constant": true,
      "inputs": [
        {
          "name": "_voter",
          "type": "address"
        },
        {
          "name": "_pollID",
          "type": "uint256"
        }
      ],
      "name": "getCommitHash",
      "outputs": [
        {
          "name": "commitHash",
          "type": "bytes32"
        }
      ],
      "payable": false,
      "stateMutability": "view",
      "type": "function",
      "signature": "0xd901402b"
    },
    {
      "constant": true,
      "inputs": [
        {
          "name": "_voter",
          "type": "address"
        },
        {
          "name": "_pollID",
          "type": "uint256"
        }
      ],
      "name": "getNumTokens",
      "outputs": [
        {
          "name": "numTokens",
          "type": "uint256"
        }
      ],
      "payable": false,
      "stateMutability": "view",
      "type": "function",
      "signature": "0xd1382092"
    },
    {
      "constant": true,
      "inputs": [
        {
          "name": "_voter",
          "type": "address"
        }
      ],
      "name": "getLastNode",
      "outputs": [
        {
          "name": "pollID",
          "type": "uint256"
        }
      ],
      "payable": false,
      "stateMutability": "view",
      "type": "function",
      "signature": "0x427fa1d2"
    },
    {
      "constant": true,
      "inputs": [
        {
          "name": "_voter",
          "type": "address"
        }
      ],
      "name": "getLockedTokens",
      "outputs": [
        {
          "name": "numTokens",
          "type": "uint256"
        }
      ],
      "payable": false,
      "stateMutability": "view",
      "type": "function",
      "signature": "0x6b2d95d4"
    },
    {
      "constant": true,
      "inputs": [
        {
          "name": "_voter",
          "type": "address"
        },
        {
          "name": "_numTokens",
          "type": "uint256"
        }
      ],
      "name": "getInsertPointForNumTokens",
      "outputs": [
        {
          "name": "prevNode",
          "type": "uint256"
        }
      ],
      "payable": false,
      "stateMutability": "view",
      "type": "function",
      "signature": "0xc622afb0"
    },
    {
      "constant": true,
      "inputs": [
        {
          "name": "_terminationDate",
          "type": "uint256"
        }
      ],
      "name": "isExpired",
      "outputs": [
        {
          "name": "expired",
          "type": "bool"
        }
      ],
      "payable": false,
      "stateMutability": "view",
      "type": "function",
      "signature": "0xd9548e53"
    },
    {
      "constant": true,
      "inputs": [
        {
          "name": "_user",
          "type": "address"
        },
        {
          "name": "_pollID",
          "type": "uint256"
        }
      ],
      "name": "attrUUID",
      "outputs": [
        {
          "name": "UUID",
          "type": "bytes32"
        }
      ],
      "payable": false,
      "stateMutability": "pure",
      "type": "function",
      "signature": "0xa1103f37"
    }
  ],
  "bytecode": "0x608060405234801561001057600080fd5b5060405160608062001d428339810180604052606081101561003157600080fd5b508051602082015160409092015190919061005683838364010000000061005e810204565b5050506100e4565b600754600160a060020a03161580156100805750600854600160a060020a0316155b80156100955750600954600160a060020a0316155b15156100a057600080fd5b60078054600160a060020a03948516600160a060020a0319918216179091556008805493851693821693909317909255600980549190931691161790556000600155565b611c4e80620000f46000396000f3fe608060405234801561001057600080fd5b50600436106101d35760003560e060020a90048063819b029311610108578063bfd99571116100a6578063d901402b11610075578063d901402b146105f6578063d9548e5314610622578063ee6848301461063f578063ef348e401461065c576101d3565b8063bfd995711461053a578063c5fa801b14610572578063c622afb01461059e578063d1382092146105ca576101d3565b80639f68ce54116100e25780639f68ce5414610493578063a1103f37146104bf578063a4439dc5146104eb578063b43bd06914610508576101d3565b8063819b02931461043657806388d21ff31461046e57806397508f361461048b576101d3565b806357376198116101755780636b2d95d41161014f5780636b2d95d4146103865780636b9deb65146103ac57806372d8e442146103d257806377b8b1c7146103fe576101d3565b806357376198146102d25780635e28fd5e146103005780636148fed51461033e576101d3565b80633b930294116101b15780633b93029414610238578063427fa1d21461025e578063441c77c01461028457806349403183146102b5576101d3565b8063053e71a6146101d85780632173a10f1461020757806332ed3d601461020f575b600080fd5b6101f5600480360360208110156101ee57600080fd5b5035610688565b60408051918252519081900360200190f35b6101f56106dd565b6101f56004803603606081101561022557600080fd5b50803590602081013590604001356106e2565b6101f56004803603602081101561024e57600080fd5b5035600160a060020a0316610810565b6101f56004803603602081101561027457600080fd5b5035600160a060020a0316610822565b6102a16004803603602081101561029a57600080fd5b50356108dc565b604080519115158252519081900360200190f35b6102a1600480360360208110156102cb57600080fd5b5035610926565b6102fe600480360360408110156102e857600080fd5b50600160a060020a0381351690602001356109ba565b005b6102fe600480360360a081101561031657600080fd5b50600160a060020a038135169060208101359060408101359060608101359060800135610aaf565b61035b6004803603602081101561035457600080fd5b5035610faa565b6040805195865260208601949094528484019290925260608401526080830152519081900360a00190f35b6101f56004803603602081101561039c57600080fd5b5035600160a060020a0316610fd9565b6101f5600480360360208110156103c257600080fd5b5035600160a060020a0316610fed565b6102a1600480360360408110156103e857600080fd5b50600160a060020a038135169060200135610fff565b6102fe6004803603606081101561041457600080fd5b50600160a060020a03813581169160208101358216916040909101351661119c565b6102a16004803603608081101561044c57600080fd5b50803590602081013590600160a060020a03604082013516906060013561122f565b6102a16004803603602081101561048457600080fd5b5035611270565b6101f56112d3565b6101f5600480360360408110156104a957600080fd5b50600160a060020a0381351690602001356112d9565b6101f5600480360360408110156104d557600080fd5b50600160a060020a038135169060200135611322565b6102a16004803603602081101561050157600080fd5b503561136c565b6101f56004803603606081101561051e57600080fd5b50600160a060020a03813516906020810135906040013561139a565b6102fe6004803603608081101561055057600080fd5b50600160a060020a03813516906020810135906040810135906060013561143c565b6102fe6004803603604081101561058857600080fd5b50600160a060020a0381351690602001356116b3565b6101f5600480360360408110156105b457600080fd5b50600160a060020a0381351690602001356117c0565b6101f5600480360360408110156105e057600080fd5b50600160a060020a0381351690602001356118c4565b6101f56004803603604081101561060c57600080fd5b50600160a060020a038135169060200135611996565b6102a16004803603602081101561063857600080fd5b5035611a35565b6102a16004803603602081101561065557600080fd5b5035611a3a565b6102fe6004803603604081101561067257600080fd5b50600160a060020a038135169060200135611a6b565b600061069382611a3a565b151561069e57600080fd5b6106a782610926565b156106c457506000818152600260205260409020600301546106d8565b506000818152600260205260409020600401545b919050565b600081565b600954600090600160a060020a031633146106fc57600080fd5b6001805461070f9163ffffffff611be316565b6001556040805160a081019091528061072e428663ffffffff611be316565b815260200161075384610747428863ffffffff611be316565b9063ffffffff611be316565b815260200185815260200160008152602001600081525060026000600154815260200190815260200160002060008201518160000155602082015181600101556040820151816002015560608201518160030155608082015181600401559050507fef096063d99f4ef9370b5e89d45025615c869845ca33878d173e8dca429b2be08484846001546040518085815260200184815260200183815260200182815260200194505050505060405180910390a1506001549392505050565b60036020526000908152604090205481565b600160a060020a038116600090815260056020908152604080832081517f30fe0a0a000000000000000000000000000000000000000000000000000000008152600481019190915260248101849052905173__DLL___________________________________926330fe0a0a9260448082019391829003018186803b1580156108aa57600080fd5b505af41580156108be573d6000803e3d6000fd5b505050506040513d60208110156108d457600080fd5b505192915050565b60006108e782611270565b15156108f257600080fd5b60008281526002602052604090206001015461090d90611a35565b158015610920575061091e8261136c565b155b92915050565b600954600090600160a060020a0316331461094057600080fd5b61094982611a3a565b151561095457600080fd5b61095c611bf2565b5050600090815260026020818152604092839020835160a08101855281548152600182015492810192909252918201549281018390526003820154606082018190526004909201546080909101819052810190910260649091021190565b600854600160a060020a03163314806109dd5750600754600160a060020a031633145b15156109e857600080fd5b6109f181611a3a565b15156109fc57600080fd5b610a068282610fff565b1515610aab57600160a060020a03821660009081526005602052604080822081517f6d900ed0000000000000000000000000000000000000000000000000000000008152600481019190915260248101849052905173__DLL___________________________________92636d900ed09260448082019391829003018186803b158015610a9257600080fd5b505af4158015610aa6573d6000803e3d6000fd5b505050505b5050565b600854600160a060020a0316331480610ad25750600754600160a060020a031633145b1515610add57600080fd5b610ae68461136c565b1515610af157600080fd5b600854600160a060020a03163314610b2d57600160a060020a038516600090815260036020526040902054821115610b2857600080fd5b610b52565b600160a060020a038516600090815260046020526040902054821115610b5257600080fd5b831515610b5e57600080fd5b801580610b735750610b708582611996565b15155b1515610b7e57600080fd5b600160a060020a038516600090815260056020908152604080832081517f07d29ac9000000000000000000000000000000000000000000000000000000008152600481019190915260248101859052905173__DLL___________________________________926307d29ac99260448082019391829003018186803b158015610c0657600080fd5b505af4158015610c1a573d6000803e3d6000fd5b505050506040513d6020811015610c3057600080fd5b50519050848114610c415780610cf8565b600160a060020a03861660009081526005602090815260409182902082517f07d29ac9000000000000000000000000000000000000000000000000000000008152600481019190915260248101889052915173__DLL___________________________________926307d29ac9926044808301939192829003018186803b158015610ccb57600080fd5b505af4158015610cdf573d6000803e3d6000fd5b505050506040513d6020811015610cf557600080fd5b50515b9050610d068282888661122f565b1515610d1157600080fd5b600160a060020a03861660009081526005602052604080822081517f9735c51b0000000000000000000000000000000000000000000000000000000081526004810191909152602481018590526044810188905260648101849052905173__DLL___________________________________92639735c51b9260848082019391829003018186803b158015610da557600080fd5b505af4158015610db9573d6000803e3d6000fd5b505050506000610dc98787611322565b604080517f977aa03100000000000000000000000000000000000000000000000000000000815260066004820152602481018390526064810187905260806044820152600960848201527f6e756d546f6b656e73000000000000000000000000000000000000000000000060a4820152905191925073__AttributeStore________________________9163977aa0319160c480820192600092909190829003018186803b158015610e7a57600080fd5b505af4158015610e8e573d6000803e3d6000fd5b5050604080517f977aa03100000000000000000000000000000000000000000000000000000000815260066004820152602481018590526064810189905260806044820152600a60848201527f636f6d6d6974486173680000000000000000000000000000000000000000000060a4820152905173__AttributeStore________________________935063977aa031925060c4808301926000929190829003018186803b158015610f3f57600080fd5b505af4158015610f53573d6000803e3d6000fd5b505060408051600160a060020a038b168152602081018a905280820188905290517f1d1ce8842c4b2d0eaed42eb6d7732092ca85f0992cae9c760d181efcb0aedf4e9350908190036060019150a150505050505050565b600260208190526000918252604090912080546001820154928201546003830154600490930154919392909185565b600061092082610fe884610822565b6118c4565b60046020526000908152604090205481565b600061100a82611270565b151561101557600080fd5b600160a060020a038316600090815260056020908152604080832081517f30fe0a0a000000000000000000000000000000000000000000000000000000008152600481019190915260248101869052905173__DLL___________________________________926330fe0a0a9260448082019391829003018186803b15801561109d57600080fd5b505af41580156110b1573d6000803e3d6000fd5b505050506040513d60208110156110c757600080fd5b5051600160a060020a038516600090815260056020908152604080832081517f07d29ac90000000000000000000000000000000000000000000000000000000081526004810191909152602481018890529051939450919273__DLL___________________________________926307d29ac9926044808301939192829003018186803b15801561115757600080fd5b505af415801561116b573d6000803e3d6000fd5b505050506040513d602081101561118157600080fd5b50519050818414801561119357508381145b95945050505050565b600754600160a060020a03161580156111be5750600854600160a060020a0316155b80156111d35750600954600160a060020a0316155b15156111de57600080fd5b60078054600160a060020a0394851673ffffffffffffffffffffffffffffffffffffffff19918216179091556008805493851693821693909317909255600980549190931691161790556000600155565b60008061123c84876118c4565b8310159050600061124d85876118c4565b84111580611259575085155b90508180156112655750805b979650505050505050565b600081815260026020526040812080546001909101548115801561129357508015155b1561129a57fe5b81158015906112a7575080155b156112ae57fe5b8115806112b9575080155b156112c9576000925050506106d8565b5060019392505050565b60015481565b60008160011461130157600160a060020a03831660009081526004602052604090205461131b565b600160a060020a0383166000908152600360205260409020545b9392505050565b60408051600160a060020a03939093166c01000000000000000000000000026020808501919091526034808501939093528151808503909301835260549093019052805191012090565b600061137782611270565b151561138257600080fd5b60008281526002602052604090205461091e90611a35565b60006113a583611a3a565b15156113b057600080fd5b6113ba8484610fff565b15156113c557600080fd5b60006113d084610926565b6113db5760006113de565b60015b60ff16905060008184604051602001808381526020018281526020019250505060405160208183030381529060405280519060200120905060006114228787611996565b9050808214611432576000611265565b61126587876118c4565b600854600160a060020a031633148061145f5750600754600160a060020a031633145b151561146a57600080fd5b611473836108dc565b151561147e57600080fd5b6114888484610fff565b1561149257600080fd5b604080516020808201859052818301849052825180830384018152606090920190925280519101207fd34a7536b3bf647ae76030cf58193b79c4bc0a711ac9aca9ef9738a040e15e12906114e68686611996565b6114f08787611996565b60408051602080820189905281830188905282518083038401815260608301808552815191909201209590526080810193909352921460a082015290519081900360c00190a16115408484611996565b604080516020808201869052818301859052825180830384018152606090920190925280519101201461157257600080fd5b600061157e85856118c4565b905082600114156115a55760008481526002602052604090206003018054820190556115bd565b60008481526002602052604090206004018054820190555b600160a060020a03851660009081526005602052604080822081517f6d900ed0000000000000000000000000000000000000000000000000000000008152600481019190915260248101879052905173__DLL___________________________________92636d900ed09260448082019391829003018186803b15801561164357600080fd5b505af4158015611657573d6000803e3d6000fd5b505060408051600160a060020a0389168152602081018890528082018590526060810187905290517f7f9df012dd015e7e61a4a17ccf8db7fb6afbe211465b5696368d1d6408d033119350908190036080019150a15050505050565b600854600160a060020a03163314806116d65750600754600160a060020a031633145b15156116e157600080fd5b600754600160a060020a031633141561175157600160a060020a0382166000818152600360209081526040918290208054850190558151928352820183905280517f4bdec44a53feb3aabedf51c989ff2b6aebe7369d3974f57c304758a8537281e19281900390910190a1610aab565b600854600160a060020a0316331415610aab57600160a060020a0382166000818152600460209081526040918290208054850190558151928352820183905280517f4bdec44a53feb3aabedf51c989ff2b6aebe7369d3974f57c304758a8537281e19281900390910190a15050565b6000806117cc84610822565b905060006117da85836118c4565b90505b80156118bc576117ed85836118c4565b9050838110156117ff57509050610920565b600160a060020a03851660009081526005602090815260409182902082517f30fe0a0a000000000000000000000000000000000000000000000000000000008152600481019190915260248101859052915173__DLL___________________________________926330fe0a0a926044808301939192829003018186803b15801561188957600080fd5b505af415801561189d573d6000803e3d6000fd5b505050506040513d60208110156118b357600080fd5b505191506117dd565b509392505050565b600073__AttributeStore________________________6350389f5c60066118ec8686611322565b6040518363ffffffff1660e060020a0281526004018083815260200182815260200180602001828103825260098152602001807f6e756d546f6b656e730000000000000000000000000000000000000000000000815250602001935050505060206040518083038186803b15801561196357600080fd5b505af4158015611977573d6000803e3d6000fd5b505050506040513d602081101561198d57600080fd5b50519392505050565b600073__AttributeStore________________________6350389f5c60066119be8686611322565b6040518363ffffffff1660e060020a02815260040180838152602001828152602001806020018281038252600a8152602001807f636f6d6d69744861736800000000000000000000000000000000000000000000815250602001935050505060206040518083038186803b15801561196357600080fd5b421190565b6000611a4582611270565b1515611a5057600080fd5b60008281526002602052604090206001015461092090611a35565b600854600160a060020a0316331480611a8e5750600754600160a060020a031633145b1515611a9957600080fd5b600754600090600160a060020a0316331415611b3f57611ab883610fd9565b600160a060020a03841660009081526003602052604090205403905081811015611ae157600080fd5b600160a060020a038316600081815260036020908152604091829020805486900390558151928352820184905280517f2c88837e03c4eee367d64fb379bbf7dad76a371c52622230bcf8b79728b9c5329281900390910190a1611bde565b600854600160a060020a0316331415611bde57611b5b83610fd9565b600160a060020a03841660009081526004602052604090205403905081811015611b8457600080fd5b600160a060020a038316600081815260046020908152604091829020805486900390558151928352820184905280517f2c88837e03c4eee367d64fb379bbf7dad76a371c52622230bcf8b79728b9c5329281900390910190a15b505050565b60008282018381101561131b57fe5b60a0604051908101604052806000815260200160008152602001600081526020016000815260200160008152509056fea165627a7a723058209a58d6c17d2e43a6a0a25fd143a256f5045158fb7f2c22797ae4dd61418715b20029",
  "source": "pragma solidity ^0.5.0;\n\n//import files\nimport \"./DLL.sol\";\nimport \"./AttributeStore.sol\";\nimport \"./SafeMath.sol\";\n/**\n@title Extension of Partial-Lock-Commit-Reveal Voting scheme with ERC20 tokens to include non-ERC20 token\n@author Team: Jessica Marshall, Ashoka Finley, borrowed heavily from Cem Ozer, Aspyn Palatnick, Yorke Rhodes\n*/\n\ncontract PLCRVoting {\n\n    event VoteCommitted(address voter, uint pollID, uint numTokens);\n    event VoteRevealed(address voter, uint pollID, uint numTokens, uint choice);\n    event PollCreated(uint voteQuorum, uint commitDuration, uint revealDuration, uint pollID);\n    event VotingRightsGranted(address voter, uint numTokens);\n    event VotingRightsWithdrawn(address voter, uint numTokens);\n    event Hashes(bytes32 hash1, bytes32 hash2, bool equal);\n\n    // ============\n    // DATA STRUCTURES:\n    // ============\n\n    using AttributeStore for AttributeStore.Data;\n    using DLL for DLL.Data;\n    using SafeMath for uint256;\n\n    struct Poll {\n        uint commitEndDate;     /// expiration date of commit period for poll\n        uint revealEndDate;     /// expiration date of reveal period for poll\n        uint voteQuorum;        /// number of votes required for a proposal to pass\n        uint votesFor;          /// tally of votes supporting proposal\n        uint votesAgainst;      /// tally of votes countering proposal\n    }\n\n    // ============\n    // STATE VARIABLES:\n    // ============\n\n    PLCRVoting masterCopy; // THIS MUST ALWAYS BE THE FIRST STATE VARIABLE DECLARED!!!!!!\n\n    uint constant public INITIAL_POLL_NONCE = 0;\n    uint public pollNonce;\n\n    mapping(uint => Poll) public pollMap; // maps pollID to Poll struct\n    mapping(address => uint) public voteTokenBalance; // maps user's address to voteToken balance\n    mapping(address => uint) public voteReputationBalance;\n\n    mapping(address => DLL.Data) dllMap;\n    AttributeStore.Data store;\n\n    address tokenRegistry;\n    address reputationRegistry;\n    address projectRegistry;\n\n    // =====================================================================\n    // MODIFIERS\n    // =====================================================================\n\n      modifier onlyTRRR() {\n        require(msg.sender == reputationRegistry || msg.sender == tokenRegistry);\n        _;\n      }\n\n      modifier onlyTR() {\n        require(msg.sender == tokenRegistry);\n        _;\n      }\n\n      modifier onlyPR() {\n        require(msg.sender == projectRegistry);\n        _;\n      }\n\n    // ============\n    // CONSTRUCTOR:\n    // ============\n\n    /**\n    @dev uses the setup function to initialize PLCR by specifying the token used for voting\n    @param _tokenRegistry The address of the token registry contract\n    @param _reputationRegistry The address of the reputation registry contract\n    @param _projectRegistry The address of the project registry contract\n    */\n    constructor (address _tokenRegistry, address _reputationRegistry, address _projectRegistry) public {\n        setup(_tokenRegistry, _reputationRegistry, _projectRegistry);\n    }\n\n    /**\n    @dev initializes the contract by spcifying the token used for voting. Can be called by proxy\n    contracts to initialize their state.\n    @param _tokenRegistry The address of the token registry contract\n    @param _reputationRegistry The address of the reputation registry contract\n    @param _projectRegistry The address of the project registry contract\n    */\n    function setup(address _tokenRegistry, address _reputationRegistry, address _projectRegistry) public {\n        require(tokenRegistry == address(0) && reputationRegistry == address(0) && projectRegistry == address(0));\n        tokenRegistry = _tokenRegistry;\n        reputationRegistry = _reputationRegistry;\n        projectRegistry = _projectRegistry;\n        pollNonce = INITIAL_POLL_NONCE;\n    }\n\n    // ================\n    // TOKEN INTERFACE:\n    // ================\n\n    /**\n    @notice Returns the available tokens for voting for voter `_voter`\n    @param _voter Address of the voter\n    @param _type The type of the validator\n    */\n    function getAvailableTokens(address _voter, uint _type) public view returns(uint256) {\n        return _type == 1\n            ? voteTokenBalance[_voter]\n            : voteReputationBalance[_voter];\n    }\n    /**\n    @notice Loads _numTokens ERC20 tokens into the voting contract for one-to-one voting rights\n    @dev Assumes that msg.sender has approved voting contract to spend on their behalf\n    @param _numTokens The number of votingTokens desired in exchange for ERC20 tokens\n    */\n    function requestVotingRights(address _staker, uint _numTokens) public onlyTRRR() {\n        //checks done in THR/WR to ensure that staker has tokens to vote with\n        if (msg.sender == tokenRegistry) {\n            voteTokenBalance[_staker] += _numTokens;\n            emit VotingRightsGranted(_staker, _numTokens);\n        } else if (msg.sender == reputationRegistry) {\n            voteReputationBalance[_staker] += _numTokens;\n            emit VotingRightsGranted(_staker, _numTokens);\n        }\n    }\n\n    /**\n    @notice Withdraw _numTokens ERC20 tokens from the voting contract, revoking these voting rights\n    @param _numTokens The number of ERC20 tokens desired in exchange for voting rights\n    */\n    function withdrawVotingRights(address _staker, uint _numTokens) external onlyTRRR() {\n        uint256 availableTokens;\n        if (msg.sender == tokenRegistry) {\n            availableTokens = voteTokenBalance[_staker] - getLockedTokens(_staker);\n            require(availableTokens >= _numTokens);\n            voteTokenBalance[_staker] -= _numTokens;\n            emit VotingRightsWithdrawn(_staker, _numTokens);\n        } else if (msg.sender == reputationRegistry) {\n            availableTokens = voteReputationBalance[_staker] - getLockedTokens(_staker);\n            require(availableTokens >= _numTokens);\n            voteReputationBalance[_staker] -= _numTokens;\n            emit VotingRightsWithdrawn(_staker, _numTokens);\n        }\n    }\n\n    /**\n    @dev Unlocks tokens locked in unrevealed vote where poll has ended\n    @param _pollID Integer identifier associated with the target poll\n    */\n    function rescueTokens(address _staker, uint _pollID) onlyTRRR() external {\n        require(pollEnded(_pollID));\n\n        if(!hasBeenRevealed(_staker, _pollID)) {\n            dllMap[_staker].remove(_pollID);\n        }\n    }\n\n    // =================\n    // VOTING INTERFACE:\n    // =================\n\n    /**\n    @notice Commits vote using hash of choice and secret salt to conceal vote until reveal\n    @param _pollID Integer identifier associated with target poll\n    @param _secretHash Commit keccak256 hash of voter's choice and salt (tightly packed in this order)\n    @param _numTokens The number of tokens to be committed towards the target poll\n    @param _prevPollID The ID of the poll that the user has voted the maximum number of tokens in which is still less than or equal to numTokens\n    */\n    function commitVote(\n        address _staker,\n        uint _pollID,\n        bytes32 _secretHash,\n        uint _numTokens,\n        uint _prevPollID\n    ) onlyTRRR() external {\n        require(commitPeriodActive(_pollID));\n        msg.sender == reputationRegistry\n            ? require(voteReputationBalance[_staker] >= _numTokens) // prevent user from overspending\n            : require(voteTokenBalance[_staker] >= _numTokens); // prevent user from overspending\n        require(_pollID != 0);                // prevent user from committing to zero node placeholder\n        // Check if _prevPollID exists\n        require(_prevPollID == 0 || getCommitHash(_staker, _prevPollID) != 0);\n\n        uint nextPollID = dllMap[_staker].getNext(_prevPollID);\n        // if nextPollID is equal to _pollID, _pollID is being updated,\n        nextPollID = (nextPollID == _pollID)\n            ? dllMap[_staker].getNext(_pollID)\n            : nextPollID;\n        require(validPosition(_prevPollID, nextPollID, _staker, _numTokens));\n        dllMap[_staker].insert(_prevPollID, _pollID, nextPollID);\n        bytes32 UUID = attrUUID(_staker, _pollID);\n        store.setAttribute(UUID, \"numTokens\", _numTokens);\n        store.setAttribute(UUID, \"commitHash\", uint(_secretHash));\n        emit VoteCommitted(_staker, _pollID, _numTokens);\n    }\n\n    /**\n    @dev Compares previous and next poll's committed tokens for sorting purposes\n    @param _prevID Integer identifier associated with previous poll in sorted order\n    @param _nextID Integer identifier associated with next poll in sorted order\n    @param _voter Address of user to check DLL position for\n    @param _numTokens The number of tokens to be committed towards the poll (used for sorting)\n    @return valid Boolean indication of if the specified position maintains the sort\n    */\n    function validPosition(\n        uint _prevID,\n        uint _nextID,\n        address _voter,\n        uint _numTokens\n    ) public view returns (bool valid) {\n        bool prevValid = (_numTokens >= getNumTokens(_voter, _prevID));\n        // if next is zero node, _numTokens does not need to be greater\n        bool nextValid = (_numTokens <= getNumTokens(_voter, _nextID) || _nextID == 0);\n        return prevValid && nextValid;\n    }\n\n    /**\n    @notice Reveals vote with choice and secret salt used in generating commitHash to attribute committed tokens\n    @param _pollID Integer identifier associated with target poll\n    @param _voteOption Vote choice used to generate commitHash for associated poll\n    @param _salt Secret number used to generate commitHash for associated poll\n    */\n    function revealVote(address _voter, uint _pollID, uint _voteOption, uint _salt) onlyTRRR() external {\n      require(revealPeriodActive(_pollID));\n      require(!hasBeenRevealed(_voter, _pollID)); // prevent user from revealing multiple times\n      emit Hashes(keccak256(abi.encodePacked(_voteOption, _salt)), getCommitHash(_voter, _pollID), keccak256(abi.encodePacked(_voteOption, _salt)) == getCommitHash(_voter, _pollID));\n      require(keccak256(abi.encodePacked(_voteOption, _salt)) == getCommitHash(_voter, _pollID)); // compare resultant hash from inputs to original commitHash\n\n      uint numTokens = getNumTokens(_voter, _pollID);\n\n      if (_voteOption == 1) // apply numTokens to appropriate poll choice\n          pollMap[_pollID].votesFor += numTokens;\n      else\n          pollMap[_pollID].votesAgainst += numTokens;\n\n      dllMap[_voter].remove(_pollID); // remove the node referring to this vote upon reveal\n\n      emit VoteRevealed(_voter, _pollID, numTokens, _voteOption);\n    }\n\n    /**\n    @param _pollID Integer identifier associated with target poll\n    @param _salt Arbitrarily chosen integer used to generate secretHash\n    @return correctVotes Number of tokens voted for winning option\n    */\n    function getNumPassingTokens(\n      address _voter,\n      uint _pollID,\n      uint _salt\n    ) public view returns (uint correctVotes) {\n        require(pollEnded(_pollID));\n        require(hasBeenRevealed(_voter, _pollID));\n        uint winningChoice = isPassed(_pollID) ? 1 : 0;\n        bytes32 winnerHash = keccak256(abi.encodePacked(winningChoice, _salt));\n        bytes32 commitHash = getCommitHash(_voter, _pollID);\n\n        return (winnerHash == commitHash) ? getNumTokens(_voter, _pollID) : 0;\n    }\n\n    // ==================\n    // POLLING INTERFACE:\n    // ==================\n\n    /**\n    @dev Initiates a poll with canonical configured parameters at pollID emitted by PollCreated event\n    @param _voteQuorum Type of majority (out of 100) that is necessary for poll to be successful\n    @param _commitDuration Length of desired commit period in seconds\n    @param _revealDuration Length of desired reveal period in seconds\n    */\n    function startPoll(\n      uint _voteQuorum,\n      uint _commitDuration,\n      uint _revealDuration\n    ) public returns (uint pollID) {\n        require(msg.sender == projectRegistry);\n        pollNonce = pollNonce.add(1);\n        pollMap[pollNonce] = Poll({\n            voteQuorum: _voteQuorum,\n            commitEndDate: block.timestamp.add(_commitDuration),\n            revealEndDate: (block.timestamp.add(_commitDuration)).add(_revealDuration),\n            votesFor: 0,\n            votesAgainst: 0\n        });\n        emit PollCreated(_voteQuorum, _commitDuration, _revealDuration, pollNonce);\n        return pollNonce;\n    }\n\n    /**\n    @notice Determines if proposal has passed\n    @dev Check if votesFor out of totalVotes exceeds votesQuorum (requires pollEnded)\n    @param _pollID Integer identifier associated with target poll\n    */\n    function isPassed(uint _pollID) onlyPR() view public returns (bool passed) {\n        require(pollEnded(_pollID));\n        Poll memory poll = pollMap[_pollID];\n        return (100 * poll.votesFor) > (poll.voteQuorum * (poll.votesFor + poll.votesAgainst));\n    }\n\n    // ----------------\n    // POLLING HELPERS:\n    // ----------------\n\n    /**\n    @dev Gets the total winning votes for reward distribution purposes\n    @param _pollID Integer identifier associated with target poll\n    @return Total number of votes committed to the winning option for specified poll\n    */\n    function getTotalNumberOfTokensForWinningOption(uint _pollID) view public returns (uint numTokens) {\n        require(pollEnded(_pollID));\n\n        if (isPassed(_pollID))\n            return pollMap[_pollID].votesFor;\n        else\n            return pollMap[_pollID].votesAgainst;\n    }\n\n    /**\n    @notice Determines if poll is over\n    @dev Checks isExpired for specified poll's revealEndDate\n    @return Boolean indication of whether polling period is over\n    */\n    function pollEnded(uint _pollID) view public returns (bool ended) {\n        require(pollExists(_pollID));\n\n        return isExpired(pollMap[_pollID].revealEndDate);\n    }\n\n    /**\n    @notice Checks if the commit period is still active for the specified poll\n    @dev Checks isExpired for the specified poll's commitEndDate\n    @param _pollID Integer identifier associated with target poll\n    @return Boolean indication of isCommitPeriodActive for target poll\n    */\n    function commitPeriodActive(uint _pollID) view public returns (bool active) {\n        require(pollExists(_pollID));\n\n        return !isExpired(pollMap[_pollID].commitEndDate);\n    }\n\n    /**\n    @notice Checks if the reveal period is still active for the specified poll\n    @dev Checks isExpired for the specified poll's revealEndDate\n    @param _pollID Integer identifier associated with target poll\n    */\n    function revealPeriodActive(uint _pollID) view public returns (bool active) {\n        require(pollExists(_pollID));\n\n        return !isExpired(pollMap[_pollID].revealEndDate) && !commitPeriodActive(_pollID);\n    }\n\n    /**\n    @dev Checks if user has already revealed for specified poll\n    @param _voter Address of user to check against\n    @param _pollID Integer identifier associated with target poll\n    @return Boolean indication of whether user has already revealed\n    */\n    function hasBeenRevealed(address _voter, uint _pollID) view public returns (bool revealed) {\n        require(pollExists(_pollID));\n\n        uint prevID = dllMap[_voter].getPrev(_pollID);\n        uint nextID = dllMap[_voter].getNext(_pollID);\n\n        return (prevID == _pollID) && (nextID == _pollID);\n    }\n\n    /**\n    @dev Checks if a poll exists, throws if the provided poll is in an impossible state\n    @param _pollID The pollID whose existance is to be evaluated.\n    @return Boolean Indicates whether a poll exists for the provided pollID\n    */\n    function pollExists(uint _pollID) view public returns (bool exists) {\n        uint commitEndDate = pollMap[_pollID].commitEndDate;\n        uint revealEndDate = pollMap[_pollID].revealEndDate;\n\n        assert(!(commitEndDate == 0 && revealEndDate != 0));\n        assert(!(commitEndDate != 0 && revealEndDate == 0));\n\n        if(commitEndDate == 0 || revealEndDate == 0) { return false; }\n        return true;\n    }\n\n    // ---------------------------\n    // DOUBLE-LINKED-LIST HELPERS:\n    // ---------------------------\n\n    /**\n    @dev Gets the bytes32 commitHash property of target poll\n    @param _voter Address of user to check against\n    @param _pollID Integer identifier associated with target poll\n    @return Bytes32 hash property attached to target poll\n    */\n    function getCommitHash(address _voter, uint _pollID) view public returns (bytes32 commitHash) {\n        return bytes32(store.getAttribute(attrUUID(_voter, _pollID), \"commitHash\"));\n    }\n\n    /**\n    @dev Wrapper for getAttribute with attrName=\"numTokens\"\n    @param _voter Address of user to check against\n    @param _pollID Integer identifier associated with target poll\n    @return Number of tokens committed to poll in sorted poll-linked-list\n    */\n    function getNumTokens(address _voter, uint _pollID) view public returns (uint numTokens) {\n        return store.getAttribute(attrUUID(_voter, _pollID), \"numTokens\");\n    }\n\n    /**\n    @dev Gets top element of sorted poll-linked-list\n    @param _voter Address of user to check against\n    @return Integer identifier to poll with maximum number of tokens committed to it\n    */\n    function getLastNode(address _voter) view public returns (uint pollID) {\n        return dllMap[_voter].getPrev(0);\n    }\n\n    /**\n    @dev Gets the numTokens property of getLastNode\n    @param _voter Address of user to check against\n    @return Maximum number of tokens committed in poll specified\n    */\n    function getLockedTokens(address _voter) view public returns (uint numTokens) {\n        return getNumTokens(_voter, getLastNode(_voter));\n    }\n\n    /**\n    @dev Gets the prevNode a new node should be inserted after given the sort factor\n    @param _voter The voter whose DLL will be searched\n    @param _numTokens The value for the numTokens attribute in the node to be inserted\n    @return the node which the propoded node should be inserted after\n    */\n    function getInsertPointForNumTokens(\n        address _voter,\n        uint _numTokens\n    ) view public returns (uint prevNode) {\n        uint nodeID = getLastNode(_voter);\n        uint tokensInNode = getNumTokens(_voter, nodeID);\n\n        while(tokensInNode != 0) {\n            tokensInNode = getNumTokens(_voter, nodeID);\n            if(tokensInNode < _numTokens) { return nodeID; }\n            nodeID = dllMap[_voter].getPrev(nodeID);\n        }\n        return nodeID;\n    }\n\n    // ----------------\n    // GENERAL HELPERS:\n    // ----------------\n\n    /**\n    @dev Checks if an expiration date has been reached\n    @param _terminationDate Integer timestamp of date to compare current timestamp with\n    @return expired Boolean indication of whether the terminationDate has passed\n    */\n    function isExpired(uint _terminationDate) view public returns (bool expired) {\n        return (block.timestamp > _terminationDate);\n    }\n\n    /**\n    @dev Generates an identifier which associates a user and a poll together\n    @param _pollID Integer identifier associated with target poll\n    @return UUID Hash which is deterministic from _user and _pollID\n    */\n    function attrUUID(address _user, uint _pollID) public pure returns (bytes32 UUID) {\n        return keccak256(abi.encodePacked(_user, _pollID));\n    }\n}\n",
  "sourcePath": "/Users/shokishoki/development/hypha/hypha-app/contracts/contracts/library/PLCRVoting.sol",
  "compiler": {
    "name": "solc",
    "version": "0.5.2+commit.1df8f40c.Emscripten.clang"
  },
  "schemaVersion": "3.0.0",
  "updatedAt": "2019-02-11T01:12:45.161Z",
  "devdoc": {
    "author": "Team: Jessica Marshall, Ashoka Finley, borrowed heavily from Cem Ozer, Aspyn Palatnick, Yorke Rhodes",
    "methods": {
      "attrUUID(address,uint256)": {
        "details": "Generates an identifier which associates a user and a poll together",
        "params": {
          "_pollID": "Integer identifier associated with target poll"
        },
        "return": "UUID Hash which is deterministic from _user and _pollID"
      },
      "commitPeriodActive(uint256)": {
        "details": "Checks isExpired for the specified poll's commitEndDate",
        "params": {
          "_pollID": "Integer identifier associated with target poll"
        },
        "return": "Boolean indication of isCommitPeriodActive for target poll"
      },
      "commitVote(address,uint256,bytes32,uint256,uint256)": {
        "params": {
          "_numTokens": "The number of tokens to be committed towards the target poll",
          "_pollID": "Integer identifier associated with target poll",
          "_prevPollID": "The ID of the poll that the user has voted the maximum number of tokens in which is still less than or equal to numTokens",
          "_secretHash": "Commit keccak256 hash of voter's choice and salt (tightly packed in this order)"
        }
      },
      "constructor": {
        "details": "uses the setup function to initialize PLCR by specifying the token used for voting",
        "params": {
          "_projectRegistry": "The address of the project registry contract",
          "_reputationRegistry": "The address of the reputation registry contract",
          "_tokenRegistry": "The address of the token registry contract"
        }
      },
      "getAvailableTokens(address,uint256)": {
        "params": {
          "_type": "The type of the validator",
          "_voter": "Address of the voter"
        }
      },
      "getCommitHash(address,uint256)": {
        "details": "Gets the bytes32 commitHash property of target poll",
        "params": {
          "_pollID": "Integer identifier associated with target poll",
          "_voter": "Address of user to check against"
        },
        "return": "Bytes32 hash property attached to target poll"
      },
      "getInsertPointForNumTokens(address,uint256)": {
        "details": "Gets the prevNode a new node should be inserted after given the sort factor",
        "params": {
          "_numTokens": "The value for the numTokens attribute in the node to be inserted",
          "_voter": "The voter whose DLL will be searched"
        },
        "return": "the node which the propoded node should be inserted after"
      },
      "getLastNode(address)": {
        "details": "Gets top element of sorted poll-linked-list",
        "params": {
          "_voter": "Address of user to check against"
        },
        "return": "Integer identifier to poll with maximum number of tokens committed to it"
      },
      "getLockedTokens(address)": {
        "details": "Gets the numTokens property of getLastNode",
        "params": {
          "_voter": "Address of user to check against"
        },
        "return": "Maximum number of tokens committed in poll specified"
      },
      "getNumPassingTokens(address,uint256,uint256)": {
        "params": {
          "_pollID": "Integer identifier associated with target poll",
          "_salt": "Arbitrarily chosen integer used to generate secretHash"
        },
        "return": "correctVotes Number of tokens voted for winning option"
      },
      "getNumTokens(address,uint256)": {
        "details": "Wrapper for getAttribute with attrName=\"numTokens\"",
        "params": {
          "_pollID": "Integer identifier associated with target poll",
          "_voter": "Address of user to check against"
        },
        "return": "Number of tokens committed to poll in sorted poll-linked-list"
      },
      "getTotalNumberOfTokensForWinningOption(uint256)": {
        "details": "Gets the total winning votes for reward distribution purposes",
        "params": {
          "_pollID": "Integer identifier associated with target poll"
        },
        "return": "Total number of votes committed to the winning option for specified poll"
      },
      "hasBeenRevealed(address,uint256)": {
        "details": "Checks if user has already revealed for specified poll",
        "params": {
          "_pollID": "Integer identifier associated with target poll",
          "_voter": "Address of user to check against"
        },
        "return": "Boolean indication of whether user has already revealed"
      },
      "isExpired(uint256)": {
        "details": "Checks if an expiration date has been reached",
        "params": {
          "_terminationDate": "Integer timestamp of date to compare current timestamp with"
        },
        "return": "expired Boolean indication of whether the terminationDate has passed"
      },
      "isPassed(uint256)": {
        "details": "Check if votesFor out of totalVotes exceeds votesQuorum (requires pollEnded)",
        "params": {
          "_pollID": "Integer identifier associated with target poll"
        }
      },
      "pollEnded(uint256)": {
        "details": "Checks isExpired for specified poll's revealEndDate",
        "return": "Boolean indication of whether polling period is over"
      },
      "pollExists(uint256)": {
        "details": "Checks if a poll exists, throws if the provided poll is in an impossible state",
        "params": {
          "_pollID": "The pollID whose existance is to be evaluated."
        },
        "return": "Boolean Indicates whether a poll exists for the provided pollID"
      },
      "requestVotingRights(address,uint256)": {
        "details": "Assumes that msg.sender has approved voting contract to spend on their behalf",
        "params": {
          "_numTokens": "The number of votingTokens desired in exchange for ERC20 tokens"
        }
      },
      "rescueTokens(address,uint256)": {
        "details": "Unlocks tokens locked in unrevealed vote where poll has ended",
        "params": {
          "_pollID": "Integer identifier associated with the target poll"
        }
      },
      "revealPeriodActive(uint256)": {
        "details": "Checks isExpired for the specified poll's revealEndDate",
        "params": {
          "_pollID": "Integer identifier associated with target poll"
        }
      },
      "revealVote(address,uint256,uint256,uint256)": {
        "params": {
          "_pollID": "Integer identifier associated with target poll",
          "_salt": "Secret number used to generate commitHash for associated poll",
          "_voteOption": "Vote choice used to generate commitHash for associated poll"
        }
      },
      "setup(address,address,address)": {
        "details": "initializes the contract by spcifying the token used for voting. Can be called by proxy contracts to initialize their state.",
        "params": {
          "_projectRegistry": "The address of the project registry contract",
          "_reputationRegistry": "The address of the reputation registry contract",
          "_tokenRegistry": "The address of the token registry contract"
        }
      },
      "startPoll(uint256,uint256,uint256)": {
        "details": "Initiates a poll with canonical configured parameters at pollID emitted by PollCreated event",
        "params": {
          "_commitDuration": "Length of desired commit period in seconds",
          "_revealDuration": "Length of desired reveal period in seconds",
          "_voteQuorum": "Type of majority (out of 100) that is necessary for poll to be successful"
        }
      },
      "validPosition(uint256,uint256,address,uint256)": {
        "details": "Compares previous and next poll's committed tokens for sorting purposes",
        "params": {
          "_nextID": "Integer identifier associated with next poll in sorted order",
          "_numTokens": "The number of tokens to be committed towards the poll (used for sorting)",
          "_prevID": "Integer identifier associated with previous poll in sorted order",
          "_voter": "Address of user to check DLL position for"
        },
        "return": "valid Boolean indication of if the specified position maintains the sort"
      },
      "withdrawVotingRights(address,uint256)": {
        "params": {
          "_numTokens": "The number of ERC20 tokens desired in exchange for voting rights"
        }
      }
    },
    "title": "Extension of Partial-Lock-Commit-Reveal Voting scheme with ERC20 tokens to include non-ERC20 token"
  },
  "userdoc": {
    "methods": {
      "commitPeriodActive(uint256)": {
        "notice": "Checks if the commit period is still active for the specified poll"
      },
      "commitVote(address,uint256,bytes32,uint256,uint256)": {
        "notice": "Commits vote using hash of choice and secret salt to conceal vote until reveal"
      },
      "getAvailableTokens(address,uint256)": {
        "notice": "Returns the available tokens for voting for voter `_voter`"
      },
      "isPassed(uint256)": {
        "notice": "Determines if proposal has passed"
      },
      "pollEnded(uint256)": {
        "notice": "Determines if poll is over"
      },
      "requestVotingRights(address,uint256)": {
        "notice": "Loads _numTokens ERC20 tokens into the voting contract for one-to-one voting rights"
      },
      "revealPeriodActive(uint256)": {
        "notice": "Checks if the reveal period is still active for the specified poll"
      },
      "revealVote(address,uint256,uint256,uint256)": {
        "notice": "Reveals vote with choice and secret salt used in generating commitHash to attribute committed tokens"
      },
      "withdrawVotingRights(address,uint256)": {
        "notice": "Withdraw _numTokens ERC20 tokens from the voting contract, revoking these voting rights"
      }
    }
  }
}