{
  "contractName": "PLCRVoting",
  "abi": [
    {
      "constant": true,
      "inputs": [],
      "name": "INITIAL_POLL_NONCE",
      "outputs": [
        {
          "name": "",
          "type": "uint256"
        }
      ],
      "payable": false,
      "stateMutability": "view",
      "type": "function"
    },
    {
      "constant": true,
      "inputs": [
        {
          "name": "",
          "type": "address"
        }
      ],
      "name": "voteTokenBalance",
      "outputs": [
        {
          "name": "",
          "type": "uint256"
        }
      ],
      "payable": false,
      "stateMutability": "view",
      "type": "function"
    },
    {
      "constant": true,
      "inputs": [
        {
          "name": "",
          "type": "uint256"
        }
      ],
      "name": "pollMap",
      "outputs": [
        {
          "name": "commitEndDate",
          "type": "uint256"
        },
        {
          "name": "revealEndDate",
          "type": "uint256"
        },
        {
          "name": "voteQuorum",
          "type": "uint256"
        },
        {
          "name": "votesFor",
          "type": "uint256"
        },
        {
          "name": "votesAgainst",
          "type": "uint256"
        }
      ],
      "payable": false,
      "stateMutability": "view",
      "type": "function"
    },
    {
      "constant": true,
      "inputs": [
        {
          "name": "",
          "type": "address"
        }
      ],
      "name": "voteReputationBalance",
      "outputs": [
        {
          "name": "",
          "type": "uint256"
        }
      ],
      "payable": false,
      "stateMutability": "view",
      "type": "function"
    },
    {
      "constant": true,
      "inputs": [],
      "name": "pollNonce",
      "outputs": [
        {
          "name": "",
          "type": "uint256"
        }
      ],
      "payable": false,
      "stateMutability": "view",
      "type": "function"
    },
    {
      "inputs": [
        {
          "name": "_tokenRegistry",
          "type": "address"
        },
        {
          "name": "_reputationRegistry",
          "type": "address"
        },
        {
          "name": "_projectRegistry",
          "type": "address"
        }
      ],
      "payable": false,
      "stateMutability": "nonpayable",
      "type": "constructor"
    },
    {
      "anonymous": false,
      "inputs": [
        {
          "indexed": false,
          "name": "voter",
          "type": "address"
        },
        {
          "indexed": false,
          "name": "pollID",
          "type": "uint256"
        },
        {
          "indexed": false,
          "name": "numTokens",
          "type": "uint256"
        }
      ],
      "name": "VoteCommitted",
      "type": "event"
    },
    {
      "anonymous": false,
      "inputs": [
        {
          "indexed": false,
          "name": "voter",
          "type": "address"
        },
        {
          "indexed": false,
          "name": "pollID",
          "type": "uint256"
        },
        {
          "indexed": false,
          "name": "numTokens",
          "type": "uint256"
        },
        {
          "indexed": false,
          "name": "choice",
          "type": "uint256"
        }
      ],
      "name": "VoteRevealed",
      "type": "event"
    },
    {
      "anonymous": false,
      "inputs": [
        {
          "indexed": false,
          "name": "voteQuorum",
          "type": "uint256"
        },
        {
          "indexed": false,
          "name": "commitDuration",
          "type": "uint256"
        },
        {
          "indexed": false,
          "name": "revealDuration",
          "type": "uint256"
        },
        {
          "indexed": false,
          "name": "pollID",
          "type": "uint256"
        }
      ],
      "name": "PollCreated",
      "type": "event"
    },
    {
      "anonymous": false,
      "inputs": [
        {
          "indexed": false,
          "name": "voter",
          "type": "address"
        },
        {
          "indexed": false,
          "name": "numTokens",
          "type": "uint256"
        }
      ],
      "name": "VotingRightsGranted",
      "type": "event"
    },
    {
      "anonymous": false,
      "inputs": [
        {
          "indexed": false,
          "name": "voter",
          "type": "address"
        },
        {
          "indexed": false,
          "name": "numTokens",
          "type": "uint256"
        }
      ],
      "name": "VotingRightsWithdrawn",
      "type": "event"
    },
    {
      "anonymous": false,
      "inputs": [
        {
          "indexed": false,
          "name": "hash1",
          "type": "bytes32"
        },
        {
          "indexed": false,
          "name": "hash2",
          "type": "bytes32"
        },
        {
          "indexed": false,
          "name": "equal",
          "type": "bool"
        }
      ],
      "name": "Hashes",
      "type": "event"
    },
    {
      "constant": false,
      "inputs": [
        {
          "name": "_tokenRegistry",
          "type": "address"
        },
        {
          "name": "_reputationRegistry",
          "type": "address"
        },
        {
          "name": "_projectRegistry",
          "type": "address"
        }
      ],
      "name": "setup",
      "outputs": [],
      "payable": false,
      "stateMutability": "nonpayable",
      "type": "function"
    },
    {
      "constant": true,
      "inputs": [
        {
          "name": "_voter",
          "type": "address"
        },
        {
          "name": "_type",
          "type": "uint256"
        }
      ],
      "name": "getAvailableTokens",
      "outputs": [
        {
          "name": "",
          "type": "uint256"
        }
      ],
      "payable": false,
      "stateMutability": "view",
      "type": "function"
    },
    {
      "constant": false,
      "inputs": [
        {
          "name": "_staker",
          "type": "address"
        },
        {
          "name": "_numTokens",
          "type": "uint256"
        }
      ],
      "name": "requestVotingRights",
      "outputs": [],
      "payable": false,
      "stateMutability": "nonpayable",
      "type": "function"
    },
    {
      "constant": false,
      "inputs": [
        {
          "name": "_staker",
          "type": "address"
        },
        {
          "name": "_numTokens",
          "type": "uint256"
        }
      ],
      "name": "withdrawVotingRights",
      "outputs": [],
      "payable": false,
      "stateMutability": "nonpayable",
      "type": "function"
    },
    {
      "constant": false,
      "inputs": [
        {
          "name": "_staker",
          "type": "address"
        },
        {
          "name": "_pollID",
          "type": "uint256"
        }
      ],
      "name": "rescueTokens",
      "outputs": [],
      "payable": false,
      "stateMutability": "nonpayable",
      "type": "function"
    },
    {
      "constant": false,
      "inputs": [
        {
          "name": "_staker",
          "type": "address"
        },
        {
          "name": "_pollID",
          "type": "uint256"
        },
        {
          "name": "_secretHash",
          "type": "bytes32"
        },
        {
          "name": "_numTokens",
          "type": "uint256"
        },
        {
          "name": "_prevPollID",
          "type": "uint256"
        }
      ],
      "name": "commitVote",
      "outputs": [],
      "payable": false,
      "stateMutability": "nonpayable",
      "type": "function"
    },
    {
      "constant": true,
      "inputs": [
        {
          "name": "_prevID",
          "type": "uint256"
        },
        {
          "name": "_nextID",
          "type": "uint256"
        },
        {
          "name": "_voter",
          "type": "address"
        },
        {
          "name": "_numTokens",
          "type": "uint256"
        }
      ],
      "name": "validPosition",
      "outputs": [
        {
          "name": "valid",
          "type": "bool"
        }
      ],
      "payable": false,
      "stateMutability": "view",
      "type": "function"
    },
    {
      "constant": false,
      "inputs": [
        {
          "name": "_voter",
          "type": "address"
        },
        {
          "name": "_pollID",
          "type": "uint256"
        },
        {
          "name": "_voteOption",
          "type": "uint256"
        },
        {
          "name": "_salt",
          "type": "uint256"
        }
      ],
      "name": "revealVote",
      "outputs": [],
      "payable": false,
      "stateMutability": "nonpayable",
      "type": "function"
    },
    {
      "constant": true,
      "inputs": [
        {
          "name": "_voter",
          "type": "address"
        },
        {
          "name": "_pollID",
          "type": "uint256"
        },
        {
          "name": "_salt",
          "type": "uint256"
        }
      ],
      "name": "getNumPassingTokens",
      "outputs": [
        {
          "name": "correctVotes",
          "type": "uint256"
        }
      ],
      "payable": false,
      "stateMutability": "view",
      "type": "function"
    },
    {
      "constant": false,
      "inputs": [
        {
          "name": "_voteQuorum",
          "type": "uint256"
        },
        {
          "name": "_commitDuration",
          "type": "uint256"
        },
        {
          "name": "_revealDuration",
          "type": "uint256"
        }
      ],
      "name": "startPoll",
      "outputs": [
        {
          "name": "pollID",
          "type": "uint256"
        }
      ],
      "payable": false,
      "stateMutability": "nonpayable",
      "type": "function"
    },
    {
      "constant": true,
      "inputs": [
        {
          "name": "_pollID",
          "type": "uint256"
        }
      ],
      "name": "isPassed",
      "outputs": [
        {
          "name": "passed",
          "type": "bool"
        }
      ],
      "payable": false,
      "stateMutability": "view",
      "type": "function"
    },
    {
      "constant": true,
      "inputs": [
        {
          "name": "_pollID",
          "type": "uint256"
        }
      ],
      "name": "getTotalNumberOfTokensForWinningOption",
      "outputs": [
        {
          "name": "numTokens",
          "type": "uint256"
        }
      ],
      "payable": false,
      "stateMutability": "view",
      "type": "function"
    },
    {
      "constant": true,
      "inputs": [
        {
          "name": "_pollID",
          "type": "uint256"
        }
      ],
      "name": "pollEnded",
      "outputs": [
        {
          "name": "ended",
          "type": "bool"
        }
      ],
      "payable": false,
      "stateMutability": "view",
      "type": "function"
    },
    {
      "constant": true,
      "inputs": [
        {
          "name": "_pollID",
          "type": "uint256"
        }
      ],
      "name": "commitPeriodActive",
      "outputs": [
        {
          "name": "active",
          "type": "bool"
        }
      ],
      "payable": false,
      "stateMutability": "view",
      "type": "function"
    },
    {
      "constant": true,
      "inputs": [
        {
          "name": "_pollID",
          "type": "uint256"
        }
      ],
      "name": "revealPeriodActive",
      "outputs": [
        {
          "name": "active",
          "type": "bool"
        }
      ],
      "payable": false,
      "stateMutability": "view",
      "type": "function"
    },
    {
      "constant": true,
      "inputs": [
        {
          "name": "_voter",
          "type": "address"
        },
        {
          "name": "_pollID",
          "type": "uint256"
        }
      ],
      "name": "hasBeenRevealed",
      "outputs": [
        {
          "name": "revealed",
          "type": "bool"
        }
      ],
      "payable": false,
      "stateMutability": "view",
      "type": "function"
    },
    {
      "constant": true,
      "inputs": [
        {
          "name": "_pollID",
          "type": "uint256"
        }
      ],
      "name": "pollExists",
      "outputs": [
        {
          "name": "exists",
          "type": "bool"
        }
      ],
      "payable": false,
      "stateMutability": "view",
      "type": "function"
    },
    {
      "constant": true,
      "inputs": [
        {
          "name": "_voter",
          "type": "address"
        },
        {
          "name": "_pollID",
          "type": "uint256"
        }
      ],
      "name": "getCommitHash",
      "outputs": [
        {
          "name": "commitHash",
          "type": "bytes32"
        }
      ],
      "payable": false,
      "stateMutability": "view",
      "type": "function"
    },
    {
      "constant": true,
      "inputs": [
        {
          "name": "_voter",
          "type": "address"
        },
        {
          "name": "_pollID",
          "type": "uint256"
        }
      ],
      "name": "getNumTokens",
      "outputs": [
        {
          "name": "numTokens",
          "type": "uint256"
        }
      ],
      "payable": false,
      "stateMutability": "view",
      "type": "function"
    },
    {
      "constant": true,
      "inputs": [
        {
          "name": "_voter",
          "type": "address"
        }
      ],
      "name": "getLastNode",
      "outputs": [
        {
          "name": "pollID",
          "type": "uint256"
        }
      ],
      "payable": false,
      "stateMutability": "view",
      "type": "function"
    },
    {
      "constant": true,
      "inputs": [
        {
          "name": "_voter",
          "type": "address"
        }
      ],
      "name": "getLockedTokens",
      "outputs": [
        {
          "name": "numTokens",
          "type": "uint256"
        }
      ],
      "payable": false,
      "stateMutability": "view",
      "type": "function"
    },
    {
      "constant": true,
      "inputs": [
        {
          "name": "_voter",
          "type": "address"
        },
        {
          "name": "_numTokens",
          "type": "uint256"
        }
      ],
      "name": "getInsertPointForNumTokens",
      "outputs": [
        {
          "name": "prevNode",
          "type": "uint256"
        }
      ],
      "payable": false,
      "stateMutability": "view",
      "type": "function"
    },
    {
      "constant": true,
      "inputs": [
        {
          "name": "_terminationDate",
          "type": "uint256"
        }
      ],
      "name": "isExpired",
      "outputs": [
        {
          "name": "expired",
          "type": "bool"
        }
      ],
      "payable": false,
      "stateMutability": "view",
      "type": "function"
    },
    {
      "constant": true,
      "inputs": [
        {
          "name": "_user",
          "type": "address"
        },
        {
          "name": "_pollID",
          "type": "uint256"
        }
      ],
      "name": "attrUUID",
      "outputs": [
        {
          "name": "UUID",
          "type": "bytes32"
        }
      ],
      "payable": false,
      "stateMutability": "pure",
      "type": "function"
    }
  ],
  "bytecode": "0x608060405234801561001057600080fd5b5060405160608062001dcb83398101604090815281516020830151919092015161004483838364010000000061004c810204565b5050506100d2565b600754600160a060020a031615801561006e5750600854600160a060020a0316155b80156100835750600954600160a060020a0316155b151561008e57600080fd5b60078054600160a060020a03948516600160a060020a0319918216179091556008805493851693821693909317909255600980549190931691161790556000600155565b611ce980620000e26000396000f30060806040526004361061015b5763ffffffff60e060020a600035041663053e71a681146101605780632173a10f1461018a57806332ed3d601461019f5780633b930294146101bd578063427fa1d2146101de578063441c77c0146101ff578063494031831461022b57806357376198146102435780635e28fd5e146102695780636148fed5146102965780636b2d95d4146102d95780636b9deb65146102fa57806372d8e4421461031b57806377b8b1c71461033f578063819b02931461036c57806388d21ff31461039657806397508f36146103ae5780639f68ce54146103c3578063a1103f37146103e7578063a4439dc51461040b578063b43bd06914610423578063bfd995711461044a578063c5fa801b14610474578063c622afb014610498578063d1382092146104bc578063d901402b146104e0578063d9548e5314610504578063ee6848301461051c578063ef348e4014610534575b600080fd5b34801561016c57600080fd5b50610178600435610558565b60408051918252519081900360200190f35b34801561019657600080fd5b506101786105ad565b3480156101ab57600080fd5b506101786004356024356044356105b2565b3480156101c957600080fd5b50610178600160a060020a03600435166106e0565b3480156101ea57600080fd5b50610178600160a060020a03600435166106f2565b34801561020b57600080fd5b506102176004356107ac565b604080519115158252519081900360200190f35b34801561023757600080fd5b506102176004356107f6565b34801561024f57600080fd5b50610267600160a060020a0360043516602435610889565b005b34801561027557600080fd5b50610267600160a060020a036004351660243560443560643560843561097e565b3480156102a257600080fd5b506102ae600435610e7e565b6040805195865260208601949094528484019290925260608401526080830152519081900360a00190f35b3480156102e557600080fd5b50610178600160a060020a0360043516610ead565b34801561030657600080fd5b50610178600160a060020a0360043516610ec1565b34801561032757600080fd5b50610217600160a060020a0360043516602435610ed3565b34801561034b57600080fd5b50610267600160a060020a0360043581169060243581169060443516611076565b34801561037857600080fd5b50610217600435602435600160a060020a0360443516606435611109565b3480156103a257600080fd5b5061021760043561114a565b3480156103ba57600080fd5b506101786111ad565b3480156103cf57600080fd5b50610178600160a060020a03600435166024356111b3565b3480156103f357600080fd5b50610178600160a060020a03600435166024356111fc565b34801561041757600080fd5b506102176004356112a9565b34801561042f57600080fd5b50610178600160a060020a03600435166024356044356112d7565b34801561045657600080fd5b50610267600160a060020a03600435166024356044356064356113cc565b34801561048057600080fd5b50610267600160a060020a036004351660243561174e565b3480156104a457600080fd5b50610178600160a060020a036004351660243561185b565b3480156104c857600080fd5b50610178600160a060020a036004351660243561195f565b3480156104ec57600080fd5b50610178600160a060020a0360043516602435611a31565b34801561051057600080fd5b50610217600435611ad0565b34801561052857600080fd5b50610217600435611ad5565b34801561054057600080fd5b50610267600160a060020a0360043516602435611b06565b600061056382611ad5565b151561056e57600080fd5b610577826107f6565b1561059457506000818152600260205260409020600301546105a8565b506000818152600260205260409020600401545b919050565b600081565b600954600090600160a060020a031633146105cc57600080fd5b600180546105df9163ffffffff611c7e16565b6001556040805160a08101909152806105fe428663ffffffff611c7e16565b815260200161062384610617428863ffffffff611c7e16565b9063ffffffff611c7e16565b815260200185815260200160008152602001600081525060026000600154815260200190815260200160002060008201518160000155602082015181600101556040820151816002015560608201518160030155608082015181600401559050507fef096063d99f4ef9370b5e89d45025615c869845ca33878d173e8dca429b2be08484846001546040518085815260200184815260200183815260200182815260200194505050505060405180910390a1506001549392505050565b60036020526000908152604090205481565b600160a060020a038116600090815260056020908152604080832081517f30fe0a0a000000000000000000000000000000000000000000000000000000008152600481019190915260248101849052905173__DLL___________________________________926330fe0a0a9260448082019391829003018186803b15801561077a57600080fd5b505af415801561078e573d6000803e3d6000fd5b505050506040513d60208110156107a457600080fd5b505192915050565b60006107b78261114a565b15156107c257600080fd5b6000828152600260205260409020600101546107dd90611ad0565b1580156107f057506107ee826112a9565b155b92915050565b6000610800611c8d565b600954600160a060020a0316331461081757600080fd5b61082083611ad5565b151561082b57600080fd5b5050600090815260026020818152604092839020835160a08101855281548152600182015492810192909252918201549281018390526003820154606082018190526004909201546080909101819052810190910260649091021190565b600854600160a060020a03163314806108ac5750600754600160a060020a031633145b15156108b757600080fd5b6108c081611ad5565b15156108cb57600080fd5b6108d58282610ed3565b151561097a57600160a060020a03821660009081526005602052604080822081517f6d900ed0000000000000000000000000000000000000000000000000000000008152600481019190915260248101849052905173__DLL___________________________________92636d900ed09260448082019391829003018186803b15801561096157600080fd5b505af4158015610975573d6000803e3d6000fd5b505050505b5050565b6008546000908190600160a060020a03163314806109a65750600754600160a060020a031633145b15156109b157600080fd5b6109ba866112a9565b15156109c557600080fd5b600854600160a060020a03163314610a0157600160a060020a0387166000908152600360205260409020548411156109fc57600080fd5b610a26565b600160a060020a038716600090815260046020526040902054841115610a2657600080fd5b851515610a3257600080fd5b821580610a475750610a448784611a31565b15155b1515610a5257600080fd5b600160a060020a03871660009081526005602090815260409182902082517f07d29ac9000000000000000000000000000000000000000000000000000000008152600481019190915260248101869052915173__DLL___________________________________926307d29ac9926044808301939192829003018186803b158015610adc57600080fd5b505af4158015610af0573d6000803e3d6000fd5b505050506040513d6020811015610b0657600080fd5b50519150858214610b175781610bce565b600160a060020a03871660009081526005602090815260409182902082517f07d29ac9000000000000000000000000000000000000000000000000000000008152600481019190915260248101899052915173__DLL___________________________________926307d29ac9926044808301939192829003018186803b158015610ba157600080fd5b505af4158015610bb5573d6000803e3d6000fd5b505050506040513d6020811015610bcb57600080fd5b50515b9150610bdc83838987611109565b1515610be757600080fd5b600160a060020a03871660009081526005602052604080822081517f9735c51b0000000000000000000000000000000000000000000000000000000081526004810191909152602481018690526044810189905260648101859052905173__DLL___________________________________92639735c51b9260848082019391829003018186803b158015610c7b57600080fd5b505af4158015610c8f573d6000803e3d6000fd5b50505050610c9d87876111fc565b604080517f977aa03100000000000000000000000000000000000000000000000000000000815260066004820152602481018390526064810187905260806044820152600960848201527f6e756d546f6b656e73000000000000000000000000000000000000000000000060a4820152905191925073__AttributeStore________________________9163977aa0319160c480820192600092909190829003018186803b158015610d4e57600080fd5b505af4158015610d62573d6000803e3d6000fd5b5050604080517f977aa03100000000000000000000000000000000000000000000000000000000815260066004820152602481018590526064810189905260806044820152600a60848201527f636f6d6d6974486173680000000000000000000000000000000000000000000060a4820152905173__AttributeStore________________________935063977aa031925060c4808301926000929190829003018186803b158015610e1357600080fd5b505af4158015610e27573d6000803e3d6000fd5b505060408051600160a060020a038b168152602081018a905280820188905290517f1d1ce8842c4b2d0eaed42eb6d7732092ca85f0992cae9c760d181efcb0aedf4e9350908190036060019150a150505050505050565b600260208190526000918252604090912080546001820154928201546003830154600490930154919392909185565b60006107f082610ebc846106f2565b61195f565b60046020526000908152604090205481565b6000806000610ee18461114a565b1515610eec57600080fd5b600160a060020a03851660009081526005602090815260409182902082517f30fe0a0a000000000000000000000000000000000000000000000000000000008152600481019190915260248101879052915173__DLL___________________________________926330fe0a0a926044808301939192829003018186803b158015610f7657600080fd5b505af4158015610f8a573d6000803e3d6000fd5b505050506040513d6020811015610fa057600080fd5b5051600160a060020a03861660009081526005602090815260409182902082517f07d29ac9000000000000000000000000000000000000000000000000000000008152600481019190915260248101889052915192945073__DLL___________________________________926307d29ac9926044808201939291829003018186803b15801561102f57600080fd5b505af4158015611043573d6000803e3d6000fd5b505050506040513d602081101561105957600080fd5b50519050818414801561106b57508381145b92505b505092915050565b600754600160a060020a03161580156110985750600854600160a060020a0316155b80156110ad5750600954600160a060020a0316155b15156110b857600080fd5b60078054600160a060020a0394851673ffffffffffffffffffffffffffffffffffffffff19918216179091556008805493851693821693909317909255600980549190931691161790556000600155565b6000806000611118858861195f565b8410159150611127858761195f565b84111580611133575085155b905081801561113f5750805b979650505050505050565b600081815260026020526040812080546001909101548115801561116d57508015155b1561117457fe5b8115801590611181575080155b1561118857fe5b811580611193575080155b156111a157600092506111a6565b600192505b5050919050565b60015481565b6000816001146111db57600160a060020a0383166000908152600460205260409020546111f5565b600160a060020a0383166000908152600360205260409020545b9392505050565b600082826040516020018083600160a060020a0316600160a060020a03166c01000000000000000000000000028152601401828152602001925050506040516020818303038152906040526040518082805190602001908083835b602083106112765780518252601f199092019160209182019101611257565b5181516020939093036101000a600019018019909116921691909117905260405192018290039091209695505050505050565b60006112b48261114a565b15156112bf57600080fd5b6000828152600260205260409020546107ee90611ad0565b6000806000806112e686611ad5565b15156112f157600080fd5b6112fb8787610ed3565b151561130657600080fd5b61130f866107f6565b61131a57600061131d565b60015b60ff169250828560405160200180838152602001828152602001925050506040516020818303038152906040526040518082805190602001908083835b602083106113795780518252601f19909201916020918201910161135a565b6001836020036101000a038019825116818451168082178552505050505050905001915050604051809103902091506113b28787611a31565b90508181146113c257600061113f565b61113f878761195f565b600854600090600160a060020a03163314806113f25750600754600160a060020a031633145b15156113fd57600080fd5b611406846107ac565b151561141157600080fd5b61141b8585610ed3565b1561142557600080fd5b7fd34a7536b3bf647ae76030cf58193b79c4bc0a711ac9aca9ef9738a040e15e12838360405160200180838152602001828152602001925050506040516020818303038152906040526040518082805190602001908083835b6020831061149d5780518252601f19909201916020918201910161147e565b6001836020036101000a03801982511681845116808217855250505050505090500191505060405180910390206114d48787611a31565b6114de8888611a31565b6040805160208082018a9052818301899052825180830384018152606090920192839052815191929182918401908083835b6020831061152f5780518252601f199092019160209182019101611510565b51815160001960209485036101000a0190811690199190911617905260408051949092018490038420988452830196909652509290941482840152509051908190036060019150a16115818585611a31565b604080516020808201879052818301869052825180830384018152606090920192839052815191929182918401908083835b602083106115d25780518252601f1990920191602091820191016115b3565b6001836020036101000a03801982511681845116808217855250505050505090500191505060405180910390206000191614151561160f57600080fd5b611619858561195f565b90508260011415611640576000848152600260205260409020600301805482019055611658565b60008481526002602052604090206004018054820190555b600160a060020a03851660009081526005602052604080822081517f6d900ed0000000000000000000000000000000000000000000000000000000008152600481019190915260248101879052905173__DLL___________________________________92636d900ed09260448082019391829003018186803b1580156116de57600080fd5b505af41580156116f2573d6000803e3d6000fd5b505060408051600160a060020a0389168152602081018890528082018590526060810187905290517f7f9df012dd015e7e61a4a17ccf8db7fb6afbe211465b5696368d1d6408d033119350908190036080019150a15050505050565b600854600160a060020a03163314806117715750600754600160a060020a031633145b151561177c57600080fd5b600754600160a060020a03163314156117ec57600160a060020a0382166000818152600360209081526040918290208054850190558151928352820183905280517f4bdec44a53feb3aabedf51c989ff2b6aebe7369d3974f57c304758a8537281e19281900390910190a161097a565b600854600160a060020a031633141561097a57600160a060020a0382166000818152600460209081526040918290208054850190558151928352820183905280517f4bdec44a53feb3aabedf51c989ff2b6aebe7369d3974f57c304758a8537281e19281900390910190a15050565b6000806000611869856106f2565b9150611875858361195f565b90505b801561195757611888858361195f565b90508381101561189a5781925061106e565b600160a060020a03851660009081526005602090815260409182902082517f30fe0a0a000000000000000000000000000000000000000000000000000000008152600481019190915260248101859052915173__DLL___________________________________926330fe0a0a926044808301939192829003018186803b15801561192457600080fd5b505af4158015611938573d6000803e3d6000fd5b505050506040513d602081101561194e57600080fd5b50519150611878565b509392505050565b600073__AttributeStore________________________6350389f5c600661198786866111fc565b6040805160e060020a63ffffffff86160281526004810193909352602483019190915260606044830152600960648301527f6e756d546f6b656e73000000000000000000000000000000000000000000000060848301525160a4808301926020929190829003018186803b1580156119fe57600080fd5b505af4158015611a12573d6000803e3d6000fd5b505050506040513d6020811015611a2857600080fd5b50519392505050565b600073__AttributeStore________________________6350389f5c6006611a5986866111fc565b6040805160e060020a63ffffffff86160281526004810193909352602483019190915260606044830152600a60648301527f636f6d6d6974486173680000000000000000000000000000000000000000000060848301525160a4808301926020929190829003018186803b1580156119fe57600080fd5b421190565b6000611ae08261114a565b1515611aeb57600080fd5b6000828152600260205260409020600101546107f090611ad0565b600854600090600160a060020a0316331480611b2c5750600754600160a060020a031633145b1515611b3757600080fd5b600754600160a060020a0316331415611bda57611b5383610ead565b600160a060020a03841660009081526003602052604090205403905081811015611b7c57600080fd5b600160a060020a038316600081815260036020908152604091829020805486900390558151928352820184905280517f2c88837e03c4eee367d64fb379bbf7dad76a371c52622230bcf8b79728b9c5329281900390910190a1611c79565b600854600160a060020a0316331415611c7957611bf683610ead565b600160a060020a03841660009081526004602052604090205403905081811015611c1f57600080fd5b600160a060020a038316600081815260046020908152604091829020805486900390558151928352820184905280517f2c88837e03c4eee367d64fb379bbf7dad76a371c52622230bcf8b79728b9c5329281900390910190a15b505050565b6000828201838110156111f557fe5b60a060405190810160405280600081526020016000815260200160008152602001600081526020016000815250905600a165627a7a72305820146c584ebb4342f5b7fd9a9b51e07a66b12559d76603cbb0381918fabf73e2790029",
  "source": "pragma solidity ^0.4.21;\n\n//import files\nimport \"./DLL.sol\";\nimport \"./AttributeStore.sol\";\nimport \"./SafeMath.sol\";\n/**\n@title Extension of Partial-Lock-Commit-Reveal Voting scheme with ERC20 tokens to include non-ERC20 token\n@author Team: Jessica Marshall, Ashoka Finley, borrowed heavily from Cem Ozer, Aspyn Palatnick, Yorke Rhodes\n*/\n\ncontract PLCRVoting {\n\n    event VoteCommitted(address voter, uint pollID, uint numTokens);\n    event VoteRevealed(address voter, uint pollID, uint numTokens, uint choice);\n    event PollCreated(uint voteQuorum, uint commitDuration, uint revealDuration, uint pollID);\n    event VotingRightsGranted(address voter, uint numTokens);\n    event VotingRightsWithdrawn(address voter, uint numTokens);\n    event Hashes(bytes32 hash1, bytes32 hash2, bool equal);\n\n    // ============\n    // DATA STRUCTURES:\n    // ============\n\n    using AttributeStore for AttributeStore.Data;\n    using DLL for DLL.Data;\n    using SafeMath for uint256;\n\n    struct Poll {\n        uint commitEndDate;     /// expiration date of commit period for poll\n        uint revealEndDate;     /// expiration date of reveal period for poll\n        uint voteQuorum;        /// number of votes required for a proposal to pass\n        uint votesFor;          /// tally of votes supporting proposal\n        uint votesAgainst;      /// tally of votes countering proposal\n    }\n\n    // ============\n    // STATE VARIABLES:\n    // ============\n\n    PLCRVoting masterCopy; // THIS MUST ALWAYS BE THE FIRST STATE VARIABLE DECLARED!!!!!!\n\n    uint constant public INITIAL_POLL_NONCE = 0;\n    uint public pollNonce;\n\n    mapping(uint => Poll) public pollMap; // maps pollID to Poll struct\n    mapping(address => uint) public voteTokenBalance; // maps user's address to voteToken balance\n    mapping(address => uint) public voteReputationBalance;\n\n    mapping(address => DLL.Data) dllMap;\n    AttributeStore.Data store;\n\n    address tokenRegistry;\n    address reputationRegistry;\n    address projectRegistry;\n\n    // =====================================================================\n    // MODIFIERS\n    // =====================================================================\n\n      modifier onlyTRRR() {\n        require(msg.sender == reputationRegistry || msg.sender == tokenRegistry);\n        _;\n      }\n\n      modifier onlyTR() {\n        require(msg.sender == tokenRegistry);\n        _;\n      }\n\n      modifier onlyPR() {\n        require(msg.sender == projectRegistry);\n        _;\n      }\n\n    // ============\n    // CONSTRUCTOR:\n    // ============\n\n    /**\n    @dev uses the setup function to initialize PLCR by specifying the token used for voting\n    @param _tokenRegistry The address of the token registry contract\n    @param _reputationRegistry The address of the reputation registry contract\n    @param _projectRegistry The address of the project registry contract\n    */\n    constructor (address _tokenRegistry, address _reputationRegistry, address _projectRegistry) public {\n        setup(_tokenRegistry, _reputationRegistry, _projectRegistry);\n    }\n\n    /**\n    @dev initializes the contract by spcifying the token used for voting. Can be called by proxy\n    contracts to initialize their state.\n    @param _tokenRegistry The address of the token registry contract\n    @param _reputationRegistry The address of the reputation registry contract\n    @param _projectRegistry The address of the project registry contract\n    */\n    function setup(address _tokenRegistry, address _reputationRegistry, address _projectRegistry) public {\n        require(tokenRegistry == 0 && reputationRegistry == 0 && projectRegistry == 0);\n        tokenRegistry = _tokenRegistry;\n        reputationRegistry = _reputationRegistry;\n        projectRegistry = _projectRegistry;\n        pollNonce = INITIAL_POLL_NONCE;\n    }\n\n    // ================\n    // TOKEN INTERFACE:\n    // ================\n\n    /**\n    @notice Returns the available tokens for voting for voter `_voter`\n    @param _voter Address of the voter\n    @param _type The type of the validator\n    */\n    function getAvailableTokens(address _voter, uint _type) public view returns(uint256) {\n        return _type == 1\n            ? voteTokenBalance[_voter]\n            : voteReputationBalance[_voter];\n    }\n    /**\n    @notice Loads _numTokens ERC20 tokens into the voting contract for one-to-one voting rights\n    @dev Assumes that msg.sender has approved voting contract to spend on their behalf\n    @param _numTokens The number of votingTokens desired in exchange for ERC20 tokens\n    */\n    function requestVotingRights(address _staker, uint _numTokens) public onlyTRRR() {\n        //checks done in THR/WR to ensure that staker has tokens to vote with\n        if (msg.sender == tokenRegistry) {\n            voteTokenBalance[_staker] += _numTokens;\n            emit VotingRightsGranted(_staker, _numTokens);\n        } else if (msg.sender == reputationRegistry) {\n            voteReputationBalance[_staker] += _numTokens;\n            emit VotingRightsGranted(_staker, _numTokens);\n        }\n    }\n\n    /**\n    @notice Withdraw _numTokens ERC20 tokens from the voting contract, revoking these voting rights\n    @param _numTokens The number of ERC20 tokens desired in exchange for voting rights\n    */\n    function withdrawVotingRights(address _staker, uint _numTokens) external onlyTRRR() {\n        if (msg.sender == tokenRegistry) {\n            uint256 availableTokens = voteTokenBalance[_staker] - getLockedTokens(_staker);\n            require(availableTokens >= _numTokens);\n            voteTokenBalance[_staker] -= _numTokens;\n            emit VotingRightsWithdrawn(_staker, _numTokens);\n        } else if (msg.sender == reputationRegistry) {\n            availableTokens = voteReputationBalance[_staker] - getLockedTokens(_staker);\n            require(availableTokens >= _numTokens);\n            voteReputationBalance[_staker] -= _numTokens;\n            emit VotingRightsWithdrawn(_staker, _numTokens);\n        }\n    }\n\n    /**\n    @dev Unlocks tokens locked in unrevealed vote where poll has ended\n    @param _pollID Integer identifier associated with the target poll\n    */\n    function rescueTokens(address _staker, uint _pollID) onlyTRRR() external {\n        require(pollEnded(_pollID));\n\n        if(!hasBeenRevealed(_staker, _pollID)) {\n            dllMap[_staker].remove(_pollID);\n        }\n    }\n\n    // =================\n    // VOTING INTERFACE:\n    // =================\n\n    /**\n    @notice Commits vote using hash of choice and secret salt to conceal vote until reveal\n    @param _pollID Integer identifier associated with target poll\n    @param _secretHash Commit keccak256 hash of voter's choice and salt (tightly packed in this order)\n    @param _numTokens The number of tokens to be committed towards the target poll\n    @param _prevPollID The ID of the poll that the user has voted the maximum number of tokens in which is still less than or equal to numTokens\n    */\n    function commitVote(\n        address _staker,\n        uint _pollID,\n        bytes32 _secretHash,\n        uint _numTokens,\n        uint _prevPollID\n    ) onlyTRRR() external {\n        require(commitPeriodActive(_pollID));\n        msg.sender == reputationRegistry\n            ? require(voteReputationBalance[_staker] >= _numTokens) // prevent user from overspending\n            : require(voteTokenBalance[_staker] >= _numTokens); // prevent user from overspending\n        require(_pollID != 0);                // prevent user from committing to zero node placeholder\n        // Check if _prevPollID exists\n        require(_prevPollID == 0 || getCommitHash(_staker, _prevPollID) != 0);\n\n        uint nextPollID = dllMap[_staker].getNext(_prevPollID);\n        // if nextPollID is equal to _pollID, _pollID is being updated,\n        nextPollID = (nextPollID == _pollID)\n            ? dllMap[_staker].getNext(_pollID)\n            : nextPollID;\n        require(validPosition(_prevPollID, nextPollID, _staker, _numTokens));\n        dllMap[_staker].insert(_prevPollID, _pollID, nextPollID);\n        bytes32 UUID = attrUUID(_staker, _pollID);\n        store.setAttribute(UUID, \"numTokens\", _numTokens);\n        store.setAttribute(UUID, \"commitHash\", uint(_secretHash));\n        emit VoteCommitted(_staker, _pollID, _numTokens);\n    }\n\n    /**\n    @dev Compares previous and next poll's committed tokens for sorting purposes\n    @param _prevID Integer identifier associated with previous poll in sorted order\n    @param _nextID Integer identifier associated with next poll in sorted order\n    @param _voter Address of user to check DLL position for\n    @param _numTokens The number of tokens to be committed towards the poll (used for sorting)\n    @return valid Boolean indication of if the specified position maintains the sort\n    */\n    function validPosition(\n        uint _prevID,\n        uint _nextID,\n        address _voter,\n        uint _numTokens\n    ) public constant returns (bool valid) {\n        bool prevValid = (_numTokens >= getNumTokens(_voter, _prevID));\n        // if next is zero node, _numTokens does not need to be greater\n        bool nextValid = (_numTokens <= getNumTokens(_voter, _nextID) || _nextID == 0);\n        return prevValid && nextValid;\n    }\n\n    /**\n    @notice Reveals vote with choice and secret salt used in generating commitHash to attribute committed tokens\n    @param _pollID Integer identifier associated with target poll\n    @param _voteOption Vote choice used to generate commitHash for associated poll\n    @param _salt Secret number used to generate commitHash for associated poll\n    */\n    function revealVote(address _voter, uint _pollID, uint _voteOption, uint _salt) onlyTRRR() external {\n      require(revealPeriodActive(_pollID));\n      require(!hasBeenRevealed(_voter, _pollID)); // prevent user from revealing multiple times\n      emit Hashes(keccak256(abi.encodePacked(_voteOption, _salt)), getCommitHash(_voter, _pollID), keccak256(abi.encodePacked(_voteOption, _salt)) == getCommitHash(_voter, _pollID));\n      require(keccak256(abi.encodePacked(_voteOption, _salt)) == getCommitHash(_voter, _pollID)); // compare resultant hash from inputs to original commitHash\n\n      uint numTokens = getNumTokens(_voter, _pollID);\n\n      if (_voteOption == 1) // apply numTokens to appropriate poll choice\n          pollMap[_pollID].votesFor += numTokens;\n      else\n          pollMap[_pollID].votesAgainst += numTokens;\n\n      dllMap[_voter].remove(_pollID); // remove the node referring to this vote upon reveal\n\n      emit VoteRevealed(_voter, _pollID, numTokens, _voteOption);\n    }\n\n    /**\n    @param _pollID Integer identifier associated with target poll\n    @param _salt Arbitrarily chosen integer used to generate secretHash\n    @return correctVotes Number of tokens voted for winning option\n    */\n    function getNumPassingTokens(\n      address _voter,\n      uint _pollID,\n      uint _salt\n    ) public constant returns (uint correctVotes) {\n        require(pollEnded(_pollID));\n        require(hasBeenRevealed(_voter, _pollID));\n        uint winningChoice = isPassed(_pollID) ? 1 : 0;\n        bytes32 winnerHash = keccak256(abi.encodePacked(winningChoice, _salt));\n        bytes32 commitHash = getCommitHash(_voter, _pollID);\n\n        return (winnerHash == commitHash) ? getNumTokens(_voter, _pollID) : 0;\n    }\n\n    // ==================\n    // POLLING INTERFACE:\n    // ==================\n\n    /**\n    @dev Initiates a poll with canonical configured parameters at pollID emitted by PollCreated event\n    @param _voteQuorum Type of majority (out of 100) that is necessary for poll to be successful\n    @param _commitDuration Length of desired commit period in seconds\n    @param _revealDuration Length of desired reveal period in seconds\n    */\n    function startPoll(\n      uint _voteQuorum,\n      uint _commitDuration,\n      uint _revealDuration\n    ) public returns (uint pollID) {\n        require(msg.sender == projectRegistry);\n        pollNonce = pollNonce.add(1);\n        pollMap[pollNonce] = Poll({\n            voteQuorum: _voteQuorum,\n            commitEndDate: block.timestamp.add(_commitDuration),\n            revealEndDate: (block.timestamp.add(_commitDuration)).add(_revealDuration),\n            votesFor: 0,\n            votesAgainst: 0\n        });\n        emit PollCreated(_voteQuorum, _commitDuration, _revealDuration, pollNonce);\n        return pollNonce;\n    }\n\n    /**\n    @notice Determines if proposal has passed\n    @dev Check if votesFor out of totalVotes exceeds votesQuorum (requires pollEnded)\n    @param _pollID Integer identifier associated with target poll\n    */\n    function isPassed(uint _pollID) onlyPR() constant public returns (bool passed) {\n        require(pollEnded(_pollID));\n        Poll memory poll = pollMap[_pollID];\n        return (100 * poll.votesFor) > (poll.voteQuorum * (poll.votesFor + poll.votesAgainst));\n    }\n\n    // ----------------\n    // POLLING HELPERS:\n    // ----------------\n\n    /**\n    @dev Gets the total winning votes for reward distribution purposes\n    @param _pollID Integer identifier associated with target poll\n    @return Total number of votes committed to the winning option for specified poll\n    */\n    function getTotalNumberOfTokensForWinningOption(uint _pollID) constant public returns (uint numTokens) {\n        require(pollEnded(_pollID));\n\n        if (isPassed(_pollID))\n            return pollMap[_pollID].votesFor;\n        else\n            return pollMap[_pollID].votesAgainst;\n    }\n\n    /**\n    @notice Determines if poll is over\n    @dev Checks isExpired for specified poll's revealEndDate\n    @return Boolean indication of whether polling period is over\n    */\n    function pollEnded(uint _pollID) constant public returns (bool ended) {\n        require(pollExists(_pollID));\n\n        return isExpired(pollMap[_pollID].revealEndDate);\n    }\n\n    /**\n    @notice Checks if the commit period is still active for the specified poll\n    @dev Checks isExpired for the specified poll's commitEndDate\n    @param _pollID Integer identifier associated with target poll\n    @return Boolean indication of isCommitPeriodActive for target poll\n    */\n    function commitPeriodActive(uint _pollID) constant public returns (bool active) {\n        require(pollExists(_pollID));\n\n        return !isExpired(pollMap[_pollID].commitEndDate);\n    }\n\n    /**\n    @notice Checks if the reveal period is still active for the specified poll\n    @dev Checks isExpired for the specified poll's revealEndDate\n    @param _pollID Integer identifier associated with target poll\n    */\n    function revealPeriodActive(uint _pollID) constant public returns (bool active) {\n        require(pollExists(_pollID));\n\n        return !isExpired(pollMap[_pollID].revealEndDate) && !commitPeriodActive(_pollID);\n    }\n\n    /**\n    @dev Checks if user has already revealed for specified poll\n    @param _voter Address of user to check against\n    @param _pollID Integer identifier associated with target poll\n    @return Boolean indication of whether user has already revealed\n    */\n    function hasBeenRevealed(address _voter, uint _pollID) constant public returns (bool revealed) {\n        require(pollExists(_pollID));\n\n        uint prevID = dllMap[_voter].getPrev(_pollID);\n        uint nextID = dllMap[_voter].getNext(_pollID);\n\n        return (prevID == _pollID) && (nextID == _pollID);\n    }\n\n    /**\n    @dev Checks if a poll exists, throws if the provided poll is in an impossible state\n    @param _pollID The pollID whose existance is to be evaluated.\n    @return Boolean Indicates whether a poll exists for the provided pollID\n    */\n    function pollExists(uint _pollID) constant public returns (bool exists) {\n        uint commitEndDate = pollMap[_pollID].commitEndDate;\n        uint revealEndDate = pollMap[_pollID].revealEndDate;\n\n        assert(!(commitEndDate == 0 && revealEndDate != 0));\n        assert(!(commitEndDate != 0 && revealEndDate == 0));\n\n        if(commitEndDate == 0 || revealEndDate == 0) { return false; }\n        return true;\n    }\n\n    // ---------------------------\n    // DOUBLE-LINKED-LIST HELPERS:\n    // ---------------------------\n\n    /**\n    @dev Gets the bytes32 commitHash property of target poll\n    @param _voter Address of user to check against\n    @param _pollID Integer identifier associated with target poll\n    @return Bytes32 hash property attached to target poll\n    */\n    function getCommitHash(address _voter, uint _pollID) constant public returns (bytes32 commitHash) {\n        return bytes32(store.getAttribute(attrUUID(_voter, _pollID), \"commitHash\"));\n    }\n\n    /**\n    @dev Wrapper for getAttribute with attrName=\"numTokens\"\n    @param _voter Address of user to check against\n    @param _pollID Integer identifier associated with target poll\n    @return Number of tokens committed to poll in sorted poll-linked-list\n    */\n    function getNumTokens(address _voter, uint _pollID) constant public returns (uint numTokens) {\n        return store.getAttribute(attrUUID(_voter, _pollID), \"numTokens\");\n    }\n\n    /**\n    @dev Gets top element of sorted poll-linked-list\n    @param _voter Address of user to check against\n    @return Integer identifier to poll with maximum number of tokens committed to it\n    */\n    function getLastNode(address _voter) constant public returns (uint pollID) {\n        return dllMap[_voter].getPrev(0);\n    }\n\n    /**\n    @dev Gets the numTokens property of getLastNode\n    @param _voter Address of user to check against\n    @return Maximum number of tokens committed in poll specified\n    */\n    function getLockedTokens(address _voter) constant public returns (uint numTokens) {\n        return getNumTokens(_voter, getLastNode(_voter));\n    }\n\n    /**\n    @dev Gets the prevNode a new node should be inserted after given the sort factor\n    @param _voter The voter whose DLL will be searched\n    @param _numTokens The value for the numTokens attribute in the node to be inserted\n    @return the node which the propoded node should be inserted after\n    */\n    function getInsertPointForNumTokens(\n        address _voter,\n        uint _numTokens\n    ) constant public returns (uint prevNode) {\n        uint nodeID = getLastNode(_voter);\n        uint tokensInNode = getNumTokens(_voter, nodeID);\n\n        while(tokensInNode != 0) {\n            tokensInNode = getNumTokens(_voter, nodeID);\n            if(tokensInNode < _numTokens) { return nodeID; }\n            nodeID = dllMap[_voter].getPrev(nodeID);\n        }\n        return nodeID;\n    }\n\n    // ----------------\n    // GENERAL HELPERS:\n    // ----------------\n\n    /**\n    @dev Checks if an expiration date has been reached\n    @param _terminationDate Integer timestamp of date to compare current timestamp with\n    @return expired Boolean indication of whether the terminationDate has passed\n    */\n    function isExpired(uint _terminationDate) constant public returns (bool expired) {\n        return (block.timestamp > _terminationDate);\n    }\n\n    /**\n    @dev Generates an identifier which associates a user and a poll together\n    @param _pollID Integer identifier associated with target poll\n    @return UUID Hash which is deterministic from _user and _pollID\n    */\n    function attrUUID(address _user, uint _pollID) public pure returns (bytes32 UUID) {\n        return keccak256(abi.encodePacked(_user, _pollID));\n    }\n}\n",
  "sourcePath": "/Users/jessicamarshall/distribute-app/contracts/contracts/library/PLCRVoting.sol",
  "compiler": {
    "name": "solc",
    "version": "0.4.24+commit.e67f0147.Emscripten.clang"
  },
  "schemaVersion": "2.0.1",
  "updatedAt": "2018-11-28T19:10:35.325Z"
}