{
  "contractName": "ProjectRegistry",
  "abi": [
    {
      "constant": true,
      "inputs": [
        {
          "name": "",
          "type": "uint256"
        }
      ],
      "name": "projectsList",
      "outputs": [
        {
          "name": "",
          "type": "address"
        }
      ],
      "payable": false,
      "stateMutability": "view",
      "type": "function",
      "signature": "0x38a63d7a"
    },
    {
      "constant": false,
      "inputs": [],
      "name": "renounceOwnership",
      "outputs": [],
      "payable": false,
      "stateMutability": "nonpayable",
      "type": "function",
      "signature": "0x715018a6"
    },
    {
      "constant": true,
      "inputs": [
        {
          "name": "",
          "type": "address"
        }
      ],
      "name": "projects",
      "outputs": [
        {
          "name": "",
          "type": "bool"
        }
      ],
      "payable": false,
      "stateMutability": "view",
      "type": "function",
      "signature": "0x840e78fd"
    },
    {
      "constant": true,
      "inputs": [
        {
          "name": "",
          "type": "uint256"
        }
      ],
      "name": "validationRewardWeightings",
      "outputs": [
        {
          "name": "",
          "type": "uint256"
        }
      ],
      "payable": false,
      "stateMutability": "view",
      "type": "function",
      "signature": "0x873299b4"
    },
    {
      "constant": true,
      "inputs": [],
      "name": "owner",
      "outputs": [
        {
          "name": "",
          "type": "address"
        }
      ],
      "payable": false,
      "stateMutability": "view",
      "type": "function",
      "signature": "0x8da5cb5b"
    },
    {
      "constant": true,
      "inputs": [
        {
          "name": "",
          "type": "address"
        }
      ],
      "name": "stakedProjects",
      "outputs": [
        {
          "name": "topTaskHash",
          "type": "bytes32"
        }
      ],
      "payable": false,
      "stateMutability": "view",
      "type": "function",
      "signature": "0xef12f3f8"
    },
    {
      "constant": false,
      "inputs": [
        {
          "name": "_newOwner",
          "type": "address"
        }
      ],
      "name": "transferOwnership",
      "outputs": [],
      "payable": false,
      "stateMutability": "nonpayable",
      "type": "function",
      "signature": "0xf2fde38b"
    },
    {
      "anonymous": false,
      "inputs": [
        {
          "indexed": true,
          "name": "projectAddress",
          "type": "address"
        },
        {
          "indexed": false,
          "name": "proposerCost",
          "type": "uint256"
        }
      ],
      "name": "LogProjectCreated",
      "type": "event",
      "signature": "0x6b61832f73724e06f070cedd6e55103b55f27ab70744e391ed721c5092a80837"
    },
    {
      "anonymous": false,
      "inputs": [
        {
          "indexed": false,
          "name": "projectAddress",
          "type": "address"
        },
        {
          "indexed": false,
          "name": "staked",
          "type": "bool"
        }
      ],
      "name": "LogProjectFullyStaked",
      "type": "event",
      "signature": "0x03b2a7169c93359adc7bcdba20f946c933f072fe39862d09ce4706c45dcf3f41"
    },
    {
      "anonymous": false,
      "inputs": [
        {
          "indexed": false,
          "name": "projectAddress",
          "type": "address"
        },
        {
          "indexed": false,
          "name": "taskHash",
          "type": "bytes32"
        },
        {
          "indexed": false,
          "name": "submitter",
          "type": "address"
        },
        {
          "indexed": false,
          "name": "weighting",
          "type": "uint256"
        }
      ],
      "name": "LogTaskHashSubmitted",
      "type": "event",
      "signature": "0x712ba985aadc7e1ad004710632e7c8567d64eb8729e251f0e8aba9a8ef5fe629"
    },
    {
      "anonymous": false,
      "inputs": [
        {
          "indexed": false,
          "name": "projectAddress",
          "type": "address"
        },
        {
          "indexed": false,
          "name": "topTaskHash",
          "type": "bytes32"
        },
        {
          "indexed": false,
          "name": "active",
          "type": "bool"
        }
      ],
      "name": "LogProjectActive",
      "type": "event",
      "signature": "0xfdb6091d8f7d352113b2378dc581309cbfd268312b3e25458d4c0421fc0c22c9"
    },
    {
      "anonymous": false,
      "inputs": [
        {
          "indexed": false,
          "name": "taskAddress",
          "type": "address"
        },
        {
          "indexed": false,
          "name": "projectAddress",
          "type": "address"
        },
        {
          "indexed": false,
          "name": "finalTaskHash",
          "type": "bytes32"
        },
        {
          "indexed": false,
          "name": "index",
          "type": "uint256"
        }
      ],
      "name": "LogFinalTaskCreated",
      "type": "event",
      "signature": "0x86643aebbf3239007ea12bcc9e3c180d63677565a4f20660a0cc594eae9b5eae"
    },
    {
      "anonymous": false,
      "inputs": [
        {
          "indexed": false,
          "name": "projectAddress",
          "type": "address"
        },
        {
          "indexed": false,
          "name": "index",
          "type": "uint256"
        },
        {
          "indexed": false,
          "name": "reputationVal",
          "type": "uint256"
        },
        {
          "indexed": false,
          "name": "claimer",
          "type": "address"
        }
      ],
      "name": "LogTaskClaimed",
      "type": "event",
      "signature": "0xb6cd4ebe37ffd3a9a83f46c752d50ebbe3582bb9eb119a901ab9bdcdcb0167ae"
    },
    {
      "anonymous": false,
      "inputs": [
        {
          "indexed": false,
          "name": "projectAddress",
          "type": "address"
        },
        {
          "indexed": false,
          "name": "index",
          "type": "uint256"
        },
        {
          "indexed": false,
          "name": "validationFee",
          "type": "uint256"
        }
      ],
      "name": "LogSubmitTaskComplete",
      "type": "event",
      "signature": "0x588e0a15e65b36b54949b7a818337b1a6b9f1fc22a215fa4c67036196c1e44c8"
    },
    {
      "anonymous": false,
      "inputs": [
        {
          "indexed": false,
          "name": "projectAddress",
          "type": "address"
        },
        {
          "indexed": false,
          "name": "validate",
          "type": "bool"
        }
      ],
      "name": "LogProjectValidate",
      "type": "event",
      "signature": "0x18e45157321a6ae0b1eb5c8b4616e488a21fdf73dd887c197e8052168739aa1e"
    },
    {
      "anonymous": false,
      "inputs": [
        {
          "indexed": false,
          "name": "projectAddress",
          "type": "address"
        },
        {
          "indexed": false,
          "name": "vote",
          "type": "bool"
        }
      ],
      "name": "LogProjectVoting",
      "type": "event",
      "signature": "0x37bd5a62e640f819aac850a373cda33112e317349df9078ad691c1ddc4d3e3d6"
    },
    {
      "anonymous": false,
      "inputs": [
        {
          "indexed": false,
          "name": "projectAddress",
          "type": "address"
        },
        {
          "indexed": false,
          "name": "end",
          "type": "uint256"
        }
      ],
      "name": "LogProjectEnd",
      "type": "event",
      "signature": "0x583c564adc05446725f3783bd9e1cb2dbdc2ff335608c5c0b32ae4edb33564db"
    },
    {
      "anonymous": false,
      "inputs": [
        {
          "indexed": false,
          "name": "projectAddress",
          "type": "address"
        },
        {
          "indexed": false,
          "name": "originator",
          "type": "address"
        },
        {
          "indexed": false,
          "name": "reward",
          "type": "uint256"
        }
      ],
      "name": "LogRewardOriginator",
      "type": "event",
      "signature": "0x1e57a8c75c06eaa931a65d028137c3d9743bee74f11998843853a8754619ed15"
    },
    {
      "anonymous": false,
      "inputs": [
        {
          "indexed": false,
          "name": "projectAddress",
          "type": "address"
        },
        {
          "indexed": false,
          "name": "contractCaller",
          "type": "uint256"
        },
        {
          "indexed": false,
          "name": "proposer",
          "type": "address"
        },
        {
          "indexed": false,
          "name": "proposedCost",
          "type": "uint256"
        },
        {
          "indexed": false,
          "name": "proposedStake",
          "type": "uint256"
        }
      ],
      "name": "LogRefundProposer",
      "type": "event",
      "signature": "0xc5cc5183e8103bb14e37de404da57bdfeb4a953307ac7ac167c7aa56d65677cd"
    },
    {
      "anonymous": false,
      "inputs": [
        {
          "indexed": true,
          "name": "previousOwner",
          "type": "address"
        }
      ],
      "name": "OwnershipRenounced",
      "type": "event",
      "signature": "0xf8df31144d9c2f0f6b59d69b8b98abd5459d07f2742c4df920b25aae33c64820"
    },
    {
      "anonymous": false,
      "inputs": [
        {
          "indexed": true,
          "name": "previousOwner",
          "type": "address"
        },
        {
          "indexed": true,
          "name": "newOwner",
          "type": "address"
        }
      ],
      "name": "OwnershipTransferred",
      "type": "event",
      "signature": "0x8be0079c531659141344cd1fd0a4f28419497f9722a3daafe3b4186f6b6457e0"
    },
    {
      "constant": false,
      "inputs": [
        {
          "name": "_distributeToken",
          "type": "address"
        },
        {
          "name": "_tokenRegistry",
          "type": "address"
        },
        {
          "name": "_reputationRegistry",
          "type": "address"
        },
        {
          "name": "_plcrVoting",
          "type": "address"
        },
        {
          "name": "_projectAddress",
          "type": "address"
        },
        {
          "name": "_taskAddress",
          "type": "address"
        }
      ],
      "name": "init",
      "outputs": [],
      "payable": false,
      "stateMutability": "nonpayable",
      "type": "function",
      "signature": "0x99e133f9"
    },
    {
      "constant": false,
      "inputs": [],
      "name": "freezeContract",
      "outputs": [],
      "payable": false,
      "stateMutability": "nonpayable",
      "type": "function",
      "signature": "0xa584a9b5"
    },
    {
      "constant": false,
      "inputs": [],
      "name": "unfreezeContract",
      "outputs": [],
      "payable": false,
      "stateMutability": "nonpayable",
      "type": "function",
      "signature": "0xf4917dd3"
    },
    {
      "constant": false,
      "inputs": [
        {
          "name": "_newPlcrVoting",
          "type": "address"
        }
      ],
      "name": "updatePLCRVoting",
      "outputs": [],
      "payable": false,
      "stateMutability": "nonpayable",
      "type": "function",
      "signature": "0x52a220b7"
    },
    {
      "constant": false,
      "inputs": [
        {
          "name": "_newDistributeToken",
          "type": "address"
        }
      ],
      "name": "updateDistributeToken",
      "outputs": [],
      "payable": false,
      "stateMutability": "nonpayable",
      "type": "function",
      "signature": "0x04b53415"
    },
    {
      "constant": false,
      "inputs": [
        {
          "name": "_newProjectContract",
          "type": "address"
        }
      ],
      "name": "updateProjectContract",
      "outputs": [],
      "payable": false,
      "stateMutability": "nonpayable",
      "type": "function",
      "signature": "0xdfd57179"
    },
    {
      "constant": false,
      "inputs": [
        {
          "name": "_newTaskContract",
          "type": "address"
        }
      ],
      "name": "updateTaskContract",
      "outputs": [],
      "payable": false,
      "stateMutability": "nonpayable",
      "type": "function",
      "signature": "0xb6de356d"
    },
    {
      "constant": false,
      "inputs": [
        {
          "name": "_newTokenRegistry",
          "type": "address"
        }
      ],
      "name": "updateTokenRegistry",
      "outputs": [],
      "payable": false,
      "stateMutability": "nonpayable",
      "type": "function",
      "signature": "0x1fa915a4"
    },
    {
      "constant": false,
      "inputs": [
        {
          "name": "_newReputationRegistry",
          "type": "address"
        }
      ],
      "name": "updateReputationRegistry",
      "outputs": [],
      "payable": false,
      "stateMutability": "nonpayable",
      "type": "function",
      "signature": "0xe0a267e0"
    },
    {
      "constant": false,
      "inputs": [
        {
          "name": "_projectAddress",
          "type": "address"
        }
      ],
      "name": "checkStaked",
      "outputs": [
        {
          "name": "",
          "type": "bool"
        }
      ],
      "payable": false,
      "stateMutability": "nonpayable",
      "type": "function",
      "signature": "0x247f8e14"
    },
    {
      "constant": false,
      "inputs": [
        {
          "name": "_projectAddress",
          "type": "address"
        }
      ],
      "name": "checkActive",
      "outputs": [
        {
          "name": "",
          "type": "bool"
        }
      ],
      "payable": false,
      "stateMutability": "nonpayable",
      "type": "function",
      "signature": "0xed7dd44e"
    },
    {
      "constant": false,
      "inputs": [
        {
          "name": "_projectAddress",
          "type": "address"
        }
      ],
      "name": "checkValidate",
      "outputs": [],
      "payable": false,
      "stateMutability": "nonpayable",
      "type": "function",
      "signature": "0x2a5ec890"
    },
    {
      "constant": false,
      "inputs": [
        {
          "name": "_projectAddress",
          "type": "address"
        }
      ],
      "name": "checkVoting",
      "outputs": [],
      "payable": false,
      "stateMutability": "nonpayable",
      "type": "function",
      "signature": "0x00211353"
    },
    {
      "constant": false,
      "inputs": [
        {
          "name": "_projectAddress",
          "type": "address"
        }
      ],
      "name": "checkEnd",
      "outputs": [],
      "payable": false,
      "stateMutability": "nonpayable",
      "type": "function",
      "signature": "0x24875148"
    },
    {
      "constant": false,
      "inputs": [
        {
          "name": "_cost",
          "type": "uint256"
        },
        {
          "name": "_costProportion",
          "type": "uint256"
        },
        {
          "name": "_stakingPeriod",
          "type": "uint256"
        },
        {
          "name": "_proposer",
          "type": "address"
        },
        {
          "name": "_proposerType",
          "type": "uint256"
        },
        {
          "name": "_proposerStake",
          "type": "uint256"
        },
        {
          "name": "_ipfsHash",
          "type": "bytes"
        }
      ],
      "name": "createProject",
      "outputs": [
        {
          "name": "",
          "type": "address"
        }
      ],
      "payable": false,
      "stateMutability": "nonpayable",
      "type": "function",
      "signature": "0x8b4dfc2f"
    },
    {
      "constant": false,
      "inputs": [
        {
          "name": "_projectAddress",
          "type": "address"
        },
        {
          "name": "proposer",
          "type": "address"
        }
      ],
      "name": "refundProposer",
      "outputs": [
        {
          "name": "",
          "type": "uint256[2]"
        }
      ],
      "payable": false,
      "stateMutability": "nonpayable",
      "type": "function",
      "signature": "0xaab1d6df"
    },
    {
      "constant": false,
      "inputs": [
        {
          "name": "_projectAddress",
          "type": "address"
        },
        {
          "name": "_taskHash",
          "type": "bytes32"
        }
      ],
      "name": "addTaskHash",
      "outputs": [],
      "payable": false,
      "stateMutability": "nonpayable",
      "type": "function",
      "signature": "0x9dff79ea"
    },
    {
      "constant": false,
      "inputs": [
        {
          "name": "_projectAddress",
          "type": "address"
        },
        {
          "name": "_claimer",
          "type": "address"
        }
      ],
      "name": "rewardOriginator",
      "outputs": [],
      "payable": false,
      "stateMutability": "nonpayable",
      "type": "function",
      "signature": "0x0e728a76"
    },
    {
      "constant": false,
      "inputs": [
        {
          "name": "_projectAddress",
          "type": "address"
        },
        {
          "name": "_hashes",
          "type": "bytes32[]"
        }
      ],
      "name": "submitHashList",
      "outputs": [],
      "payable": false,
      "stateMutability": "nonpayable",
      "type": "function",
      "signature": "0x47c34c0b"
    },
    {
      "constant": false,
      "inputs": [
        {
          "name": "_projectAddress",
          "type": "address"
        },
        {
          "name": "_index",
          "type": "uint256"
        },
        {
          "name": "_taskDescription",
          "type": "bytes32"
        },
        {
          "name": "_claimer",
          "type": "address"
        },
        {
          "name": "_weighting",
          "type": "uint256"
        },
        {
          "name": "_weiVal",
          "type": "uint256"
        },
        {
          "name": "_reputationVal",
          "type": "uint256"
        }
      ],
      "name": "claimTask",
      "outputs": [],
      "payable": false,
      "stateMutability": "nonpayable",
      "type": "function",
      "signature": "0x3330dcd8"
    },
    {
      "constant": false,
      "inputs": [
        {
          "name": "_projectAddress",
          "type": "address"
        },
        {
          "name": "_index",
          "type": "uint256"
        }
      ],
      "name": "submitTaskComplete",
      "outputs": [],
      "payable": false,
      "stateMutability": "nonpayable",
      "type": "function",
      "signature": "0xc00296a7"
    }
  ],
  "bytecode": "0x600060075561012060405260246080908152601a60a052601460c052601060e0526002610100526200003690600b9060056200004f565b5060008054600160a060020a03191633179055620000b7565b826005810192821562000085579160200282015b8281111562000085578251829060ff1690559160200191906001019062000063565b506200009392915062000097565b5090565b620000b491905b808211156200009357600081556001016200009e565b90565b612a5580620000c76000396000f3fe608060405234801561001057600080fd5b50600436106101c75760003560e060020a900480638b4dfc2f116100fd578063c00296a71161009b578063ed7dd44e11610075578063ed7dd44e146106ac578063ef12f3f8146106d2578063f2fde38b146106f8578063f4917dd31461071e576101c7565b8063c00296a714610634578063dfd5717914610660578063e0a267e014610686576101c7565b80639dff79ea116100d75780639dff79ea14610571578063a584a9b51461059d578063aab1d6df146105a5578063b6de356d1461060e576101c7565b80638b4dfc2f1461047e5780638da5cb5b1461051b57806399e133f914610523576101c7565b80633330dcd81161016a57806352a220b71161014457806352a220b7146103fb578063715018a614610421578063840e78fd14610429578063873299b41461044f576101c7565b80633330dcd8146102f457806338a63d7a1461034257806347c34c0b1461037b576101c7565b80631fa915a4116101a65780631fa915a414610248578063247f8e141461026e57806324875148146102a85780632a5ec890146102ce576101c7565b8062211353146101cc57806304b53415146101f45780630e728a761461021a575b600080fd5b6101f2600480360360208110156101e257600080fd5b5035600160a060020a0316610726565b005b6101f26004803603602081101561020a57600080fd5b5035600160a060020a0316610873565b6101f26004803603604081101561023057600080fd5b50600160a060020a03813581169160200135166108ac565b6101f26004803603602081101561025e57600080fd5b5035600160a060020a031661094e565b6102946004803603602081101561028457600080fd5b5035600160a060020a0316610987565b604080519115158252519081900360200190f35b6101f2600480360360208110156102be57600080fd5b5035600160a060020a0316610aa4565b6101f2600480360360208110156102e457600080fd5b5035600160a060020a0316610bfb565b6101f2600480360360e081101561030a57600080fd5b50600160a060020a03813581169160208101359160408201359160608101359091169060808101359060a08101359060c00135610d3c565b61035f6004803603602081101561035857600080fd5b5035611243565b60408051600160a060020a039092168252519081900360200190f35b6101f26004803603604081101561039157600080fd5b600160a060020a0382351691908101906040810160208201356401000000008111156103bc57600080fd5b8201836020820111156103ce57600080fd5b803590602001918460208302840111640100000000831117156103f057600080fd5b50909250905061125e565b6101f26004803603602081101561041157600080fd5b5035600160a060020a03166115f4565b6101f261162d565b6102946004803603602081101561043f57600080fd5b5035600160a060020a031661168c565b61046c6004803603602081101561046557600080fd5b50356116a1565b60408051918252519081900360200190f35b61035f600480360360e081101561049457600080fd5b813591602081013591604082013591600160a060020a036060820135169160808201359160a08101359181019060e0810160c08201356401000000008111156104dc57600080fd5b8201836020820111156104ee57600080fd5b8035906020019184600183028401116401000000008311171561051057600080fd5b5090925090506116b5565b61035f6117e1565b6101f2600480360360c081101561053957600080fd5b50600160a060020a038135811691602081013582169160408201358116916060810135821691608082013581169160a00135166117f0565b6101f26004803603604081101561058757600080fd5b50600160a060020a0381351690602001356118a1565b6101f2611bb6565b6105d3600480360360408110156105bb57600080fd5b50600160a060020a0381358116916020013516611bdc565b6040518082600260200280838360005b838110156105fb5781810151838201526020016105e3565b5050505090500191505060405180910390f35b6101f26004803603602081101561062457600080fd5b5035600160a060020a0316611f95565b6101f26004803603604081101561064a57600080fd5b50600160a060020a038135169060200135611fce565b6101f26004803603602081101561067657600080fd5b5035600160a060020a03166124ab565b6101f26004803603602081101561069c57600080fd5b5035600160a060020a03166124e4565b610294600480360360208110156106c257600080fd5b5035600160a060020a031661251d565b61046c600480360360208110156106e857600080fd5b5035600160a060020a03166126a0565b6101f26004803603602081101561070e57600080fd5b5035600160a060020a03166126b2565b6101f26126d5565b60105460ff161561073657600080fd5b600160a060020a03811660009081526009602052604090205460ff16151560011461076057600080fd5b60025460048054600154604080517f7c6d052c000000000000000000000000000000000000000000000000000000008152600160a060020a03808816958201959095529484166024860152918316604485015290911660648301525160009173__ProjectLibrary________________________91637c6d052c91608480820192602092909190829003018186803b1580156107fb57600080fd5b505af415801561080f573d6000803e3d6000fd5b505050506040513d602081101561082557600080fd5b505160408051600160a060020a0385168152821515602082015281519293507f37bd5a62e640f819aac850a373cda33112e317349df9078ad691c1ddc4d3e3d6929081900390910190a15050565b600054600160a060020a0316331461088a57600080fd5b60048054600160a060020a031916600160a060020a0392909216919091179055565b600254600160a060020a031633146108c357600080fd5b600160a060020a03821660009081526009602052604090205460ff1615156001146108ed57600080fd5b600160a060020a038083166000908152600a60209081526040808320805484526003810190925290912054909183811691161461092957600080fd5b805460009081526003909101602052604090208054600160a060020a03191690555050565b600054600160a060020a0316331461096557600080fd5b60028054600160a060020a031916600160a060020a0392909216919091179055565b60105460009060ff161561099a57600080fd5b600160a060020a03821660009081526009602052604090205460ff1615156001146109c457600080fd5b600073__ProjectLibrary________________________63247f8e14846040518263ffffffff1660e060020a0281526004018082600160a060020a0316600160a060020a0316815260200191505060206040518083038186803b158015610a2a57600080fd5b505af4158015610a3e573d6000803e3d6000fd5b505050506040513d6020811015610a5457600080fd5b505160408051600160a060020a0386168152821515602082015281519293507f03b2a7169c93359adc7bcdba20f946c933f072fe39862d09ce4706c45dcf3f41929081900390910190a192915050565b60105460ff1615610ab457600080fd5b600160a060020a03811660009081526009602052604090205460ff161515600114610ade57600080fd5b60025460048054600154600354604080517fdc4bc5f6000000000000000000000000000000000000000000000000000000008152600160a060020a038089169682019690965295851660248701529284166044860152908316606485015290911660848301525160009173__ProjectLibrary________________________9163dc4bc5f69160a480820192602092909190829003018186803b158015610b8457600080fd5b505af4158015610b98573d6000803e3d6000fd5b505050506040513d6020811015610bae57600080fd5b505160408051600160a060020a03851681526020810183905281519293507f583c564adc05446725f3783bd9e1cb2dbdc2ff335608c5c0b32ae4edb33564db929081900390910190a15050565b60105460ff1615610c0b57600080fd5b600160a060020a03811660009081526009602052604090205460ff161515600114610c3557600080fd5b60025460048054604080517faf8e4c76000000000000000000000000000000000000000000000000000000008152600160a060020a03808716948201949094529383166024850152911660448301525160009173__ProjectLibrary________________________9163af8e4c7691606480820192602092909190829003018186803b158015610cc457600080fd5b505af4158015610cd8573d6000803e3d6000fd5b505050506040513d6020811015610cee57600080fd5b505160408051600160a060020a0385168152821515602082015281519293507f18e45157321a6ae0b1eb5c8b4616e488a21fdf73dd887c197e8052168739aa1e929081900390910190a15050565b600354600160a060020a03163314610d5357600080fd5b60105460ff1615610d6357600080fd5b600087905080600160a060020a031663c19d93fb6040518163ffffffff1660e060020a02815260040160206040518083038186803b158015610da457600080fd5b505afa158015610db8573d6000803e3d6000fd5b505050506040513d6020811015610dce57600080fd5b5051600314610ddc57600080fd5b600081600160a060020a0316638d977672896040518263ffffffff1660e060020a0281526004018082815260200191505060206040518083038186803b158015610e2557600080fd5b505afa158015610e39573d6000803e3d6000fd5b505050506040513d6020811015610e4f57600080fd5b5051604080517fb3e9fd2c0000000000000000000000000000000000000000000000000000000081529051919250600160a060020a0383169163b3e9fd2c91600480820192602092909190829003018186803b158015610eae57600080fd5b505afa158015610ec2573d6000803e3d6000fd5b505050506040513d6020811015610ed857600080fd5b50516040805160208181018b90528183018990528251808303840181526060909201909252805191012014610f0c57600080fd5b6000600160a060020a031681600160a060020a031663d379be236040518163ffffffff1660e060020a02815260040160206040518083038186803b158015610f5357600080fd5b505afa158015610f67573d6000803e3d6000fd5b505050506040513d6020811015610f7d57600080fd5b5051600160a060020a031614806110f0575081600160a060020a0316635a6fb81f6040518163ffffffff1660e060020a02815260040160206040518083038186803b158015610fcb57600080fd5b505afa158015610fdf573d6000803e3d6000fd5b505050506040513d6020811015610ff557600080fd5b5051604080517f27b3bf110000000000000000000000000000000000000000000000000000000081529051600160a060020a038416916327b3bf11916004808301926020929190829003018186803b15801561105057600080fd5b505afa158015611064573d6000803e3d6000fd5b505050506040513d602081101561107a57600080fd5b505101421180156110f0575080600160a060020a031663522e11776040518163ffffffff1660e060020a02815260040160206040518083038186803b1580156110c257600080fd5b505afa1580156110d6573d6000803e3d6000fd5b505050506040513d60208110156110ec57600080fd5b5051155b15156110fb57600080fd5b80600160a060020a0316630a139925866040518263ffffffff1660e060020a02815260040180828152602001915050600060405180830381600087803b15801561114457600080fd5b505af1158015611158573d6000803e3d6000fd5b5050604080517f73cc18da0000000000000000000000000000000000000000000000000000000081526004810188905260248101879052600160a060020a038a81166044830152915191851693506373cc18da925060648082019260009290919082900301818387803b1580156111ce57600080fd5b505af11580156111e2573d6000803e3d6000fd5b505060408051600160a060020a03808e168252602082018d90528183018890528a16606082015290517fb6cd4ebe37ffd3a9a83f46c752d50ebbe3582bb9eb119a901ab9bdcdcb0167ae9350908190036080019150a1505050505050505050565b600860205260009081526040902054600160a060020a031681565b60105460ff161561126e57600080fd5b600160a060020a03831660009081526009602052604090205460ff16151560011461129857600080fd5b600083905080600160a060020a031663c19d93fb6040518163ffffffff1660e060020a02815260040160206040518083038186803b1580156112d957600080fd5b505afa1580156112ed573d6000803e3d6000fd5b505050506040513d602081101561130357600080fd5b505160031461131157600080fd5b600a600085600160a060020a0316600160a060020a031681526020019081526020016000206000015483836040516020018083836020028082843780830192505050925050506040516020818303038152906040528051906020012014151561137957600080fd5b80600160a060020a031663378c12da6040518163ffffffff1660e060020a02815260040160206040518083038186803b1580156113b557600080fd5b505afa1580156113c9573d6000803e3d6000fd5b505050506040513d60208110156113df57600080fd5b5051156113eb57600080fd5b604080517f8a77e915000000000000000000000000000000000000000000000000000000008152600481018490529051600160a060020a03831691638a77e91591602480830192600092919082900301818387803b15801561144c57600080fd5b505af1158015611460573d6000803e3d6000fd5b506000925050505b828110156115975760006114a585858481811061148157fe5b6002546003546020909202939093013592600160a060020a039081169250166126f8565b905082600160a060020a03166303f2f92882846040518363ffffffff1660e060020a0281526004018083600160a060020a0316600160a060020a0316815260200182815260200192505050600060405180830381600087803b15801561150a57600080fd5b505af115801561151e573d6000803e3d6000fd5b505050507f86643aebbf3239007ea12bcc9e3c180d63677565a4f20660a0cc594eae9b5eae8187878786818110151561155357fe5b60408051600160a060020a0396871681529490951660208581019190915202919091013582840152506060810185905290519081900360800190a150600101611468565b5080600160a060020a03166326c1bffe6040518163ffffffff1660e060020a028152600401600060405180830381600087803b1580156115d657600080fd5b505af11580156115ea573d6000803e3d6000fd5b5050505050505050565b600054600160a060020a0316331461160b57600080fd5b60018054600160a060020a031916600160a060020a0392909216919091179055565b600054600160a060020a0316331461164457600080fd5b60008054604051600160a060020a03909116917ff8df31144d9c2f0f6b59d69b8b98abd5459d07f2742c4df920b25aae33c6482091a260008054600160a060020a0319169055565b60096020526000908152604090205460ff1681565b600b81600581106116ae57fe5b0154905081565b600254600090600160a060020a03163314806116db5750600354600160a060020a031633145b15156116e657600080fd5b60105460ff16156116f657600080fd5b60006117508a8a8a8a8a8a8a8a8080601f01602080910402602001604051908101604052809392919081815260200183838082843760009201919091525050600354600254600160a060020a03918216935016905061274b565b600160a060020a0381166000818152600960209081526040808320805460ff1916600190811790915560078054855260088452938290208054600160a060020a031916861790558354019092558151898152915193945091927f6b61832f73724e06f070cedd6e55103b55f27ab70744e391ed721c5092a80837929181900390910190a29998505050505050505050565b600054600160a060020a031681565b600254600160a060020a03161580156118125750600354600160a060020a0316155b80156118275750600454600160a060020a0316155b151561183257600080fd5b60048054600160a060020a0319908116600160a060020a0398891617909155600280548216968816969096179095556003805486169487169490941790935560018054851692861692909217909155600580548416918516919091179055600680549092169216919091179055565b60105460ff16156118b157600080fd5b600160a060020a03821660009081526009602052604090205460ff1615156001146118db57600080fd5b816118e58161251d565b5080600160a060020a031663c19d93fb6040518163ffffffff1660e060020a02815260040160206040518083038186803b15801561192257600080fd5b505afa158015611936573d6000803e3d6000fd5b505050506040513d602081101561194c57600080fd5b505160021461195a57600080fd5b60035460028054604080517f8be1c84e0000000000000000000000000000000000000000000000000000000081523360048201529051600160a060020a03948516949092169260009290918491638be1c84e91602480820192602092909190829003018186803b1580156119cd57600080fd5b505afa1580156119e1573d6000803e3d6000fd5b505050506040513d60208110156119f757600080fd5b5051604080517f8be1c84e0000000000000000000000000000000000000000000000000000000081523360048201529051600160a060020a03871691638be1c84e916024808301926020929190829003018186803b158015611a5857600080fd5b505afa158015611a6c573d6000803e3d6000fd5b505050506040513d6020811015611a8257600080fd5b505101811515611a8e57fe5b604080517f43fa21d7000000000000000000000000000000000000000000000000000000008152600160a060020a038a166004820152336024820152905192909104925060009173__ProjectLibrary________________________916343fa21d7916044808301926020929190829003018186803b158015611b1057600080fd5b505af4158015611b24573d6000803e3d6000fd5b505050506040513d6020811015611b3a57600080fd5b5051905060028282010460008111611b5157600080fd5b611b5d88338984612803565b60408051600160a060020a038a1681526020810189905233818301526060810183905290517f712ba985aadc7e1ad004710632e7c8567d64eb8729e251f0e8aba9a8ef5fe6299181900360800190a15050505050505050565b600054600160a060020a03163314611bcd57600080fd5b6010805460ff19166001179055565b611be4612a0e565b600254600160a060020a0316331480611c075750600354600160a060020a031633145b1515611c1257600080fd5b60105460ff1615611c2257600080fd5b600160a060020a03831660009081526009602052604090205460ff161515600114611c4c57600080fd5b6000839050600181600160a060020a031663c19d93fb6040518163ffffffff1660e060020a02815260040160206040518083038186803b158015611c8f57600080fd5b505afa158015611ca3573d6000803e3d6000fd5b505050506040513d6020811015611cb957600080fd5b5051118015611d30575080600160a060020a031663c19d93fb6040518163ffffffff1660e060020a02815260040160206040518083038186803b158015611cff57600080fd5b505afa158015611d13573d6000803e3d6000fd5b505050506040513d6020811015611d2957600080fd5b5051600814155b1515611d3b57600080fd5b600081600160a060020a0316630c3283066040518163ffffffff1660e060020a02815260040160206040518083038186803b158015611d7957600080fd5b505afa158015611d8d573d6000803e3d6000fd5b505050506040513d6020811015611da357600080fd5b505111611daf57600080fd5b600254600090600160a060020a03163314611dcd5750600080611dd2565b506001805b50611ddb612a0e565b82600160a060020a0316635b9c161a6040518163ffffffff1660e060020a02815260040160206040518083038186803b158015611e1757600080fd5b505afa158015611e2b573d6000803e3d6000fd5b505050506040513d6020811015611e4157600080fd5b50518152604080517f0c3283060000000000000000000000000000000000000000000000000000000081529051600160a060020a03851691630c328306916004808301926020929190829003018186803b158015611e9e57600080fd5b505afa158015611eb2573d6000803e3d6000fd5b505050506040513d6020811015611ec857600080fd5b505181600160200201818152505082600160a060020a031663cbd368bc6040518163ffffffff1660e060020a028152600401600060405180830381600087803b158015611f1457600080fd5b505af1158015611f28573d6000803e3d6000fd5b5050825160208085015160408051600160a060020a038d81168252938101899052928b16838201526060830193909352608082015290517fc5cc5183e8103bb14e37de404da57bdfeb4a953307ac7ac167c7aa56d65677cd93509081900360a0019150a195945050505050565b600054600160a060020a03163314611fac57600080fd5b60068054600160a060020a031916600160a060020a0392909216919091179055565b60105460ff1615611fde57600080fd5b6000829050600081600160a060020a0316638d977672846040518263ffffffff1660e060020a0281526004018082815260200191505060206040518083038186803b15801561202c57600080fd5b505afa158015612040573d6000803e3d6000fd5b505050506040513d602081101561205657600080fd5b505160048054604080517fd379be230000000000000000000000000000000000000000000000000000000081529051939450600160a060020a039182169333939286169263d379be2392808201926020929091829003018186803b1580156120bd57600080fd5b505afa1580156120d1573d6000803e3d6000fd5b505050506040513d60208110156120e757600080fd5b5051600160a060020a0316146120fc57600080fd5b81600160a060020a031663522e11776040518163ffffffff1660e060020a02815260040160206040518083038186803b15801561213857600080fd5b505afa15801561214c573d6000803e3d6000fd5b505050506040513d602081101561216257600080fd5b50511561216e57600080fd5b82600160a060020a031663c19d93fb6040518163ffffffff1660e060020a02815260040160206040518083038186803b1580156121aa57600080fd5b505afa1580156121be573d6000803e3d6000fd5b505050506040513d60208110156121d457600080fd5b50516003146121e257600080fd5b600082600160a060020a03166318d35b6483600160a060020a0316639d1b464a6040518163ffffffff1660e060020a02815260040160206040518083038186803b15801561222f57600080fd5b505afa158015612243573d6000803e3d6000fd5b505050506040513d602081101561225957600080fd5b5051604080517f5b9c161a0000000000000000000000000000000000000000000000000000000081529051606491600160a060020a038a1691635b9c161a91600480820192602092909190829003018186803b1580156122b857600080fd5b505afa1580156122cc573d6000803e3d6000fd5b505050506040513d60208110156122e257600080fd5b5051604080517f599b6d230000000000000000000000000000000000000000000000000000000081529051600160a060020a038a169163599b6d23916004808301926020929190829003018186803b15801561233d57600080fd5b505afa158015612351573d6000803e3d6000fd5b505050506040513d602081101561236757600080fd5b50510281151561237357fe5b0481151561237d57fe5b046040518263ffffffff1660e060020a02815260040180828152602001915050602060405180830381600087803b1580156123b757600080fd5b505af11580156123cb573d6000803e3d6000fd5b505050506040513d60208110156123e157600080fd5b5051604080517fc41a32650000000000000000000000000000000000000000000000000000000081529051919250600160a060020a0385169163c41a32659160048082019260009290919082900301818387803b15801561244157600080fd5b505af1158015612455573d6000803e3d6000fd5b505060408051600160a060020a038a1681526020810189905280820185905290517f588e0a15e65b36b54949b7a818337b1a6b9f1fc22a215fa4c67036196c1e44c89350908190036060019150a1505050505050565b600054600160a060020a031633146124c257600080fd5b60058054600160a060020a031916600160a060020a0392909216919091179055565b600054600160a060020a031633146124fb57600080fd5b60038054600160a060020a031916600160a060020a0392909216919091179055565b60105460009060ff161561253057600080fd5b600160a060020a03821660009081526009602052604090205460ff16151560011461255a57600080fd5b600160a060020a038083166000818152600a602090815260408083208054808552600291820184528285205491546003546004805486517f63878328000000000000000000000000000000000000000000000000000000008152918201999099526024810184905260448101949094529088166064840152871660848301529490951660a4860152519293919273__ProjectLibrary________________________9263638783289260c4808301939192829003018186803b15801561261f57600080fd5b505af4158015612633573d6000803e3d6000fd5b505050506040513d602081101561264957600080fd5b505160408051600160a060020a0387168152602081018590528215158183015290519192507ffdb6091d8f7d352113b2378dc581309cbfd268312b3e25458d4c0421fc0c22c9919081900360600190a19392505050565b600a6020526000908152604090205481565b600054600160a060020a031633146126c957600080fd5b6126d281612900565b50565b600054600160a060020a031633146126ec57600080fd5b6010805460ff19169055565b6040805163ae4d1af660048201526024810185905260448101849052606480820184905281526084810190915260065460009190829061274190600160a060020a031683612970565b9695505050505050565b8251600090602e1461275c57600080fd5b6060604051905063f58a1adb60048201528a60248201528960448201528860648201528760848201528660a48201528560c482015261012060e48201528361010482015282610124820152602e610144820152602085015161016482015260408501516101848201526101728152610192810160405260006127f3600560009054906101000a9004600160a060020a031683612970565b9c9b505050505050505050505050565b600160a060020a038085166000908152600a602090815260408083209387168352600184019091529020541561286457600160a060020a03841660009081526001820160209081526040808320548352600284019091529020805483900390555b60008381526002820160209081526040808320805486019055600160a060020a03808816845260018501835281842087905586845260038501909252909120541615156128d557600083815260038201602052604090208054600160a060020a031916600160a060020a0386161790555b805460009081526002820160205260408082205485835291205411156128f9578281555b5050505050565b600160a060020a038116151561291557600080fd5b60008054604051600160a060020a03808516939216917f8be0079c531659141344cd1fd0a4f28419497f9722a3daafe3b4186f6b6457e091a360008054600160a060020a031916600160a060020a0392909216919091179055565b600061297c8383612983565b9392505050565b600060405183601482015276603160008181600b9039f360008080808036809280377381527f5af43d828181803e808314602f57f35bfd0000000000000000000000000000006034820152603c600982016000f09150813b15156129e657600080fd5b82518015612a065760008082602087016000875af11515612a0657600080fd5b505092915050565b6040805180820182529060029082908038833950919291505056fea165627a7a72305820dba09631e615c6b595a32c1057c58dd97103b4175ec57675494636f7d827a3550029",
  "source": "pragma solidity ^0.5.0;\n\nimport \"./library/PLCRVoting.sol\";\nimport \"./ReputationRegistry.sol\";\nimport \"./DistributeToken.sol\";\nimport \"./ProjectLibrary.sol\";\nimport \"./Task.sol\";\nimport \"bytes/BytesLib.sol\";\nimport \"./library/SafeMath.sol\";\nimport \"./library/Ownable.sol\";\n\n/**\n@title Project Registry for Distribute Network\n@author Team: Jessica Marshall, Ashoka Finley\n@notice This project uses the Project Library to manage the state of Distribute Network projects.\n@dev This contract must be initialized with the address of a valid Token Registry, Reputation Registry\nand Distribute Token\n*/\ncontract ProjectRegistry is Ownable {\n\n    using ProjectLibrary for address;\n    using BytesLib for bytes;\n    using SafeMath for uint256;\n\n    // =====================================================================\n    // EVENTS\n    // =====================================================================\n\n    event LogProjectCreated(address indexed projectAddress, uint256 proposerCost);\n    event LogProjectFullyStaked(address projectAddress, bool staked);\n    event LogTaskHashSubmitted(address projectAddress, bytes32 taskHash, address submitter, uint weighting);\n    event LogProjectActive(address projectAddress, bytes32 topTaskHash, bool active);\n    event LogFinalTaskCreated(address taskAddress, address projectAddress, bytes32 finalTaskHash, uint256 index);\n    event LogTaskClaimed(address projectAddress, uint256 index, uint256 reputationVal, address claimer);\n    event LogSubmitTaskComplete(address projectAddress, uint256 index, uint256 validationFee);\n    event LogProjectValidate(address projectAddress, bool validate);\n    event LogProjectVoting(address projectAddress, bool vote);\n    event LogProjectEnd(address projectAddress, uint end);\n    event LogRewardOriginator(address projectAddress, address originator, uint256 reward);\n    event LogRefundProposer(address projectAddress, uint256 contractCaller, address proposer, uint256 proposedCost, uint256 proposedStake);\n\n    /* event ProxyDeployed(address proxyAddress, address targetAddress); */\n\n    // =====================================================================\n    // STATE VARIABLES\n    // =====================================================================\n\n    PLCRVoting plcrVoting;\n    address payable tokenRegistryAddress;\n    address reputationRegistryAddress;\n    address payable distributeTokenAddress;\n    address projectContractAddress;\n    address taskContractAddress;\n\n    uint256 projectNonce = 0;\n    mapping (uint => address) public projectsList;\n    mapping (address => bool) public projects;\n\n    struct StakedState {\n        bytes32 topTaskHash;\n        mapping(address => bytes32) taskHashSubmissions;\n        mapping(bytes32 => uint256) numSubmissionsByWeight;\n        mapping(bytes32 => address) originator;\n    }\n\n    mapping (address => StakedState) public stakedProjects;\n\n    uint[5] public validationRewardWeightings = [36, 26, 20, 16, 2];\n    // done this way so that 100% of the validation reward can be pulled, regardless of how many validators there are\n\n    bool freeze;\n\n    // =====================================================================\n    // MODIFIERS\n    // =====================================================================\n\n    modifier onlyTR() {\n        require(msg.sender == tokenRegistryAddress);\n        _;\n    }\n\n    modifier onlyRR() {\n        require(msg.sender == reputationRegistryAddress);\n        _;\n    }\n    modifier onlyTRorRR() {\n        require(msg.sender == tokenRegistryAddress || msg.sender == reputationRegistryAddress);\n        _;\n    }\n\n    // =====================================================================\n    // CONSTRUCTOR\n    // =====================================================================\n\n    /**\n    @notice\n    @dev Quasi constructor is called after thr project is deployed. Requires that all relevant contract\n    address are not yet intialized.\n    @param _distributeToken Address of the distributeToken contract\n    @param _tokenRegistry Address of the token registry contract\n    @param _reputationRegistry Address of the reputation registry contract\n    @param _plcrVoting Address of the plcr voting contract\n    */\n    function init(\n        address payable _distributeToken,\n        address payable _tokenRegistry,\n        address _reputationRegistry,\n        address _plcrVoting,\n        address _projectAddress,\n        address _taskAddress\n    ) public {       //contract is created\n              /* address _proxyFactory */\n        require(\n            tokenRegistryAddress == address(0) &&\n            reputationRegistryAddress == address(0) &&\n            distributeTokenAddress == address(0)\n        );\n        distributeTokenAddress = _distributeToken;\n        tokenRegistryAddress = _tokenRegistry;\n        reputationRegistryAddress = _reputationRegistry;\n        plcrVoting = PLCRVoting(_plcrVoting);\n        projectContractAddress = _projectAddress;\n        taskContractAddress = _taskAddress;\n        /* proxyFactory = ProxyFactory(_proxyFactory); */\n    }\n\n    // =====================================================================\n    // OWNABLE\n    // =====================================================================\n\n    /**\n     * @dev Freezes the distribute token contract and allows existing token holders to withdraw tokens\n     */\n    function freezeContract() external onlyOwner {\n        freeze = true;\n    }\n\n    /**\n     * @dev Unfreezes the distribute token contract and allows existing token holders to withdraw tokens\n     */\n    function unfreezeContract() external onlyOwner {\n        freeze = false;\n    }\n\n    /**\n     * @dev Instantiate a new instance of plcrVoting contract\n     * @param _newPlcrVoting Address of the new plcr contract\n     */\n    function updatePLCRVoting(address _newPlcrVoting) external onlyOwner {\n        plcrVoting = PLCRVoting(_newPlcrVoting);\n    }\n\n    /**\n     * @dev Update the address of the distributeToken\n     * @param _newDistributeToken Address of the new distribute token\n     */\n    function updateDistributeToken(address payable _newDistributeToken) external onlyOwner {\n        distributeTokenAddress = _newDistributeToken;\n    }\n\n    /**\n     * @dev Update the address of the base product proxy contract\n     * @param _newProjectContract Address of the new project contract\n     */\n    function updateProjectContract(address _newProjectContract) external onlyOwner {\n        projectContractAddress = _newProjectContract;\n    }\n\n    /**\n     * @dev Update the address of the base task proxy contract\n     * @param _newTaskContract Address of the new task contract\n     */\n    function updateTaskContract(address _newTaskContract) external onlyOwner {\n        taskContractAddress = _newTaskContract;\n    }\n\n    /**\n     * @dev Update the address of the token registry\n     * @param _newTokenRegistry Address of the new token registry\n     */\n    function updateTokenRegistry(address payable _newTokenRegistry) external onlyOwner {\n        tokenRegistryAddress = _newTokenRegistry;\n    }\n\n    /**\n     * @dev Update the address of the reputation registry\n     * @param _newReputationRegistry Address of the new reputation registry\n     */\n    function updateReputationRegistry(address _newReputationRegistry) external onlyOwner {\n        reputationRegistryAddress = _newReputationRegistry;\n    }\n\n    // =====================================================================\n    // PROXY DEPLOYER\n    // =====================================================================\n\n    function createProxy(address _target, bytes memory _data)\n        internal\n        returns (address proxyContract)\n    {\n        proxyContract = createProxyImpl(_target, _data);\n\n        /* emit ProxyDeployed(proxyContract, _target); */\n    }\n\n    function createProxyImpl(address _target, bytes memory _data)\n        internal\n        returns (address proxyContract)\n    {\n        assembly {\n            let contractCode := mload(0x40) // Find empty storage location using \"free memory pointer\"\n\n            mstore(add(contractCode, 0x14), _target) // Add target address, with a 20 bytes [i.e. 32 - (32 - 20)] offset to later accomodate first part of the bytecode\n            mstore(contractCode, 0x000000000000000000603160008181600b9039f3600080808080368092803773) // First part of the bytecode, padded with 9 bytes of zeros to the left, overwrites left padding of target address\n            mstore(add(contractCode, 0x34), 0x5af43d828181803e808314602f57f35bfd000000000000000000000000000000) // Final part of bytecode, offset by 52 bytes\n\n            proxyContract := create(0, add(contractCode, 0x09), 60) // total length 60 bytes\n            if iszero(extcodesize(proxyContract)) {\n                revert(0, 0)\n            }\n\n            // check if the _data.length > 0 and if it is forward it to the newly created contract\n            let dataLength := mload(_data)\n            if iszero(iszero(dataLength)) {\n                if iszero(call(gas, proxyContract, 0, add(_data, 0x20), dataLength, 0, 0)) {\n                    revert(0, 0)\n                }\n            }\n        }\n    }\n\n    function createProxyProject(\n        uint256 _cost,\n        uint256 _costProportion,\n        uint256 _stakingPeriod,\n        address _proposer,\n        uint256 _proposerType,\n        uint256 _proposerStake,\n        bytes memory _ipfsHash,\n        address _reputationRegistry,\n        address _tokenRegistry\n    ) internal returns (address) {\n        require(_ipfsHash.length == 46);\n        bytes memory dataToSend;\n        assembly {\n            //let ipfsHashSize := mload(_ipfsHash)\n            dataToSend := mload(0x40) // Find empty memory location using \"free memory pointer\"\n            mstore(add(dataToSend, 0x4), 0xf58a1adb)  // this is the function ID\n            mstore(add(dataToSend, 0x24), _cost)\n            mstore(add(dataToSend, 0x44), _costProportion)\n            mstore(add(dataToSend, 0x64), _stakingPeriod)\n            mstore(add(dataToSend, 0x84), _proposer)\n            mstore(add(dataToSend, 0xa4), _proposerType)\n            mstore(add(dataToSend, 0xc4), _proposerStake)\n            mstore(add(dataToSend, 0xe4), 0x120) // <--- _ipfsHash data location part (length + contents)\n            mstore(add(dataToSend, 0x104), _reputationRegistry)\n            mstore(add(dataToSend, 0x124), _tokenRegistry)\n            mstore(add(dataToSend, 0x144), 46) // <--- Length of the IPFS hash size\n            mstore(add(dataToSend, 0x164), mload(add(_ipfsHash, 0x20)))\n            mstore(add(dataToSend, 0x184), mload(add(_ipfsHash, 0x40)))\n            mstore(dataToSend, 0x172) // 4 bytes (function ID) + 32 bytes per parameter * 9 + 32 bytes of \"length of bytes\" + first 32 bytes of bytes data + 14 bytes = 370 bytes [0x172 bytes]\n\n            // updating the free memory pointer with the length of tightly packed\n            mstore(0x40, add(dataToSend, 0x192)) // 0x192 == 0x172 + 0x20\n        }\n        address projectAddress = createProxy(projectContractAddress, dataToSend);\n        return projectAddress;\n    }\n\n    function createProxyTask(\n        bytes32 _hash,\n        address _tokenRegistry,\n        address _reputationRegistry\n    ) internal returns (address) {\n        bytes memory dataToSend;\n        assembly {\n          dataToSend := mload(0x40)\n          mstore(add(dataToSend, 0x4), 0xae4d1af6)\n          mstore(add(dataToSend, 0x24), _hash)\n          mstore(add(dataToSend, 0x44), _tokenRegistry)\n          mstore(add(dataToSend, 0x64), _reputationRegistry)\n          mstore(dataToSend, 0x64)/// 4 + 32 * 3 == 100 bytes\n          mstore(0x40, add(dataToSend, 0x84))\n        }\n        address taskAddress = createProxy(taskContractAddress, dataToSend);\n        return taskAddress;\n    }\n\n    // =====================================================================\n    // STATE CHANGE\n    // =====================================================================\n\n    /**\n    @notice Calls the project library checkStaked function\n    @dev Used to create the correct msg.sender to manage control\n    @param _projectAddress Address of the project\n    @return Boolean representing Staked status\n    */\n    function checkStaked(address payable _projectAddress) external returns (bool) {\n        require(!freeze);\n        require(projects[_projectAddress] == true);\n        bool staked = ProjectLibrary.checkStaked(_projectAddress);\n        emit LogProjectFullyStaked(_projectAddress, staked);\n        return staked;\n    }\n\n    /**\n    @notice Calls the project library checkActive function, passing along the topTaskHash of the\n    project at `_projectAddress`\n    @dev Used to create the correct msg.sender to manage control\n    @param _projectAddress Address of the project\n    @return Boolean representing Active status\n    */\n    function checkActive(address payable _projectAddress) public returns (bool) {\n        require(!freeze);\n        require(projects[_projectAddress] == true);\n        bytes32 topTaskHash = stakedProjects[_projectAddress].topTaskHash;\n        bool active = ProjectLibrary.checkActive(_projectAddress, topTaskHash, stakedProjects[_projectAddress].numSubmissionsByWeight[topTaskHash], tokenRegistryAddress, reputationRegistryAddress, distributeTokenAddress);\n        emit LogProjectActive(_projectAddress, topTaskHash, active);\n        return active;\n    }\n\n    /**\n    @notice Calls the project library checkValidate function\n    @dev Used to create the correct msg.sender to manage control\n    @param _projectAddress Address of the project\n    @return Boolean representing Validate status\n    */\n    function checkValidate(address payable _projectAddress) external {\n        require(!freeze);\n        require(projects[_projectAddress] == true);\n        bool validate = ProjectLibrary.checkValidate(_projectAddress, tokenRegistryAddress, distributeTokenAddress);\n        emit LogProjectValidate(_projectAddress, validate);\n    }\n\n    /**\n    @notice Calls the project library checkVoting function\n    @dev Used to create the correct msg.sender to manage control\n    @param _projectAddress Address of the project\n    @return Boolean representing Voting status\n    */\n    function checkVoting(address payable _projectAddress) external {\n        require(!freeze);\n        require(projects[_projectAddress] == true);\n        bool vote = ProjectLibrary.checkVoting(_projectAddress, tokenRegistryAddress, distributeTokenAddress, address(plcrVoting));\n        emit LogProjectVoting(_projectAddress, vote);\n    }\n\n    /**\n    @notice Calls the project library checkEnd function. Burns tokens and reputation if the project fails\n    @dev Used to create the correct msg.sender to manage control\n    @param _projectAddress Address of the project\n    @return uint representing Final Status\n    */\n    function checkEnd(address payable _projectAddress) external {\n        require(!freeze);\n        require(projects[_projectAddress] == true);\n        uint end = ProjectLibrary.checkEnd(_projectAddress, tokenRegistryAddress, distributeTokenAddress, address(plcrVoting), reputationRegistryAddress);\n        emit LogProjectEnd(_projectAddress, end);\n    }\n\n    // =====================================================================\n    // PROPOSER\n    // =====================================================================\n\n    /**\n    @notice Create a project with a cost of `_cost`, a ratio of `_costProportion`, a staking period\n    length of `_stakingPeriod`, by proposer `_proposer` of type `_proposerType` with stake of\n    `_proposerStake` defined by ipfsHash `_ipfsHash`\n    @dev Only callable by the ReputationRegistry or TokenRegistry, after proposer stake is confirmed.\n    @param _cost The total cost of the project in wei\n    @param _costProportion The proportion of the project cost divided by the DistributeToken weiBal\n    represented as integer\n    @param _stakingPeriod The length of time this project is open for staking\n    @param _proposer The address of the user proposing the project\n    @param _proposerType Denotes if a proposer is using reputation or tokens,\n    value must be 1: tokens or 2: reputation\n    @param _proposerStake The amount of reputation or tokens needed to create the proposal\n    @param _ipfsHash The ipfs hash of the full project description\n    @return Address of the created project\n    */\n    function createProject(\n        uint256 _cost,\n        uint256 _costProportion,\n        uint256 _stakingPeriod,\n        address _proposer,\n        uint256 _proposerType,\n        uint256 _proposerStake,\n        bytes calldata _ipfsHash\n        ) external onlyTRorRR returns (address) {\n        require(!freeze);\n        address projectAddress = createProxyProject(\n            _cost,\n            _costProportion,\n            _stakingPeriod,\n            _proposer,\n            _proposerType,\n            _proposerStake,\n            _ipfsHash,\n            reputationRegistryAddress,\n            tokenRegistryAddress\n        );\n        projects[projectAddress] = true;\n        projectsList[projectNonce] = projectAddress;\n        projectNonce += 1;\n        emit LogProjectCreated(projectAddress, _proposerStake);\n        return projectAddress;\n    }\n\n    /**\n    @notice Refund a proposer if the project at `_projectAddress` is not in state: 1 Proposed or\n    state: 8 Expired.\n    @dev Only called by the TokenRegistry or ReputationRegistry\n    @param _projectAddress Address of the project\n    @return An array with the weiCost of the project and the proposers stake\n    */\n    function refundProposer(address payable _projectAddress, address proposer) external onlyTRorRR returns (uint256[2] memory) {\n        require(!freeze);\n        require(projects[_projectAddress] == true);\n        Project project = Project(_projectAddress);\n        require(project.state() > 1 && project.state() != 8);\n        require(project.proposerStake() > 0);\n        uint256 contractCaller;\n        msg.sender == tokenRegistryAddress\n          ? contractCaller = 1\n          : contractCaller = 0;\n\n        uint256[2] memory returnValues;\n        returnValues[0] = project.proposedCost();\n        returnValues[1] = project.proposerStake();\n        project.clearProposerStake();\n        emit LogRefundProposer(_projectAddress, contractCaller, proposer, returnValues[0], returnValues[1]);\n        return returnValues;\n    }\n\n    // =====================================================================\n    // STAKED\n    // =====================================================================\n\n    /**\n    @notice Submit a hash of a task list `_taskHash` to project at `_projectAddress` by staker\n    `msg.sender`. Makes sure the Project is in the Active State, and calls stakedTaskHash.\n    @dev This library is imported into all the Registries to manage project interactions\n    @param _projectAddress Address of the project\n    @param _taskHash Hash of the task list\n    */\n    function addTaskHash(address payable _projectAddress, bytes32 _taskHash) external  { // format of has should be 'description', 'percentage', check via js that percentages add up to 100 prior to calling contract\n        require(!freeze);\n        require(projects[_projectAddress] == true);\n        Project project = Project(_projectAddress);\n        checkActive(_projectAddress);\n        require(project.state() == 2);\n        ReputationRegistry rr = ReputationRegistry(reputationRegistryAddress);\n        TokenRegistry tr = TokenRegistry(tokenRegistryAddress);\n        uint256 networkWeight = (rr.calculateWeightOfAddress(msg.sender) + tr.calculateWeightOfAddress(msg.sender)) / 2;\n        uint256 stakerWeight = ProjectLibrary.calculateWeightOfAddress(_projectAddress, msg.sender);\n        uint256 totalWeight = (networkWeight + stakerWeight) / 2;\n        require(totalWeight > 0);\n        stakedTaskHash(_projectAddress, msg.sender, _taskHash, totalWeight);\n        emit LogTaskHashSubmitted(_projectAddress, _taskHash, msg.sender, totalWeight);\n    }\n\n    /**\n    @notice Calculates the taskHash that has the highest weight of all tasks hashes submitted by stakers\n    and stores this as the top task hash.\n    @dev Internal helper function used to calculate the top task hash.\n    @param _projectAddress Address of the project\n    @param _staker Address of the staker\n    @param _taskHash Hash of the task list\n    @param _stakerWeight Weight of the staker\n    */\n    function stakedTaskHash(\n        address _projectAddress,\n        address _staker,\n        bytes32 _taskHash,\n        uint256 _stakerWeight\n    ) internal {\n        StakedState storage ss = stakedProjects[_projectAddress];\n        if(ss.taskHashSubmissions[_staker] !=  0) {   //Not first time submission for this particular address\n            bytes32 submittedTaskHash = ss.taskHashSubmissions[_staker];\n            ss.numSubmissionsByWeight[submittedTaskHash] -= _stakerWeight;\n        }\n        ss.numSubmissionsByWeight[_taskHash] += _stakerWeight;\n        ss.taskHashSubmissions[_staker] = _taskHash;\n        if (ss.originator[_taskHash] == address(0)) {\n          ss.originator[_taskHash] = _staker;\n        }\n        if(ss.numSubmissionsByWeight[_taskHash] > ss.numSubmissionsByWeight[ss.topTaskHash]) {\n            ss.topTaskHash = _taskHash;\n        }\n    }\n    /**\n    @notice Sets the originator of a project plan to 0 after verifying msg.sender is the originator\n    @param _projectAddress Address of the project\n    */\n    function rewardOriginator(\n      address _projectAddress,\n      address _claimer\n    ) onlyTR public {\n      require(projects[_projectAddress] == true);\n      StakedState storage ss = stakedProjects[_projectAddress];\n      require(_claimer == ss.originator[ss.topTaskHash]);\n      ss.originator[ss.topTaskHash] = address(0);\n    }\n    // =====================================================================\n    // ACTIVE\n    // =====================================================================\n\n    /**\n    @notice Submit the final task list with hashed tasks `_hashes` for project at `_projectAddress`.\n    Hashes the submitted task list to validate it is the top task hash list, and creates a task for\n    each list item with the respective hash.\n    @dev This function is an interation and requires variable gas.\n    @param _projectAddress Address of the project\n    @param _hashes Array of task hashes\n    */\n    // Doesn't Change State Here Could Possibly move to ProjectLibrary\n    function submitHashList(address payable _projectAddress, bytes32[] calldata _hashes) external {\n        require(!freeze);\n        require(projects[_projectAddress] == true);\n        Project project = Project(_projectAddress);\n        require(project.state() == 3);\n        require(keccak256(abi.encodePacked(_hashes)) == stakedProjects[_projectAddress].topTaskHash);\n        // Fail project if topTaskHash is not over 50\n        require(project.hashListSubmitted() == false);\n        project.setTaskLength(_hashes.length);\n        for (uint256 i = 0; i < _hashes.length; i++) {\n            address newTask = createProxyTask(_hashes[i], tokenRegistryAddress, reputationRegistryAddress);\n            project.setTaskAddress(newTask, i);\n            emit LogFinalTaskCreated(newTask, _projectAddress, _hashes[i], i);\n        }\n        project.setHashListSubmitted();\n    }\n\n    /**\n    @notice Claim a task at index `_index` from project at `_projectAddress` with description\n    `_taskDescription`, weighting `_weighting` by claimer `_claimer. Set the ether reward of the task\n    to `_weiVal` and the reputation needed to claim the task to `_reputationVal`\n    @dev Only callable by the ReputationRegistry\n    @param _projectAddress Address of project\n    @param _index Index of the task in task array.\n    @param _taskDescription Description of the task.\n    @param _claimer Address of account to claim task.\n    @param _weighting Weighting of this particular task (proportion of project funds)\n    @param _weiVal Ether reward of task\n    @param _reputationVal Reputation required to claim task\n    */\n    // Doesn't Change State Here Could Possibly move to ProjectLibrary\n    function claimTask(\n        address payable _projectAddress,\n        uint256 _index,\n        bytes32 _taskDescription,\n        address _claimer,\n        uint _weighting,\n        uint _weiVal,\n        uint _reputationVal\n    ) external onlyRR {\n        require(!freeze);\n        Project project = Project(_projectAddress);\n        require(project.state() == 3);\n        Task task = Task(project.tasks(_index));\n        require(keccak256(abi.encodePacked(_taskDescription, _weighting)) == task.taskHash());\n        require(\n            task.claimer() == address(0) ||\n            (block.timestamp > (task.claimTime() + project.turnoverTime()) && !task.complete())\n        );\n        task.setWeighting(_weighting);\n        task.setTaskReward(_weiVal, _reputationVal, _claimer);\n        emit LogTaskClaimed(_projectAddress, _index, _reputationVal, _claimer);\n    }\n\n    /**\n    @notice Mark that task at index `_index` in project at `_projectAddress` as completed by the claimer\n    `msg.sender`\n    @param _projectAddress Address of project\n    @param _index Index of the task in task array\n    */\n    // Doesn't Change State Here Could Possibly move to ProjectLibrary\n    function submitTaskComplete(address payable _projectAddress, uint256 _index) external {\n        require(!freeze);\n        Project project = Project(_projectAddress);\n        Task task = Task(project.tasks(_index));\n        DistributeToken dt = DistributeToken(distributeTokenAddress);\n        require(task.claimer() == msg.sender);\n        require(task.complete() == false);\n        require(project.state() == 3);\n        uint256 validationFee = task.setValidationEntryFee((task.weighting() * project.proposedCost() / 100) / dt.currentPrice());\n        task.markTaskComplete();\n        emit LogSubmitTaskComplete(_projectAddress, _index, validationFee);\n    }\n}\n",
  "sourcePath": "/Users/shokishoki/development/hypha/distribute-app/contracts/contracts/ProjectRegistry.sol",
  "compiler": {
    "name": "solc",
    "version": "0.5.2+commit.1df8f40c.Emscripten.clang"
  },
  "schemaVersion": "3.0.0",
  "updatedAt": "2018-12-21T20:37:48.950Z",
  "devdoc": {
    "author": "Team: Jessica Marshall, Ashoka Finley",
    "details": "This contract must be initialized with the address of a valid Token Registry, Reputation Registry and Distribute Token",
    "methods": {
      "addTaskHash(address,bytes32)": {
        "details": "This library is imported into all the Registries to manage project interactions",
        "params": {
          "_projectAddress": "Address of the project",
          "_taskHash": "Hash of the task list"
        }
      },
      "checkActive(address)": {
        "details": "Used to create the correct msg.sender to manage control",
        "params": {
          "_projectAddress": "Address of the project"
        },
        "return": "Boolean representing Active status"
      },
      "checkEnd(address)": {
        "details": "Used to create the correct msg.sender to manage control",
        "params": {
          "_projectAddress": "Address of the project"
        },
        "return": "uint representing Final Status"
      },
      "checkStaked(address)": {
        "details": "Used to create the correct msg.sender to manage control",
        "params": {
          "_projectAddress": "Address of the project"
        },
        "return": "Boolean representing Staked status"
      },
      "checkValidate(address)": {
        "details": "Used to create the correct msg.sender to manage control",
        "params": {
          "_projectAddress": "Address of the project"
        },
        "return": "Boolean representing Validate status"
      },
      "checkVoting(address)": {
        "details": "Used to create the correct msg.sender to manage control",
        "params": {
          "_projectAddress": "Address of the project"
        },
        "return": "Boolean representing Voting status"
      },
      "claimTask(address,uint256,bytes32,address,uint256,uint256,uint256)": {
        "details": "Only callable by the ReputationRegistry",
        "params": {
          "_claimer": "Address of account to claim task.",
          "_index": "Index of the task in task array.",
          "_projectAddress": "Address of project",
          "_reputationVal": "Reputation required to claim task",
          "_taskDescription": "Description of the task.",
          "_weiVal": "Ether reward of task",
          "_weighting": "Weighting of this particular task (proportion of project funds)"
        }
      },
      "createProject(uint256,uint256,uint256,address,uint256,uint256,bytes)": {
        "details": "Only callable by the ReputationRegistry or TokenRegistry, after proposer stake is confirmed.",
        "params": {
          "_cost": "The total cost of the project in wei",
          "_costProportion": "The proportion of the project cost divided by the DistributeToken weiBal represented as integer",
          "_ipfsHash": "The ipfs hash of the full project description",
          "_proposer": "The address of the user proposing the project",
          "_proposerStake": "The amount of reputation or tokens needed to create the proposal",
          "_proposerType": "Denotes if a proposer is using reputation or tokens, value must be 1: tokens or 2: reputation",
          "_stakingPeriod": "The length of time this project is open for staking"
        },
        "return": "Address of the created project"
      },
      "freezeContract()": {
        "details": "Freezes the distribute token contract and allows existing token holders to withdraw tokens"
      },
      "init(address,address,address,address,address,address)": {
        "params": {
          "_distributeToken": "Address of the distributeToken contract",
          "_plcrVoting": "Address of the plcr voting contract",
          "_reputationRegistry": "Address of the reputation registry contract",
          "_tokenRegistry": "Address of the token registry contract"
        }
      },
      "refundProposer(address,address)": {
        "details": "Only called by the TokenRegistry or ReputationRegistry",
        "params": {
          "_projectAddress": "Address of the project"
        },
        "return": "An array with the weiCost of the project and the proposers stake"
      },
      "renounceOwnership()": {
        "details": "Allows the current owner to relinquish control of the contract."
      },
      "rewardOriginator(address,address)": {
        "params": {
          "_projectAddress": "Address of the project"
        }
      },
      "submitHashList(address,bytes32[])": {
        "details": "This function is an interation and requires variable gas.",
        "params": {
          "_hashes": "Array of task hashes",
          "_projectAddress": "Address of the project"
        }
      },
      "submitTaskComplete(address,uint256)": {
        "params": {
          "_index": "Index of the task in task array",
          "_projectAddress": "Address of project"
        }
      },
      "transferOwnership(address)": {
        "details": "Allows the current owner to transfer control of the contract to a newOwner.",
        "params": {
          "_newOwner": "The address to transfer ownership to."
        }
      },
      "unfreezeContract()": {
        "details": "Unfreezes the distribute token contract and allows existing token holders to withdraw tokens"
      },
      "updateDistributeToken(address)": {
        "details": "Update the address of the distributeToken",
        "params": {
          "_newDistributeToken": "Address of the new distribute token"
        }
      },
      "updatePLCRVoting(address)": {
        "details": "Instantiate a new instance of plcrVoting contract",
        "params": {
          "_newPlcrVoting": "Address of the new plcr contract"
        }
      },
      "updateProjectContract(address)": {
        "details": "Update the address of the base product proxy contract",
        "params": {
          "_newProjectContract": "Address of the new project contract"
        }
      },
      "updateReputationRegistry(address)": {
        "details": "Update the address of the reputation registry",
        "params": {
          "_newReputationRegistry": "Address of the new reputation registry"
        }
      },
      "updateTaskContract(address)": {
        "details": "Update the address of the base task proxy contract",
        "params": {
          "_newTaskContract": "Address of the new task contract"
        }
      },
      "updateTokenRegistry(address)": {
        "details": "Update the address of the token registry",
        "params": {
          "_newTokenRegistry": "Address of the new token registry"
        }
      }
    },
    "title": "Project Registry for Distribute Network"
  },
  "userdoc": {
    "methods": {
      "addTaskHash(address,bytes32)": {
        "notice": "Submit a hash of a task list `_taskHash` to project at `_projectAddress` by staker `msg.sender`. Makes sure the Project is in the Active State, and calls stakedTaskHash."
      },
      "checkActive(address)": {
        "notice": "Calls the project library checkActive function, passing along the topTaskHash of the project at `_projectAddress`"
      },
      "checkEnd(address)": {
        "notice": "Calls the project library checkEnd function. Burns tokens and reputation if the project fails"
      },
      "checkStaked(address)": {
        "notice": "Calls the project library checkStaked function"
      },
      "checkValidate(address)": {
        "notice": "Calls the project library checkValidate function"
      },
      "checkVoting(address)": {
        "notice": "Calls the project library checkVoting function"
      },
      "claimTask(address,uint256,bytes32,address,uint256,uint256,uint256)": {
        "notice": "Claim a task at index `_index` from project at `_projectAddress` with description `_taskDescription`, weighting `_weighting` by claimer `_claimer. Set the ether reward of the task to `_weiVal` and the reputation needed to claim the task to `_reputationVal`"
      },
      "createProject(uint256,uint256,uint256,address,uint256,uint256,bytes)": {
        "notice": "Create a project with a cost of `_cost`, a ratio of `_costProportion`, a staking period length of `_stakingPeriod`, by proposer `_proposer` of type `_proposerType` with stake of `_proposerStake` defined by ipfsHash `_ipfsHash`"
      },
      "init(address,address,address,address,address,address)": {
        "notice": "@dev Quasi constructor is called after thr project is deployed. Requires that all relevant contract address are not yet intialized."
      },
      "refundProposer(address,address)": {
        "notice": "Refund a proposer if the project at `_projectAddress` is not in state: 1 Proposed or state: 8 Expired."
      },
      "renounceOwnership()": {
        "notice": "Renouncing to ownership will leave the contract without an owner. It will not be possible to call the functions with the `onlyOwner` modifier anymore."
      },
      "rewardOriginator(address,address)": {
        "notice": "Sets the originator of a project plan to 0 after verifying msg.sender is the originator"
      },
      "submitHashList(address,bytes32[])": {
        "notice": "Submit the final task list with hashed tasks `_hashes` for project at `_projectAddress`. Hashes the submitted task list to validate it is the top task hash list, and creates a task for each list item with the respective hash."
      },
      "submitTaskComplete(address,uint256)": {
        "notice": "Mark that task at index `_index` in project at `_projectAddress` as completed by the claimer `msg.sender`"
      }
    },
    "notice": "This project uses the Project Library to manage the state of Distribute Network projects."
  }
}