{
  "contractName": "Project",
  "abi": [
    {
      "constant": true,
      "inputs": [],
      "name": "reputationRegistryAddress",
      "outputs": [
        {
          "name": "",
          "type": "address"
        }
      ],
      "payable": false,
      "stateMutability": "view",
      "type": "function"
    },
    {
      "constant": true,
      "inputs": [],
      "name": "weiBal",
      "outputs": [
        {
          "name": "",
          "type": "uint256"
        }
      ],
      "payable": false,
      "stateMutability": "view",
      "type": "function"
    },
    {
      "constant": true,
      "inputs": [],
      "name": "proposerStake",
      "outputs": [
        {
          "name": "",
          "type": "uint256"
        }
      ],
      "payable": false,
      "stateMutability": "view",
      "type": "function"
    },
    {
      "constant": true,
      "inputs": [],
      "name": "weiCost",
      "outputs": [
        {
          "name": "",
          "type": "uint256"
        }
      ],
      "payable": false,
      "stateMutability": "view",
      "type": "function"
    },
    {
      "constant": true,
      "inputs": [],
      "name": "proposerType",
      "outputs": [
        {
          "name": "",
          "type": "uint256"
        }
      ],
      "payable": false,
      "stateMutability": "view",
      "type": "function"
    },
    {
      "constant": true,
      "inputs": [],
      "name": "nextDeadline",
      "outputs": [
        {
          "name": "",
          "type": "uint256"
        }
      ],
      "payable": false,
      "stateMutability": "view",
      "type": "function"
    },
    {
      "constant": true,
      "inputs": [],
      "name": "reputationCost",
      "outputs": [
        {
          "name": "",
          "type": "uint256"
        }
      ],
      "payable": false,
      "stateMutability": "view",
      "type": "function"
    },
    {
      "constant": true,
      "inputs": [],
      "name": "hashListSubmitted",
      "outputs": [
        {
          "name": "",
          "type": "bool"
        }
      ],
      "payable": false,
      "stateMutability": "view",
      "type": "function"
    },
    {
      "constant": true,
      "inputs": [],
      "name": "passThreshold",
      "outputs": [
        {
          "name": "",
          "type": "uint256"
        }
      ],
      "payable": false,
      "stateMutability": "view",
      "type": "function"
    },
    {
      "constant": true,
      "inputs": [
        {
          "name": "",
          "type": "address"
        }
      ],
      "name": "tokenBalances",
      "outputs": [
        {
          "name": "",
          "type": "uint256"
        }
      ],
      "payable": false,
      "stateMutability": "view",
      "type": "function"
    },
    {
      "constant": true,
      "inputs": [
        {
          "name": "",
          "type": "address"
        }
      ],
      "name": "reputationBalances",
      "outputs": [
        {
          "name": "",
          "type": "uint256"
        }
      ],
      "payable": false,
      "stateMutability": "view",
      "type": "function"
    },
    {
      "constant": true,
      "inputs": [],
      "name": "turnoverTime",
      "outputs": [
        {
          "name": "",
          "type": "uint256"
        }
      ],
      "payable": false,
      "stateMutability": "view",
      "type": "function"
    },
    {
      "constant": true,
      "inputs": [],
      "name": "proposedCost",
      "outputs": [
        {
          "name": "",
          "type": "uint256"
        }
      ],
      "payable": false,
      "stateMutability": "view",
      "type": "function"
    },
    {
      "constant": true,
      "inputs": [],
      "name": "tokenRegistryAddress",
      "outputs": [
        {
          "name": "",
          "type": "address"
        }
      ],
      "payable": false,
      "stateMutability": "view",
      "type": "function"
    },
    {
      "constant": true,
      "inputs": [],
      "name": "stakedStatePeriod",
      "outputs": [
        {
          "name": "",
          "type": "uint256"
        }
      ],
      "payable": false,
      "stateMutability": "view",
      "type": "function"
    },
    {
      "constant": true,
      "inputs": [],
      "name": "validateStatePeriod",
      "outputs": [
        {
          "name": "",
          "type": "uint256"
        }
      ],
      "payable": false,
      "stateMutability": "view",
      "type": "function"
    },
    {
      "constant": true,
      "inputs": [],
      "name": "validationReward",
      "outputs": [
        {
          "name": "",
          "type": "uint256"
        }
      ],
      "payable": false,
      "stateMutability": "view",
      "type": "function"
    },
    {
      "constant": true,
      "inputs": [
        {
          "name": "",
          "type": "uint256"
        }
      ],
      "name": "tasks",
      "outputs": [
        {
          "name": "",
          "type": "address"
        }
      ],
      "payable": false,
      "stateMutability": "view",
      "type": "function"
    },
    {
      "constant": true,
      "inputs": [],
      "name": "tokensStaked",
      "outputs": [
        {
          "name": "",
          "type": "uint256"
        }
      ],
      "payable": false,
      "stateMutability": "view",
      "type": "function"
    },
    {
      "constant": true,
      "inputs": [],
      "name": "passAmount",
      "outputs": [
        {
          "name": "",
          "type": "uint256"
        }
      ],
      "payable": false,
      "stateMutability": "view",
      "type": "function"
    },
    {
      "constant": true,
      "inputs": [],
      "name": "proposer",
      "outputs": [
        {
          "name": "",
          "type": "address"
        }
      ],
      "payable": false,
      "stateMutability": "view",
      "type": "function"
    },
    {
      "constant": true,
      "inputs": [],
      "name": "voteCommitPeriod",
      "outputs": [
        {
          "name": "",
          "type": "uint256"
        }
      ],
      "payable": false,
      "stateMutability": "view",
      "type": "function"
    },
    {
      "constant": true,
      "inputs": [],
      "name": "reputationStaked",
      "outputs": [
        {
          "name": "",
          "type": "uint256"
        }
      ],
      "payable": false,
      "stateMutability": "view",
      "type": "function"
    },
    {
      "constant": true,
      "inputs": [],
      "name": "projectRegistryAddress",
      "outputs": [
        {
          "name": "",
          "type": "address"
        }
      ],
      "payable": false,
      "stateMutability": "view",
      "type": "function"
    },
    {
      "constant": true,
      "inputs": [],
      "name": "voteRevealPeriod",
      "outputs": [
        {
          "name": "",
          "type": "uint256"
        }
      ],
      "payable": false,
      "stateMutability": "view",
      "type": "function"
    },
    {
      "constant": true,
      "inputs": [],
      "name": "state",
      "outputs": [
        {
          "name": "",
          "type": "uint256"
        }
      ],
      "payable": false,
      "stateMutability": "view",
      "type": "function"
    },
    {
      "constant": true,
      "inputs": [],
      "name": "ipfsHash",
      "outputs": [
        {
          "name": "",
          "type": "bytes"
        }
      ],
      "payable": false,
      "stateMutability": "view",
      "type": "function"
    },
    {
      "constant": true,
      "inputs": [],
      "name": "originatorReward",
      "outputs": [
        {
          "name": "",
          "type": "uint256"
        }
      ],
      "payable": false,
      "stateMutability": "view",
      "type": "function"
    },
    {
      "constant": true,
      "inputs": [],
      "name": "activeStatePeriod",
      "outputs": [
        {
          "name": "",
          "type": "uint256"
        }
      ],
      "payable": false,
      "stateMutability": "view",
      "type": "function"
    },
    {
      "inputs": [],
      "payable": false,
      "stateMutability": "nonpayable",
      "type": "constructor"
    },
    {
      "payable": true,
      "stateMutability": "payable",
      "type": "fallback"
    },
    {
      "anonymous": false,
      "inputs": [
        {
          "indexed": false,
          "name": "weiCost",
          "type": "uint256"
        },
        {
          "indexed": false,
          "name": "reputationCost",
          "type": "uint256"
        },
        {
          "indexed": false,
          "name": "state",
          "type": "uint256"
        },
        {
          "indexed": false,
          "name": "nextDeadline",
          "type": "uint256"
        },
        {
          "indexed": false,
          "name": "proposer",
          "type": "address"
        },
        {
          "indexed": false,
          "name": "proposerType",
          "type": "uint256"
        },
        {
          "indexed": false,
          "name": "ipfsHash",
          "type": "bytes"
        },
        {
          "indexed": false,
          "name": "stakedStatePeriod",
          "type": "uint256"
        },
        {
          "indexed": false,
          "name": "activeStatePeriod",
          "type": "uint256"
        },
        {
          "indexed": false,
          "name": "turnoverTime",
          "type": "uint256"
        },
        {
          "indexed": false,
          "name": "validateStatePeriod",
          "type": "uint256"
        },
        {
          "indexed": false,
          "name": "voteCommitPeriod",
          "type": "uint256"
        },
        {
          "indexed": false,
          "name": "voteRevealPeriod",
          "type": "uint256"
        },
        {
          "indexed": false,
          "name": "passThreshold",
          "type": "uint256"
        }
      ],
      "name": "LogProjectDetails",
      "type": "event"
    },
    {
      "constant": true,
      "inputs": [
        {
          "name": "_sender",
          "type": "address"
        }
      ],
      "name": "isTR",
      "outputs": [
        {
          "name": "",
          "type": "bool"
        }
      ],
      "payable": false,
      "stateMutability": "view",
      "type": "function"
    },
    {
      "constant": true,
      "inputs": [
        {
          "name": "_sender",
          "type": "address"
        }
      ],
      "name": "isRR",
      "outputs": [
        {
          "name": "",
          "type": "bool"
        }
      ],
      "payable": false,
      "stateMutability": "view",
      "type": "function"
    },
    {
      "constant": false,
      "inputs": [
        {
          "name": "_cost",
          "type": "uint256"
        },
        {
          "name": "_costProportion",
          "type": "uint256"
        },
        {
          "name": "_stakingPeriod",
          "type": "uint256"
        },
        {
          "name": "_proposer",
          "type": "address"
        },
        {
          "name": "_proposerType",
          "type": "uint256"
        },
        {
          "name": "_proposerStake",
          "type": "uint256"
        },
        {
          "name": "_ipfsHash",
          "type": "bytes"
        },
        {
          "name": "_reputationRegistry",
          "type": "address"
        },
        {
          "name": "_tokenRegistry",
          "type": "address"
        }
      ],
      "name": "setup",
      "outputs": [],
      "payable": false,
      "stateMutability": "nonpayable",
      "type": "function"
    },
    {
      "constant": true,
      "inputs": [],
      "name": "getTaskCount",
      "outputs": [
        {
          "name": "",
          "type": "uint256"
        }
      ],
      "payable": false,
      "stateMutability": "view",
      "type": "function"
    },
    {
      "constant": false,
      "inputs": [
        {
          "name": "_state",
          "type": "uint256"
        },
        {
          "name": "_nextDeadline",
          "type": "uint256"
        }
      ],
      "name": "setState",
      "outputs": [],
      "payable": false,
      "stateMutability": "nonpayable",
      "type": "function"
    },
    {
      "constant": false,
      "inputs": [],
      "name": "clearProposerStake",
      "outputs": [],
      "payable": false,
      "stateMutability": "nonpayable",
      "type": "function"
    },
    {
      "constant": false,
      "inputs": [
        {
          "name": "_staker",
          "type": "address"
        }
      ],
      "name": "clearTokenStake",
      "outputs": [],
      "payable": false,
      "stateMutability": "nonpayable",
      "type": "function"
    },
    {
      "constant": false,
      "inputs": [
        {
          "name": "_staker",
          "type": "address"
        }
      ],
      "name": "clearReputationStake",
      "outputs": [],
      "payable": false,
      "stateMutability": "nonpayable",
      "type": "function"
    },
    {
      "constant": false,
      "inputs": [],
      "name": "clearStake",
      "outputs": [],
      "payable": false,
      "stateMutability": "nonpayable",
      "type": "function"
    },
    {
      "constant": false,
      "inputs": [
        {
          "name": "_tasksLength",
          "type": "uint256"
        }
      ],
      "name": "setTaskLength",
      "outputs": [],
      "payable": false,
      "stateMutability": "nonpayable",
      "type": "function"
    },
    {
      "constant": false,
      "inputs": [
        {
          "name": "_taskAddress",
          "type": "address"
        },
        {
          "name": "_index",
          "type": "uint256"
        }
      ],
      "name": "setTaskAddress",
      "outputs": [],
      "payable": false,
      "stateMutability": "nonpayable",
      "type": "function"
    },
    {
      "constant": false,
      "inputs": [],
      "name": "setHashListSubmitted",
      "outputs": [],
      "payable": false,
      "stateMutability": "nonpayable",
      "type": "function"
    },
    {
      "constant": false,
      "inputs": [
        {
          "name": "_passAmount",
          "type": "uint256"
        }
      ],
      "name": "setPassAmount",
      "outputs": [],
      "payable": false,
      "stateMutability": "nonpayable",
      "type": "function"
    },
    {
      "constant": false,
      "inputs": [
        {
          "name": "_staker",
          "type": "address"
        },
        {
          "name": "_tokens",
          "type": "uint256"
        },
        {
          "name": "_weiValue",
          "type": "uint256"
        }
      ],
      "name": "stakeTokens",
      "outputs": [],
      "payable": false,
      "stateMutability": "nonpayable",
      "type": "function"
    },
    {
      "constant": false,
      "inputs": [
        {
          "name": "_staker",
          "type": "address"
        },
        {
          "name": "_tokens",
          "type": "uint256"
        },
        {
          "name": "_distributeToken",
          "type": "address"
        }
      ],
      "name": "unstakeTokens",
      "outputs": [
        {
          "name": "",
          "type": "uint256"
        }
      ],
      "payable": false,
      "stateMutability": "nonpayable",
      "type": "function"
    },
    {
      "constant": false,
      "inputs": [
        {
          "name": "_staker",
          "type": "address"
        },
        {
          "name": "_reputation",
          "type": "uint256"
        }
      ],
      "name": "stakeReputation",
      "outputs": [],
      "payable": false,
      "stateMutability": "nonpayable",
      "type": "function"
    },
    {
      "constant": false,
      "inputs": [
        {
          "name": "_staker",
          "type": "address"
        },
        {
          "name": "_reputation",
          "type": "uint256"
        }
      ],
      "name": "unstakeReputation",
      "outputs": [],
      "payable": false,
      "stateMutability": "nonpayable",
      "type": "function"
    },
    {
      "constant": false,
      "inputs": [
        {
          "name": "_rewardee",
          "type": "address"
        },
        {
          "name": "_reward",
          "type": "uint256"
        }
      ],
      "name": "transferWeiReward",
      "outputs": [],
      "payable": false,
      "stateMutability": "nonpayable",
      "type": "function"
    },
    {
      "constant": false,
      "inputs": [
        {
          "name": "_distributeToken",
          "type": "address"
        },
        {
          "name": "_value",
          "type": "uint256"
        }
      ],
      "name": "returnWei",
      "outputs": [],
      "payable": false,
      "stateMutability": "nonpayable",
      "type": "function"
    }
  ],
  "bytecode": "0x608060405234801561001057600080fd5b5061142c806100206000396000f3006080604052600436106102445763ffffffff7c010000000000000000000000000000000000000000000000000000000060003504166232be7f811461024657806303f2f92814610277578063065d5d0a1461029b57806306a5ab2c146102c25780630c328306146102e35780630cff8e8f146102f85780630df44ec51461031f57806312ff35bc1461033757806316ddf0211461034c578063181f8d2414610361578063205179841461038c57806326c1bffe146103a157806336df7df7146103b6578063378c12da146103cb5780633c79fe74146103f4578063476da566146104185780634b3a9a2c1461042d578063523fba7f1461044257806353e0a9be146104635780635a6fb81f146104845780635b9c161a146104995780635be2aca0146104ae578063710c096e146104c3578063764c8a00146104d85780637ec20fe8146104f95780637f306ba11461051d57806385955896146105415780638a77e915146105565780638cf86deb1461056e5780638d9776721461058357806399a033161461059b5780639bebba0a146105b0578063a8e4fb90146105c5578063b10bbaab146105da578063b11eda5a146105fe578063b23dcdaf14610613578063b532b11314610628578063b56750fd14610649578063b5b298381461065e578063b7eabbf91461067f578063b9d77bfc14610694578063c17a340e146106af578063c19d93fb146106c4578063c623674f146106d9578063cbd368bc14610763578063eb28c09814610778578063f58a1adb1461078d578063ff04322d14610820575b005b34801561025257600080fd5b5061025b610835565b60408051600160a060020a039092168252519081900360200190f35b34801561028357600080fd5b50610244600160a060020a0360043516602435610844565b3480156102a757600080fd5b506102b06108ab565b60408051918252519081900360200190f35b3480156102ce57600080fd5b50610244600160a060020a03600435166108b1565b3480156102ef57600080fd5b506102b0610910565b34801561030457600080fd5b50610244600160a060020a0360043516602435604435610916565b34801561032b57600080fd5b506102446004356109af565b34801561034357600080fd5b506102b06109cb565b34801561035857600080fd5b506102b06109d1565b34801561036d57600080fd5b506102b0600160a060020a0360043581169060243590604435166109d7565b34801561039857600080fd5b506102b0610b80565b3480156103ad57600080fd5b50610244610b86565b3480156103c257600080fd5b506102b0610bac565b3480156103d757600080fd5b506103e0610bb2565b604080519115158252519081900360200190f35b34801561040057600080fd5b50610244600160a060020a0360043516602435610bbb565b34801561042457600080fd5b50610244610c3d565b34801561043957600080fd5b506102b0610c60565b34801561044e57600080fd5b506102b0600160a060020a0360043516610c66565b34801561046f57600080fd5b506102b0600160a060020a0360043516610c78565b34801561049057600080fd5b506102b0610c8a565b3480156104a557600080fd5b506102b0610c90565b3480156104ba57600080fd5b5061025b610c96565b3480156104cf57600080fd5b506102b0610ca5565b3480156104e457600080fd5b50610244600160a060020a0360043516610cab565b34801561050557600080fd5b50610244600160a060020a0360043516602435610d0a565b34801561052957600080fd5b50610244600160a060020a0360043516602435610d72565b34801561054d57600080fd5b506102b0610ded565b34801561056257600080fd5b50610244600435610df3565b34801561057a57600080fd5b506102b0610e1a565b34801561058f57600080fd5b5061025b600435610e20565b3480156105a757600080fd5b506102b0610e48565b3480156105bc57600080fd5b506102b0610e4e565b3480156105d157600080fd5b5061025b610e54565b3480156105e657600080fd5b50610244600160a060020a0360043516602435610e63565b34801561060a57600080fd5b506102b0610e91565b34801561061f57600080fd5b506102b0610e97565b34801561063457600080fd5b506103e0600160a060020a0360043516610e9d565b34801561065557600080fd5b5061025b610ec3565b34801561066a57600080fd5b506103e0600160a060020a0360043516610ed2565b34801561068b57600080fd5b506102b0610ef1565b3480156106a057600080fd5b50610244600435602435610ef7565b3480156106bb57600080fd5b506102b0610f19565b3480156106d057600080fd5b506102b0610f20565b3480156106e557600080fd5b506106ee610f26565b6040805160208082528351818301528351919283929083019185019080838360005b83811015610728578181015183820152602001610710565b50505050905090810190601f1680156107555780820380516001836020036101000a031916815260200191505b509250505060405180910390f35b34801561076f57600080fd5b50610244610fb4565b34801561078457600080fd5b506102b0610fd2565b34801561079957600080fd5b50604080516020601f60c43560048181013592830184900484028501840190955281845261024494803594602480359560443595600160a060020a0360643516956084359560a435953695919460e494919390920191819084018382808284375094975050600160a060020a038535811696506020909501359094169350610fd892505050565b34801561082c57600080fd5b506102b06112d0565b600154600160a060020a031681565b600254600160a060020a0316331461085b57600080fd5b600380541461086957600080fd5b81601c8281548110151561087957fe5b9060005260206000200160006101000a815481600160a060020a030219169083600160a060020a031602179055505050565b600e5481565b600054600160a060020a031633146108c857600080fd5b600160a060020a0381166000908152601860205260409020546016546108f39163ffffffff6112d616565b601655600160a060020a0316600090815260186020526040812055565b600d5481565b600054600160a060020a0316331461092d57600080fd5b60035460011461093c57600080fd5b600160a060020a038316600090815260186020526040902054610965908363ffffffff6112e816565b600160a060020a038416600090815260186020526040902055601654610991908363ffffffff6112e816565b601655600e546109a7908263ffffffff6112e816565b600e55505050565b600254600160a060020a031633146109c657600080fd5b601b55565b60135481565b600c5481565b600080548190600160a060020a031633146109f157600080fd5b600354600114610a0057600080fd5b610ad06402540be400610ac4600e5473__Division______________________________622c1a9e89601654600a6040518463ffffffff167c010000000000000000000000000000000000000000000000000000000002815260040180848152602001838152602001828152602001935050505060206040518083038186803b158015610a8c57600080fd5b505af4158015610aa0573d6000803e3d6000fd5b505050506040513d6020811015610ab657600080fd5b50519063ffffffff61130216565b9063ffffffff61132d16565b600160a060020a038616600090815260186020526040902054909150610afc908563ffffffff6112d616565b600160a060020a038616600090815260186020526040902055601654610b28908563ffffffff6112d616565b601655600e54610b3e908263ffffffff6112d616565b600e55604051600160a060020a0384169082156108fc029083906000818181858888f19350505050158015610b77573d6000803e3d6000fd5b50949350505050565b600f5481565b600254600160a060020a03163314610b9d57600080fd5b601a805460ff19166001179055565b60145481565b601a5460ff1681565b600154600160a060020a03163314610bd257600080fd5b600354600114610be157600080fd5b600160a060020a038216600090815260196020526040902054610c0a908263ffffffff6112d616565b600160a060020a038316600090815260196020526040902055601754610c36908263ffffffff6112d616565b6017555050565b600254600160a060020a03163314610c5457600080fd5b60006016819055601755565b600a5481565b60186020526000908152604090205481565b60196020526000908152604090205481565b60065481565b60105481565b600054600160a060020a031681565b60045481565b600154600160a060020a03163314610cc257600080fd5b600160a060020a038116600090815260196020526040902054601754610ced9163ffffffff6112d616565b601755600160a060020a0316600090815260196020526040812055565b600254600160a060020a03163314610d2157600080fd5b600e54610d34908263ffffffff6112d616565b600e55604051600160a060020a0383169082156108fc029083906000818181858888f19350505050158015610d6d573d6000803e3d6000fd5b505050565b600154600160a060020a03163314610d8957600080fd5b600354600114610d9857600080fd5b600160a060020a038216600090815260196020526040902054610dc1908263ffffffff6112e816565b600160a060020a038316600090815260196020526040902055601754610c36908263ffffffff6112e816565b60075481565b600254600160a060020a03163314610e0a57600080fd5b80610e16601c82611344565b5050565b60115481565b601c805482908110610e2e57fe5b600091825260209091200154600160a060020a0316905081565b60165481565b601b5481565b600b54600160a060020a031681565b600054600160a060020a0316331480610e865750600154600160a060020a031633145b1515610d2157600080fd5b60085481565b60175481565b60008054600160a060020a03838116911614610eba576000610ebd565b60015b92915050565b600254600160a060020a031681565b600154600090600160a060020a03838116911614610eba576000610ebd565b60095481565b600254600160a060020a03163314610f0e57600080fd5b600391909155600f55565b601c545b90565b60035481565b6015805460408051602060026001851615610100026000190190941693909304601f81018490048402820184019092528181529291830182828015610fac5780601f10610f8157610100808354040283529160200191610fac565b820191906000526020600020905b815481529060010190602001808311610f8f57829003601f168201915b505050505081565b600254600160a060020a03163314610fcb57600080fd5b6000600d55565b60125481565b8251602e14610fe657600080fd5b600154600160a060020a031615610ffc57600080fd5b60018054600160a060020a0384811673ffffffffffffffffffffffffffffffffffffffff19928316811790935560008054918516918316919091178155600280549092163317909155606460058c02046011819055601281905560108c9055808c0101601355604080517f18160ddd00000000000000000000000000000000000000000000000000000000815290516402540be40093926318160ddd92600480820193602093909283900390910190829087803b1580156110bc57600080fd5b505af11580156110d0573d6000803e3d6000fd5b505050506040513d60208110156110e657600080fd5b505189028115156110f357fe5b046014556001600355600f879055600b805473ffffffffffffffffffffffffffffffffffffffff1916600160a060020a038816179055600c859055600d8490558251611146906015906020860190611368565b5062093a80600481905562127500600581905560068290556007829055600882905560098290556064600a819055601354601454600354600f54600b54600c54604080518781526020810187905290810185905260608101849052600160a060020a039092166080830181905260a0830182905260e083018a90526101008381018a905261012084018b905261014084018b905261016084018b905261018084018b90526101a084018990526101c060c0850181815260158054600260018216159095026000190116939093049186018290527fa5b28abb07796d793327f8b0d715bb0b67648f84f7eba00b16b0ff4913abcd3c9c999b989a979996989397949692959294859384938493849392916101e08301908b9080156112aa5780601f1061127f576101008083540402835291602001916112aa565b820191906000526020600020905b81548152906001019060200180831161128d57829003601f168201915b50509f5050505050505050505050505050505060405180910390a1505050505050505050565b60055481565b6000828211156112e257fe5b50900390565b6000828201838110156112f757fe5b8091505b5092915050565b60008083151561131557600091506112fb565b5082820282848281151561132557fe5b04146112f757fe5b600080828481151561133b57fe5b04949350505050565b815481835581811115610d6d57600083815260209020610d6d9181019083016113e6565b828054600181600116156101000203166002900490600052602060002090601f016020900481019282601f106113a957805160ff19168380011785556113d6565b828001600101855582156113d6579182015b828111156113d65782518255916020019190600101906113bb565b506113e29291506113e6565b5090565b610f1d91905b808211156113e257600081556001016113ec5600a165627a7a723058208fb26dc16ecdea655a743cb1bc90e1bbcce9638c652587f5f382931c2a6078070029",
  "source": "pragma solidity ^0.4.21;\n\nimport \"./ProjectRegistry.sol\";\nimport \"./ReputationRegistry.sol\";\nimport \"./Task.sol\";\nimport \"./library/SafeMath.sol\";\nimport \"./library/Division.sol\";\n\n/**\n@title An individual project in the distribute DAO system\n@author Team: Jessica Marshall, Ashoka Finley\n@notice This contract is used to manage the state of all project related parameters while also\nmaintaining a wei balance to be used in the case of reward. The project can be in 8 states, represented by\nintegers. They are as follows: [1: Proposed, 2: Staked, 3: Active, 4: Validation, 5: Voting, 6: Complete,\n7: Failed, 8: Expired]\n@dev This contract is managed and deployed by a Project Registry contract, and must be initialized\nwith a ReputationRegistry and TokenRegistry for full control.\n*/\ncontract Project {\n\n    using SafeMath for uint256;\n\n    // =====================================================================\n    // EVENTS\n    // =====================================================================\n\n    event LogProjectDetails(\n      uint weiCost,\n      uint reputationCost,\n      uint state,\n      uint nextDeadline,\n      address proposer,\n      uint proposerType,\n      bytes ipfsHash,\n      uint stakedStatePeriod,\n      uint activeStatePeriod,\n      uint turnoverTime,\n      uint validateStatePeriod,\n      uint voteCommitPeriod,\n      uint voteRevealPeriod,\n      uint passThreshold\n    );\n\n    /* event Transfer(address worker, uint reward); */\n\n    // =====================================================================\n    // STATE VARIABLES\n    // =====================================================================\n\n    address public tokenRegistryAddress;\n    address public reputationRegistryAddress;\n    address public projectRegistryAddress;\n\n    uint256 public state;\n\n    /*\n    POSSIBLE PROJECT STATES\n        1: Proposed,\n        2: Staked,\n        3: Active,\n        4: Validation,\n        5: Voting,\n        6: Complete,\n        7: Failed,\n        8: Expired\n    */\n\n    uint256 public stakedStatePeriod;\n    uint256 public activeStatePeriod;\n    uint256 public turnoverTime;\n    uint256 public validateStatePeriod;\n    uint256 public voteCommitPeriod;\n    uint256 public voteRevealPeriod;\n    uint256 public passThreshold;\n\n    address public proposer;\n    uint256 public proposerType;\n    uint256 public proposerStake;\n    uint256 public weiBal;\n    uint256 public nextDeadline;\n    uint256 public proposedCost;\n    uint256 public validationReward;\n    uint256 public originatorReward;\n    uint256 public weiCost;\n    uint256 public reputationCost;\n\n    bytes public ipfsHash;\n\n    uint256 public tokensStaked;\n    uint256 public reputationStaked;\n    mapping (address => uint) public tokenBalances;\n    mapping (address => uint) public reputationBalances;\n\n    bool public hashListSubmitted;\n    uint256 public passAmount;\n\n    // MAKE THIS A DLL EVENTUALLY?\n    address[] public tasks;\n\n    // =====================================================================\n    // MODIFIERS\n    // =====================================================================\n\n    modifier onlyPR() {\n        require(msg.sender == projectRegistryAddress);\n        _;\n    }\n\n    modifier onlyTR() {\n        require(msg.sender == tokenRegistryAddress);\n        _;\n    }\n\n    modifier onlyRR() {\n        require(msg.sender == reputationRegistryAddress);\n        _;\n    }\n\n    modifier onlyTRorRR() {\n        require(msg.sender == tokenRegistryAddress || msg.sender == reputationRegistryAddress);\n        _;\n    }\n\n    function isTR(address _sender) external view returns (bool) {\n        return _sender == tokenRegistryAddress\n            ? true\n            : false;\n    }\n\n    function isRR(address _sender) external view returns (bool) {\n        return _sender == reputationRegistryAddress\n            ? true\n            : false;\n    }\n\n    // =====================================================================\n    // CONSTRUCTOR\n    // =====================================================================\n\n    constructor () public {}\n    /**\n    @dev Used for proxy deployment of this contract. Initialize a Project with a Reputation Registry\n    and a Token Registry, and all related project values.\n    @param _cost The total cost of the project in wei\n    @param _costProportion The proportion of the project cost divided by theDistributeToken weiBal\n    represented as integer\n    @param _stakingPeriod The length of time the project is open for staking\n    @param _proposer The address of the user proposing the project\n    @param _proposerType Denotes if a proposer is proposing a project with reputation or tokens,\n    value must be 1: tokens or 2: reputation\n    @param _proposerStake The amount of reputation or tokens needed to create the proposal (5% of project cost)\n    @param _ipfsHash The ipfs hash of the full project description\n    @param _reputationRegistry Address of the Reputation Registry\n    @param _tokenRegistry Address of the Token Registry\n    */\n    function setup(\n        uint256 _cost,\n        uint256 _costProportion,\n        uint256 _stakingPeriod,\n        address _proposer,\n        uint256 _proposerType,\n        uint256 _proposerStake,\n        bytes _ipfsHash,\n        address _reputationRegistry,\n        address _tokenRegistry\n    ) public {\n        require(bytes(_ipfsHash).length == 46);\n        require(reputationRegistryAddress == 0);\n        reputationRegistryAddress = _reputationRegistry;\n        tokenRegistryAddress = _tokenRegistry;\n        projectRegistryAddress = msg.sender;\n        validationReward = _cost * 5 / 100;\n        originatorReward = _cost * 5 / 100;\n        proposedCost = _cost;\n        weiCost = proposedCost + validationReward + originatorReward;\n        reputationCost = _costProportion * ReputationRegistry(_reputationRegistry).totalSupply() / 10000000000;\n        state = 1;\n        nextDeadline = _stakingPeriod;\n        proposer = _proposer;\n        proposerType = _proposerType;\n        proposerStake = _proposerStake;\n        ipfsHash = _ipfsHash;\n        // Proxies don't initialize variables\n        stakedStatePeriod = 1 weeks;\n        activeStatePeriod = 2 weeks;\n        turnoverTime = 1 weeks;\n        validateStatePeriod = 1 weeks;\n        voteCommitPeriod = 1 weeks;\n        voteRevealPeriod = 1 weeks;\n        passThreshold = 100;\n        emit LogProjectDetails(\n          weiCost,\n          reputationCost,\n          state,\n          nextDeadline,\n          proposer,\n          proposerType,\n          ipfsHash,\n          stakedStatePeriod,\n          activeStatePeriod,\n          turnoverTime,\n          validateStatePeriod,\n          voteCommitPeriod,\n          voteRevealPeriod,\n          passThreshold\n        );\n    }\n\n    // =====================================================================\n    // FALLBACK\n    // =====================================================================\n\n    function() public payable {}\n\n    // =====================================================================\n    // GETTERS\n    // =====================================================================\n    /**\n    @notice The amount of tasks created in the project during the Staked period.\n    @dev Helper function used by the project library to get the length of the task array\n    @return The number of tasks in the task array\n    */\n    function getTaskCount() external view returns (uint256) {\n        return tasks.length;\n    }\n\n    /* function getTaskAddress(uint256 _index) external view returns (address) {\n        return tasks[_index];\n    } */\n\n    // =====================================================================\n    // SETTERS\n    // =====================================================================\n\n    /**\n    @notice Set the project state to `_state`, and update the nextDeadline to `_nextDeadline`\n    @dev Only callable by the Project Registry that was initialized during construction\n    @param _state The state to update the project to\n    @param _nextDeadline The nextDeadline to transition project to the next state\n    */\n    function setState(uint256 _state, uint256 _nextDeadline) external onlyPR {\n        state = _state;\n        nextDeadline = _nextDeadline;\n    }\n\n    /**\n    @notice Clears the proposer stake on proposal expiration\n    @dev Only callable by the Project Registry initialized during construction\n    */\n    function clearProposerStake() external onlyPR {\n        proposerStake = 0;\n    }\n\n    /**\n    @notice Clear the token stake of `_staker`, used during stake claiming\n    @dev Only callable by the Token Registry initialized during construction\n    @param _staker Address of the staker\n    */\n    function clearTokenStake(address _staker) external onlyTR {\n        tokensStaked = tokensStaked.sub(tokenBalances[_staker]);\n        tokenBalances[_staker] = 0;\n    }\n\n    /**\n    @notice Clear the reputation stake of `_staker`, used during stake claiming\n    @dev Only callable by the Reputation Registry initialized during construction\n    @param _staker Address of the staker\n    */\n    function clearReputationStake(address _staker) external onlyRR {\n        reputationStaked = reputationStaked.sub(reputationBalances[_staker]);\n        reputationBalances[_staker] = 0;\n    }\n\n    /**\n    @notice Clear the stake of all stakers in the event of Project failure\n    @dev Only callable by the Project Registry initialized during construction, in the case of project failure\n    */\n    function clearStake() external onlyPR {\n        tokensStaked = 0;\n        reputationStaked = 0;\n    }\n\n    /**\n    @notice Set the number of project tasks to `_tasksLength` as defined by the project stakers\n    @dev Only callable by the Project Registry initialized during construction\n    @param _tasksLength The amount of tasks as defined by the project stakers\n    */\n    function setTaskLength(uint _tasksLength) external onlyPR {\n        tasks.length = _tasksLength;\n    }\n\n    /**\n    @notice Set the address of a task at index `_index`\n    @dev Only callable by the Project Registry initialized during construction\n    @param _taskAddress Address of the task contract\n    @param _index Index of the task in the tasks array\n    */\n    function setTaskAddress(address _taskAddress, uint _index) external onlyPR {\n        require(state == 3);\n        tasks[_index] = _taskAddress;\n    }\n\n    function setHashListSubmitted() external onlyPR {\n      hashListSubmitted = true;\n    }\n\n    /**\n    @notice Set the weighting of the amount of tasks that passed to `_passAmount`\n    @dev Only callable by the Project Registry initialized during construction\n    @param _passAmount The total weighting of all tasks which passed\n    */\n    function setPassAmount(uint256 _passAmount) external onlyPR {\n        passAmount = _passAmount;\n    }\n\n    // =====================================================================\n    // STAKE\n    // =====================================================================\n\n    /**\n    @notice Stake `_tokens` tokens from `_staker` and add `_weiValue` to the project ether balance\n    @dev Only callable by the Token Registry initialized during construction, to maintain control flow\n    @param _staker Address of the staker who is staking\n    @param _tokens Amount of tokens to stake on the project\n    @param _weiValue Amount of wei transferred to the project\n    */\n    function stakeTokens(address _staker, uint256 _tokens, uint256 _weiValue) external onlyTR {\n        require(state == 1);\n        tokenBalances[_staker] = tokenBalances[_staker].add(_tokens);\n        tokensStaked = tokensStaked.add(_tokens);\n        weiBal = weiBal.add(_weiValue);\n    }\n\n    /**\n    @notice Unstake `_tokens` tokens from the project, subtract this value from the balance of `_staker`\n    Returns the amount of ether to subtract from the project's ether balance\n    @dev Only callable by the Token Registry initialized during construction, to maintain control flow\n    @dev Only callable before the staking period of a proposed project ends (state must still be 1)\n    @param _staker Address of the staker who is unstaking\n    @param _tokens Amount of tokens to unstake on the project\n    @param _distributeToken Address of distribute token contract\n    @return The amount of ether to deduct from the projects balance\n\n    */\n    function unstakeTokens(address _staker, uint256 _tokens, address _distributeToken) external onlyTR returns (uint256) {\n        require(state == 1);\n        uint256 weiVal = (Division.percent(_tokens, tokensStaked, 10).mul(weiBal)).div(10000000000);\n        tokenBalances[_staker] = tokenBalances[_staker].sub(_tokens);\n        tokensStaked = tokensStaked.sub(_tokens);\n        weiBal = weiBal.sub(weiVal);\n        _distributeToken.transfer(weiVal);\n        return weiVal;\n    }\n\n    /**\n    @notice Stake `_reputation` reputation from `_staker`\n    @dev Only callable by the Reputation Registry initialized during construction, to maintain control flow\n    @param _staker Address of the staker who is staking\n    @param _reputation Amount of reputation to stake on the project\n    */\n    function stakeReputation(address _staker, uint256 _reputation) external onlyRR {\n        require(state == 1);\n        reputationBalances[_staker] = reputationBalances[_staker].add(_reputation);\n        reputationStaked = reputationStaked.add(_reputation);\n    }\n\n    /**\n    @notice Unstake `_reputation` reputation from the project, and update staked balance of `_staker`\n    @dev Only callable by the Reputation Registry initialized during construction, to maintain control flow\n    @dev Only callable before the staking period of a proposed project ends (state must still be 1)\n    @param _staker Address of the staker who is unstaking\n    @param _reputation Amount of reputation to unstake on the project\n    */\n    function unstakeReputation(address _staker, uint256 _reputation) external onlyRR {\n        require(state == 1);\n        reputationBalances[_staker] = reputationBalances[_staker].sub(_reputation);\n        reputationStaked = reputationStaked.sub(_reputation);\n    }\n\n    // =====================================================================\n    // REWARD\n    // =====================================================================\n\n    /**\n    @notice Transfer `_reward` wei as reward for completing a task to `_rewardee\n    @dev Only callable by the Reputation Registry or Token Registry initialized during construction, to maintain control flow\n    @param _rewardee The account who claimed and completed the task.\n    @param _reward The amount of wei to transfer.\n    */\n    function transferWeiReward(address _rewardee, uint _reward) external onlyTRorRR {\n        weiBal = weiBal.sub(_reward);\n        _rewardee.transfer(_reward);\n    }\n\n    /**\n    @notice Transfer `_value` wei back to distribute token balance on task failure\n    @dev Only callable by the Project Registry initialized during construction, to maintain control flow\n    @param _distributeToken The address of the systems token contract.\n    @param _value The amount of ether to send\n    */\n    function returnWei(address _distributeToken, uint _value) external onlyPR {\n        weiBal = weiBal.sub(_value);\n        _distributeToken.transfer(_value);\n    }\n\n}\n",
  "sourcePath": "/Users/jessicamarshall/distribute-app/contracts/contracts/Project.sol",
  "compiler": {
    "name": "solc",
    "version": "0.4.24+commit.e67f0147.Emscripten.clang"
  },
  "schemaVersion": "2.0.1",
  "updatedAt": "2018-11-28T18:55:51.118Z"
}