{
  "contractName": "Project",
  "abi": [
    {
      "constant": true,
      "inputs": [],
      "name": "reputationRegistryAddress",
      "outputs": [
        {
          "name": "",
          "type": "address"
        }
      ],
      "payable": false,
      "stateMutability": "view",
      "type": "function",
      "signature": "0x0032be7f"
    },
    {
      "constant": true,
      "inputs": [],
      "name": "weiBal",
      "outputs": [
        {
          "name": "",
          "type": "uint256"
        }
      ],
      "payable": false,
      "stateMutability": "view",
      "type": "function",
      "signature": "0x065d5d0a"
    },
    {
      "constant": true,
      "inputs": [],
      "name": "proposerStake",
      "outputs": [
        {
          "name": "",
          "type": "uint256"
        }
      ],
      "payable": false,
      "stateMutability": "view",
      "type": "function",
      "signature": "0x0c328306"
    },
    {
      "constant": true,
      "inputs": [],
      "name": "weiCost",
      "outputs": [
        {
          "name": "",
          "type": "uint256"
        }
      ],
      "payable": false,
      "stateMutability": "view",
      "type": "function",
      "signature": "0x12ff35bc"
    },
    {
      "constant": true,
      "inputs": [],
      "name": "proposerType",
      "outputs": [
        {
          "name": "",
          "type": "uint256"
        }
      ],
      "payable": false,
      "stateMutability": "view",
      "type": "function",
      "signature": "0x16ddf021"
    },
    {
      "constant": true,
      "inputs": [],
      "name": "nextDeadline",
      "outputs": [
        {
          "name": "",
          "type": "uint256"
        }
      ],
      "payable": false,
      "stateMutability": "view",
      "type": "function",
      "signature": "0x20517984"
    },
    {
      "constant": true,
      "inputs": [],
      "name": "reputationCost",
      "outputs": [
        {
          "name": "",
          "type": "uint256"
        }
      ],
      "payable": false,
      "stateMutability": "view",
      "type": "function",
      "signature": "0x36df7df7"
    },
    {
      "constant": true,
      "inputs": [],
      "name": "hashListSubmitted",
      "outputs": [
        {
          "name": "",
          "type": "bool"
        }
      ],
      "payable": false,
      "stateMutability": "view",
      "type": "function",
      "signature": "0x378c12da"
    },
    {
      "constant": true,
      "inputs": [],
      "name": "passThreshold",
      "outputs": [
        {
          "name": "",
          "type": "uint256"
        }
      ],
      "payable": false,
      "stateMutability": "view",
      "type": "function",
      "signature": "0x4b3a9a2c"
    },
    {
      "constant": true,
      "inputs": [
        {
          "name": "",
          "type": "address"
        }
      ],
      "name": "tokenBalances",
      "outputs": [
        {
          "name": "",
          "type": "uint256"
        }
      ],
      "payable": false,
      "stateMutability": "view",
      "type": "function",
      "signature": "0x523fba7f"
    },
    {
      "constant": true,
      "inputs": [
        {
          "name": "",
          "type": "address"
        }
      ],
      "name": "reputationBalances",
      "outputs": [
        {
          "name": "",
          "type": "uint256"
        }
      ],
      "payable": false,
      "stateMutability": "view",
      "type": "function",
      "signature": "0x53e0a9be"
    },
    {
      "constant": true,
      "inputs": [],
      "name": "turnoverTime",
      "outputs": [
        {
          "name": "",
          "type": "uint256"
        }
      ],
      "payable": false,
      "stateMutability": "view",
      "type": "function",
      "signature": "0x5a6fb81f"
    },
    {
      "constant": true,
      "inputs": [],
      "name": "proposedCost",
      "outputs": [
        {
          "name": "",
          "type": "uint256"
        }
      ],
      "payable": false,
      "stateMutability": "view",
      "type": "function",
      "signature": "0x5b9c161a"
    },
    {
      "constant": true,
      "inputs": [],
      "name": "tokenRegistryAddress",
      "outputs": [
        {
          "name": "",
          "type": "address"
        }
      ],
      "payable": false,
      "stateMutability": "view",
      "type": "function",
      "signature": "0x5be2aca0"
    },
    {
      "constant": true,
      "inputs": [],
      "name": "stakedStatePeriod",
      "outputs": [
        {
          "name": "",
          "type": "uint256"
        }
      ],
      "payable": false,
      "stateMutability": "view",
      "type": "function",
      "signature": "0x710c096e"
    },
    {
      "constant": true,
      "inputs": [],
      "name": "validateStatePeriod",
      "outputs": [
        {
          "name": "",
          "type": "uint256"
        }
      ],
      "payable": false,
      "stateMutability": "view",
      "type": "function",
      "signature": "0x85955896"
    },
    {
      "constant": true,
      "inputs": [],
      "name": "validationReward",
      "outputs": [
        {
          "name": "",
          "type": "uint256"
        }
      ],
      "payable": false,
      "stateMutability": "view",
      "type": "function",
      "signature": "0x8cf86deb"
    },
    {
      "constant": true,
      "inputs": [
        {
          "name": "",
          "type": "uint256"
        }
      ],
      "name": "tasks",
      "outputs": [
        {
          "name": "",
          "type": "address"
        }
      ],
      "payable": false,
      "stateMutability": "view",
      "type": "function",
      "signature": "0x8d977672"
    },
    {
      "constant": true,
      "inputs": [],
      "name": "tokensStaked",
      "outputs": [
        {
          "name": "",
          "type": "uint256"
        }
      ],
      "payable": false,
      "stateMutability": "view",
      "type": "function",
      "signature": "0x99a03316"
    },
    {
      "constant": true,
      "inputs": [],
      "name": "passAmount",
      "outputs": [
        {
          "name": "",
          "type": "uint256"
        }
      ],
      "payable": false,
      "stateMutability": "view",
      "type": "function",
      "signature": "0x9bebba0a"
    },
    {
      "constant": true,
      "inputs": [],
      "name": "proposer",
      "outputs": [
        {
          "name": "",
          "type": "address"
        }
      ],
      "payable": false,
      "stateMutability": "view",
      "type": "function",
      "signature": "0xa8e4fb90"
    },
    {
      "constant": true,
      "inputs": [],
      "name": "voteCommitPeriod",
      "outputs": [
        {
          "name": "",
          "type": "uint256"
        }
      ],
      "payable": false,
      "stateMutability": "view",
      "type": "function",
      "signature": "0xb11eda5a"
    },
    {
      "constant": true,
      "inputs": [],
      "name": "reputationStaked",
      "outputs": [
        {
          "name": "",
          "type": "uint256"
        }
      ],
      "payable": false,
      "stateMutability": "view",
      "type": "function",
      "signature": "0xb23dcdaf"
    },
    {
      "constant": true,
      "inputs": [],
      "name": "projectRegistryAddress",
      "outputs": [
        {
          "name": "",
          "type": "address"
        }
      ],
      "payable": false,
      "stateMutability": "view",
      "type": "function",
      "signature": "0xb56750fd"
    },
    {
      "constant": true,
      "inputs": [],
      "name": "voteRevealPeriod",
      "outputs": [
        {
          "name": "",
          "type": "uint256"
        }
      ],
      "payable": false,
      "stateMutability": "view",
      "type": "function",
      "signature": "0xb7eabbf9"
    },
    {
      "constant": true,
      "inputs": [],
      "name": "state",
      "outputs": [
        {
          "name": "",
          "type": "uint256"
        }
      ],
      "payable": false,
      "stateMutability": "view",
      "type": "function",
      "signature": "0xc19d93fb"
    },
    {
      "constant": true,
      "inputs": [],
      "name": "ipfsHash",
      "outputs": [
        {
          "name": "",
          "type": "bytes"
        }
      ],
      "payable": false,
      "stateMutability": "view",
      "type": "function",
      "signature": "0xc623674f"
    },
    {
      "constant": true,
      "inputs": [],
      "name": "originatorReward",
      "outputs": [
        {
          "name": "",
          "type": "uint256"
        }
      ],
      "payable": false,
      "stateMutability": "view",
      "type": "function",
      "signature": "0xeb28c098"
    },
    {
      "constant": true,
      "inputs": [],
      "name": "activeStatePeriod",
      "outputs": [
        {
          "name": "",
          "type": "uint256"
        }
      ],
      "payable": false,
      "stateMutability": "view",
      "type": "function",
      "signature": "0xff04322d"
    },
    {
      "inputs": [],
      "payable": false,
      "stateMutability": "nonpayable",
      "type": "constructor",
      "signature": "constructor"
    },
    {
      "payable": true,
      "stateMutability": "payable",
      "type": "fallback"
    },
    {
      "anonymous": false,
      "inputs": [
        {
          "indexed": false,
          "name": "weiCost",
          "type": "uint256"
        },
        {
          "indexed": false,
          "name": "reputationCost",
          "type": "uint256"
        },
        {
          "indexed": false,
          "name": "state",
          "type": "uint256"
        },
        {
          "indexed": false,
          "name": "nextDeadline",
          "type": "uint256"
        },
        {
          "indexed": false,
          "name": "proposer",
          "type": "address"
        },
        {
          "indexed": false,
          "name": "proposerType",
          "type": "uint256"
        },
        {
          "indexed": false,
          "name": "ipfsHash",
          "type": "bytes"
        },
        {
          "indexed": false,
          "name": "stakedStatePeriod",
          "type": "uint256"
        },
        {
          "indexed": false,
          "name": "activeStatePeriod",
          "type": "uint256"
        },
        {
          "indexed": false,
          "name": "turnoverTime",
          "type": "uint256"
        },
        {
          "indexed": false,
          "name": "validateStatePeriod",
          "type": "uint256"
        },
        {
          "indexed": false,
          "name": "voteCommitPeriod",
          "type": "uint256"
        },
        {
          "indexed": false,
          "name": "voteRevealPeriod",
          "type": "uint256"
        },
        {
          "indexed": false,
          "name": "passThreshold",
          "type": "uint256"
        }
      ],
      "name": "LogProjectDetails",
      "type": "event",
      "signature": "0xa5b28abb07796d793327f8b0d715bb0b67648f84f7eba00b16b0ff4913abcd3c"
    },
    {
      "constant": true,
      "inputs": [
        {
          "name": "_sender",
          "type": "address"
        }
      ],
      "name": "isTR",
      "outputs": [
        {
          "name": "",
          "type": "bool"
        }
      ],
      "payable": false,
      "stateMutability": "view",
      "type": "function",
      "signature": "0xb532b113"
    },
    {
      "constant": true,
      "inputs": [
        {
          "name": "_sender",
          "type": "address"
        }
      ],
      "name": "isRR",
      "outputs": [
        {
          "name": "",
          "type": "bool"
        }
      ],
      "payable": false,
      "stateMutability": "view",
      "type": "function",
      "signature": "0xb5b29838"
    },
    {
      "constant": false,
      "inputs": [
        {
          "name": "_cost",
          "type": "uint256"
        },
        {
          "name": "_costProportion",
          "type": "uint256"
        },
        {
          "name": "_stakingPeriod",
          "type": "uint256"
        },
        {
          "name": "_proposer",
          "type": "address"
        },
        {
          "name": "_proposerType",
          "type": "uint256"
        },
        {
          "name": "_proposerStake",
          "type": "uint256"
        },
        {
          "name": "_ipfsHash",
          "type": "bytes"
        },
        {
          "name": "_reputationRegistry",
          "type": "address"
        },
        {
          "name": "_tokenRegistry",
          "type": "address"
        }
      ],
      "name": "setup",
      "outputs": [],
      "payable": false,
      "stateMutability": "nonpayable",
      "type": "function",
      "signature": "0xf58a1adb"
    },
    {
      "constant": true,
      "inputs": [],
      "name": "getTaskCount",
      "outputs": [
        {
          "name": "",
          "type": "uint256"
        }
      ],
      "payable": false,
      "stateMutability": "view",
      "type": "function",
      "signature": "0xc17a340e"
    },
    {
      "constant": false,
      "inputs": [
        {
          "name": "_state",
          "type": "uint256"
        },
        {
          "name": "_nextDeadline",
          "type": "uint256"
        }
      ],
      "name": "setState",
      "outputs": [],
      "payable": false,
      "stateMutability": "nonpayable",
      "type": "function",
      "signature": "0xb9d77bfc"
    },
    {
      "constant": false,
      "inputs": [],
      "name": "clearProposerStake",
      "outputs": [],
      "payable": false,
      "stateMutability": "nonpayable",
      "type": "function",
      "signature": "0xcbd368bc"
    },
    {
      "constant": false,
      "inputs": [
        {
          "name": "_staker",
          "type": "address"
        }
      ],
      "name": "clearTokenStake",
      "outputs": [],
      "payable": false,
      "stateMutability": "nonpayable",
      "type": "function",
      "signature": "0x06a5ab2c"
    },
    {
      "constant": false,
      "inputs": [
        {
          "name": "_staker",
          "type": "address"
        }
      ],
      "name": "clearReputationStake",
      "outputs": [],
      "payable": false,
      "stateMutability": "nonpayable",
      "type": "function",
      "signature": "0x764c8a00"
    },
    {
      "constant": false,
      "inputs": [],
      "name": "clearStake",
      "outputs": [],
      "payable": false,
      "stateMutability": "nonpayable",
      "type": "function",
      "signature": "0x476da566"
    },
    {
      "constant": false,
      "inputs": [
        {
          "name": "_tasksLength",
          "type": "uint256"
        }
      ],
      "name": "setTaskLength",
      "outputs": [],
      "payable": false,
      "stateMutability": "nonpayable",
      "type": "function",
      "signature": "0x8a77e915"
    },
    {
      "constant": false,
      "inputs": [
        {
          "name": "_taskAddress",
          "type": "address"
        },
        {
          "name": "_index",
          "type": "uint256"
        }
      ],
      "name": "setTaskAddress",
      "outputs": [],
      "payable": false,
      "stateMutability": "nonpayable",
      "type": "function",
      "signature": "0x03f2f928"
    },
    {
      "constant": false,
      "inputs": [],
      "name": "setHashListSubmitted",
      "outputs": [],
      "payable": false,
      "stateMutability": "nonpayable",
      "type": "function",
      "signature": "0x26c1bffe"
    },
    {
      "constant": false,
      "inputs": [
        {
          "name": "_passAmount",
          "type": "uint256"
        }
      ],
      "name": "setPassAmount",
      "outputs": [],
      "payable": false,
      "stateMutability": "nonpayable",
      "type": "function",
      "signature": "0x0df44ec5"
    },
    {
      "constant": false,
      "inputs": [
        {
          "name": "_staker",
          "type": "address"
        },
        {
          "name": "_tokens",
          "type": "uint256"
        },
        {
          "name": "_weiValue",
          "type": "uint256"
        }
      ],
      "name": "stakeTokens",
      "outputs": [],
      "payable": false,
      "stateMutability": "nonpayable",
      "type": "function",
      "signature": "0x0cff8e8f"
    },
    {
      "constant": false,
      "inputs": [
        {
          "name": "_staker",
          "type": "address"
        },
        {
          "name": "_tokens",
          "type": "uint256"
        },
        {
          "name": "_hyphaToken",
          "type": "address"
        }
      ],
      "name": "unstakeTokens",
      "outputs": [
        {
          "name": "",
          "type": "uint256"
        }
      ],
      "payable": false,
      "stateMutability": "nonpayable",
      "type": "function",
      "signature": "0x181f8d24"
    },
    {
      "constant": false,
      "inputs": [
        {
          "name": "_staker",
          "type": "address"
        },
        {
          "name": "_reputation",
          "type": "uint256"
        }
      ],
      "name": "stakeReputation",
      "outputs": [],
      "payable": false,
      "stateMutability": "nonpayable",
      "type": "function",
      "signature": "0x7f306ba1"
    },
    {
      "constant": false,
      "inputs": [
        {
          "name": "_staker",
          "type": "address"
        },
        {
          "name": "_reputation",
          "type": "uint256"
        }
      ],
      "name": "unstakeReputation",
      "outputs": [],
      "payable": false,
      "stateMutability": "nonpayable",
      "type": "function",
      "signature": "0x3c79fe74"
    },
    {
      "constant": false,
      "inputs": [
        {
          "name": "_rewardee",
          "type": "address"
        },
        {
          "name": "_reward",
          "type": "uint256"
        }
      ],
      "name": "transferWeiReward",
      "outputs": [],
      "payable": false,
      "stateMutability": "nonpayable",
      "type": "function",
      "signature": "0xb10bbaab"
    },
    {
      "constant": false,
      "inputs": [
        {
          "name": "_hyphaToken",
          "type": "address"
        },
        {
          "name": "_value",
          "type": "uint256"
        }
      ],
      "name": "returnWei",
      "outputs": [],
      "payable": false,
      "stateMutability": "nonpayable",
      "type": "function",
      "signature": "0x7ec20fe8"
    }
  ],
  "bytecode": "0x608060405234801561001057600080fd5b506115e0806100206000396000f3fe6080604052600436106102af576000357c0100000000000000000000000000000000000000000000000000000000900480637ec20fe811610177578063b532b113116100de578063c19d93fb11610097578063c19d93fb1461087f578063c623674f14610894578063cbd368bc1461091e578063eb28c09814610933578063f58a1adb14610948578063ff04322d14610a3f576102af565b8063b532b113146107aa578063b56750fd146107dd578063b5b29838146107f2578063b7eabbf914610825578063b9d77bfc1461083a578063c17a340e1461086a576102af565b806399a033161161013057806399a03316146107085780639bebba0a1461071d578063a8e4fb9014610732578063b10bbaab14610747578063b11eda5a14610780578063b23dcdaf14610795576102af565b80637ec20fe8146106185780637f306ba114610651578063859558961461068a5780638a77e9151461069f5780638cf86deb146106c95780638d977672146106de576102af565b806336df7df71161021b57806353e0a9be116101d457806353e0a9be1461055e5780635a6fb81f146105915780635b9c161a146105a65780635be2aca0146105bb578063710c096e146105d0578063764c8a00146105e5576102af565b806336df7df71461048a578063378c12da1461049f5780633c79fe74146104c8578063476da566146105015780634b3a9a2c14610516578063523fba7f1461052b576102af565b80630df44ec51161026d5780630df44ec5146103c957806312ff35bc146103f357806316ddf02114610408578063181f8d241461041d578063205179841461046057806326c1bffe14610475576102af565b806232be7f146102b157806303f2f928146102e2578063065d5d0a1461031b57806306a5ab2c146103425780630c328306146103755780630cff8e8f1461038a575b005b3480156102bd57600080fd5b506102c6610a54565b60408051600160a060020a039092168252519081900360200190f35b3480156102ee57600080fd5b506102af6004803603604081101561030557600080fd5b50600160a060020a038135169060200135610a63565b34801561032757600080fd5b50610330610aca565b60408051918252519081900360200190f35b34801561034e57600080fd5b506102af6004803603602081101561036557600080fd5b5035600160a060020a0316610ad0565b34801561038157600080fd5b50610330610b2f565b34801561039657600080fd5b506102af600480360360608110156103ad57600080fd5b50600160a060020a038135169060208101359060400135610b35565b3480156103d557600080fd5b506102af600480360360208110156103ec57600080fd5b5035610bce565b3480156103ff57600080fd5b50610330610bea565b34801561041457600080fd5b50610330610bf0565b34801561042957600080fd5b506103306004803603606081101561044057600080fd5b50600160a060020a03813581169160208101359160409091013516610bf6565b34801561046c57600080fd5b50610330610d04565b34801561048157600080fd5b506102af610d0a565b34801561049657600080fd5b50610330610d30565b3480156104ab57600080fd5b506104b4610d36565b604080519115158252519081900360200190f35b3480156104d457600080fd5b506102af600480360360408110156104eb57600080fd5b50600160a060020a038135169060200135610d3f565b34801561050d57600080fd5b506102af610dc1565b34801561052257600080fd5b50610330610de4565b34801561053757600080fd5b506103306004803603602081101561054e57600080fd5b5035600160a060020a0316610dea565b34801561056a57600080fd5b506103306004803603602081101561058157600080fd5b5035600160a060020a0316610dfc565b34801561059d57600080fd5b50610330610e0e565b3480156105b257600080fd5b50610330610e14565b3480156105c757600080fd5b506102c6610e1a565b3480156105dc57600080fd5b50610330610e29565b3480156105f157600080fd5b506102af6004803603602081101561060857600080fd5b5035600160a060020a0316610e2f565b34801561062457600080fd5b506102af6004803603604081101561063b57600080fd5b50600160a060020a038135169060200135610e8e565b34801561065d57600080fd5b506102af6004803603604081101561067457600080fd5b50600160a060020a038135169060200135610ef6565b34801561069657600080fd5b50610330610f71565b3480156106ab57600080fd5b506102af600480360360208110156106c257600080fd5b5035610f77565b3480156106d557600080fd5b50610330610f9e565b3480156106ea57600080fd5b506102c66004803603602081101561070157600080fd5b5035610fa4565b34801561071457600080fd5b50610330610fcc565b34801561072957600080fd5b50610330610fd2565b34801561073e57600080fd5b506102c6610fd8565b34801561075357600080fd5b506102af6004803603604081101561076a57600080fd5b50600160a060020a038135169060200135610fe7565b34801561078c57600080fd5b50610330611015565b3480156107a157600080fd5b5061033061101b565b3480156107b657600080fd5b506104b4600480360360208110156107cd57600080fd5b5035600160a060020a0316611021565b3480156107e957600080fd5b506102c6611047565b3480156107fe57600080fd5b506104b46004803603602081101561081557600080fd5b5035600160a060020a0316611056565b34801561083157600080fd5b50610330611075565b34801561084657600080fd5b506102af6004803603604081101561085d57600080fd5b508035906020013561107b565b34801561087657600080fd5b5061033061109d565b34801561088b57600080fd5b506103306110a4565b3480156108a057600080fd5b506108a96110aa565b6040805160208082528351818301528351919283929083019185019080838360005b838110156108e35781810151838201526020016108cb565b50505050905090810190601f1680156109105780820380516001836020036101000a031916815260200191505b509250505060405180910390f35b34801561092a57600080fd5b506102af611138565b34801561093f57600080fd5b50610330611156565b34801561095457600080fd5b506102af600480360361012081101561096c57600080fd5b813591602081013591604082013591600160a060020a036060820135169160808201359160a08101359181019060e0810160c08201356401000000008111156109b457600080fd5b8201836020820111156109c657600080fd5b803590602001918460018302840111640100000000831117156109e857600080fd5b91908080601f01602080910402602001604051908101604052809392919081815260200183838082843760009201919091525092955050600160a060020a03833581169450602090930135909216915061115c9050565b348015610a4b57600080fd5b5061033061144f565b600154600160a060020a031681565b600254600160a060020a03163314610a7a57600080fd5b6003805414610a8857600080fd5b81601c82815481101515610a9857fe5b9060005260206000200160006101000a815481600160a060020a030219169083600160a060020a031602179055505050565b600e5481565b600054600160a060020a03163314610ae757600080fd5b600160a060020a038116600090815260186020526040902054601654610b129163ffffffff61145516565b601655600160a060020a0316600090815260186020526040812055565b600d5481565b600054600160a060020a03163314610b4c57600080fd5b600354600114610b5b57600080fd5b600160a060020a038316600090815260186020526040902054610b84908363ffffffff61146716565b600160a060020a038416600090815260186020526040902055601654610bb0908363ffffffff61146716565b601655600e54610bc6908263ffffffff61146716565b600e55505050565b600254600160a060020a03163314610be557600080fd5b601b55565b60135481565b600c5481565b60008054600160a060020a03163314610c0e57600080fd5b600354600114610c1d57600080fd5b6000610c546402540be400610c48600e54610c3c88601654600a61147d565b9063ffffffff6114b916565b9063ffffffff6114e116565b600160a060020a038616600090815260186020526040902054909150610c80908563ffffffff61145516565b600160a060020a038616600090815260186020526040902055601654610cac908563ffffffff61145516565b601655600e54610cc2908263ffffffff61145516565b600e55604051600160a060020a0384169082156108fc029083906000818181858888f19350505050158015610cfb573d6000803e3d6000fd5b50949350505050565b600f5481565b600254600160a060020a03163314610d2157600080fd5b601a805460ff19166001179055565b60145481565b601a5460ff1681565b600154600160a060020a03163314610d5657600080fd5b600354600114610d6557600080fd5b600160a060020a038216600090815260196020526040902054610d8e908263ffffffff61145516565b600160a060020a038316600090815260196020526040902055601754610dba908263ffffffff61145516565b6017555050565b600254600160a060020a03163314610dd857600080fd5b60006016819055601755565b600a5481565b60186020526000908152604090205481565b60196020526000908152604090205481565b60065481565b60105481565b600054600160a060020a031681565b60045481565b600154600160a060020a03163314610e4657600080fd5b600160a060020a038116600090815260196020526040902054601754610e719163ffffffff61145516565b601755600160a060020a0316600090815260196020526040812055565b600254600160a060020a03163314610ea557600080fd5b600e54610eb8908263ffffffff61145516565b600e55604051600160a060020a0383169082156108fc029083906000818181858888f19350505050158015610ef1573d6000803e3d6000fd5b505050565b600154600160a060020a03163314610f0d57600080fd5b600354600114610f1c57600080fd5b600160a060020a038216600090815260196020526040902054610f45908263ffffffff61146716565b600160a060020a038316600090815260196020526040902055601754610dba908263ffffffff61146716565b60075481565b600254600160a060020a03163314610f8e57600080fd5b80610f9a601c826114f8565b5050565b60115481565b601c805482908110610fb257fe5b600091825260209091200154600160a060020a0316905081565b60165481565b601b5481565b600b54600160a060020a031681565b600054600160a060020a031633148061100a5750600154600160a060020a031633145b1515610ea557600080fd5b60085481565b60175481565b60008054600160a060020a0383811691161461103e576000611041565b60015b92915050565b600254600160a060020a031681565b600154600090600160a060020a0383811691161461103e576000611041565b60095481565b600254600160a060020a0316331461109257600080fd5b600391909155600f55565b601c545b90565b60035481565b6015805460408051602060026001851615610100026000190190941693909304601f810184900484028201840190925281815292918301828280156111305780601f1061110557610100808354040283529160200191611130565b820191906000526020600020905b81548152906001019060200180831161111357829003601f168201915b505050505081565b600254600160a060020a0316331461114f57600080fd5b6000600d55565b60125481565b8251602e1461116a57600080fd5b600154600160a060020a03161561118057600080fd5b60018054600160a060020a0384811673ffffffffffffffffffffffffffffffffffffffff199283168117909355600080549185169183169190911790556002805490911633179055606460058b02046011819055601281905560108b9055808b0101601355604080517f18160ddd00000000000000000000000000000000000000000000000000000000815290516402540be40092916318160ddd916004808301926020929190829003018186803b15801561123b57600080fd5b505afa15801561124f573d6000803e3d6000fd5b505050506040513d602081101561126557600080fd5b5051890281151561127257fe5b046014556001600355600f879055600b805473ffffffffffffffffffffffffffffffffffffffff1916600160a060020a038816179055600c859055600d84905582516112c590601590602086019061151c565b5062093a80600481905562127500600581905560068290556007829055600882905560098290556064600a819055601354601454600354600f54600b54600c54604080518781526020810187905290810185905260608101849052600160a060020a039092166080830181905260a0830182905260e083018a90526101008381018a905261012084018b905261014084018b905261016084018b905261018084018b90526101a084018990526101c060c0850181815260158054600260018216159095026000190116939093049186018290527fa5b28abb07796d793327f8b0d715bb0b67648f84f7eba00b16b0ff4913abcd3c9c999b989a979996989397949692959294859384938493849392916101e08301908b9080156114295780601f106113fe57610100808354040283529160200191611429565b820191906000526020600020905b81548152906001019060200180831161140c57829003601f168201915b50509f5050505050505050505050505050505060405180910390a1505050505050505050565b60055481565b60008282111561146157fe5b50900390565b60008282018381101561147657fe5b9392505050565b600080831161148b57600080fd5b60018201600a90810a85029084828115156114a257fe5b046005018115156114af57fe5b0495945050505050565b60008215156114ca57506000611041565b8282028284828115156114d957fe5b041461147657fe5b60008082848115156114ef57fe5b04949350505050565b815481835581811115610ef157600083815260209020610ef191810190830161159a565b828054600181600116156101000203166002900490600052602060002090601f016020900481019282601f1061155d57805160ff191683800117855561158a565b8280016001018555821561158a579182015b8281111561158a57825182559160200191906001019061156f565b5061159692915061159a565b5090565b6110a191905b8082111561159657600081556001016115a056fea165627a7a72305820fec794b3998a73d35a5a7791800d3bc7dd3fbe709437ee011eb4f46fefd4539c0029",
  "source": "pragma solidity ^0.5.0;\n\nimport \"./ProjectRegistry.sol\";\nimport \"./ReputationRegistry.sol\";\nimport \"./Task.sol\";\nimport \"./library/SafeMath.sol\";\nimport \"./library/Division.sol\";\n\n/**\n@title An individual project in the distribute DAO system\n@author Team: Jessica Marshall, Ashoka Finley\n@notice This contract is used to manage the state of all project related parameters while also\nmaintaining a wei balance to be used in the case of reward. The project can be in 8 states, represented by\nintegers. They are as follows: [1: Proposed, 2: Staked, 3: Active, 4: Validation, 5: Voting, 6: Complete,\n7: Failed, 8: Expired]\n@dev This contract is managed and deployed by a Project Registry contract, and must be initialized\nwith a ReputationRegistry and TokenRegistry for full control.\n*/\ncontract Project {\n\n    using SafeMath for uint256;\n\n    // =====================================================================\n    // EVENTS\n    // =====================================================================\n\n    event LogProjectDetails(\n      uint weiCost,\n      uint reputationCost,\n      uint state,\n      uint nextDeadline,\n      address proposer,\n      uint proposerType,\n      bytes ipfsHash,\n      uint stakedStatePeriod,\n      uint activeStatePeriod,\n      uint turnoverTime,\n      uint validateStatePeriod,\n      uint voteCommitPeriod,\n      uint voteRevealPeriod,\n      uint passThreshold\n    );\n\n    /* event Transfer(address worker, uint reward); */\n\n    // =====================================================================\n    // STATE VARIABLES\n    // =====================================================================\n\n    address public tokenRegistryAddress;\n    address public reputationRegistryAddress;\n    address public projectRegistryAddress;\n\n    uint256 public state;\n\n    /*\n    POSSIBLE PROJECT STATES\n        1: Proposed,\n        2: Staked,\n        3: Active,\n        4: Validation,\n        5: Voting,\n        6: Complete,\n        7: Failed,\n        8: Expired\n    */\n\n    uint256 public stakedStatePeriod;\n    uint256 public activeStatePeriod;\n    uint256 public turnoverTime;\n    uint256 public validateStatePeriod;\n    uint256 public voteCommitPeriod;\n    uint256 public voteRevealPeriod;\n    uint256 public passThreshold;\n\n    address public proposer;\n    uint256 public proposerType;\n    uint256 public proposerStake;\n    uint256 public weiBal;\n    uint256 public nextDeadline;\n    uint256 public proposedCost;\n    uint256 public validationReward;\n    uint256 public originatorReward;\n    uint256 public weiCost;\n    uint256 public reputationCost;\n\n    bytes public ipfsHash;\n\n    uint256 public tokensStaked;\n    uint256 public reputationStaked;\n    mapping (address => uint) public tokenBalances;\n    mapping (address => uint) public reputationBalances;\n\n    bool public hashListSubmitted;\n    uint256 public passAmount;\n\n    // MAKE THIS A DLL EVENTUALLY?\n    address[] public tasks;\n\n    // =====================================================================\n    // MODIFIERS\n    // =====================================================================\n\n    modifier onlyPR() {\n        require(msg.sender == projectRegistryAddress);\n        _;\n    }\n\n    modifier onlyTR() {\n        require(msg.sender == tokenRegistryAddress);\n        _;\n    }\n\n    modifier onlyRR() {\n        require(msg.sender == reputationRegistryAddress);\n        _;\n    }\n\n    modifier onlyTRorRR() {\n        require(msg.sender == tokenRegistryAddress || msg.sender == reputationRegistryAddress);\n        _;\n    }\n\n    function isTR(address _sender) external view returns (bool) {\n        return _sender == tokenRegistryAddress\n            ? true\n            : false;\n    }\n\n    function isRR(address _sender) external view returns (bool) {\n        return _sender == reputationRegistryAddress\n            ? true\n            : false;\n    }\n\n    // =====================================================================\n    // CONSTRUCTOR\n    // =====================================================================\n\n    constructor () public {}\n    /**\n    @dev Used for proxy deployment of this contract. Initialize a Project with a Reputation Registry\n    and a Token Registry, and all related project values.\n    @param _cost The total cost of the project in wei\n    @param _costProportion The proportion of the project cost divided by theHyphaToken weiBal\n    represented as integer\n    @param _stakingPeriod The length of time the project is open for staking\n    @param _proposer The address of the user proposing the project\n    @param _proposerType Denotes if a proposer is proposing a project with reputation or tokens,\n    value must be 1: tokens or 2: reputation\n    @param _proposerStake The amount of reputation or tokens needed to create the proposal (5% of project cost)\n    @param _ipfsHash The ipfs hash of the full project description\n    @param _reputationRegistry Address of the Reputation Registry\n    @param _tokenRegistry Address of the Token Registry\n    */\n    function setup(\n        uint256 _cost,\n        uint256 _costProportion,\n        uint256 _stakingPeriod,\n        address _proposer,\n        uint256 _proposerType,\n        uint256 _proposerStake,\n        bytes memory _ipfsHash,\n        address _reputationRegistry,\n        address _tokenRegistry\n    ) public {\n        require(bytes(_ipfsHash).length == 46);\n        require(reputationRegistryAddress == address(0));\n        reputationRegistryAddress = _reputationRegistry;\n        tokenRegistryAddress = _tokenRegistry;\n        projectRegistryAddress = msg.sender;\n        validationReward = _cost * 5 / 100;\n        originatorReward = _cost * 5 / 100;\n        proposedCost = _cost;\n        weiCost = proposedCost + validationReward + originatorReward;\n        reputationCost = _costProportion * ReputationRegistry(_reputationRegistry).totalSupply() / 10000000000;\n        state = 1;\n        nextDeadline = _stakingPeriod;\n        proposer = _proposer;\n        proposerType = _proposerType;\n        proposerStake = _proposerStake;\n        ipfsHash = _ipfsHash;\n        // Proxies don't initialize variables\n        stakedStatePeriod = 1 weeks;\n        activeStatePeriod = 2 weeks;\n        turnoverTime = 1 weeks;\n        validateStatePeriod = 1 weeks;\n        voteCommitPeriod = 1 weeks;\n        voteRevealPeriod = 1 weeks;\n        passThreshold = 100;\n        emit LogProjectDetails(\n          weiCost,\n          reputationCost,\n          state,\n          nextDeadline,\n          proposer,\n          proposerType,\n          ipfsHash,\n          stakedStatePeriod,\n          activeStatePeriod,\n          turnoverTime,\n          validateStatePeriod,\n          voteCommitPeriod,\n          voteRevealPeriod,\n          passThreshold\n        );\n    }\n\n    // =====================================================================\n    // FALLBACK\n    // =====================================================================\n\n    function() external payable {}\n\n    // =====================================================================\n    // GETTERS\n    // =====================================================================\n    /**\n    @notice The amount of tasks created in the project during the Staked period.\n    @dev Helper function used by the project library to get the length of the task array\n    @return The number of tasks in the task array\n    */\n    function getTaskCount() external view returns (uint256) {\n        return tasks.length;\n    }\n\n    /* function getTaskAddress(uint256 _index) external view returns (address) {\n        return tasks[_index];\n    } */\n\n    // =====================================================================\n    // SETTERS\n    // =====================================================================\n\n    /**\n    @notice Set the project state to `_state`, and update the nextDeadline to `_nextDeadline`\n    @dev Only callable by the Project Registry that was initialized during construction\n    @param _state The state to update the project to\n    @param _nextDeadline The nextDeadline to transition project to the next state\n    */\n    function setState(uint256 _state, uint256 _nextDeadline) external onlyPR {\n        state = _state;\n        nextDeadline = _nextDeadline;\n    }\n\n    /**\n    @notice Clears the proposer stake on proposal expiration\n    @dev Only callable by the Project Registry initialized during construction\n    */\n    function clearProposerStake() external onlyPR {\n        proposerStake = 0;\n    }\n\n    /**\n    @notice Clear the token stake of `_staker`, used during stake claiming\n    @dev Only callable by the Token Registry initialized during construction\n    @param _staker Address of the staker\n    */\n    function clearTokenStake(address _staker) external onlyTR {\n        tokensStaked = tokensStaked.sub(tokenBalances[_staker]);\n        tokenBalances[_staker] = 0;\n    }\n\n    /**\n    @notice Clear the reputation stake of `_staker`, used during stake claiming\n    @dev Only callable by the Reputation Registry initialized during construction\n    @param _staker Address of the staker\n    */\n    function clearReputationStake(address _staker) external onlyRR {\n        reputationStaked = reputationStaked.sub(reputationBalances[_staker]);\n        reputationBalances[_staker] = 0;\n    }\n\n    /**\n    @notice Clear the stake of all stakers in the event of Project failure\n    @dev Only callable by the Project Registry initialized during construction, in the case of project failure\n    */\n    function clearStake() external onlyPR {\n        tokensStaked = 0;\n        reputationStaked = 0;\n    }\n\n    /**\n    @notice Set the number of project tasks to `_tasksLength` as defined by the project stakers\n    @dev Only callable by the Project Registry initialized during construction\n    @param _tasksLength The amount of tasks as defined by the project stakers\n    */\n    function setTaskLength(uint _tasksLength) external onlyPR {\n        tasks.length = _tasksLength;\n    }\n\n    /**\n    @notice Set the address of a task at index `_index`\n    @dev Only callable by the Project Registry initialized during construction\n    @param _taskAddress Address of the task contract\n    @param _index Index of the task in the tasks array\n    */\n    function setTaskAddress(address _taskAddress, uint _index) external onlyPR {\n        require(state == 3);\n        tasks[_index] = _taskAddress;\n    }\n\n    function setHashListSubmitted() external onlyPR {\n      hashListSubmitted = true;\n    }\n\n    /**\n    @notice Set the weighting of the amount of tasks that passed to `_passAmount`\n    @dev Only callable by the Project Registry initialized during construction\n    @param _passAmount The total weighting of all tasks which passed\n    */\n    function setPassAmount(uint256 _passAmount) external onlyPR {\n        passAmount = _passAmount;\n    }\n\n    // =====================================================================\n    // STAKE\n    // =====================================================================\n\n    /**\n    @notice Stake `_tokens` tokens from `_staker` and add `_weiValue` to the project ether balance\n    @dev Only callable by the Token Registry initialized during construction, to maintain control flow\n    @param _staker Address of the staker who is staking\n    @param _tokens Amount of tokens to stake on the project\n    @param _weiValue Amount of wei transferred to the project\n    */\n    function stakeTokens(address _staker, uint256 _tokens, uint256 _weiValue) external onlyTR {\n        require(state == 1);\n        tokenBalances[_staker] = tokenBalances[_staker].add(_tokens);\n        tokensStaked = tokensStaked.add(_tokens);\n        weiBal = weiBal.add(_weiValue);\n    }\n\n    /**\n    @notice Unstake `_tokens` tokens from the project, subtract this value from the balance of `_staker`\n    Returns the amount of ether to subtract from the project's ether balance\n    @dev Only callable by the Token Registry initialized during construction, to maintain control flow\n    @dev Only callable before the staking period of a proposed project ends (state must still be 1)\n    @param _staker Address of the staker who is unstaking\n    @param _tokens Amount of tokens to unstake on the project\n    @param _hyphaToken Address of distribute token contract\n    @return The amount of ether to deduct from the projects balance\n\n    */\n    function unstakeTokens(address _staker, uint256 _tokens, address payable _hyphaToken) external onlyTR returns (uint256) {\n        require(state == 1);\n        uint256 weiVal = (Division.percent(_tokens, tokensStaked, 10).mul(weiBal)).div(10000000000);\n        tokenBalances[_staker] = tokenBalances[_staker].sub(_tokens);\n        tokensStaked = tokensStaked.sub(_tokens);\n        weiBal = weiBal.sub(weiVal);\n        _hyphaToken.transfer(weiVal);\n        return weiVal;\n    }\n\n    /**\n    @notice Stake `_reputation` reputation from `_staker`\n    @dev Only callable by the Reputation Registry initialized during construction, to maintain control flow\n    @param _staker Address of the staker who is staking\n    @param _reputation Amount of reputation to stake on the project\n    */\n    function stakeReputation(address _staker, uint256 _reputation) external onlyRR {\n        require(state == 1);\n        reputationBalances[_staker] = reputationBalances[_staker].add(_reputation);\n        reputationStaked = reputationStaked.add(_reputation);\n    }\n\n    /**\n    @notice Unstake `_reputation` reputation from the project, and update staked balance of `_staker`\n    @dev Only callable by the Reputation Registry initialized during construction, to maintain control flow\n    @dev Only callable before the staking period of a proposed project ends (state must still be 1)\n    @param _staker Address of the staker who is unstaking\n    @param _reputation Amount of reputation to unstake on the project\n    */\n    function unstakeReputation(address _staker, uint256 _reputation) external onlyRR {\n        require(state == 1);\n        reputationBalances[_staker] = reputationBalances[_staker].sub(_reputation);\n        reputationStaked = reputationStaked.sub(_reputation);\n    }\n\n    // =====================================================================\n    // REWARD\n    // =====================================================================\n\n    /**\n    @notice Transfer `_reward` wei as reward for completing a task to `_rewardee\n    @dev Only callable by the Reputation Registry or Token Registry initialized during construction, to maintain control flow\n    @param _rewardee The account who claimed and completed the task.\n    @param _reward The amount of wei to transfer.\n    */\n    function transferWeiReward(address payable _rewardee, uint _reward) external onlyTRorRR {\n        weiBal = weiBal.sub(_reward);\n        _rewardee.transfer(_reward);\n    }\n\n    /**\n    @notice Transfer `_value` wei back to distribute token balance on task failure\n    @dev Only callable by the Project Registry initialized during construction, to maintain control flow\n    @param _hyphaToken The address of the systems token contract.\n    @param _value The amount of ether to send\n    */\n    function returnWei(address payable _hyphaToken, uint _value) external onlyPR {\n        weiBal = weiBal.sub(_value);\n        _hyphaToken.transfer(_value);\n    }\n\n}\n",
  "sourcePath": "/Users/shokishoki/development/hypha/distribute-app/contracts/contracts/Project.sol",
  "compiler": {
    "name": "solc",
    "version": "0.5.2+commit.1df8f40c.Emscripten.clang"
  },
  "schemaVersion": "3.0.0",
  "updatedAt": "2018-12-24T11:24:16.703Z",
  "devdoc": {
    "author": "Team: Jessica Marshall, Ashoka Finley",
    "details": "This contract is managed and deployed by a Project Registry contract, and must be initialized with a ReputationRegistry and TokenRegistry for full control.",
    "methods": {
      "clearProposerStake()": {
        "details": "Only callable by the Project Registry initialized during construction"
      },
      "clearReputationStake(address)": {
        "details": "Only callable by the Reputation Registry initialized during construction",
        "params": {
          "_staker": "Address of the staker"
        }
      },
      "clearStake()": {
        "details": "Only callable by the Project Registry initialized during construction, in the case of project failure"
      },
      "clearTokenStake(address)": {
        "details": "Only callable by the Token Registry initialized during construction",
        "params": {
          "_staker": "Address of the staker"
        }
      },
      "getTaskCount()": {
        "details": "Helper function used by the project library to get the length of the task array",
        "return": "The number of tasks in the task array"
      },
      "returnWei(address,uint256)": {
        "details": "Only callable by the Project Registry initialized during construction, to maintain control flow",
        "params": {
          "_hyphaToken": "The address of the systems token contract.",
          "_value": "The amount of ether to send"
        }
      },
      "setPassAmount(uint256)": {
        "details": "Only callable by the Project Registry initialized during construction",
        "params": {
          "_passAmount": "The total weighting of all tasks which passed"
        }
      },
      "setState(uint256,uint256)": {
        "details": "Only callable by the Project Registry that was initialized during construction",
        "params": {
          "_nextDeadline": "The nextDeadline to transition project to the next state",
          "_state": "The state to update the project to"
        }
      },
      "setTaskAddress(address,uint256)": {
        "details": "Only callable by the Project Registry initialized during construction",
        "params": {
          "_index": "Index of the task in the tasks array",
          "_taskAddress": "Address of the task contract"
        }
      },
      "setTaskLength(uint256)": {
        "details": "Only callable by the Project Registry initialized during construction",
        "params": {
          "_tasksLength": "The amount of tasks as defined by the project stakers"
        }
      },
      "setup(uint256,uint256,uint256,address,uint256,uint256,bytes,address,address)": {
        "details": "Used for proxy deployment of this contract. Initialize a Project with a Reputation Registry and a Token Registry, and all related project values.",
        "params": {
          "_cost": "The total cost of the project in wei",
          "_costProportion": "The proportion of the project cost divided by theHyphaToken weiBal represented as integer",
          "_ipfsHash": "The ipfs hash of the full project description",
          "_proposer": "The address of the user proposing the project",
          "_proposerStake": "The amount of reputation or tokens needed to create the proposal (5% of project cost)",
          "_proposerType": "Denotes if a proposer is proposing a project with reputation or tokens, value must be 1: tokens or 2: reputation",
          "_reputationRegistry": "Address of the Reputation Registry",
          "_stakingPeriod": "The length of time the project is open for staking",
          "_tokenRegistry": "Address of the Token Registry"
        }
      },
      "stakeReputation(address,uint256)": {
        "details": "Only callable by the Reputation Registry initialized during construction, to maintain control flow",
        "params": {
          "_reputation": "Amount of reputation to stake on the project",
          "_staker": "Address of the staker who is staking"
        }
      },
      "stakeTokens(address,uint256,uint256)": {
        "details": "Only callable by the Token Registry initialized during construction, to maintain control flow",
        "params": {
          "_staker": "Address of the staker who is staking",
          "_tokens": "Amount of tokens to stake on the project",
          "_weiValue": "Amount of wei transferred to the project"
        }
      },
      "transferWeiReward(address,uint256)": {
        "details": "Only callable by the Reputation Registry or Token Registry initialized during construction, to maintain control flow",
        "params": {
          "_reward": "The amount of wei to transfer.",
          "_rewardee": "The account who claimed and completed the task."
        }
      },
      "unstakeReputation(address,uint256)": {
        "details": "Only callable by the Reputation Registry initialized during construction, to maintain control flowOnly callable before the staking period of a proposed project ends (state must still be 1)",
        "params": {
          "_reputation": "Amount of reputation to unstake on the project",
          "_staker": "Address of the staker who is unstaking"
        }
      },
      "unstakeTokens(address,uint256,address)": {
        "details": "Only callable by the Token Registry initialized during construction, to maintain control flowOnly callable before the staking period of a proposed project ends (state must still be 1)",
        "params": {
          "_hyphaToken": "Address of distribute token contract",
          "_staker": "Address of the staker who is unstaking",
          "_tokens": "Amount of tokens to unstake on the project"
        },
        "return": "The amount of ether to deduct from the projects balance"
      }
    },
    "title": "An individual project in the distribute DAO system"
  },
  "userdoc": {
    "methods": {
      "clearProposerStake()": {
        "notice": "Clears the proposer stake on proposal expiration"
      },
      "clearReputationStake(address)": {
        "notice": "Clear the reputation stake of `_staker`, used during stake claiming"
      },
      "clearStake()": {
        "notice": "Clear the stake of all stakers in the event of Project failure"
      },
      "clearTokenStake(address)": {
        "notice": "Clear the token stake of `_staker`, used during stake claiming"
      },
      "getTaskCount()": {
        "notice": "The amount of tasks created in the project during the Staked period."
      },
      "returnWei(address,uint256)": {
        "notice": "Transfer `_value` wei back to distribute token balance on task failure"
      },
      "setPassAmount(uint256)": {
        "notice": "Set the weighting of the amount of tasks that passed to `_passAmount`"
      },
      "setState(uint256,uint256)": {
        "notice": "Set the project state to `_state`, and update the nextDeadline to `_nextDeadline`"
      },
      "setTaskAddress(address,uint256)": {
        "notice": "Set the address of a task at index `_index`"
      },
      "setTaskLength(uint256)": {
        "notice": "Set the number of project tasks to `_tasksLength` as defined by the project stakers"
      },
      "stakeReputation(address,uint256)": {
        "notice": "Stake `_reputation` reputation from `_staker`"
      },
      "stakeTokens(address,uint256,uint256)": {
        "notice": "Stake `_tokens` tokens from `_staker` and add `_weiValue` to the project ether balance"
      },
      "transferWeiReward(address,uint256)": {
        "notice": "Transfer `_reward` wei as reward for completing a task to `_rewardee"
      },
      "unstakeReputation(address,uint256)": {
        "notice": "Unstake `_reputation` reputation from the project, and update staked balance of `_staker`"
      },
      "unstakeTokens(address,uint256,address)": {
        "notice": "Unstake `_tokens` tokens from the project, subtract this value from the balance of `_staker` Returns the amount of ether to subtract from the project's ether balance"
      }
    },
    "notice": "This contract is used to manage the state of all project related parameters while also maintaining a wei balance to be used in the case of reward. The project can be in 8 states, represented by integers. They are as follows: [1: Proposed, 2: Staked, 3: Active, 4: Validation, 5: Voting, 6: Complete, 7: Failed, 8: Expired]"
  }
}