{
  "contractName": "ReputationRegistry",
  "abi": [
    {
      "constant": true,
      "inputs": [],
      "name": "initialRepVal",
      "outputs": [
        {
          "name": "",
          "type": "uint256"
        }
      ],
      "payable": false,
      "stateMutability": "view",
      "type": "function",
      "signature": "0x0db80324"
    },
    {
      "constant": true,
      "inputs": [],
      "name": "totalSupply",
      "outputs": [
        {
          "name": "",
          "type": "uint256"
        }
      ],
      "payable": false,
      "stateMutability": "view",
      "type": "function",
      "signature": "0x18160ddd"
    },
    {
      "constant": false,
      "inputs": [],
      "name": "renounceOwnership",
      "outputs": [],
      "payable": false,
      "stateMutability": "nonpayable",
      "type": "function",
      "signature": "0x715018a6"
    },
    {
      "constant": true,
      "inputs": [],
      "name": "owner",
      "outputs": [
        {
          "name": "",
          "type": "address"
        }
      ],
      "payable": false,
      "stateMutability": "view",
      "type": "function",
      "signature": "0x8da5cb5b"
    },
    {
      "constant": true,
      "inputs": [
        {
          "name": "",
          "type": "address"
        }
      ],
      "name": "users",
      "outputs": [
        {
          "name": "balance",
          "type": "uint256"
        },
        {
          "name": "registered",
          "type": "bool"
        },
        {
          "name": "lastAccess",
          "type": "uint256"
        }
      ],
      "payable": false,
      "stateMutability": "view",
      "type": "function",
      "signature": "0xa87430ba"
    },
    {
      "constant": true,
      "inputs": [],
      "name": "totalUsers",
      "outputs": [
        {
          "name": "",
          "type": "uint256"
        }
      ],
      "payable": false,
      "stateMutability": "view",
      "type": "function",
      "signature": "0xbff1f9e1"
    },
    {
      "constant": false,
      "inputs": [
        {
          "name": "_newOwner",
          "type": "address"
        }
      ],
      "name": "transferOwnership",
      "outputs": [],
      "payable": false,
      "stateMutability": "nonpayable",
      "type": "function",
      "signature": "0xf2fde38b"
    },
    {
      "anonymous": false,
      "inputs": [
        {
          "indexed": true,
          "name": "account",
          "type": "address"
        }
      ],
      "name": "LogRegister",
      "type": "event",
      "signature": "0x68f0f1b8c9e91743a8bf9b77af08d152d1cb9ac31eb5b472bf6e164672548855"
    },
    {
      "anonymous": false,
      "inputs": [
        {
          "indexed": false,
          "name": "projectAddress",
          "type": "address"
        },
        {
          "indexed": false,
          "name": "weiCost",
          "type": "uint256"
        },
        {
          "indexed": false,
          "name": "reputationCost",
          "type": "uint256"
        }
      ],
      "name": "LogProjectCreated",
      "type": "event",
      "signature": "0x809523e516336d444261958e529ac0ff837801879a12fe6b90c087a267adde4a"
    },
    {
      "anonymous": false,
      "inputs": [
        {
          "indexed": true,
          "name": "projectAddress",
          "type": "address"
        },
        {
          "indexed": false,
          "name": "reputation",
          "type": "uint256"
        },
        {
          "indexed": false,
          "name": "staker",
          "type": "address"
        },
        {
          "indexed": false,
          "name": "projectStaked",
          "type": "bool"
        }
      ],
      "name": "LogStakedReputation",
      "type": "event",
      "signature": "0xa9038987b8e5618a2c7a3e308278b49e810c8469e47a0c711bc1f8a4f2becf33"
    },
    {
      "anonymous": false,
      "inputs": [
        {
          "indexed": true,
          "name": "projectAddress",
          "type": "address"
        },
        {
          "indexed": false,
          "name": "reputation",
          "type": "uint256"
        },
        {
          "indexed": false,
          "name": "unstaker",
          "type": "address"
        }
      ],
      "name": "LogUnstakedReputation",
      "type": "event",
      "signature": "0xf6a0e5058c795a543a26bf169d4200fa3e1a083c8a44a890f19d230a93310cbc"
    },
    {
      "anonymous": false,
      "inputs": [
        {
          "indexed": true,
          "name": "projectAddress",
          "type": "address"
        },
        {
          "indexed": false,
          "name": "index",
          "type": "uint256"
        },
        {
          "indexed": false,
          "name": "votes",
          "type": "uint256"
        },
        {
          "indexed": false,
          "name": "secretHash",
          "type": "bytes32"
        },
        {
          "indexed": false,
          "name": "pollId",
          "type": "uint256"
        },
        {
          "indexed": false,
          "name": "voter",
          "type": "address"
        }
      ],
      "name": "LogReputationVoteCommitted",
      "type": "event",
      "signature": "0x0b7fb72d8f335ae1c604043323e2c7a5bba23d3d8455a459294266ba663fadda"
    },
    {
      "anonymous": false,
      "inputs": [
        {
          "indexed": true,
          "name": "projectAddress",
          "type": "address"
        },
        {
          "indexed": false,
          "name": "index",
          "type": "uint256"
        },
        {
          "indexed": false,
          "name": "vote",
          "type": "uint256"
        },
        {
          "indexed": false,
          "name": "salt",
          "type": "uint256"
        },
        {
          "indexed": false,
          "name": "voter",
          "type": "address"
        }
      ],
      "name": "LogReputationVoteRevealed",
      "type": "event",
      "signature": "0x4c78cacf867e841e28cd66dd3008e936bd835fed4036def8fb118056d88dd706"
    },
    {
      "anonymous": false,
      "inputs": [
        {
          "indexed": true,
          "name": "projectAddress",
          "type": "address"
        },
        {
          "indexed": false,
          "name": "index",
          "type": "uint256"
        },
        {
          "indexed": false,
          "name": "pollId",
          "type": "uint256"
        },
        {
          "indexed": false,
          "name": "voter",
          "type": "address"
        }
      ],
      "name": "LogReputationVoteRescued",
      "type": "event",
      "signature": "0xd07db17e3626b6053bca9a471be67ed4aabca276416a618eddc47bf85eafdf98"
    },
    {
      "anonymous": false,
      "inputs": [
        {
          "indexed": true,
          "name": "previousOwner",
          "type": "address"
        }
      ],
      "name": "OwnershipRenounced",
      "type": "event",
      "signature": "0xf8df31144d9c2f0f6b59d69b8b98abd5459d07f2742c4df920b25aae33c64820"
    },
    {
      "anonymous": false,
      "inputs": [
        {
          "indexed": true,
          "name": "previousOwner",
          "type": "address"
        },
        {
          "indexed": true,
          "name": "newOwner",
          "type": "address"
        }
      ],
      "name": "OwnershipTransferred",
      "type": "event",
      "signature": "0x8be0079c531659141344cd1fd0a4f28419497f9722a3daafe3b4186f6b6457e0"
    },
    {
      "constant": false,
      "inputs": [
        {
          "name": "_hyphaToken",
          "type": "address"
        },
        {
          "name": "_projectRegistry",
          "type": "address"
        },
        {
          "name": "_plcrVoting",
          "type": "address"
        }
      ],
      "name": "init",
      "outputs": [],
      "payable": false,
      "stateMutability": "nonpayable",
      "type": "function",
      "signature": "0x184b9559"
    },
    {
      "constant": true,
      "inputs": [],
      "name": "averageBalance",
      "outputs": [
        {
          "name": "",
          "type": "uint256"
        }
      ],
      "payable": false,
      "stateMutability": "view",
      "type": "function",
      "signature": "0x5d151b19"
    },
    {
      "constant": false,
      "inputs": [],
      "name": "freezeContract",
      "outputs": [],
      "payable": false,
      "stateMutability": "nonpayable",
      "type": "function",
      "signature": "0xa584a9b5"
    },
    {
      "constant": false,
      "inputs": [],
      "name": "unfreezeContract",
      "outputs": [],
      "payable": false,
      "stateMutability": "nonpayable",
      "type": "function",
      "signature": "0xf4917dd3"
    },
    {
      "constant": false,
      "inputs": [
        {
          "name": "_newPlcrVoting",
          "type": "address"
        }
      ],
      "name": "updatePLCRVoting",
      "outputs": [],
      "payable": false,
      "stateMutability": "nonpayable",
      "type": "function",
      "signature": "0x52a220b7"
    },
    {
      "constant": false,
      "inputs": [
        {
          "name": "_newHyphaToken",
          "type": "address"
        }
      ],
      "name": "updateHyphaToken",
      "outputs": [],
      "payable": false,
      "stateMutability": "nonpayable",
      "type": "function",
      "signature": "0xe94066c0"
    },
    {
      "constant": false,
      "inputs": [
        {
          "name": "_newProjectRegistry",
          "type": "address"
        }
      ],
      "name": "updateProjectRegistry",
      "outputs": [],
      "payable": false,
      "stateMutability": "nonpayable",
      "type": "function",
      "signature": "0xf3e6e08a"
    },
    {
      "constant": false,
      "inputs": [],
      "name": "register",
      "outputs": [],
      "payable": false,
      "stateMutability": "nonpayable",
      "type": "function",
      "signature": "0x1aa3a008"
    },
    {
      "constant": false,
      "inputs": [
        {
          "name": "_cost",
          "type": "uint256"
        },
        {
          "name": "_stakingPeriod",
          "type": "uint256"
        },
        {
          "name": "_ipfsHash",
          "type": "bytes"
        }
      ],
      "name": "proposeProject",
      "outputs": [],
      "payable": false,
      "stateMutability": "nonpayable",
      "type": "function",
      "signature": "0x74f8c4d2"
    },
    {
      "constant": false,
      "inputs": [
        {
          "name": "_projectAddress",
          "type": "address"
        }
      ],
      "name": "refundProposer",
      "outputs": [],
      "payable": false,
      "stateMutability": "nonpayable",
      "type": "function",
      "signature": "0x4012c2a2"
    },
    {
      "constant": false,
      "inputs": [
        {
          "name": "_projectAddress",
          "type": "address"
        },
        {
          "name": "_reputation",
          "type": "uint256"
        }
      ],
      "name": "stakeReputation",
      "outputs": [],
      "payable": false,
      "stateMutability": "nonpayable",
      "type": "function",
      "signature": "0x7f306ba1"
    },
    {
      "constant": false,
      "inputs": [
        {
          "name": "_projectAddress",
          "type": "address"
        },
        {
          "name": "_reputation",
          "type": "uint256"
        }
      ],
      "name": "unstakeReputation",
      "outputs": [],
      "payable": false,
      "stateMutability": "nonpayable",
      "type": "function",
      "signature": "0x3c79fe74"
    },
    {
      "constant": true,
      "inputs": [
        {
          "name": "_address",
          "type": "address"
        }
      ],
      "name": "calculateWeightOfAddress",
      "outputs": [
        {
          "name": "",
          "type": "uint256"
        }
      ],
      "payable": false,
      "stateMutability": "view",
      "type": "function",
      "signature": "0x8be1c84e"
    },
    {
      "constant": false,
      "inputs": [
        {
          "name": "_projectAddress",
          "type": "address"
        },
        {
          "name": "_index",
          "type": "uint256"
        },
        {
          "name": "_taskDescription",
          "type": "bytes32"
        },
        {
          "name": "_weighting",
          "type": "uint256"
        }
      ],
      "name": "claimTask",
      "outputs": [],
      "payable": false,
      "stateMutability": "nonpayable",
      "type": "function",
      "signature": "0x1b73e095"
    },
    {
      "constant": false,
      "inputs": [
        {
          "name": "_projectAddress",
          "type": "address"
        },
        {
          "name": "_index",
          "type": "uint256"
        }
      ],
      "name": "rewardTask",
      "outputs": [],
      "payable": false,
      "stateMutability": "nonpayable",
      "type": "function",
      "signature": "0x1704e425"
    },
    {
      "constant": false,
      "inputs": [
        {
          "name": "_projectAddress",
          "type": "address"
        },
        {
          "name": "_index",
          "type": "uint256"
        },
        {
          "name": "_votes",
          "type": "uint256"
        },
        {
          "name": "_secretHash",
          "type": "bytes32"
        },
        {
          "name": "_prevPollID",
          "type": "uint256"
        }
      ],
      "name": "voteCommit",
      "outputs": [],
      "payable": false,
      "stateMutability": "nonpayable",
      "type": "function",
      "signature": "0x2f27ea1f"
    },
    {
      "constant": false,
      "inputs": [
        {
          "name": "_projectAddress",
          "type": "address"
        },
        {
          "name": "_index",
          "type": "uint256"
        },
        {
          "name": "_voteOption",
          "type": "uint256"
        },
        {
          "name": "_salt",
          "type": "uint256"
        }
      ],
      "name": "voteReveal",
      "outputs": [],
      "payable": false,
      "stateMutability": "nonpayable",
      "type": "function",
      "signature": "0xe096fff0"
    },
    {
      "constant": false,
      "inputs": [
        {
          "name": "_votes",
          "type": "uint256"
        }
      ],
      "name": "refundVotingReputation",
      "outputs": [],
      "payable": false,
      "stateMutability": "nonpayable",
      "type": "function",
      "signature": "0x40848987"
    },
    {
      "constant": false,
      "inputs": [
        {
          "name": "_projectAddress",
          "type": "address"
        }
      ],
      "name": "refundStaker",
      "outputs": [],
      "payable": false,
      "stateMutability": "nonpayable",
      "type": "function",
      "signature": "0x5c352318"
    },
    {
      "constant": false,
      "inputs": [
        {
          "name": "_projectAddress",
          "type": "address"
        },
        {
          "name": "_index",
          "type": "uint256"
        }
      ],
      "name": "rescueTokens",
      "outputs": [],
      "payable": false,
      "stateMutability": "nonpayable",
      "type": "function",
      "signature": "0x57376198"
    },
    {
      "constant": false,
      "inputs": [
        {
          "name": "_reputation",
          "type": "uint256"
        }
      ],
      "name": "burnReputation",
      "outputs": [],
      "payable": false,
      "stateMutability": "nonpayable",
      "type": "function",
      "signature": "0x9c6c3439"
    }
  ],
  "bytecode": "0x6080604052642e90edd000600755606460085561271060095560008054600160a060020a03191633179055612819806100396000396000f3fe608060405234801561001057600080fd5b50600436106101c85760003560e060020a90048063715018a6116100fd578063a87430ba1161009b578063e94066c011610075578063e94066c014610565578063f2fde38b1461058b578063f3e6e08a146105b1578063f4917dd3146105d7576101c8565b8063a87430ba146104e1578063bff1f9e114610525578063e096fff01461052d576101c8565b80638be1c84e116100d75780638be1c84e146104725780638da5cb5b146104985780639c6c3439146104bc578063a584a9b5146104d9576101c8565b8063715018a6146103c257806374f8c4d2146103ca5780637f306ba114610446576101c8565b80633c79fe741161016a57806352a220b71161014457806352a220b71461034257806357376198146103685780635c352318146103945780635d151b19146103ba576101c8565b80633c79fe74146102d35780634012c2a2146102ff5780634084898714610325576101c8565b8063184b9559116101a6578063184b95591461021d5780631aa3a008146102555780631b73e0951461025d5780632f27ea1f14610295576101c8565b80630db80324146101cd5780631704e425146101e757806318160ddd14610215575b600080fd5b6101d56105df565b60408051918252519081900360200190f35b610213600480360360408110156101fd57600080fd5b50600160a060020a0381351690602001356105e5565b005b6101d561074a565b6102136004803603606081101561023357600080fd5b50600160a060020a038135811691602081013582169160409091013516610750565b6102136107e1565b6102136004803603608081101561027357600080fd5b50600160a060020a0381351690602081013590604081013590606001356108ab565b610213600480360360a08110156102ab57600080fd5b50600160a060020a038135169060208101359060408101359060608101359060800135610b9c565b610213600480360360408110156102e957600080fd5b50600160a060020a038135169060200135610fb1565b6102136004803603602081101561031557600080fd5b5035600160a060020a03166111c8565b6102136004803603602081101561033b57600080fd5b503561142b565b6102136004803603602081101561035857600080fd5b5035600160a060020a031661159a565b6102136004803603604081101561037e57600080fd5b50600160a060020a0381351690602001356115e0565b610213600480360360208110156103aa57600080fd5b5035600160a060020a031661184d565b6101d5611b28565b610213611b46565b610213600480360360608110156103e057600080fd5b81359160208101359181019060608101604082013564010000000081111561040757600080fd5b82018360208201111561041957600080fd5b8035906020019184600183028401116401000000008311171561043b57600080fd5b509092509050611bb2565b6102136004803603604081101561045c57600080fd5b50600160a060020a038135169060200135611e13565b6101d56004803603602081101561048857600080fd5b5035600160a060020a0316612286565b6104a06122b4565b60408051600160a060020a039092168252519081900360200190f35b610213600480360360208110156104d257600080fd5b50356122c3565b6102136122f6565b610507600480360360208110156104f757600080fd5b5035600160a060020a031661231c565b60408051938452911515602084015282820152519081900360600190f35b6101d5612340565b6102136004803603608081101561054357600080fd5b50600160a060020a038135169060208101359060408101359060600135612346565b6102136004803603602081101561057b57600080fd5b5035600160a060020a03166125ce565b610213600480360360208110156105a157600080fd5b5035600160a060020a0316612614565b610213600480360360208110156105c757600080fd5b5035600160a060020a0316612637565b61021361267d565b60095481565b600a5460ff16156105f557600080fd5b6002546040805160e060020a63840e78fd028152600160a060020a0385811660048301529151919092169163840e78fd916024808301926020929190829003018186803b15801561064557600080fd5b505afa158015610659573d6000803e3d6000fd5b505050506040513d602081101561066f57600080fd5b5051151560011461067f57600080fd5b604080517f25bc963e000000000000000000000000000000000000000000000000000000008152600160a060020a038416600482015260248101839052336044820152905160009173__ProjectLibrary________________________916325bc963e91606480820192602092909190829003018186803b15801561070357600080fd5b505af4158015610717573d6000803e3d6000fd5b505050506040513d602081101561072d57600080fd5b505133600090815260046020526040902080549091019055505050565b60055481565b600154600160a060020a03161580156107725750600254600160a060020a0316155b80156107875750600354600160a060020a0316155b151561079257600080fd5b60028054600160a060020a0393841673ffffffffffffffffffffffffffffffffffffffff1991821617909155600380549284169282169290921790915560018054939092169216919091179055565b600a5460ff16156107f157600080fd5b3360009081526004602052604090205415801561082157503360009081526004602052604090206001015460ff16155b151561082c57600080fd5b3360009081526004602052604090206001818101805460ff19169091179055600954908190556005546108649163ffffffff6126a016565b60055560065461087b90600163ffffffff6126a016565b60065560405133907f68f0f1b8c9e91743a8bf9b77af08d152d1cb9ac31eb5b472bf6e16467254885590600090a2565b600a5460ff16156108bb57600080fd5b6002546040805160e060020a63840e78fd028152600160a060020a0387811660048301529151919092169163840e78fd916024808301926020929190829003018186803b15801561090b57600080fd5b505afa15801561091f573d6000803e3d6000fd5b505050506040513d602081101561093557600080fd5b5051151560011461094557600080fd5b600084905080600160a060020a031663378c12da6040518163ffffffff1660e060020a02815260040160206040518083038186803b15801561098657600080fd5b505afa15801561099a573d6000803e3d6000fd5b505050506040513d60208110156109b057600080fd5b505115156001146109c057600080fd5b600060648383600160a060020a03166336df7df76040518163ffffffff1660e060020a02815260040160206040518083038186803b158015610a0157600080fd5b505afa158015610a15573d6000803e3d6000fd5b505050506040513d6020811015610a2b57600080fd5b505102811515610a3757fe5b336000908152600460205260409020549190049150811115610a5857600080fd5b600060648484600160a060020a0316635b9c161a6040518163ffffffff1660e060020a02815260040160206040518083038186803b158015610a9957600080fd5b505afa158015610aad573d6000803e3d6000fd5b505050506040513d6020811015610ac357600080fd5b505102811515610acf57fe5b3360008181526004602081905260408083208054899003905560025481517f3330dcd8000000000000000000000000000000000000000000000000000000008152600160a060020a038f811694820194909452602481018e9052604481018d90526064810195909552608485018b90529590940460a4840181905260c48401889052935193955090931692633330dcd89260e48084019382900301818387803b158015610b7b57600080fd5b505af1158015610b8f573d6000803e3d6000fd5b5050505050505050505050565b600a5460ff1615610bac57600080fd5b6002546040805160e060020a63840e78fd028152600160a060020a0388811660048301529151919092169163840e78fd916024808301926020929190829003018186803b158015610bfc57600080fd5b505afa158015610c10573d6000803e3d6000fd5b505050506040513d6020811015610c2657600080fd5b50511515600114610c3657600080fd5b600085600160a060020a0316638d977672866040518263ffffffff1660e060020a0281526004018082815260200191505060206040518083038186803b158015610c7f57600080fd5b505afa158015610c93573d6000803e3d6000fd5b505050506040513d6020811015610ca957600080fd5b5051604080517f6f13ab000000000000000000000000000000000000000000000000000000000081529051600160a060020a0390921691636f13ab0091600480820192602092909190829003018186803b158015610d0657600080fd5b505afa158015610d1a573d6000803e3d6000fd5b505050506040513d6020811015610d3057600080fd5b5051600354604080517f9f68ce54000000000000000000000000000000000000000000000000000000008152336004820152600260248201529051929350600092600160a060020a0390921691639f68ce5491604480820192602092909190829003018186803b158015610da357600080fd5b505afa158015610db7573d6000803e3d6000fd5b505050506040513d6020811015610dcd57600080fd5b5051905084811015610eb6576000610dfc610de7836126b6565b610df0886126b6565b9063ffffffff6126c816565b33600090815260046020526040902054909150811115610e1b57600080fd5b3360008181526004602081905260408083208054869003905560035481517fc5fa801b00000000000000000000000000000000000000000000000000000000815292830194909452858a03602483015251600160a060020a039093169263c5fa801b9260448084019391929182900301818387803b158015610e9c57600080fd5b505af1158015610eb0573d6000803e3d6000fd5b50505050505b600354604080517f5e28fd5e000000000000000000000000000000000000000000000000000000008152336004820152602481018590526044810187905260648101889052608481018690529051600160a060020a0390921691635e28fd5e9160a48082019260009290919082900301818387803b158015610f3757600080fd5b505af1158015610f4b573d6000803e3d6000fd5b50506040805189815260208101899052808201889052606081018690523360808201529051600160a060020a038b1693507f0b7fb72d8f335ae1c604043323e2c7a5bba23d3d8455a459294266ba663fadda92509081900360a00190a250505050505050565b600a5460ff1615610fc157600080fd5b6002546040805160e060020a63840e78fd028152600160a060020a0385811660048301529151919092169163840e78fd916024808301926020929190829003018186803b15801561101157600080fd5b505afa158015611025573d6000803e3d6000fd5b505050506040513d602081101561103b57600080fd5b5051151560011461104b57600080fd5b6000811161105857600080fd5b600254604080517f247f8e14000000000000000000000000000000000000000000000000000000008152600160a060020a0385811660048301529151919092169163247f8e149160248083019260209291908290030181600087803b1580156110c057600080fd5b505af11580156110d4573d6000803e3d6000fd5b505050506040513d60208110156110ea57600080fd5b505033600081815260046020819052604080832080548601905580517f3c79fe7400000000000000000000000000000000000000000000000000000000815291820193909352602481018490529151600160a060020a03851692633c79fe7492604480830193919282900301818387803b15801561116757600080fd5b505af115801561117b573d6000803e3d6000fd5b5050604080518481523360208201528151600160a060020a03871694507ff6a0e5058c795a543a26bf169d4200fa3e1a083c8a44a890f19d230a93310cbc93509081900390910190a25050565b600a5460ff16156111d857600080fd5b600081905033600160a060020a031681600160a060020a031663a8e4fb906040518163ffffffff1660e060020a02815260040160206040518083038186803b15801561122357600080fd5b505afa158015611237573d6000803e3d6000fd5b505050506040513d602081101561124d57600080fd5b5051600160a060020a03161461126257600080fd5b80600160a060020a03166316ddf0216040518163ffffffff1660e060020a02815260040160206040518083038186803b15801561129e57600080fd5b505afa1580156112b2573d6000803e3d6000fd5b505050506040513d60208110156112c857600080fd5b50516002146112d657600080fd5b6112de6127d2565b600254604080517faab1d6df000000000000000000000000000000000000000000000000000000008152600160a060020a038681166004830152336024830152825193169263aab1d6df926044808401939192918290030181600087803b15801561134857600080fd5b505af115801561135c573d6000803e3d6000fd5b505050506040513d601f19601f82011682018060405250604081101561138157600080fd5b5060208181015133600081815260049384905260408082208054909401909355600154855184517f53c333cd00000000000000000000000000000000000000000000000000000000815295860193909352601490920460248501529151939450600160a060020a0316926353c333cd92604480820193929182900301818387803b15801561140e57600080fd5b505af1158015611422573d6000803e3d6000fd5b50505050505050565b600a5460ff161561143b57600080fd5b600354604080517f9f68ce54000000000000000000000000000000000000000000000000000000008152336004820152600260248201529051600092600160a060020a031691639f68ce54916044808301926020929190829003018186803b1580156114a657600080fd5b505afa1580156114ba573d6000803e3d6000fd5b505050506040513d60208110156114d057600080fd5b50519050808211156114e157600080fd5b60006114ee8383036126b6565b6114f7836126b6565b600354604080517fef348e40000000000000000000000000000000000000000000000000000000008152336004820152602481018890529051939092039350600160a060020a03169163ef348e409160448082019260009290919082900301818387803b15801561156757600080fd5b505af115801561157b573d6000803e3d6000fd5b5050336000908152600460205260409020805490930190925550505050565b600054600160a060020a031633146115b157600080fd5b6003805473ffffffffffffffffffffffffffffffffffffffff1916600160a060020a0392909216919091179055565b600a5460ff16156115f057600080fd5b6002546040805160e060020a63840e78fd028152600160a060020a0385811660048301529151919092169163840e78fd916024808301926020929190829003018186803b15801561164057600080fd5b505afa158015611654573d6000803e3d6000fd5b505050506040513d602081101561166a57600080fd5b5051151560011461167a57600080fd5b600082600160a060020a0316638d977672836040518263ffffffff1660e060020a0281526004018082815260200191505060206040518083038186803b1580156116c357600080fd5b505afa1580156116d7573d6000803e3d6000fd5b505050506040513d60208110156116ed57600080fd5b5051604080517f6f13ab000000000000000000000000000000000000000000000000000000000081529051600160a060020a0390921691636f13ab0091600480820192602092909190829003018186803b15801561174a57600080fd5b505afa15801561175e573d6000803e3d6000fd5b505050506040513d602081101561177457600080fd5b5051600354604080517f57376198000000000000000000000000000000000000000000000000000000008152336004820152602481018490529051929350600160a060020a039091169163573761989160448082019260009290919082900301818387803b1580156117e557600080fd5b505af11580156117f9573d6000803e3d6000fd5b5050604080518581526020810185905233818301529051600160a060020a03871693507fd07db17e3626b6053bca9a471be67ed4aabca276416a618eddc47bf85eafdf9892509081900360600190a2505050565b600a5460ff161561185d57600080fd5b6002546040805160e060020a63840e78fd028152600160a060020a0384811660048301529151919092169163840e78fd916024808301926020929190829003018186803b1580156118ad57600080fd5b505afa1580156118c1573d6000803e3d6000fd5b505050506040513d60208110156118d757600080fd5b505115156001146118e757600080fd5b604080517fb7d00f73000000000000000000000000000000000000000000000000000000008152600160a060020a0383166004820152336024820152306044820152905160009173__ProjectLibrary________________________9163b7d00f7391606480820192602092909190829003018186803b15801561196a57600080fd5b505af415801561197e573d6000803e3d6000fd5b505050506040513d602081101561199457600080fd5b50519050600081116119a557600080fd5b604080517f764c8a000000000000000000000000000000000000000000000000000000000081523360048201529051600160a060020a0384169163764c8a0091602480830192600092919082900301818387803b158015611a0557600080fd5b505af1158015611a19573d6000803e3d6000fd5b505033600090815260046020526040902054611a3e925090508263ffffffff6126a016565b336000908152600460208181526040928390209390935581517fc19d93fb0000000000000000000000000000000000000000000000000000000081529151600160a060020a0386169363c19d93fb938084019391929190829003018186803b158015611aa957600080fd5b505afa158015611abd573d6000803e3d6000fd5b505050506040513d6020811015611ad357600080fd5b505160061415611b2457336000908152600460205260409020546002820490611afc90826126a0565b33600090815260046020526040902055600554611b1f908263ffffffff6126a016565b600555505b5050565b6000611b416006546005546126da90919063ffffffff16565b905090565b600054600160a060020a03163314611b5d57600080fd5b60008054604051600160a060020a03909116917ff8df31144d9c2f0f6b59d69b8b98abd5459d07f2742c4df920b25aae33c6482091a26000805473ffffffffffffffffffffffffffffffffffffffff19169055565b600a5460ff1615611bc257600080fd5b8242108015611bd15750600084115b1515611bdc57600080fd5b6000611c6685600160009054906101000a9004600160a060020a0316600160a060020a031663065d5d0a6040518163ffffffff1660e060020a02815260040160206040518083038186803b158015611c3357600080fd5b505afa158015611c47573d6000803e3d6000fd5b505050506040513d6020811015611c5d57600080fd5b5051600a6126f1565b905060006402540be400600554611c8184600754600a6126f1565b02811515611c8b57fe5b336000908152600460205260409020549190049150811115611cac57600080fd5b336000818152600460208190526040808320805486900390556002805491517f8b4dfc2f0000000000000000000000000000000000000000000000000000000081529283018b815260248401889052604484018b9052606484018690526084840182905260a4840187905260e060c4850190815260e485018a90529495600160a060020a0390931694638b4dfc2f948d948a948e94919390928b928f928f9261010401848480828437600081840152601f19601f8201169050808301925050509950505050505050505050602060405180830381600087803b158015611d9157600080fd5b505af1158015611da5573d6000803e3d6000fd5b505050506040513d6020811015611dbb57600080fd5b505160408051600160a060020a0383168152602081018a905280820185905290519192507f809523e516336d444261958e529ac0ff837801879a12fe6b90c087a267adde4a919081900360600190a150505050505050565b600a5460ff1615611e2357600080fd5b6002546040805160e060020a63840e78fd028152600160a060020a0385811660048301529151919092169163840e78fd916024808301926020929190829003018186803b158015611e7357600080fd5b505afa158015611e87573d6000803e3d6000fd5b505050506040513d6020811015611e9d57600080fd5b50511515600114611ead57600080fd5b336000908152600460205260409020548111801590611ecc5750600081115b1515611ed757600080fd5b600254604080517f247f8e14000000000000000000000000000000000000000000000000000000008152600160a060020a03808616600483015291518593929092169163247f8e14916024808201926020929091908290030181600087803b158015611f4257600080fd5b505af1158015611f56573d6000803e3d6000fd5b505050506040513d6020811015611f6c57600080fd5b5050604080517fc19d93fb0000000000000000000000000000000000000000000000000000000081529051600160a060020a0383169163c19d93fb916004808301926020929190829003018186803b158015611fc757600080fd5b505afa158015611fdb573d6000803e3d6000fd5b505050506040513d6020811015611ff157600080fd5b5051600114611fff57600080fd5b600081600160a060020a031663b23dcdaf6040518163ffffffff1660e060020a02815260040160206040518083038186803b15801561203d57600080fd5b505afa158015612051573d6000803e3d6000fd5b505050506040513d602081101561206757600080fd5b5051604080517f36df7df70000000000000000000000000000000000000000000000000000000081529051600160a060020a038516916336df7df7916004808301926020929190829003018186803b1580156120c257600080fd5b505afa1580156120d6573d6000803e3d6000fd5b505050506040513d60208110156120ec57600080fd5b505103905060008184106121005781612102565b835b3360008181526004602081905260408083208054869003905580517f7f306ba100000000000000000000000000000000000000000000000000000000815291820193909352602481018490529151929350600160a060020a03881692637f306ba192604480820193929182900301818387803b15801561218157600080fd5b505af1158015612195573d6000803e3d6000fd5b5050600254604080517f247f8e14000000000000000000000000000000000000000000000000000000008152600160a060020a038a8116600483015291516000955091909216925063247f8e149160248082019260209290919082900301818787803b15801561220457600080fd5b505af1158015612218573d6000803e3d6000fd5b505050506040513d602081101561222e57600080fd5b505160408051878152336020820152821515818301529051919250600160a060020a038816917fa9038987b8e5618a2c7a3e308278b49e810c8469e47a0c711bc1f8a4f2becf339181900360600190a2505050505050565b600160a060020a0381166000908152600460205260408120546005546122ae9190600f6126f1565b92915050565b600054600160a060020a031681565b600254600160a060020a031633146122da57600080fd5b600a5460ff16156122ea57600080fd5b60058054919091039055565b600054600160a060020a0316331461230d57600080fd5b600a805460ff19166001179055565b600460205260009081526040902080546001820154600290920154909160ff169083565b60065481565b600a5460ff161561235657600080fd5b6002546040805160e060020a63840e78fd028152600160a060020a0387811660048301529151919092169163840e78fd916024808301926020929190829003018186803b1580156123a657600080fd5b505afa1580156123ba573d6000803e3d6000fd5b505050506040513d60208110156123d057600080fd5b505115156001146123e057600080fd5b600354604080517f8d977672000000000000000000000000000000000000000000000000000000008152600481018690529051600160a060020a039283169263bfd9957192339291891691638d97767291602480820192602092909190829003018186803b15801561245157600080fd5b505afa158015612465573d6000803e3d6000fd5b505050506040513d602081101561247b57600080fd5b5051604080517f6f13ab000000000000000000000000000000000000000000000000000000000081529051600160a060020a0390921691636f13ab0091600480820192602092909190829003018186803b1580156124d857600080fd5b505afa1580156124ec573d6000803e3d6000fd5b505050506040513d602081101561250257600080fd5b50516040805160e060020a63ffffffff8616028152600160a060020a0390931660048401526024830191909152604482018690526064820185905251608480830192600092919082900301818387803b15801561255e57600080fd5b505af1158015612572573d6000803e3d6000fd5b505060408051868152602081018690528082018590523360608201529051600160a060020a03881693507f4c78cacf867e841e28cd66dd3008e936bd835fed4036def8fb118056d88dd70692509081900360800190a250505050565b600054600160a060020a031633146125e557600080fd5b6001805473ffffffffffffffffffffffffffffffffffffffff1916600160a060020a0392909216919091179055565b600054600160a060020a0316331461262b57600080fd5b6126348161272d565b50565b600054600160a060020a0316331461264e57600080fd5b6002805473ffffffffffffffffffffffffffffffffffffffff1916600160a060020a0392909216919091179055565b600054600160a060020a0316331461269457600080fd5b600a805460ff19169055565b6000828201838110156126af57fe5b9392505050565b60006122ae828063ffffffff6127aa16565b6000828211156126d457fe5b50900390565b60008082848115156126e857fe5b04949350505050565b60008083116126ff57600080fd5b60018201600a90810a850290848281151561271657fe5b0460050181151561272357fe5b0495945050505050565b600160a060020a038116151561274257600080fd5b60008054604051600160a060020a03808516939216917f8be0079c531659141344cd1fd0a4f28419497f9722a3daafe3b4186f6b6457e091a36000805473ffffffffffffffffffffffffffffffffffffffff1916600160a060020a0392909216919091179055565b60008215156127bb575060006122ae565b8282028284828115156127ca57fe5b04146126af57fe5b6040805180820182529060029082908038833950919291505056fea165627a7a7230582081b10bcdec42b4ad4d60f9b96542d62706cb6f263d124e0267d9ef764e4a64a50029",
  "source": "pragma solidity ^0.5.0;\n\nimport \"./Project.sol\";\nimport \"./ProjectLibrary.sol\";\nimport \"./ProjectRegistry.sol\";\nimport \"./HyphaToken.sol\";\nimport \"./Task.sol\";\nimport \"./library/PLCRVoting.sol\";\nimport \"./library/Division.sol\";\nimport \"./library/SafeMath.sol\";\nimport \"./library/Ownable.sol\";\n/**\n@title Reputation Registry for Distribute Network\n@author Team: Jessica Marshall, Ashoka Finley\n@notice This contract manages the reputation balances of each user and serves as the interface through\nwhich users stake reputation, come to consensus around tasks, claim tasks, vote, refund their stakes,\nand claim their task rewards. This contract also registers users and instantiates their accounts with 10.000 reputation\n@dev This contract must be initialized with the address of a valid HyphaToken, ProjectRegistry,\nand PLCR Voting contract\n*/\n// ===================================================================== //\n//\n// ===================================================================== //\ncontract ReputationRegistry is Ownable {\n\n    using ProjectLibrary for address;\n    using SafeMath for uint256;\n\n    // =====================================================================\n    // EVENTS\n    // =====================================================================\n\n    event LogRegister(\n        address indexed account\n    );\n\n    event LogProjectCreated(address projectAddress, uint256 weiCost, uint256 reputationCost);\n    event LogStakedReputation(address indexed projectAddress, uint256 reputation, address staker, bool projectStaked);\n    event LogUnstakedReputation(address indexed projectAddress, uint256 reputation, address unstaker);\n    event LogReputationVoteCommitted(address indexed projectAddress, uint256 index, uint256 votes, bytes32 secretHash, uint256 pollId, address voter);\n    event LogReputationVoteRevealed(address indexed projectAddress, uint256 index, uint256 vote, uint256 salt, address voter);\n    event LogReputationVoteRescued(address indexed projectAddress, uint256 index, uint256 pollId, address voter);\n\n    // =====================================================================\n    // STATE VARIABLES\n    // =====================================================================\n\n    HyphaToken hyphaToken;\n    ProjectRegistry projectRegistry;\n    PLCRVoting plcrVoting;\n\n    struct User {\n      uint balance;\n      bool registered; //indicates if address has registerd\n      uint lastAccess;\n    }\n    mapping (address => User) public users;\n    // make this a struct and save the mapping\n\n    uint256 public totalSupply;               //total supply of reputation in all states\n    uint256 public totalUsers;\n\n    uint256 proposeProportion = 20 * 10000000000; // tokensupply/proposeProportion is the number of tokens the proposer must stake\n    uint256 rewardProportion = 100;\n    uint256 public initialRepVal = 10000;\n\n    bool freeze;\n\n    // =====================================================================\n    // MODIFIERS\n    // =====================================================================\n\n    modifier onlyPR() {\n        require(msg.sender == address(projectRegistry));\n        _;\n    }\n\n    // =====================================================================\n    // CONSTRUCTOR\n    // =====================================================================\n\n    /**\n    @dev Quasi contstructor is called after contract is deployed, must be called with hyphaToken,\n    projectRegistry, and plcrVoting intialized to 0\n    @param _hyphaToken Address of HyphaToken contract\n    @param _projectRegistry Address of ProjectRegistry contract\n    @param _plcrVoting Address of PLCRVoting contract\n    */\n    function init(address payable _hyphaToken, address _projectRegistry, address _plcrVoting) public {\n        require(\n            address(hyphaToken) == address(0) &&\n            address(projectRegistry) == address(0) &&\n            address(plcrVoting) == address(0)\n        );\n        projectRegistry = ProjectRegistry(_projectRegistry);\n        plcrVoting = PLCRVoting(_plcrVoting);\n        hyphaToken = HyphaToken(_hyphaToken);\n    }\n\n    // =====================================================================\n    // UTILITY\n    // =====================================================================\n\n    /**\n    @notice Return the average reputation balance of the network users\n    @return Average balance of each user\n    */\n    function averageBalance() external view returns(uint256) {\n        return totalSupply.div(totalUsers);\n    }\n\n    // =====================================================================\n    // OWNABLE\n    // =====================================================================\n\n    /**\n     * @dev Freezes the contract and allows existing token holders to withdraw tokens\n     */\n    function freezeContract() external onlyOwner {\n      freeze = true;\n    }\n\n    /**\n     * @dev Unfreezes the contract and allows existing token holders to withdraw tokens\n     */\n    function unfreezeContract() external onlyOwner {\n      freeze = false;\n    }\n\n    /**\n     * @dev Instantiate a new instance of plcrVoting contract\n     * @param _newPlcrVoting Address of the new plcr contract\n     */\n    function updatePLCRVoting(address _newPlcrVoting) external onlyOwner {\n      plcrVoting = PLCRVoting(_newPlcrVoting);\n    }\n\n    /**\n     * @dev Update the address of the hyphaToken\n     * @param _newHyphaToken Address of the new distribute token\n     */\n    function updateHyphaToken(address payable _newHyphaToken) external onlyOwner {\n      hyphaToken = HyphaToken(_newHyphaToken);\n    }\n\n    /**\n     * @dev Update the address of the base product proxy contract\n     * @param _newProjectRegistry Address of the new project contract\n     */\n    function updateProjectRegistry(address _newProjectRegistry) external onlyOwner {\n      projectRegistry = ProjectRegistry(_newProjectRegistry);\n    }\n\n    function squaredAmount(uint _amount) internal pure returns (uint) {\n      return _amount.mul(_amount);\n    }\n\n    // =====================================================================\n    // START UP\n    // =====================================================================\n\n    /**\n    @notice Register an account `msg.sender` for the first time in the reputation registry, grant 10,000\n    reputation to start.\n    @dev Has no sybil protection, thus a user can auto generate accounts to receive excess reputation.\n    */\n    function register() external {\n        require(!freeze);\n        require(users[msg.sender].balance == 0 && users[msg.sender].registered == false);\n        users[msg.sender].registered = true;\n        users[msg.sender].balance = initialRepVal;\n        totalSupply = totalSupply.add(initialRepVal);\n        totalUsers = totalUsers.add(1);\n        emit LogRegister(msg.sender);\n    }\n\n    // =====================================================================\n    // PROPOSE\n    // =====================================================================\n\n    /**\n    @notice Propose a project of cost `_cost` with staking period `_stakingPeriod` and hash `_ipfsHash`,\n    with reputation.\n    @dev Calls ProjectRegistry.createProject finalize transaction\n    @param _cost Total project cost in wei\n    @param _stakingPeriod Length of time the project can be staked before it expires\n    @param _ipfsHash Hash of the project description\n    */\n    function proposeProject(uint256 _cost, uint256 _stakingPeriod, bytes calldata _ipfsHash) external {\n        require(!freeze);\n        require(block.timestamp < _stakingPeriod && _cost > 0);\n        uint256 costProportion = Division.percent(_cost, hyphaToken.weiBal(), 10);\n        uint256 proposerReputationCost = ( //divide by 20 to get 5 percent of reputation\n        Division.percent(costProportion, proposeProportion, 10) *\n        totalSupply) /\n        10000000000;\n        require(users[msg.sender].balance >= proposerReputationCost);\n        users[msg.sender].balance -= proposerReputationCost;\n        address projectAddress = projectRegistry.createProject(\n            _cost,\n            costProportion,\n            _stakingPeriod,\n            msg.sender,\n            2,\n            proposerReputationCost,\n            _ipfsHash\n        );\n        emit LogProjectCreated(projectAddress, _cost, proposerReputationCost);\n    }\n\n    /**\n    @notice Refund a reputation proposer upon proposal success, transfer 1% of the project cost in\n    wei as a reward along with any reputation staked.\n    @param _projectAddress Address of the project\n    */\n    function refundProposer(address payable _projectAddress) external {\n        require(!freeze);\n        Project project = Project(_projectAddress);                                         //called by proposer to get refund once project is active\n        require(project.proposer() == msg.sender);\n        require(project.proposerType() == 2);\n\n        uint256[2] memory proposerVals = projectRegistry.refundProposer(_projectAddress, msg.sender);   //call project to \"send back\" staked tokens to put in proposer's balances\n        users[msg.sender].balance += proposerVals[1];\n        hyphaToken.transferWeiTo(msg.sender, proposerVals[0] / 20);\n    }\n\n    // =====================================================================\n    // STAKE\n    // =====================================================================\n\n    /**\n    @notice Stake `_reputation` reputation on project at `_projectAddress`\n    @dev Prevents over staking and returns any excess reputation staked.\n    @param _projectAddress Address of the project\n    @param _reputation Amount of reputation to stake\n    */\n    function stakeReputation(address payable _projectAddress, uint256 _reputation) external {\n        require(!freeze);\n        require(projectRegistry.projects(_projectAddress) == true);\n        require(users[msg.sender].balance >= _reputation && _reputation > 0);                    //make sure project exists & RH has tokens to stake\n        Project project = Project(_projectAddress);\n        // handles edge case where someone attempts to stake past the staking deadline\n        projectRegistry.checkStaked(_projectAddress);\n        require(project.state() == 1);\n\n        uint256 repRemaining = project.reputationCost() - project.reputationStaked();\n        uint256 reputationVal = _reputation < repRemaining ? _reputation : repRemaining;\n        users[msg.sender].balance -= reputationVal;\n        Project(_projectAddress).stakeReputation(msg.sender, reputationVal);\n        bool staked = projectRegistry.checkStaked(_projectAddress);\n        emit LogStakedReputation(_projectAddress, _reputation, msg.sender, staked);\n    }\n\n    /**\n    @notice Unstake `_reputation` reputation from project at `_projectAddress`\n    @dev Require reputation to be unstaked to be greater than 0\n    @param _projectAddress Address of the project\n    @param _reputation Amount of reputation to unstake\n    */\n    function unstakeReputation(address payable _projectAddress, uint256 _reputation) external {\n        require(!freeze);\n        require(projectRegistry.projects(_projectAddress) == true);\n        require(_reputation > 0);\n        // handles edge case where someone attempts to stake past the staking deadline\n        projectRegistry.checkStaked(_projectAddress);\n\n        users[msg.sender].balance += _reputation;\n        Project(_projectAddress).unstakeReputation(msg.sender, _reputation);\n        emit LogUnstakedReputation(_projectAddress, _reputation, msg.sender);\n    }\n\n    /**\n    @notice Calculates the relative weight of an `_address`.\n    Weighting is calculated by the proportional amount of both reputation and tokens that have been\n    staked on the project.\n    @dev Returns an average of the token staking and reputation staking to understand the relative influence of a staker\n\n    @param _address Address of the staker\n    @return The relative weight of a staker as a whole integer\n    */\n    function calculateWeightOfAddress(\n        address _address\n    ) public view returns (uint256) {\n        return Division.percent(users[_address].balance, totalSupply, 15);\n    }\n\n\n    // =====================================================================\n    // TASK\n    // =====================================================================\n\n    /**\n    @notice Claim a task at index `_index` from project at `_projectAddress` with description\n    `_taskDescription` and weighting `_weighting`\n    @dev Requires the reputation of msg.sender to be greater than the reputationVal of the task\n    @param _projectAddress Address of the project\n    @param _index Index of the task\n    @param _taskDescription Description of the task\n    @param _weighting Weighting of the task\n    */\n    function claimTask(\n        address payable _projectAddress,\n        uint256 _index,\n        bytes32 _taskDescription,\n        uint _weighting\n    ) external {\n        require(!freeze);\n        require(projectRegistry.projects(_projectAddress) == true);\n        Project project = Project(_projectAddress);\n        require(project.hashListSubmitted() == true);\n        uint reputationVal = project.reputationCost() * _weighting / 100;\n        require(users[msg.sender].balance >= reputationVal);\n        uint weiVal = project.proposedCost() * _weighting / 100;\n        users[msg.sender].balance -= reputationVal;\n        projectRegistry.claimTask(\n            _projectAddress,\n            _index,\n            _taskDescription,\n            msg.sender,\n            _weighting,\n            weiVal,\n            reputationVal\n        );\n    }\n\n    /**\n    @notice Reward the claimer of a task that has been successfully validated.\n    @param _projectAddress Address of the project\n    @param _index Index of the task\n    */\n    // called by reputation holder who completed a task\n    function rewardTask(address payable _projectAddress, uint256 _index) external {\n        require(!freeze);\n        require(projectRegistry.projects(_projectAddress) == true);\n        uint256 reward = ProjectLibrary.claimTaskReward(_projectAddress, _index, msg.sender);\n        users[msg.sender].balance += reward;\n    }\n\n    // =====================================================================\n    // VOTING\n    // =====================================================================\n\n    /**\n    @notice First part of voting process. Commits a vote using reputation to task at index `_index`\n    of project at `projectAddress` for reputation `_reputation`. Submits a secrect hash `_secretHash`,\n    which is a tightly packed hash of the voters choice and their salt\n    @param _projectAddress Address of the project\n    @param _index Index of the task\n    @param _votes Reputation to vote with\n    @param _secretHash Secret Hash of voter choice and salt\n    @param _prevPollID The nonce of the previous poll. This is stored off chain\n    */\n    function voteCommit(\n        address payable _projectAddress,\n        uint256 _index,\n        uint256 _votes,\n        bytes32 _secretHash,\n        uint256 _prevPollID\n    ) external {     //_secretHash Commit keccak256 hash of voter's choice and salt (tightly packed in this order), done off-chain\n        require(!freeze);\n        require(projectRegistry.projects(_projectAddress) == true);\n        uint256 pollId = Task(Project(_projectAddress).tasks(_index)).pollId();\n        //calculate available tokens for voting\n        uint256 availableVotes = plcrVoting.getAvailableTokens(msg.sender, 2);\n        //make sure msg.sender has tokens available in PLCR contract\n        //if not, request voting rights for token holder\n        if (availableVotes < _votes) {\n            uint votesCost = squaredAmount(_votes).sub(squaredAmount(availableVotes));\n            require(users[msg.sender].balance >= votesCost);\n            users[msg.sender].balance -= votesCost;\n            plcrVoting.requestVotingRights(msg.sender, _votes - availableVotes);\n        }\n        plcrVoting.commitVote(msg.sender, pollId, _secretHash, _votes, _prevPollID);\n        emit LogReputationVoteCommitted(_projectAddress, _index, _votes, _secretHash, pollId, msg.sender);\n    }\n\n    /**\n    @notice Second part of voting process. Reveal existing vote.\n    @param _projectAddress Address of the project\n    @param _index Index of the task\n    @param _voteOption Vote choice of account\n    @param _salt Salt of account\n    */\n    function voteReveal(\n        address payable _projectAddress,\n        uint256 _index,\n        uint256 _voteOption,\n        uint256 _salt\n    ) external {\n        require(!freeze);\n        require(projectRegistry.projects(_projectAddress) == true);\n        plcrVoting.revealVote(msg.sender, Task(Project(_projectAddress).tasks(_index)).pollId(), _voteOption, _salt);\n        emit LogReputationVoteRevealed(_projectAddress, _index, _voteOption, _salt, msg.sender);\n    }\n\n    /**\n    @notice Withdraw voting rights from PLCR Contract\n    @param _votes Amount of reputation to withdraw\n    */\n    function refundVotingReputation(uint256 _votes) external {\n        require(!freeze);\n        uint userVotes = plcrVoting.getAvailableTokens(msg.sender, 2);\n        require(_votes <= userVotes);\n        uint votesPrice = squaredAmount(userVotes) - squaredAmount(userVotes - _votes);\n        plcrVoting.withdrawVotingRights(msg.sender, _votes);\n        users[msg.sender].balance += votesPrice;\n    }\n\n    // =====================================================================\n    // COMPLETE\n    // =====================================================================\n\n    /**\n    @notice Refund a reputation staker from project at `_projectAddress`\n    @param _projectAddress Address of the project\n    */\n    function refundStaker(address payable _projectAddress) external {     //called by worker who staked or voted\n        require(!freeze);\n        require(projectRegistry.projects(_projectAddress) == true);\n        uint256 refund = ProjectLibrary.refundStaker(_projectAddress, msg.sender, address(this));\n        require(refund > 0);\n        Project(_projectAddress).clearReputationStake(msg.sender);\n        users[msg.sender].balance = users[msg.sender].balance.add(refund);\n        if (Project(_projectAddress).state() == 6) {\n          uint256 reward = refund / 2;\n          users[msg.sender].balance = users[msg.sender].balance.add(reward);\n          totalSupply = totalSupply.add(reward);\n        }\n    }\n\n    /**\n    @notice Rescue unrevealed reputation votes from expired polls of task at `_index` of project at\n    `_projectAddress`\n    @param _projectAddress Address of the project\n    @param _index Index of the task\n    */\n    function rescueTokens(address payable _projectAddress, uint _index) external {\n        require(!freeze);\n        require(projectRegistry.projects(_projectAddress) == true);\n        uint256 pollId = Task(Project(_projectAddress).tasks(_index)).pollId();\n        plcrVoting.rescueTokens(msg.sender, pollId);\n        emit LogReputationVoteRescued(_projectAddress, _index, pollId, msg.sender);\n    }\n\n\n    // =====================================================================\n    // FAILED\n    // =====================================================================\n\n    /**\n    @notice Burn reputation in event of project failure\n    @dev Only callable by the ProjectRegistry contract\n    @param _reputation Amount of reputation to burn\n    */\n    function burnReputation(uint256 _reputation) external onlyPR {\n        require(!freeze);\n        totalSupply -= _reputation;\n    }\n\n}\n",
  "sourcePath": "/Users/shokishoki/development/hypha/distribute-app/contracts/contracts/ReputationRegistry.sol",
  "compiler": {
    "name": "solc",
    "version": "0.5.2+commit.1df8f40c.Emscripten.clang"
  },
  "schemaVersion": "3.0.0",
  "updatedAt": "2018-12-22T14:08:34.186Z",
  "devdoc": {
    "author": "Team: Jessica Marshall, Ashoka Finley",
    "details": "This contract must be initialized with the address of a valid HyphaToken, ProjectRegistry, and PLCR Voting contract",
    "methods": {
      "averageBalance()": {
        "return": "Average balance of each user"
      },
      "burnReputation(uint256)": {
        "details": "Only callable by the ProjectRegistry contract",
        "params": {
          "_reputation": "Amount of reputation to burn"
        }
      },
      "calculateWeightOfAddress(address)": {
        "details": "Returns an average of the token staking and reputation staking to understand the relative influence of a staker",
        "params": {
          "_address": "Address of the staker"
        },
        "return": "The relative weight of a staker as a whole integer"
      },
      "claimTask(address,uint256,bytes32,uint256)": {
        "details": "Requires the reputation of msg.sender to be greater than the reputationVal of the task",
        "params": {
          "_index": "Index of the task",
          "_projectAddress": "Address of the project",
          "_taskDescription": "Description of the task",
          "_weighting": "Weighting of the task"
        }
      },
      "freezeContract()": {
        "details": "Freezes the contract and allows existing token holders to withdraw tokens"
      },
      "init(address,address,address)": {
        "details": "Quasi contstructor is called after contract is deployed, must be called with hyphaToken, projectRegistry, and plcrVoting intialized to 0",
        "params": {
          "_hyphaToken": "Address of HyphaToken contract",
          "_plcrVoting": "Address of PLCRVoting contract",
          "_projectRegistry": "Address of ProjectRegistry contract"
        }
      },
      "proposeProject(uint256,uint256,bytes)": {
        "details": "Calls ProjectRegistry.createProject finalize transaction",
        "params": {
          "_cost": "Total project cost in wei",
          "_ipfsHash": "Hash of the project description",
          "_stakingPeriod": "Length of time the project can be staked before it expires"
        }
      },
      "refundProposer(address)": {
        "params": {
          "_projectAddress": "Address of the project"
        }
      },
      "refundStaker(address)": {
        "params": {
          "_projectAddress": "Address of the project"
        }
      },
      "refundVotingReputation(uint256)": {
        "params": {
          "_votes": "Amount of reputation to withdraw"
        }
      },
      "register()": {
        "details": "Has no sybil protection, thus a user can auto generate accounts to receive excess reputation."
      },
      "renounceOwnership()": {
        "details": "Allows the current owner to relinquish control of the contract."
      },
      "rescueTokens(address,uint256)": {
        "params": {
          "_index": "Index of the task",
          "_projectAddress": "Address of the project"
        }
      },
      "rewardTask(address,uint256)": {
        "params": {
          "_index": "Index of the task",
          "_projectAddress": "Address of the project"
        }
      },
      "stakeReputation(address,uint256)": {
        "details": "Prevents over staking and returns any excess reputation staked.",
        "params": {
          "_projectAddress": "Address of the project",
          "_reputation": "Amount of reputation to stake"
        }
      },
      "transferOwnership(address)": {
        "details": "Allows the current owner to transfer control of the contract to a newOwner.",
        "params": {
          "_newOwner": "The address to transfer ownership to."
        }
      },
      "unfreezeContract()": {
        "details": "Unfreezes the contract and allows existing token holders to withdraw tokens"
      },
      "unstakeReputation(address,uint256)": {
        "details": "Require reputation to be unstaked to be greater than 0",
        "params": {
          "_projectAddress": "Address of the project",
          "_reputation": "Amount of reputation to unstake"
        }
      },
      "updateHyphaToken(address)": {
        "details": "Update the address of the hyphaToken",
        "params": {
          "_newHyphaToken": "Address of the new distribute token"
        }
      },
      "updatePLCRVoting(address)": {
        "details": "Instantiate a new instance of plcrVoting contract",
        "params": {
          "_newPlcrVoting": "Address of the new plcr contract"
        }
      },
      "updateProjectRegistry(address)": {
        "details": "Update the address of the base product proxy contract",
        "params": {
          "_newProjectRegistry": "Address of the new project contract"
        }
      },
      "voteCommit(address,uint256,uint256,bytes32,uint256)": {
        "params": {
          "_index": "Index of the task",
          "_prevPollID": "The nonce of the previous poll. This is stored off chain",
          "_projectAddress": "Address of the project",
          "_secretHash": "Secret Hash of voter choice and salt",
          "_votes": "Reputation to vote with"
        }
      },
      "voteReveal(address,uint256,uint256,uint256)": {
        "params": {
          "_index": "Index of the task",
          "_projectAddress": "Address of the project",
          "_salt": "Salt of account",
          "_voteOption": "Vote choice of account"
        }
      }
    },
    "title": "Reputation Registry for Distribute Network"
  },
  "userdoc": {
    "methods": {
      "averageBalance()": {
        "notice": "Return the average reputation balance of the network users"
      },
      "burnReputation(uint256)": {
        "notice": "Burn reputation in event of project failure"
      },
      "calculateWeightOfAddress(address)": {
        "notice": "Calculates the relative weight of an `_address`. Weighting is calculated by the proportional amount of both reputation and tokens that have been staked on the project."
      },
      "claimTask(address,uint256,bytes32,uint256)": {
        "notice": "Claim a task at index `_index` from project at `_projectAddress` with description `_taskDescription` and weighting `_weighting`"
      },
      "proposeProject(uint256,uint256,bytes)": {
        "notice": "Propose a project of cost `_cost` with staking period `_stakingPeriod` and hash `_ipfsHash`, with reputation."
      },
      "refundProposer(address)": {
        "notice": "Refund a reputation proposer upon proposal success, transfer 1% of the project cost in wei as a reward along with any reputation staked."
      },
      "refundStaker(address)": {
        "notice": "Refund a reputation staker from project at `_projectAddress`"
      },
      "refundVotingReputation(uint256)": {
        "notice": "Withdraw voting rights from PLCR Contract"
      },
      "register()": {
        "notice": "Register an account `msg.sender` for the first time in the reputation registry, grant 10,000 reputation to start."
      },
      "renounceOwnership()": {
        "notice": "Renouncing to ownership will leave the contract without an owner. It will not be possible to call the functions with the `onlyOwner` modifier anymore."
      },
      "rescueTokens(address,uint256)": {
        "notice": "Rescue unrevealed reputation votes from expired polls of task at `_index` of project at `_projectAddress`"
      },
      "rewardTask(address,uint256)": {
        "notice": "Reward the claimer of a task that has been successfully validated."
      },
      "stakeReputation(address,uint256)": {
        "notice": "Stake `_reputation` reputation on project at `_projectAddress`"
      },
      "unstakeReputation(address,uint256)": {
        "notice": "Unstake `_reputation` reputation from project at `_projectAddress`"
      },
      "voteCommit(address,uint256,uint256,bytes32,uint256)": {
        "notice": "First part of voting process. Commits a vote using reputation to task at index `_index` of project at `projectAddress` for reputation `_reputation`. Submits a secrect hash `_secretHash`, which is a tightly packed hash of the voters choice and their salt"
      },
      "voteReveal(address,uint256,uint256,uint256)": {
        "notice": "Second part of voting process. Reveal existing vote."
      }
    },
    "notice": "This contract manages the reputation balances of each user and serves as the interface through which users stake reputation, come to consensus around tasks, claim tasks, vote, refund their stakes, and claim their task rewards. This contract also registers users and instantiates their accounts with 10.000 reputation"
  }
}