{
  "contractName": "ReputationRegistry",
  "abi": [
    {
      "constant": true,
      "inputs": [],
      "name": "initialRepVal",
      "outputs": [
        {
          "name": "",
          "type": "uint256"
        }
      ],
      "payable": false,
      "stateMutability": "view",
      "type": "function"
    },
    {
      "constant": true,
      "inputs": [],
      "name": "totalSupply",
      "outputs": [
        {
          "name": "",
          "type": "uint256"
        }
      ],
      "payable": false,
      "stateMutability": "view",
      "type": "function"
    },
    {
      "constant": false,
      "inputs": [],
      "name": "renounceOwnership",
      "outputs": [],
      "payable": false,
      "stateMutability": "nonpayable",
      "type": "function"
    },
    {
      "constant": true,
      "inputs": [],
      "name": "owner",
      "outputs": [
        {
          "name": "",
          "type": "address"
        }
      ],
      "payable": false,
      "stateMutability": "view",
      "type": "function"
    },
    {
      "constant": true,
      "inputs": [
        {
          "name": "",
          "type": "address"
        }
      ],
      "name": "users",
      "outputs": [
        {
          "name": "balance",
          "type": "uint256"
        },
        {
          "name": "registered",
          "type": "bool"
        },
        {
          "name": "lastAccess",
          "type": "uint256"
        }
      ],
      "payable": false,
      "stateMutability": "view",
      "type": "function"
    },
    {
      "constant": true,
      "inputs": [],
      "name": "totalUsers",
      "outputs": [
        {
          "name": "",
          "type": "uint256"
        }
      ],
      "payable": false,
      "stateMutability": "view",
      "type": "function"
    },
    {
      "constant": false,
      "inputs": [
        {
          "name": "_newOwner",
          "type": "address"
        }
      ],
      "name": "transferOwnership",
      "outputs": [],
      "payable": false,
      "stateMutability": "nonpayable",
      "type": "function"
    },
    {
      "anonymous": false,
      "inputs": [
        {
          "indexed": true,
          "name": "registree",
          "type": "address"
        }
      ],
      "name": "LogRegister",
      "type": "event"
    },
    {
      "anonymous": false,
      "inputs": [
        {
          "indexed": false,
          "name": "projectAddress",
          "type": "address"
        },
        {
          "indexed": false,
          "name": "weiCost",
          "type": "uint256"
        },
        {
          "indexed": false,
          "name": "reputationCost",
          "type": "uint256"
        }
      ],
      "name": "LogProjectCreated",
      "type": "event"
    },
    {
      "anonymous": false,
      "inputs": [
        {
          "indexed": true,
          "name": "projectAddress",
          "type": "address"
        },
        {
          "indexed": false,
          "name": "reputation",
          "type": "uint256"
        },
        {
          "indexed": false,
          "name": "staker",
          "type": "address"
        },
        {
          "indexed": false,
          "name": "staked",
          "type": "bool"
        }
      ],
      "name": "LogStakedReputation",
      "type": "event"
    },
    {
      "anonymous": false,
      "inputs": [
        {
          "indexed": true,
          "name": "projectAddress",
          "type": "address"
        },
        {
          "indexed": false,
          "name": "reputation",
          "type": "uint256"
        },
        {
          "indexed": false,
          "name": "unstaker",
          "type": "address"
        }
      ],
      "name": "LogUnstakedReputation",
      "type": "event"
    },
    {
      "anonymous": false,
      "inputs": [
        {
          "indexed": true,
          "name": "projectAddress",
          "type": "address"
        },
        {
          "indexed": false,
          "name": "index",
          "type": "uint256"
        },
        {
          "indexed": false,
          "name": "tokens",
          "type": "uint256"
        },
        {
          "indexed": false,
          "name": "secretHash",
          "type": "bytes32"
        },
        {
          "indexed": false,
          "name": "pollId",
          "type": "uint256"
        },
        {
          "indexed": false,
          "name": "voter",
          "type": "address"
        }
      ],
      "name": "LogReputationVoteCommitted",
      "type": "event"
    },
    {
      "anonymous": false,
      "inputs": [
        {
          "indexed": true,
          "name": "projectAddress",
          "type": "address"
        },
        {
          "indexed": false,
          "name": "index",
          "type": "uint256"
        },
        {
          "indexed": false,
          "name": "voteOption",
          "type": "uint256"
        },
        {
          "indexed": false,
          "name": "salt",
          "type": "uint256"
        },
        {
          "indexed": false,
          "name": "voter",
          "type": "address"
        }
      ],
      "name": "LogReputationVoteRevealed",
      "type": "event"
    },
    {
      "anonymous": false,
      "inputs": [
        {
          "indexed": true,
          "name": "projectAddress",
          "type": "address"
        },
        {
          "indexed": false,
          "name": "index",
          "type": "uint256"
        },
        {
          "indexed": false,
          "name": "pollId",
          "type": "uint256"
        },
        {
          "indexed": false,
          "name": "voter",
          "type": "address"
        }
      ],
      "name": "LogReputationVoteRescued",
      "type": "event"
    },
    {
      "anonymous": false,
      "inputs": [
        {
          "indexed": true,
          "name": "previousOwner",
          "type": "address"
        }
      ],
      "name": "OwnershipRenounced",
      "type": "event"
    },
    {
      "anonymous": false,
      "inputs": [
        {
          "indexed": true,
          "name": "previousOwner",
          "type": "address"
        },
        {
          "indexed": true,
          "name": "newOwner",
          "type": "address"
        }
      ],
      "name": "OwnershipTransferred",
      "type": "event"
    },
    {
      "constant": false,
      "inputs": [
        {
          "name": "_distributeToken",
          "type": "address"
        },
        {
          "name": "_projectRegistry",
          "type": "address"
        },
        {
          "name": "_plcrVoting",
          "type": "address"
        }
      ],
      "name": "init",
      "outputs": [],
      "payable": false,
      "stateMutability": "nonpayable",
      "type": "function"
    },
    {
      "constant": true,
      "inputs": [],
      "name": "averageBalance",
      "outputs": [
        {
          "name": "",
          "type": "uint256"
        }
      ],
      "payable": false,
      "stateMutability": "view",
      "type": "function"
    },
    {
      "constant": false,
      "inputs": [],
      "name": "freezeContract",
      "outputs": [],
      "payable": false,
      "stateMutability": "nonpayable",
      "type": "function"
    },
    {
      "constant": false,
      "inputs": [],
      "name": "unfreezeContract",
      "outputs": [],
      "payable": false,
      "stateMutability": "nonpayable",
      "type": "function"
    },
    {
      "constant": false,
      "inputs": [
        {
          "name": "_newPlcrVoting",
          "type": "address"
        }
      ],
      "name": "updatePLCRVoting",
      "outputs": [],
      "payable": false,
      "stateMutability": "nonpayable",
      "type": "function"
    },
    {
      "constant": false,
      "inputs": [
        {
          "name": "_newDistributeToken",
          "type": "address"
        }
      ],
      "name": "updateDistributeToken",
      "outputs": [],
      "payable": false,
      "stateMutability": "nonpayable",
      "type": "function"
    },
    {
      "constant": false,
      "inputs": [
        {
          "name": "_newProjectRegistry",
          "type": "address"
        }
      ],
      "name": "updateProjectRegistry",
      "outputs": [],
      "payable": false,
      "stateMutability": "nonpayable",
      "type": "function"
    },
    {
      "constant": false,
      "inputs": [],
      "name": "register",
      "outputs": [],
      "payable": false,
      "stateMutability": "nonpayable",
      "type": "function"
    },
    {
      "constant": false,
      "inputs": [
        {
          "name": "_cost",
          "type": "uint256"
        },
        {
          "name": "_stakingPeriod",
          "type": "uint256"
        },
        {
          "name": "_ipfsHash",
          "type": "bytes"
        }
      ],
      "name": "proposeProject",
      "outputs": [],
      "payable": false,
      "stateMutability": "nonpayable",
      "type": "function"
    },
    {
      "constant": false,
      "inputs": [
        {
          "name": "_projectAddress",
          "type": "address"
        }
      ],
      "name": "refundProposer",
      "outputs": [],
      "payable": false,
      "stateMutability": "nonpayable",
      "type": "function"
    },
    {
      "constant": false,
      "inputs": [
        {
          "name": "_projectAddress",
          "type": "address"
        },
        {
          "name": "_reputation",
          "type": "uint256"
        }
      ],
      "name": "stakeReputation",
      "outputs": [],
      "payable": false,
      "stateMutability": "nonpayable",
      "type": "function"
    },
    {
      "constant": false,
      "inputs": [
        {
          "name": "_projectAddress",
          "type": "address"
        },
        {
          "name": "_reputation",
          "type": "uint256"
        }
      ],
      "name": "unstakeReputation",
      "outputs": [],
      "payable": false,
      "stateMutability": "nonpayable",
      "type": "function"
    },
    {
      "constant": true,
      "inputs": [
        {
          "name": "_address",
          "type": "address"
        }
      ],
      "name": "calculateWeightOfAddress",
      "outputs": [
        {
          "name": "",
          "type": "uint256"
        }
      ],
      "payable": false,
      "stateMutability": "view",
      "type": "function"
    },
    {
      "constant": false,
      "inputs": [
        {
          "name": "_projectAddress",
          "type": "address"
        },
        {
          "name": "_index",
          "type": "uint256"
        },
        {
          "name": "_taskDescription",
          "type": "bytes32"
        },
        {
          "name": "_weighting",
          "type": "uint256"
        }
      ],
      "name": "claimTask",
      "outputs": [],
      "payable": false,
      "stateMutability": "nonpayable",
      "type": "function"
    },
    {
      "constant": false,
      "inputs": [
        {
          "name": "_projectAddress",
          "type": "address"
        },
        {
          "name": "_index",
          "type": "uint256"
        }
      ],
      "name": "rewardTask",
      "outputs": [],
      "payable": false,
      "stateMutability": "nonpayable",
      "type": "function"
    },
    {
      "constant": false,
      "inputs": [
        {
          "name": "_projectAddress",
          "type": "address"
        },
        {
          "name": "_index",
          "type": "uint256"
        },
        {
          "name": "_votes",
          "type": "uint256"
        },
        {
          "name": "_secretHash",
          "type": "bytes32"
        },
        {
          "name": "_prevPollID",
          "type": "uint256"
        }
      ],
      "name": "voteCommit",
      "outputs": [],
      "payable": false,
      "stateMutability": "nonpayable",
      "type": "function"
    },
    {
      "constant": false,
      "inputs": [
        {
          "name": "_projectAddress",
          "type": "address"
        },
        {
          "name": "_index",
          "type": "uint256"
        },
        {
          "name": "_voteOption",
          "type": "uint256"
        },
        {
          "name": "_salt",
          "type": "uint256"
        }
      ],
      "name": "voteReveal",
      "outputs": [],
      "payable": false,
      "stateMutability": "nonpayable",
      "type": "function"
    },
    {
      "constant": false,
      "inputs": [
        {
          "name": "_votes",
          "type": "uint256"
        }
      ],
      "name": "refundVotingReputation",
      "outputs": [],
      "payable": false,
      "stateMutability": "nonpayable",
      "type": "function"
    },
    {
      "constant": false,
      "inputs": [
        {
          "name": "_projectAddress",
          "type": "address"
        }
      ],
      "name": "refundStaker",
      "outputs": [],
      "payable": false,
      "stateMutability": "nonpayable",
      "type": "function"
    },
    {
      "constant": false,
      "inputs": [
        {
          "name": "_projectAddress",
          "type": "address"
        },
        {
          "name": "_index",
          "type": "uint256"
        }
      ],
      "name": "rescueTokens",
      "outputs": [],
      "payable": false,
      "stateMutability": "nonpayable",
      "type": "function"
    },
    {
      "constant": false,
      "inputs": [
        {
          "name": "_reputation",
          "type": "uint256"
        }
      ],
      "name": "burnReputation",
      "outputs": [],
      "payable": false,
      "stateMutability": "nonpayable",
      "type": "function"
    }
  ],
  "bytecode": "0x6080604052642e90edd000600755606460085561271060095560008054600160a060020a031916331790556128ee806100396000396000f3006080604052600436106101505763ffffffff60e060020a60003504166304b5341581146101555780630db80324146101785780631704e4251461019f57806318160ddd146101c3578063184b9559146101d85780631aa3a008146102055780631b73e0951461021a5780632f27ea1f146102445780633c79fe74146102715780634012c2a21461029557806340848987146102b657806352a220b7146102ce57806357376198146102ef5780635c352318146103135780635d151b1914610334578063715018a61461034957806374f8c4d21461035e5780637f306ba1146103865780638be1c84e146103aa5780638da5cb5b146103cb5780639c6c3439146103fc578063a584a9b514610414578063a87430ba14610429578063bff1f9e114610468578063e096fff01461047d578063f2fde38b146104a7578063f3e6e08a146104c8578063f4917dd3146104e9575b600080fd5b34801561016157600080fd5b50610176600160a060020a03600435166104fe565b005b34801561018457600080fd5b5061018d610544565b60408051918252519081900360200190f35b3480156101ab57600080fd5b50610176600160a060020a036004351660243561054a565b3480156101cf57600080fd5b5061018d6106b0565b3480156101e457600080fd5b50610176600160a060020a03600435811690602435811690604435166106b6565b34801561021157600080fd5b50610176610747565b34801561022657600080fd5b50610176600160a060020a0360043516602435604435606435610811565b34801561025057600080fd5b50610176600160a060020a0360043516602435604435606435608435610b15565b34801561027d57600080fd5b50610176600160a060020a0360043516602435610f32565b3480156102a157600080fd5b50610176600160a060020a036004351661114b565b3480156102c257600080fd5b506101766004356113b2565b3480156102da57600080fd5b50610176600160a060020a0360043516611526565b3480156102fb57600080fd5b50610176600160a060020a036004351660243561156c565b34801561031f57600080fd5b50610176600160a060020a03600435166117e0565b34801561034057600080fd5b5061018d611abf565b34801561035557600080fd5b50610176611add565b34801561036a57600080fd5b5061017660048035906024803591604435918201910135611b49565b34801561039257600080fd5b50610176600160a060020a0360043516602435611ebb565b3480156103b657600080fd5b5061018d600160a060020a0360043516612338565b3480156103d757600080fd5b506103e06123f8565b60408051600160a060020a039092168252519081900360200190f35b34801561040857600080fd5b50610176600435612407565b34801561042057600080fd5b5061017661243a565b34801561043557600080fd5b5061044a600160a060020a0360043516612460565b60408051938452911515602084015282820152519081900360600190f35b34801561047457600080fd5b5061018d612484565b34801561048957600080fd5b50610176600160a060020a036004351660243560443560643561248a565b3480156104b357600080fd5b50610176600160a060020a0360043516612718565b3480156104d457600080fd5b50610176600160a060020a036004351661273b565b3480156104f557600080fd5b50610176612781565b600054600160a060020a0316331461051557600080fd5b6001805473ffffffffffffffffffffffffffffffffffffffff1916600160a060020a0392909216919091179055565b60095481565b600a5460009060ff161561055d57600080fd5b6002546040805160e060020a63840e78fd028152600160a060020a0386811660048301529151919092169163840e78fd9160248083019260209291908290030181600087803b1580156105af57600080fd5b505af11580156105c3573d6000803e3d6000fd5b505050506040513d60208110156105d957600080fd5b505115156001146105e957600080fd5b604080517f25bc963e000000000000000000000000000000000000000000000000000000008152600160a060020a038516600482015260248101849052336044820152905173__ProjectLibrary________________________916325bc963e916064808301926020929190829003018186803b15801561066957600080fd5b505af415801561067d573d6000803e3d6000fd5b505050506040513d602081101561069357600080fd5b505133600090815260046020526040902080549091019055505050565b60055481565b600154600160a060020a03161580156106d85750600254600160a060020a0316155b80156106ed5750600354600160a060020a0316155b15156106f857600080fd5b60028054600160a060020a0393841673ffffffffffffffffffffffffffffffffffffffff1991821617909155600380549284169282169290921790915560018054939092169216919091179055565b600a5460ff161561075757600080fd5b3360009081526004602052604090205415801561078757503360009081526004602052604090206001015460ff16155b151561079257600080fd5b3360009081526004602052604090206001818101805460ff19169091179055600954908190556005546107ca9163ffffffff6127a416565b6005556006546107e190600163ffffffff6127a416565b60065560405133907f68f0f1b8c9e91743a8bf9b77af08d152d1cb9ac31eb5b472bf6e16467254885590600090a2565b600a546000908190819060ff161561082857600080fd5b6002546040805160e060020a63840e78fd028152600160a060020a038a811660048301529151919092169163840e78fd9160248083019260209291908290030181600087803b15801561087a57600080fd5b505af115801561088e573d6000803e3d6000fd5b505050506040513d60208110156108a457600080fd5b505115156001146108b457600080fd5b86925082600160a060020a031663378c12da6040518163ffffffff1660e060020a028152600401602060405180830381600087803b1580156108f557600080fd5b505af1158015610909573d6000803e3d6000fd5b505050506040513d602081101561091f57600080fd5b5051151560011461092f57600080fd5b60648484600160a060020a03166336df7df76040518163ffffffff1660e060020a028152600401602060405180830381600087803b15801561097057600080fd5b505af1158015610984573d6000803e3d6000fd5b505050506040513d602081101561099a57600080fd5b5051028115156109a657fe5b3360009081526004602052604090205491900492508211156109c757600080fd5b60648484600160a060020a0316635b9c161a6040518163ffffffff1660e060020a028152600401602060405180830381600087803b158015610a0857600080fd5b505af1158015610a1c573d6000803e3d6000fd5b505050506040513d6020811015610a3257600080fd5b505102811515610a3e57fe5b336000908152600460205260409020549190049150610a63908363ffffffff6127be16565b50600254604080517f3330dcd8000000000000000000000000000000000000000000000000000000008152600160a060020a038a81166004830152602482018a9052604482018990523360648301526084820188905260a4820185905260c4820186905291519190921691633330dcd89160e480830192600092919082900301818387803b158015610af457600080fd5b505af1158015610b08573d6000803e3d6000fd5b5050505050505050505050565b600a546000908190819060ff1615610b2c57600080fd5b6002546040805160e060020a63840e78fd028152600160a060020a038b811660048301529151919092169163840e78fd9160248083019260209291908290030181600087803b158015610b7e57600080fd5b505af1158015610b92573d6000803e3d6000fd5b505050506040513d6020811015610ba857600080fd5b50511515600114610bb857600080fd5b87600160a060020a0316638d977672886040518263ffffffff1660e060020a02815260040180828152602001915050602060405180830381600087803b158015610c0157600080fd5b505af1158015610c15573d6000803e3d6000fd5b505050506040513d6020811015610c2b57600080fd5b5051604080517f6f13ab000000000000000000000000000000000000000000000000000000000081529051600160a060020a0390921691636f13ab00916004808201926020929091908290030181600087803b158015610c8a57600080fd5b505af1158015610c9e573d6000803e3d6000fd5b505050506040513d6020811015610cb457600080fd5b5051600354604080517f9f68ce54000000000000000000000000000000000000000000000000000000008152336004820152600260248201529051929550600160a060020a0390911691639f68ce54916044808201926020929091908290030181600087803b158015610d2657600080fd5b505af1158015610d3a573d6000803e3d6000fd5b505050506040513d6020811015610d5057600080fd5b5051915085821015610e3657610d7d610d68836127d0565b610d71886127d0565b9063ffffffff6127be16565b33600090815260046020526040902054909150811115610d9c57600080fd5b3360008181526004602081905260408083208054869003905560035481517fc5fa801b00000000000000000000000000000000000000000000000000000000815292830194909452858a03602483015251600160a060020a039093169263c5fa801b9260448084019391929182900301818387803b158015610e1d57600080fd5b505af1158015610e31573d6000803e3d6000fd5b505050505b600354604080517f5e28fd5e000000000000000000000000000000000000000000000000000000008152336004820152602481018690526044810188905260648101899052608481018790529051600160a060020a0390921691635e28fd5e9160a48082019260009290919082900301818387803b158015610eb757600080fd5b505af1158015610ecb573d6000803e3d6000fd5b5050604080518a8152602081018a9052808201899052606081018790523360808201529051600160a060020a038c1693507f0b7fb72d8f335ae1c604043323e2c7a5bba23d3d8455a459294266ba663fadda92509081900360a00190a25050505050505050565b600a5460ff1615610f4257600080fd5b6002546040805160e060020a63840e78fd028152600160a060020a0385811660048301529151919092169163840e78fd9160248083019260209291908290030181600087803b158015610f9457600080fd5b505af1158015610fa8573d6000803e3d6000fd5b505050506040513d6020811015610fbe57600080fd5b50511515600114610fce57600080fd5b60008111610fdb57600080fd5b600254604080517f247f8e14000000000000000000000000000000000000000000000000000000008152600160a060020a0385811660048301529151919092169163247f8e149160248083019260209291908290030181600087803b15801561104357600080fd5b505af1158015611057573d6000803e3d6000fd5b505050506040513d602081101561106d57600080fd5b505033600081815260046020819052604080832080548601905580517f3c79fe7400000000000000000000000000000000000000000000000000000000815291820193909352602481018490529151600160a060020a03851692633c79fe7492604480830193919282900301818387803b1580156110ea57600080fd5b505af11580156110fe573d6000803e3d6000fd5b5050604080518481523360208201528151600160a060020a03871694507ff6a0e5058c795a543a26bf169d4200fa3e1a083c8a44a890f19d230a93310cbc93509081900390910190a25050565b60006111556128a7565b600a5460ff161561116557600080fd5b82915033600160a060020a031682600160a060020a031663a8e4fb906040518163ffffffff1660e060020a028152600401602060405180830381600087803b1580156111b057600080fd5b505af11580156111c4573d6000803e3d6000fd5b505050506040513d60208110156111da57600080fd5b5051600160a060020a0316146111ef57600080fd5b81600160a060020a03166316ddf0216040518163ffffffff1660e060020a028152600401602060405180830381600087803b15801561122d57600080fd5b505af1158015611241573d6000803e3d6000fd5b505050506040513d602081101561125757600080fd5b505160021461126557600080fd5b600254604080517faab1d6df000000000000000000000000000000000000000000000000000000008152600160a060020a038681166004830152336024830152825193169263aab1d6df926044808401939192918290030181600087803b1580156112cf57600080fd5b505af11580156112e3573d6000803e3d6000fd5b505050506040513d601f19601f82011682018060405250604081101561130857600080fd5b5060208181015133600081815260049384905260408082208054909401909355600154855184517f53c333cd00000000000000000000000000000000000000000000000000000000815295860193909352601490920460248501529151939450600160a060020a0316926353c333cd92604480820193929182900301818387803b15801561139557600080fd5b505af11580156113a9573d6000803e3d6000fd5b50505050505050565b600a54600090819060ff16156113c757600080fd5b600354604080517f9f68ce54000000000000000000000000000000000000000000000000000000008152336004820152600260248201529051600160a060020a0390921691639f68ce54916044808201926020929091908290030181600087803b15801561143457600080fd5b505af1158015611448573d6000803e3d6000fd5b505050506040513d602081101561145e57600080fd5b505191508183111561146f57600080fd5b61147a8383036127d0565b611483836127d0565b600354604080517fef348e40000000000000000000000000000000000000000000000000000000008152336004820152602481018890529051939092039350600160a060020a03169163ef348e409160448082019260009290919082900301818387803b1580156114f357600080fd5b505af1158015611507573d6000803e3d6000fd5b5050336000908152600460205260409020805490930190925550505050565b600054600160a060020a0316331461153d57600080fd5b6003805473ffffffffffffffffffffffffffffffffffffffff1916600160a060020a0392909216919091179055565b600a5460009060ff161561157f57600080fd5b6002546040805160e060020a63840e78fd028152600160a060020a0386811660048301529151919092169163840e78fd9160248083019260209291908290030181600087803b1580156115d157600080fd5b505af11580156115e5573d6000803e3d6000fd5b505050506040513d60208110156115fb57600080fd5b5051151560011461160b57600080fd5b82600160a060020a0316638d977672836040518263ffffffff1660e060020a02815260040180828152602001915050602060405180830381600087803b15801561165457600080fd5b505af1158015611668573d6000803e3d6000fd5b505050506040513d602081101561167e57600080fd5b5051604080517f6f13ab000000000000000000000000000000000000000000000000000000000081529051600160a060020a0390921691636f13ab00916004808201926020929091908290030181600087803b1580156116dd57600080fd5b505af11580156116f1573d6000803e3d6000fd5b505050506040513d602081101561170757600080fd5b5051600354604080517f57376198000000000000000000000000000000000000000000000000000000008152336004820152602481018490529051929350600160a060020a039091169163573761989160448082019260009290919082900301818387803b15801561177857600080fd5b505af115801561178c573d6000803e3d6000fd5b5050604080518581526020810185905233818301529051600160a060020a03871693507fd07db17e3626b6053bca9a471be67ed4aabca276416a618eddc47bf85eafdf9892509081900360600190a2505050565b600a54600090819060ff16156117f557600080fd5b6002546040805160e060020a63840e78fd028152600160a060020a0386811660048301529151919092169163840e78fd9160248083019260209291908290030181600087803b15801561184757600080fd5b505af115801561185b573d6000803e3d6000fd5b505050506040513d602081101561187157600080fd5b5051151560011461188157600080fd5b604080517fb7d00f73000000000000000000000000000000000000000000000000000000008152600160a060020a0385166004820152336024820152306044820152905173__ProjectLibrary________________________9163b7d00f73916064808301926020929190829003018186803b15801561190057600080fd5b505af4158015611914573d6000803e3d6000fd5b505050506040513d602081101561192a57600080fd5b505191506000821161193b57600080fd5b604080517f764c8a000000000000000000000000000000000000000000000000000000000081523360048201529051600160a060020a0385169163764c8a0091602480830192600092919082900301818387803b15801561199b57600080fd5b505af11580156119af573d6000803e3d6000fd5b5050336000908152600460205260409020546119d4925090508363ffffffff6127a416565b3360009081526004602081815260408084209490945583517fc19d93fb0000000000000000000000000000000000000000000000000000000081529351600160a060020a0388169463c19d93fb94818501949183900390910190829087803b158015611a3f57600080fd5b505af1158015611a53573d6000803e3d6000fd5b505050506040513d6020811015611a6957600080fd5b505160061415611aba5750336000908152600460205260409020546002820490611a9390826127a4565b33600090815260046020526040902055600554611ab6908263ffffffff6127a416565b6005555b505050565b6000611ad86006546005546127e890919063ffffffff16565b905090565b600054600160a060020a03163314611af457600080fd5b60008054604051600160a060020a03909116917ff8df31144d9c2f0f6b59d69b8b98abd5459d07f2742c4df920b25aae33c6482091a26000805473ffffffffffffffffffffffffffffffffffffffff19169055565b600a546000908190819060ff1615611b6057600080fd5b8542108015611b6f5750600087115b1515611b7a57600080fd5b73__Division______________________________622c1a9e88600160009054906101000a9004600160a060020a0316600160a060020a031663065d5d0a6040518163ffffffff1660e060020a028152600401602060405180830381600087803b158015611be757600080fd5b505af1158015611bfb573d6000803e3d6000fd5b505050506040513d6020811015611c1157600080fd5b50516040805160e060020a63ffffffff861602815260048101939093526024830191909152600a6044830152516064808301926020929190829003018186803b158015611c5d57600080fd5b505af4158015611c71573d6000803e3d6000fd5b505050506040513d6020811015611c8757600080fd5b5051600554600754604080517e2c1a9e000000000000000000000000000000000000000000000000000000008152600481018590526024810192909252600a6044830152519295506402540be4009273__Division______________________________91622c1a9e916064808301926020929190829003018186803b158015611d1057600080fd5b505af4158015611d24573d6000803e3d6000fd5b505050506040513d6020811015611d3a57600080fd5b505102811515611d4657fe5b336000908152600460205260409020549190049250821115611d6757600080fd5b33600081815260046020819052604091829020805486900390556002805492517f8b4dfc2f0000000000000000000000000000000000000000000000000000000081529182018b815260248301889052604483018b9052606483018590526084830182905260a4830187905260e060c4840190815260e484018a9052600160a060020a0390941694638b4dfc2f948d948a948e9490928b928f928f9290916101040184848082843782019150509950505050505050505050602060405180830381600087803b158015611e3957600080fd5b505af1158015611e4d573d6000803e3d6000fd5b505050506040513d6020811015611e6357600080fd5b505160408051600160a060020a0383168152602081018a905280820185905290519192507f809523e516336d444261958e529ac0ff837801879a12fe6b90c087a267adde4a919081900360600190a150505050505050565b600a5460009081908190819060ff1615611ed457600080fd5b6002546040805160e060020a63840e78fd028152600160a060020a0389811660048301529151919092169163840e78fd9160248083019260209291908290030181600087803b158015611f2657600080fd5b505af1158015611f3a573d6000803e3d6000fd5b505050506040513d6020811015611f5057600080fd5b50511515600114611f6057600080fd5b336000908152600460205260409020548511801590611f7f5750600085115b1515611f8a57600080fd5b600254604080517f247f8e14000000000000000000000000000000000000000000000000000000008152600160a060020a03808a1660048301529151899750919092169163247f8e149160248083019260209291908290030181600087803b158015611ff557600080fd5b505af1158015612009573d6000803e3d6000fd5b505050506040513d602081101561201f57600080fd5b5050604080517fc19d93fb0000000000000000000000000000000000000000000000000000000081529051600160a060020a0386169163c19d93fb9160048083019260209291908290030181600087803b15801561207c57600080fd5b505af1158015612090573d6000803e3d6000fd5b505050506040513d60208110156120a657600080fd5b50516001146120b457600080fd5b83600160a060020a031663b23dcdaf6040518163ffffffff1660e060020a028152600401602060405180830381600087803b1580156120f257600080fd5b505af1158015612106573d6000803e3d6000fd5b505050506040513d602081101561211c57600080fd5b5051604080517f36df7df70000000000000000000000000000000000000000000000000000000081529051600160a060020a038716916336df7df79160048083019260209291908290030181600087803b15801561217957600080fd5b505af115801561218d573d6000803e3d6000fd5b505050506040513d60208110156121a357600080fd5b50510392508285106121b557826121b7565b845b3360008181526004602081905260408083208054869003905580517f7f306ba100000000000000000000000000000000000000000000000000000000815291820193909352602481018490529151929450600160a060020a03891692637f306ba192604480820193929182900301818387803b15801561223657600080fd5b505af115801561224a573d6000803e3d6000fd5b5050600254604080517f247f8e14000000000000000000000000000000000000000000000000000000008152600160a060020a038b81166004830152915191909216935063247f8e14925060248083019260209291908290030181600087803b1580156122b657600080fd5b505af11580156122ca573d6000803e3d6000fd5b505050506040513d60208110156122e057600080fd5b505160408051878152336020820152821515818301529051919250600160a060020a038816917fa9038987b8e5618a2c7a3e308278b49e810c8469e47a0c711bc1f8a4f2becf339181900360600190a2505050505050565b600160a060020a03811660009081526004602081815260408084205460055482517e2c1a9e000000000000000000000000000000000000000000000000000000008152948501919091526024840152600f60448401525173__Division______________________________92622c1a9e926064808301939192829003018186803b1580156123c657600080fd5b505af41580156123da573d6000803e3d6000fd5b505050506040513d60208110156123f057600080fd5b505192915050565b600054600160a060020a031681565b600254600160a060020a0316331461241e57600080fd5b600a5460ff161561242e57600080fd5b60058054919091039055565b600054600160a060020a0316331461245157600080fd5b600a805460ff19166001179055565b600460205260009081526040902080546001820154600290920154909160ff169083565b60065481565b600a5460ff161561249a57600080fd5b6002546040805160e060020a63840e78fd028152600160a060020a0387811660048301529151919092169163840e78fd9160248083019260209291908290030181600087803b1580156124ec57600080fd5b505af1158015612500573d6000803e3d6000fd5b505050506040513d602081101561251657600080fd5b5051151560011461252657600080fd5b600354604080517f8d977672000000000000000000000000000000000000000000000000000000008152600481018690529051600160a060020a039283169263bfd9957192339291891691638d977672916024808201926020929091908290030181600087803b15801561259957600080fd5b505af11580156125ad573d6000803e3d6000fd5b505050506040513d60208110156125c357600080fd5b5051604080517f6f13ab000000000000000000000000000000000000000000000000000000000081529051600160a060020a0390921691636f13ab00916004808201926020929091908290030181600087803b15801561262257600080fd5b505af1158015612636573d6000803e3d6000fd5b505050506040513d602081101561264c57600080fd5b50516040805160e060020a63ffffffff8616028152600160a060020a0390931660048401526024830191909152604482018690526064820185905251608480830192600092919082900301818387803b1580156126a857600080fd5b505af11580156126bc573d6000803e3d6000fd5b505060408051868152602081018690528082018590523360608201529051600160a060020a03881693507f4c78cacf867e841e28cd66dd3008e936bd835fed4036def8fb118056d88dd70692509081900360800190a250505050565b600054600160a060020a0316331461272f57600080fd5b612738816127ff565b50565b600054600160a060020a0316331461275257600080fd5b6002805473ffffffffffffffffffffffffffffffffffffffff1916600160a060020a0392909216919091179055565b600054600160a060020a0316331461279857600080fd5b600a805460ff19169055565b6000828201838110156127b357fe5b8091505b5092915050565b6000828211156127ca57fe5b50900390565b60006127e2828063ffffffff61287c16565b92915050565b60008082848115156127f657fe5b04949350505050565b600160a060020a038116151561281457600080fd5b60008054604051600160a060020a03808516939216917f8be0079c531659141344cd1fd0a4f28419497f9722a3daafe3b4186f6b6457e091a36000805473ffffffffffffffffffffffffffffffffffffffff1916600160a060020a0392909216919091179055565b60008083151561288f57600091506127b7565b5082820282848281151561289f57fe5b04146127b357fe5b604080518082018252906002908290803883395091929150505600a165627a7a723058208810cc271e6e717d0d13d1d435ca4298ad42911b83f4c3de07d6b646a083000f0029",
  "source": "pragma solidity ^0.4.21;\n\nimport \"./Project.sol\";\nimport \"./ProjectLibrary.sol\";\nimport \"./ProjectRegistry.sol\";\nimport \"./DistributeToken.sol\";\nimport \"./Task.sol\";\nimport \"./library/PLCRVoting.sol\";\nimport \"./library/Division.sol\";\nimport \"./library/SafeMath.sol\";\nimport \"./library/Ownable.sol\";\n/**\n@title Reputation Registry for Distribute Network\n@author Team: Jessica Marshall, Ashoka Finley\n@notice This contract manages the reputation balances of each user and serves as the interface through\nwhich users stake reputation, come to consensus around tasks, claim tasks, vote, refund their stakes,\nand claim their task rewards. This contract also registers users and instantiates their accounts with 10.000 reputation\n@dev This contract must be initialized with the address of a valid DistributeToken, ProjectRegistry,\nand PLCR Voting contract\n*/\n// ===================================================================== //\n//\n// ===================================================================== //\ncontract ReputationRegistry is Ownable {\n\n    using ProjectLibrary for address;\n    using SafeMath for uint256;\n\n    // =====================================================================\n    // EVENTS\n    // =====================================================================\n\n    event LogRegister(\n        address indexed registree\n    );\n\n    event LogProjectCreated(address projectAddress, uint256 weiCost, uint256 reputationCost);\n    event LogStakedReputation(address indexed projectAddress, uint256 reputation, address staker, bool staked);\n    event LogUnstakedReputation(address indexed projectAddress, uint256 reputation, address unstaker);\n    event LogReputationVoteCommitted(address indexed projectAddress, uint256 index, uint256 tokens, bytes32 secretHash, uint256 pollId, address voter);\n    event LogReputationVoteRevealed(address indexed projectAddress, uint256 index, uint256 voteOption, uint256 salt, address voter);\n    event LogReputationVoteRescued(address indexed projectAddress, uint256 index, uint256 pollId, address voter);\n\n    // =====================================================================\n    // STATE VARIABLES\n    // =====================================================================\n\n    DistributeToken distributeToken;\n    ProjectRegistry projectRegistry;\n    PLCRVoting plcrVoting;\n\n    struct User {\n      uint balance;\n      bool registered; //indicates if address has registerd\n      uint lastAccess;\n    }\n    mapping (address => User) public users;\n    // make this a struct and save the mapping\n\n    uint256 public totalSupply;               //total supply of reputation in all states\n    uint256 public totalUsers;\n\n    uint256 proposeProportion = 20 * 10000000000; // tokensupply/proposeProportion is the number of tokens the proposer must stake\n    uint256 rewardProportion = 100;\n    uint256 public initialRepVal = 10000;\n\n    bool freeze;\n\n    // =====================================================================\n    // MODIFIERS\n    // =====================================================================\n\n    modifier onlyPR() {\n        require(msg.sender == address(projectRegistry));\n        _;\n    }\n\n    // =====================================================================\n    // CONSTRUCTOR\n    // =====================================================================\n\n    /**\n    @dev Quasi contstructor is called after contract is deployed, must be called with distributeToken,\n    projectRegistry, and plcrVoting intialized to 0\n    @param _distributeToken Address of DistributeToken contract\n    @param _projectRegistry Address of ProjectRegistry contract\n    @param _plcrVoting Address of PLCRVoting contract\n    */\n    function init(address _distributeToken, address _projectRegistry, address _plcrVoting) public {\n        require(\n            address(distributeToken) == 0 &&\n            address(projectRegistry) == 0 &&\n            address(plcrVoting) == 0\n        );\n        projectRegistry = ProjectRegistry(_projectRegistry);\n        plcrVoting = PLCRVoting(_plcrVoting);\n        distributeToken = DistributeToken(_distributeToken);\n    }\n\n    // =====================================================================\n    // UTILITY\n    // =====================================================================\n\n    /**\n    @notice Return the average reputation balance of the network users\n    @return Average balance of each user\n    */\n    function averageBalance() external view returns(uint256) {\n        return totalSupply.div(totalUsers);\n    }\n\n    // =====================================================================\n    // OWNABLE\n    // =====================================================================\n\n    /**\n     * @dev Freezes the contract and allows existing token holders to withdraw tokens\n     */\n    function freezeContract() external onlyOwner {\n      freeze = true;\n    }\n\n    /**\n     * @dev Unfreezes the contract and allows existing token holders to withdraw tokens\n     */\n    function unfreezeContract() external onlyOwner {\n      freeze = false;\n    }\n\n    /**\n     * @dev Instantiate a new instance of plcrVoting contract\n     * @param _newPlcrVoting Address of the new plcr contract\n     */\n    function updatePLCRVoting(address _newPlcrVoting) external onlyOwner {\n      plcrVoting = PLCRVoting(_newPlcrVoting);\n    }\n\n    /**\n     * @dev Update the address of the distributeToken\n     * @param _newDistributeToken Address of the new distribute token\n     */\n    function updateDistributeToken(address _newDistributeToken) external onlyOwner {\n      distributeToken = DistributeToken(_newDistributeToken);\n    }\n\n    /**\n     * @dev Update the address of the base product proxy contract\n     * @param _newProjectRegistry Address of the new project contract\n     */\n    function updateProjectRegistry(address _newProjectRegistry) external onlyOwner {\n      projectRegistry = ProjectRegistry(_newProjectRegistry);\n    }\n\n    function squaredAmount(uint _amount) internal pure returns (uint) {\n      return _amount.mul(_amount);\n    }\n\n    // =====================================================================\n    // START UP\n    // =====================================================================\n\n    /**\n    @notice Register an account `msg.sender` for the first time in the reputation registry, grant 10,000\n    reputation to start.\n    @dev Has no sybil protection, thus a user can auto generate accounts to receive excess reputation.\n    */\n    function register() external {\n        require(!freeze);\n        require(users[msg.sender].balance == 0 && users[msg.sender].registered == false);\n        users[msg.sender].registered = true;\n        users[msg.sender].balance = initialRepVal;\n        totalSupply = totalSupply.add(initialRepVal);\n        totalUsers = totalUsers.add(1);\n        emit LogRegister(msg.sender);\n    }\n\n    // =====================================================================\n    // PROPOSE\n    // =====================================================================\n\n    /**\n    @notice Propose a project of cost `_cost` with staking period `_stakingPeriod` and hash `_ipfsHash`,\n    with reputation.\n    @dev Calls ProjectRegistry.createProject finalize transaction\n    @param _cost Total project cost in wei\n    @param _stakingPeriod Length of time the project can be staked before it expires\n    @param _ipfsHash Hash of the project description\n    */\n    function proposeProject(uint256 _cost, uint256 _stakingPeriod, bytes _ipfsHash) external {\n        require(!freeze);\n        require(block.timestamp < _stakingPeriod && _cost > 0);\n        uint256 costProportion = Division.percent(_cost, distributeToken.weiBal(), 10);\n        uint256 proposerReputationCost = ( //divide by 20 to get 5 percent of reputation\n        Division.percent(costProportion, proposeProportion, 10) *\n        totalSupply) /\n        10000000000;\n        require(users[msg.sender].balance >= proposerReputationCost);\n        users[msg.sender].balance -= proposerReputationCost;\n        address projectAddress = projectRegistry.createProject(\n            _cost,\n            costProportion,\n            _stakingPeriod,\n            msg.sender,\n            2,\n            proposerReputationCost,\n            _ipfsHash\n        );\n        emit LogProjectCreated(projectAddress, _cost, proposerReputationCost);\n    }\n\n    /**\n    @notice Refund a reputation proposer upon proposal success, transfer 1% of the project cost in\n    wei as a reward along with any reputation staked.\n    @param _projectAddress Address of the project\n    */\n    function refundProposer(address _projectAddress) external {\n        require(!freeze);\n        Project project = Project(_projectAddress);                                         //called by proposer to get refund once project is active\n        require(project.proposer() == msg.sender);\n        require(project.proposerType() == 2);\n\n        uint256[2] memory proposerVals = projectRegistry.refundProposer(_projectAddress, msg.sender);   //call project to \"send back\" staked tokens to put in proposer's balances\n        users[msg.sender].balance += proposerVals[1];\n        distributeToken.transferWeiTo(msg.sender, proposerVals[0] / 20);\n    }\n\n    // =====================================================================\n    // STAKE\n    // =====================================================================\n\n    /**\n    @notice Stake `_reputation` reputation on project at `_projectAddress`\n    @dev Prevents over staking and returns any excess reputation staked.\n    @param _projectAddress Address of the project\n    @param _reputation Amount of reputation to stake\n    */\n    function stakeReputation(address _projectAddress, uint256 _reputation) external {\n        require(!freeze);\n        require(projectRegistry.projects(_projectAddress) == true);\n        require(users[msg.sender].balance >= _reputation && _reputation > 0);                    //make sure project exists & RH has tokens to stake\n        Project project = Project(_projectAddress);\n        // handles edge case where someone attempts to stake past the staking deadline\n        projectRegistry.checkStaked(_projectAddress);\n        require(project.state() == 1);\n\n        uint256 repRemaining = project.reputationCost() - project.reputationStaked();\n        uint256 reputationVal = _reputation < repRemaining ? _reputation : repRemaining;\n        users[msg.sender].balance -= reputationVal;\n        Project(_projectAddress).stakeReputation(msg.sender, reputationVal);\n        bool staked = projectRegistry.checkStaked(_projectAddress);\n        emit LogStakedReputation(_projectAddress, _reputation, msg.sender, staked);\n    }\n\n    /**\n    @notice Unstake `_reputation` reputation from project at `_projectAddress`\n    @dev Require reputation to be unstaked to be greater than 0\n    @param _projectAddress Address of the project\n    @param _reputation Amount of reputation to unstake\n    */\n    function unstakeReputation(address _projectAddress, uint256 _reputation) external {\n        require(!freeze);\n        require(projectRegistry.projects(_projectAddress) == true);\n        require(_reputation > 0);\n        // handles edge case where someone attempts to stake past the staking deadline\n        projectRegistry.checkStaked(_projectAddress);\n\n        users[msg.sender].balance += _reputation;\n        Project(_projectAddress).unstakeReputation(msg.sender, _reputation);\n        emit LogUnstakedReputation(_projectAddress, _reputation, msg.sender);\n    }\n\n    /**\n    @notice Calculates the relative weight of an `_address`.\n    Weighting is calculated by the proportional amount of both reputation and tokens that have been\n    staked on the project.\n    @dev Returns an average of the token staking and reputation staking to understand the relative influence of a staker\n\n    @param _address Address of the staker\n    @return The relative weight of a staker as a whole integer\n    */\n    function calculateWeightOfAddress(\n        address _address\n    ) public view returns (uint256) {\n        return Division.percent(users[_address].balance, totalSupply, 15);\n    }\n\n\n    // =====================================================================\n    // TASK\n    // =====================================================================\n\n    /**\n    @notice Claim a task at index `_index` from project at `_projectAddress` with description\n    `_taskDescription` and weighting `_weighting`\n    @dev Requires the reputation of msg.sender to be greater than the reputationVal of the task\n    @param _projectAddress Address of the project\n    @param _index Index of the task\n    @param _taskDescription Description of the task\n    @param _weighting Weighting of the task\n    */\n    function claimTask(\n        address _projectAddress,\n        uint256 _index,\n        bytes32 _taskDescription,\n        uint _weighting\n    ) external {\n        require(!freeze);\n        require(projectRegistry.projects(_projectAddress) == true);\n        Project project = Project(_projectAddress);\n        require(project.hashListSubmitted() == true);\n        uint reputationVal = project.reputationCost() * _weighting / 100;\n        require(users[msg.sender].balance >= reputationVal);\n        uint weiVal = project.proposedCost() * _weighting / 100;\n        users[msg.sender].balance.sub(reputationVal);\n        projectRegistry.claimTask(\n            _projectAddress,\n            _index,\n            _taskDescription,\n            msg.sender,\n            _weighting,\n            weiVal,\n            reputationVal\n        );\n    }\n\n    /**\n    @notice Reward the claimer of a task that has been successfully validated.\n    @param _projectAddress Address of the project\n    @param _index Index of the task\n    */\n    // called by reputation holder who completed a task\n    function rewardTask(address _projectAddress, uint256 _index) external {\n        require(!freeze);\n        require(projectRegistry.projects(_projectAddress) == true);\n        uint256 reward = _projectAddress.claimTaskReward(_index, msg.sender);\n        users[msg.sender].balance += reward;\n    }\n\n    // =====================================================================\n    // VOTING\n    // =====================================================================\n\n    /**\n    @notice First part of voting process. Commits a vote using reputation to task at index `_index`\n    of project at `projectAddress` for reputation `_reputation`. Submits a secrect hash `_secretHash`,\n    which is a tightly packed hash of the voters choice and their salt\n    @param _projectAddress Address of the project\n    @param _index Index of the task\n    @param _votes Reputation to vote with\n    @param _secretHash Secret Hash of voter choice and salt\n    @param _prevPollID The nonce of the previous poll. This is stored off chain\n    */\n    function voteCommit(\n        address _projectAddress,\n        uint256 _index,\n        uint256 _votes,\n        bytes32 _secretHash,\n        uint256 _prevPollID\n    ) external {     //_secretHash Commit keccak256 hash of voter's choice and salt (tightly packed in this order), done off-chain\n        require(!freeze);\n        require(projectRegistry.projects(_projectAddress) == true);\n        uint256 pollId = Task(Project(_projectAddress).tasks(_index)).pollId();\n        //calculate available tokens for voting\n        uint256 availableVotes = plcrVoting.getAvailableTokens(msg.sender, 2);\n        //make sure msg.sender has tokens available in PLCR contract\n        //if not, request voting rights for token holder\n        if (availableVotes < _votes) {\n            uint votesCost = squaredAmount(_votes).sub(squaredAmount(availableVotes));\n            require(users[msg.sender].balance >= votesCost);\n            users[msg.sender].balance -= votesCost;\n            plcrVoting.requestVotingRights(msg.sender, _votes - availableVotes);\n        }\n        plcrVoting.commitVote(msg.sender, pollId, _secretHash, _votes, _prevPollID);\n        emit LogReputationVoteCommitted(_projectAddress, _index, _votes, _secretHash, pollId, msg.sender);\n    }\n\n    /**\n    @notice Second part of voting process. Reveal existing vote.\n    @param _projectAddress Address of the project\n    @param _index Index of the task\n    @param _voteOption Vote choice of account\n    @param _salt Salt of account\n    */\n    function voteReveal(\n        address _projectAddress,\n        uint256 _index,\n        uint256 _voteOption,\n        uint256 _salt\n    ) external {\n        require(!freeze);\n        require(projectRegistry.projects(_projectAddress) == true);\n        plcrVoting.revealVote(msg.sender, Task(Project(_projectAddress).tasks(_index)).pollId(), _voteOption, _salt);\n        emit LogReputationVoteRevealed(_projectAddress, _index, _voteOption, _salt, msg.sender);\n    }\n\n    /**\n    @notice Withdraw voting rights from PLCR Contract\n    @param _votes Amount of reputation to withdraw\n    */\n    function refundVotingReputation(uint256 _votes) external {\n        require(!freeze);\n        uint userVotes = plcrVoting.getAvailableTokens(msg.sender, 2);\n        require(_votes <= userVotes);\n        uint votesPrice = squaredAmount(userVotes) - squaredAmount(userVotes - _votes);\n        plcrVoting.withdrawVotingRights(msg.sender, _votes);\n        users[msg.sender].balance += votesPrice;\n    }\n\n    // =====================================================================\n    // COMPLETE\n    // =====================================================================\n\n    /**\n    @notice Refund a reputation staker from project at `_projectAddress`\n    @param _projectAddress Address of the project\n    */\n    function refundStaker(address _projectAddress) external {     //called by worker who staked or voted\n        require(!freeze);\n        require(projectRegistry.projects(_projectAddress) == true);\n        uint256 refund = _projectAddress.refundStaker(msg.sender, address(this));\n        require(refund > 0);\n        Project(_projectAddress).clearReputationStake(msg.sender);\n        users[msg.sender].balance = users[msg.sender].balance.add(refund);\n        if (Project(_projectAddress).state() == 6) {\n          uint256 reward = refund / 2;\n          users[msg.sender].balance = users[msg.sender].balance.add(reward);\n          totalSupply = totalSupply.add(reward);\n        }\n    }\n\n    /**\n    @notice Rescue unrevealed reputation votes from expired polls of task at `_index` of project at\n    `_projectAddress`\n    @param _projectAddress Address of the project\n    @param _index Index of the task\n    */\n    function rescueTokens(address _projectAddress, uint _index) external {\n        require(!freeze);\n        require(projectRegistry.projects(_projectAddress) == true);\n        uint256 pollId = Task(Project(_projectAddress).tasks(_index)).pollId();\n        plcrVoting.rescueTokens(msg.sender, pollId);\n        emit LogReputationVoteRescued(_projectAddress, _index, pollId, msg.sender);\n    }\n\n\n    // =====================================================================\n    // FAILED\n    // =====================================================================\n\n    /**\n    @notice Burn reputation in event of project failure\n    @dev Only callable by the ProjectRegistry contract\n    @param _reputation Amount of reputation to burn\n    */\n    function burnReputation(uint256 _reputation) external onlyPR {\n        require(!freeze);\n        totalSupply -= _reputation;\n    }\n\n}\n",
  "sourcePath": "/Users/jessicamarshall/distribute-app/contracts/contracts/ReputationRegistry.sol",
  "compiler": {
    "name": "solc",
    "version": "0.4.24+commit.e67f0147.Emscripten.clang"
  },
  "schemaVersion": "2.0.1",
  "updatedAt": "2018-11-28T18:55:51.150Z"
}