{
  "contractName": "SpoofedRR",
  "abi": [
    {
      "constant": true,
      "inputs": [],
      "name": "totalSupply",
      "outputs": [
        {
          "name": "",
          "type": "uint256"
        }
      ],
      "payable": false,
      "stateMutability": "view",
      "type": "function"
    },
    {
      "inputs": [],
      "payable": false,
      "stateMutability": "nonpayable",
      "type": "constructor"
    },
    {
      "constant": false,
      "inputs": [
        {
          "name": "_projAddr",
          "type": "address"
        },
        {
          "name": "_staker",
          "type": "address"
        },
        {
          "name": "_reputation",
          "type": "uint256"
        }
      ],
      "name": "callStakeReputation",
      "outputs": [],
      "payable": false,
      "stateMutability": "nonpayable",
      "type": "function"
    }
  ],
  "bytecode": "0x608060405234801561001057600080fd5b50620186a06000556101a2806100276000396000f30060806040526004361061004b5763ffffffff7c010000000000000000000000000000000000000000000000000000000060003504166318160ddd8114610050578063cbc3582c14610077575b600080fd5b34801561005c57600080fd5b506100656100b0565b60408051918252519081900360200190f35b34801561008357600080fd5b506100ae73ffffffffffffffffffffffffffffffffffffffff600435811690602435166044356100b6565b005b60005481565b8273ffffffffffffffffffffffffffffffffffffffff16637f306ba183836040518363ffffffff167c0100000000000000000000000000000000000000000000000000000000028152600401808373ffffffffffffffffffffffffffffffffffffffff1673ffffffffffffffffffffffffffffffffffffffff16815260200182815260200192505050600060405180830381600087803b15801561015957600080fd5b505af115801561016d573d6000803e3d6000fd5b505050505050505600a165627a7a723058207976c6cd0a0f7abe349ac934d410920ad2b90b8f546c394f44995f00f2d7d9f00029",
  "source": "pragma solidity ^0.4.21;\n\nimport \"./../Project.sol\";\n\ncontract SpoofedRR {\n\n    uint256 public totalSupply;\n\n    constructor () public {\n      totalSupply = 100000;\n    }\n\n    function callStakeReputation(address _projAddr, address _staker, uint256 _reputation) public {\n      Project(_projAddr).stakeReputation(_staker, _reputation);\n    }\n}\n",
  "sourcePath": "/Users/jessicamarshall/distribute-app/contracts/contracts/test/SpoofedRR.sol",
  "compiler": {
    "name": "solc",
    "version": "0.4.24+commit.e67f0147.Emscripten.clang"
  },
  "schemaVersion": "2.0.1",
  "updatedAt": "2018-11-28T19:10:32.145Z"
}