{
  "contractName": "SpoofedRR",
  "abi": [
    {
      "constant": true,
      "inputs": [],
      "name": "totalSupply",
      "outputs": [
        {
          "name": "",
          "type": "uint256"
        }
      ],
      "payable": false,
      "stateMutability": "view",
      "type": "function"
    },
    {
      "inputs": [],
      "payable": false,
      "stateMutability": "nonpayable",
      "type": "constructor"
    },
    {
      "constant": false,
      "inputs": [
        {
          "name": "_projAddr",
          "type": "address"
        },
        {
          "name": "_staker",
          "type": "address"
        },
        {
          "name": "_reputation",
          "type": "uint256"
        }
      ],
      "name": "callStakeReputation",
      "outputs": [],
      "payable": false,
      "stateMutability": "nonpayable",
      "type": "function"
    }
  ],
  "bytecode": "0x608060405234801561001057600080fd5b50620186a06000556101a8806100276000396000f3fe608060405234801561001057600080fd5b5060043610610052577c0100000000000000000000000000000000000000000000000000000000600035046318160ddd8114610057578063cbc3582c14610071575b600080fd5b61005f6100b6565b60408051918252519081900360200190f35b6100b46004803603606081101561008757600080fd5b5073ffffffffffffffffffffffffffffffffffffffff8135811691602081013590911690604001356100bc565b005b60005481565b8273ffffffffffffffffffffffffffffffffffffffff16637f306ba183836040518363ffffffff167c0100000000000000000000000000000000000000000000000000000000028152600401808373ffffffffffffffffffffffffffffffffffffffff1673ffffffffffffffffffffffffffffffffffffffff16815260200182815260200192505050600060405180830381600087803b15801561015f57600080fd5b505af1158015610173573d6000803e3d6000fd5b5050505050505056fea165627a7a723058208e2e9093c51482453abb45d5a446b29f183987600710bfbfa85651771ea7ec910029",
  "source": "pragma solidity ^0.5.0;\n\nimport \"./../Project.sol\";\n\ncontract SpoofedRR {\n\n    uint256 public totalSupply;\n\n    constructor () public {\n      totalSupply = 100000;\n    }\n\n    function callStakeReputation(address payable _projAddr, address _staker, uint256 _reputation) public {\n      Project(_projAddr).stakeReputation(_staker, _reputation);\n    }\n}\n",
  "sourcePath": "/Users/shokishoki/development/hypha/distribute-app/contracts/contracts/test/SpoofedRR.sol",
  "compiler": {
    "name": "solc",
    "version": "0.5.2+commit.1df8f40c.Emscripten.clang"
  },
  "schemaVersion": "3.0.0",
  "updatedAt": "2018-12-22T23:26:51.527Z",
  "devdoc": {
    "methods": {}
  },
  "userdoc": {
    "methods": {}
  }
}