{
  "contractName": "Task",
  "abi": [
    {
      "constant": true,
      "inputs": [],
      "name": "reputationRegistryAddress",
      "outputs": [
        {
          "name": "",
          "type": "address"
        }
      ],
      "payable": false,
      "stateMutability": "view",
      "type": "function",
      "signature": "0x0032be7f"
    },
    {
      "constant": true,
      "inputs": [],
      "name": "claimTime",
      "outputs": [
        {
          "name": "",
          "type": "uint256"
        }
      ],
      "payable": false,
      "stateMutability": "view",
      "type": "function",
      "signature": "0x27b3bf11"
    },
    {
      "constant": true,
      "inputs": [
        {
          "name": "",
          "type": "uint256"
        }
      ],
      "name": "negativeValidators",
      "outputs": [
        {
          "name": "",
          "type": "address"
        }
      ],
      "payable": false,
      "stateMutability": "view",
      "type": "function",
      "signature": "0x4a7de6dd"
    },
    {
      "constant": true,
      "inputs": [],
      "name": "complete",
      "outputs": [
        {
          "name": "",
          "type": "bool"
        }
      ],
      "payable": false,
      "stateMutability": "view",
      "type": "function",
      "signature": "0x522e1177"
    },
    {
      "constant": true,
      "inputs": [],
      "name": "weighting",
      "outputs": [
        {
          "name": "",
          "type": "uint256"
        }
      ],
      "payable": false,
      "stateMutability": "view",
      "type": "function",
      "signature": "0x599b6d23"
    },
    {
      "constant": true,
      "inputs": [],
      "name": "tokenRegistryAddress",
      "outputs": [
        {
          "name": "",
          "type": "address"
        }
      ],
      "payable": false,
      "stateMutability": "view",
      "type": "function",
      "signature": "0x5be2aca0"
    },
    {
      "constant": true,
      "inputs": [],
      "name": "pollId",
      "outputs": [
        {
          "name": "",
          "type": "uint256"
        }
      ],
      "payable": false,
      "stateMutability": "view",
      "type": "function",
      "signature": "0x6f13ab00"
    },
    {
      "constant": true,
      "inputs": [],
      "name": "affirmativeIndex",
      "outputs": [
        {
          "name": "",
          "type": "uint256"
        }
      ],
      "payable": false,
      "stateMutability": "view",
      "type": "function",
      "signature": "0x704d3126"
    },
    {
      "constant": true,
      "inputs": [],
      "name": "validationEntryFee",
      "outputs": [
        {
          "name": "",
          "type": "uint256"
        }
      ],
      "payable": false,
      "stateMutability": "view",
      "type": "function",
      "signature": "0x76e56763"
    },
    {
      "constant": true,
      "inputs": [
        {
          "name": "",
          "type": "uint256"
        }
      ],
      "name": "affirmativeValidators",
      "outputs": [
        {
          "name": "",
          "type": "address"
        }
      ],
      "payable": false,
      "stateMutability": "view",
      "type": "function",
      "signature": "0x79fd9576"
    },
    {
      "constant": true,
      "inputs": [],
      "name": "weiReward",
      "outputs": [
        {
          "name": "",
          "type": "uint256"
        }
      ],
      "payable": false,
      "stateMutability": "view",
      "type": "function",
      "signature": "0x7b566860"
    },
    {
      "constant": true,
      "inputs": [],
      "name": "claimable",
      "outputs": [
        {
          "name": "",
          "type": "bool"
        }
      ],
      "payable": false,
      "stateMutability": "view",
      "type": "function",
      "signature": "0xaf38d757"
    },
    {
      "constant": true,
      "inputs": [],
      "name": "taskHash",
      "outputs": [
        {
          "name": "",
          "type": "bytes32"
        }
      ],
      "payable": false,
      "stateMutability": "view",
      "type": "function",
      "signature": "0xb3e9fd2c"
    },
    {
      "constant": true,
      "inputs": [],
      "name": "projectRegistryAddress",
      "outputs": [
        {
          "name": "",
          "type": "address"
        }
      ],
      "payable": false,
      "stateMutability": "view",
      "type": "function",
      "signature": "0xb56750fd"
    },
    {
      "constant": true,
      "inputs": [],
      "name": "claimer",
      "outputs": [
        {
          "name": "",
          "type": "address"
        }
      ],
      "payable": false,
      "stateMutability": "view",
      "type": "function",
      "signature": "0xd379be23"
    },
    {
      "constant": true,
      "inputs": [],
      "name": "reputationReward",
      "outputs": [
        {
          "name": "",
          "type": "uint256"
        }
      ],
      "payable": false,
      "stateMutability": "view",
      "type": "function",
      "signature": "0xed1ff6d8"
    },
    {
      "constant": true,
      "inputs": [],
      "name": "claimableByRep",
      "outputs": [
        {
          "name": "",
          "type": "bool"
        }
      ],
      "payable": false,
      "stateMutability": "view",
      "type": "function",
      "signature": "0xedb151a8"
    },
    {
      "constant": true,
      "inputs": [
        {
          "name": "",
          "type": "address"
        }
      ],
      "name": "validators",
      "outputs": [
        {
          "name": "status",
          "type": "uint256"
        },
        {
          "name": "index",
          "type": "uint256"
        },
        {
          "name": "initialized",
          "type": "bool"
        }
      ],
      "payable": false,
      "stateMutability": "view",
      "type": "function",
      "signature": "0xfa52c7d8"
    },
    {
      "constant": true,
      "inputs": [],
      "name": "validateReward",
      "outputs": [
        {
          "name": "",
          "type": "uint256"
        }
      ],
      "payable": false,
      "stateMutability": "view",
      "type": "function",
      "signature": "0xfb92bdd8"
    },
    {
      "constant": true,
      "inputs": [],
      "name": "negativeIndex",
      "outputs": [
        {
          "name": "",
          "type": "uint256"
        }
      ],
      "payable": false,
      "stateMutability": "view",
      "type": "function",
      "signature": "0xfc6ebece"
    },
    {
      "constant": false,
      "inputs": [
        {
          "name": "_hash",
          "type": "bytes32"
        },
        {
          "name": "_tokenRegistry",
          "type": "address"
        },
        {
          "name": "_reputationRegistry",
          "type": "address"
        }
      ],
      "name": "setup",
      "outputs": [],
      "payable": false,
      "stateMutability": "nonpayable",
      "type": "function",
      "signature": "0xae4d1af6"
    },
    {
      "constant": false,
      "inputs": [
        {
          "name": "_weighting",
          "type": "uint256"
        }
      ],
      "name": "setWeighting",
      "outputs": [],
      "payable": false,
      "stateMutability": "nonpayable",
      "type": "function",
      "signature": "0x0a139925"
    },
    {
      "constant": false,
      "inputs": [
        {
          "name": "_weiVal",
          "type": "uint256"
        },
        {
          "name": "_reputationVal",
          "type": "uint256"
        },
        {
          "name": "_claimer",
          "type": "address"
        }
      ],
      "name": "setTaskReward",
      "outputs": [],
      "payable": false,
      "stateMutability": "nonpayable",
      "type": "function",
      "signature": "0x73cc18da"
    },
    {
      "constant": false,
      "inputs": [],
      "name": "markTaskComplete",
      "outputs": [],
      "payable": false,
      "stateMutability": "nonpayable",
      "type": "function",
      "signature": "0xc41a3265"
    },
    {
      "constant": false,
      "inputs": [
        {
          "name": "_entryFee",
          "type": "uint256"
        }
      ],
      "name": "setValidationEntryFee",
      "outputs": [
        {
          "name": "",
          "type": "uint256"
        }
      ],
      "payable": false,
      "stateMutability": "nonpayable",
      "type": "function",
      "signature": "0x18d35b64"
    },
    {
      "constant": false,
      "inputs": [
        {
          "name": "_validator",
          "type": "address"
        },
        {
          "name": "_validationVal",
          "type": "uint256"
        }
      ],
      "name": "setValidator",
      "outputs": [],
      "payable": false,
      "stateMutability": "nonpayable",
      "type": "function",
      "signature": "0xabb9406b"
    },
    {
      "constant": false,
      "inputs": [
        {
          "name": "_pollId",
          "type": "uint256"
        }
      ],
      "name": "setPollId",
      "outputs": [],
      "payable": false,
      "stateMutability": "nonpayable",
      "type": "function",
      "signature": "0xa58fcbaa"
    },
    {
      "constant": false,
      "inputs": [
        {
          "name": "_passed",
          "type": "bool"
        }
      ],
      "name": "markTaskClaimable",
      "outputs": [
        {
          "name": "",
          "type": "bool"
        }
      ],
      "payable": false,
      "stateMutability": "nonpayable",
      "type": "function",
      "signature": "0xb1ed11d1"
    },
    {
      "constant": true,
      "inputs": [
        {
          "name": "_validator",
          "type": "address"
        }
      ],
      "name": "getValidatorStatus",
      "outputs": [
        {
          "name": "",
          "type": "uint256"
        }
      ],
      "payable": false,
      "stateMutability": "view",
      "type": "function",
      "signature": "0xa310624f"
    },
    {
      "constant": true,
      "inputs": [
        {
          "name": "_validator",
          "type": "address"
        }
      ],
      "name": "getValidatorIndex",
      "outputs": [
        {
          "name": "",
          "type": "uint256"
        }
      ],
      "payable": false,
      "stateMutability": "view",
      "type": "function",
      "signature": "0x1fcc449e"
    },
    {
      "constant": false,
      "inputs": [
        {
          "name": "_validator",
          "type": "address"
        }
      ],
      "name": "setValidatorIndex",
      "outputs": [],
      "payable": false,
      "stateMutability": "nonpayable",
      "type": "function",
      "signature": "0x206cf0a8"
    }
  ],
  "bytecode": "0x608060405234801561001057600080fd5b506109d8806100206000396000f3fe608060405234801561001057600080fd5b5060043610610201576000357c0100000000000000000000000000000000000000000000000000000000900480637b5668601161012c578063b56750fd116100bf578063edb151a81161008e578063edb151a814610476578063fa52c7d81461047e578063fb92bdd8146104c4578063fc6ebece146104cc57610201565b8063b56750fd14610456578063c41a32651461045e578063d379be2314610466578063ed1ff6d81461046e57610201565b8063ae4d1af6116100fb578063ae4d1af6146103f3578063af38d75714610427578063b1ed11d11461042f578063b3e9fd2c1461044e57610201565b80637b5668601461037c578063a310624f14610384578063a58fcbaa146103aa578063abb9406b146103c757610201565b8063522e1177116101a4578063704d312611610173578063704d31261461031d57806373cc18da1461032557806376e567631461035757806379fd95761461035f57610201565b8063522e1177146102e9578063599b6d23146103055780635be2aca01461030d5780636f13ab001461031557610201565b80631fcc449e116101e05780631fcc449e14610278578063206cf0a81461029e57806327b3bf11146102c45780634a7de6dd146102cc57610201565b806232be7f146102065780630a1399251461022a57806318d35b6414610249575b600080fd5b61020e6104d4565b60408051600160a060020a039092168252519081900360200190f35b6102476004803603602081101561024057600080fd5b50356104e3565b005b6102666004803603602081101561025f57600080fd5b50356104ff565b60408051918252519081900360200190f35b6102666004803603602081101561028e57600080fd5b5035600160a060020a0316610520565b610247600480360360208110156102b457600080fd5b5035600160a060020a0316610569565b6102666105a1565b61020e600480360360208110156102e257600080fd5b50356105a7565b6102f16105c4565b604080519115158252519081900360200190f35b6102666105cd565b61020e6105d3565b6102666105e2565b6102666105e8565b6102476004803603606081101561033b57600080fd5b5080359060208101359060400135600160a060020a03166105ee565b61026661065e565b61020e6004803603602081101561037557600080fd5b5035610664565b610266610671565b6102666004803603602081101561039a57600080fd5b5035600160a060020a0316610677565b610247600480360360208110156103c057600080fd5b50356106bd565b610247600480360360408110156103dd57600080fd5b50600160a060020a0381351690602001356106e6565b6102476004803603606081101561040957600080fd5b50803590600160a060020a036020820135811691604001351661087c565b6102f16108c5565b6102f16004803603602081101561044557600080fd5b503515156108ce565b610266610919565b61020e61091f565b61024761092e565b61020e610954565b610266610968565b6102f161096e565b6104a46004803603602081101561049457600080fd5b5035600160a060020a031661097c565b604080519384526020840192909252151582820152519081900360600190f35b6102666109a0565b6102666109a6565b600254600160a060020a031681565b600054600160a060020a031633146104fa57600080fd5b600655565b60008054600160a060020a0316331461051757600080fd5b50600d81905590565b600160a060020a0381166000908152600b602052604081206002015460ff16151561054a57600080fd5b50600160a060020a03166000908152600b602052604090206001015490565b600154600160a060020a0316331461058057600080fd5b600160a060020a03166000908152600b602052604090206005600190910155565b60095481565b601581600581106105b457fe5b0154600160a060020a0316905081565b600a5460ff1681565b60065481565b600154600160a060020a031681565b60055481565b600e5481565b600054600160a060020a03163314806106115750600254600160a060020a031633145b151561061c57600080fd5b60079290925560085542600955600a8054600160a060020a039092166101000274ffffffffffffffffffffffffffffffffffffffffff19909216919091179055565b600d5481565b601081600581106105b457fe5b60075481565b600160a060020a0381166000908152600b602052604081206002015460ff1615156106a157600080fd5b50600160a060020a03166000908152600b602052604090205490565b600054600160a060020a031633146106d457600080fd5b600554156106e157600080fd5b600555565b600154600160a060020a031633146106fd57600080fd5b600160a060020a0382166000908152600b602052604090206002015460ff161561072657600080fd5b80600114156107d257600e5460051161073e57600080fd5b816010600e5460058110151561075057fe5b01805473ffffffffffffffffffffffffffffffffffffffff1916600160a060020a0392831617905560408051606081018252838152600e8054602080840191825260018486018181529689166000908152600b90925294902092518355518284015592516002909101805460ff19169115159190911790558154019055610878565b80151561087857600f546005116107e857600080fd5b816015600f546005811015156107fa57fe5b01805473ffffffffffffffffffffffffffffffffffffffff1916600160a060020a0392831617905560408051606081018252838152600f8054602080840191825260018486018181529689166000908152600b90925294902092518355518284015592516002909101805460ff191691151591909117905581540190555b5050565b6000805473ffffffffffffffffffffffffffffffffffffffff19908116331790915560018054600160a060020a0394851690831617905560028054929093169116179055600355565b60045460ff1681565b60008054600160a060020a031633146108e657600080fd5b6004805460ff191660011790558115610909576004805461ff0019166101001790555b5050600454610100900460ff1690565b60035481565b600054600160a060020a031681565b600054600160a060020a0316331461094557600080fd5b600a805460ff19166001179055565b600a546101009004600160a060020a031681565b60085481565b600454610100900460ff1681565b600b6020526000908152604090208054600182015460029092015490919060ff1683565b600c5481565b600f548156fea165627a7a723058205dea0cdc3d2d83344be72b0be4b06ddb0e4b56afde0c33fbdb00fadd66e7141f0029",
  "source": "pragma solidity ^0.5.0;\n\nimport \"./Project.sol\";\nimport \"./library/SafeMath.sol\";\n\n/**\n@title Task Contract for Distribute Network\n@author Team: Jessica Marshall, Ashoka Finley\n@notice  This contract manages a single task for a project\n@dev This contract is initialized by the Project Registry contract with the address of a valid\nTokenRegistry, and ReputationRegistry.\n*/\ncontract Task {\n\n    using SafeMath for uint256;\n\n    // =====================================================================\n    // STATE VARIABLES\n    // =====================================================================\n\n    address public projectRegistryAddress;\n    address public tokenRegistryAddress;\n    address public reputationRegistryAddress;\n\n    bytes32 public taskHash;\n    bool public claimable;\n    bool public claimableByRep;\n    uint256 public pollId;\n    uint256 public weighting;\n\n    uint256 public weiReward;\n    uint256 public reputationReward;\n    uint256 public claimTime;\n    bool public complete;\n    address public claimer;\n\n    mapping (address => Validator) public validators;\n    uint256 public validateReward;\n    uint256 public validationEntryFee;\n    uint256 public affirmativeIndex;\n    uint256 public negativeIndex;\n    address[5] public affirmativeValidators;\n    address[5] public negativeValidators;\n\n    struct Validator {\n        uint256 status;\n        uint256 index;\n        bool initialized;\n    }\n\n    // =====================================================================\n    // MODIFIERS\n    // =====================================================================\n\n    modifier onlyPR() {\n        require(msg.sender == projectRegistryAddress);\n        _;\n    }\n\n    modifier onlyTR() {\n        require(msg.sender == tokenRegistryAddress);\n        _;\n    }\n\n    modifier onlyPRorRR() {\n        require(msg.sender == projectRegistryAddress || msg.sender == reputationRegistryAddress);\n        _;\n    }\n\n    // =====================================================================\n    // CONSTRUCTOR\n    // =====================================================================\n\n    /**\n    @notice Initialize a task related to a project with a hash of the description and weighting\n    `_hash` and the addresses of the TokenRegistry `_tokenRegistry` and ReputationRegistry\n    `_reputationRegistry`    @dev Used for proxy deployment of this contract.\n    @param _hash Hash of the tasks Description and Weighting\n    @param _tokenRegistry Address of the TokenRegistry\n    @param _reputationRegistry Address of the ReputationRegistry\n    */\n    function setup(bytes32 _hash, address _tokenRegistry, address _reputationRegistry) public {\n        projectRegistryAddress = msg.sender;\n        tokenRegistryAddress = _tokenRegistry;\n        reputationRegistryAddress = _reputationRegistry;\n        taskHash = _hash;\n    }\n\n    // =====================================================================\n    // SETTERS\n    // =====================================================================\n\n    /**\n    @notice Set the weighting of the task to `_weighting` which represent the proportion of the project\n    cost it represents\n    @dev Only callable by the Project Registry\n    @param _weighting Weighting of the task\n    */\n    function setWeighting(uint256 _weighting) external onlyPR {\n        weighting = _weighting;\n    }\n\n    /**\n    @notice Set the ether reward of the task to `weiVal` and the required reputation to claim to\n    `_reputationVal`, with the address of the claimer `_claimer`\n    @dev Only callable by the ReputationRegistry or ProjectRegistry\n    @param _weiVal Ether Reward of the Task\n    @param _reputationVal Reputation threshold for claiming\n    @param _claimer Address of account who has claimed the task\n    */\n    function setTaskReward(uint256 _weiVal, uint256 _reputationVal, address _claimer) external onlyPRorRR {\n        weiReward = _weiVal;\n        reputationReward = _reputationVal;\n        claimTime = block.timestamp;\n        complete = false;\n        claimer = _claimer;\n    }\n\n    /**\n    @notice Marks task as completed\n    @dev Only callable by the Project Registry\n    */\n    function markTaskComplete() external onlyPR {\n        complete = true;\n    }\n\n    /**\n    @notice Sets the entry fee for validation\n    @dev Only callable by the Project Registry\n    */\n    function setValidationEntryFee(uint256 _entryFee) external onlyPR returns (uint) {\n        validationEntryFee = _entryFee;\n        return validationEntryFee;\n    }\n\n    /**\n    @notice Set a validator of the current task,\n    @dev Only callable by the Token Registry\n    @param _validator Address of validator\n    @param _validationVal Flag for positive or negative validation\n    */\n    function setValidator(address _validator, uint256 _validationVal) external onlyTR {\n        require(!validators[_validator].initialized);\n        if (_validationVal == 1) {\n          require(affirmativeIndex < 5);\n          affirmativeValidators[affirmativeIndex] = _validator;\n          validators[_validator] = Validator(_validationVal, affirmativeIndex, true);\n          affirmativeIndex += 1;\n        } else if (_validationVal == 0) {\n          require(negativeIndex < 5);\n          negativeValidators[negativeIndex] = _validator;\n          validators[_validator] = Validator(_validationVal, negativeIndex, true);\n          negativeIndex += 1;\n        }\n    }\n\n    /**\n    @notice Sets the PLCR poll id of the current task\n    @dev Only callable by Project Registery\n    @param _pollId Poll ID of PLCRVoting poll.\n    */\n    function setPollId(uint256 _pollId) external onlyPR {\n        require(pollId == 0);\n        pollId = _pollId;\n    }\n\n    /**\n    @notice Marks a task claimable by the correct or only validators. Determines if the task reward\n    is claimableByRep for the reputation holder who initially claimed the task.\n    @dev Only callable by the ProjectRegistry\n    @param _passed Boolean describing the validation state the task should be claimable for.\n    */\n    function markTaskClaimable(bool _passed) external onlyPR returns (bool) {\n        claimable = true;            // passed only matters in voting\n        if (_passed) { claimableByRep = true; }\n        return claimableByRep;\n    }\n\n    /**\n    @notice Return the validator status (affirmative or negative) of validator at `_validator`\n    @param _validator Address of validator\n    */\n    function getValidatorStatus(address _validator) external view returns (uint) {\n      require(validators[_validator].initialized);\n      return validators[_validator].status;\n    }\n\n    /**\n    @notice Return the validator validationindex of validator at `_validator`\n    @param _validator Address of validator\n    */\n    function getValidatorIndex(address _validator) external view returns (uint) {\n      require(validators[_validator].initialized);\n      return validators[_validator].index;\n    }\n\n\n    /**\n    @notice Clear the validator stake of validator at `_validator`\n    @dev Only callable by TokenRegistry\n    @param _validator Address of validator\n    */\n    function setValidatorIndex(address _validator) external onlyTR {\n        validators[_validator].index = 5;\n    }\n}\n",
  "sourcePath": "/Users/shokishoki/development/hypha/distribute-app/contracts/contracts/Task.sol",
  "compiler": {
    "name": "solc",
    "version": "0.5.2+commit.1df8f40c.Emscripten.clang"
  },
  "schemaVersion": "3.0.0",
  "updatedAt": "2018-12-21T20:46:41.079Z",
  "devdoc": {
    "author": "Team: Jessica Marshall, Ashoka Finley",
    "details": "This contract is initialized by the Project Registry contract with the address of a valid TokenRegistry, and ReputationRegistry.",
    "methods": {
      "getValidatorIndex(address)": {
        "params": {
          "_validator": "Address of validator"
        }
      },
      "getValidatorStatus(address)": {
        "params": {
          "_validator": "Address of validator"
        }
      },
      "markTaskClaimable(bool)": {
        "details": "Only callable by the ProjectRegistry",
        "params": {
          "_passed": "Boolean describing the validation state the task should be claimable for."
        }
      },
      "markTaskComplete()": {
        "details": "Only callable by the Project Registry"
      },
      "setPollId(uint256)": {
        "details": "Only callable by Project Registery",
        "params": {
          "_pollId": "Poll ID of PLCRVoting poll."
        }
      },
      "setTaskReward(uint256,uint256,address)": {
        "details": "Only callable by the ReputationRegistry or ProjectRegistry",
        "params": {
          "_claimer": "Address of account who has claimed the task",
          "_reputationVal": "Reputation threshold for claiming",
          "_weiVal": "Ether Reward of the Task"
        }
      },
      "setValidationEntryFee(uint256)": {
        "details": "Only callable by the Project Registry"
      },
      "setValidator(address,uint256)": {
        "details": "Only callable by the Token Registry",
        "params": {
          "_validationVal": "Flag for positive or negative validation",
          "_validator": "Address of validator"
        }
      },
      "setValidatorIndex(address)": {
        "details": "Only callable by TokenRegistry",
        "params": {
          "_validator": "Address of validator"
        }
      },
      "setWeighting(uint256)": {
        "details": "Only callable by the Project Registry",
        "params": {
          "_weighting": "Weighting of the task"
        }
      },
      "setup(bytes32,address,address)": {
        "details": "Used for proxy deployment of this contract.",
        "params": {
          "_hash": "Hash of the tasks Description and Weighting",
          "_reputationRegistry": "Address of the ReputationRegistry",
          "_tokenRegistry": "Address of the TokenRegistry"
        }
      }
    },
    "title": "Task Contract for Distribute Network"
  },
  "userdoc": {
    "methods": {
      "getValidatorIndex(address)": {
        "notice": "Return the validator validationindex of validator at `_validator`"
      },
      "getValidatorStatus(address)": {
        "notice": "Return the validator status (affirmative or negative) of validator at `_validator`"
      },
      "markTaskClaimable(bool)": {
        "notice": "Marks a task claimable by the correct or only validators. Determines if the task reward is claimableByRep for the reputation holder who initially claimed the task."
      },
      "markTaskComplete()": {
        "notice": "Marks task as completed"
      },
      "setPollId(uint256)": {
        "notice": "Sets the PLCR poll id of the current task"
      },
      "setTaskReward(uint256,uint256,address)": {
        "notice": "Set the ether reward of the task to `weiVal` and the required reputation to claim to `_reputationVal`, with the address of the claimer `_claimer`"
      },
      "setValidationEntryFee(uint256)": {
        "notice": "Sets the entry fee for validation"
      },
      "setValidator(address,uint256)": {
        "notice": "Set a validator of the current task,"
      },
      "setValidatorIndex(address)": {
        "notice": "Clear the validator stake of validator at `_validator`"
      },
      "setWeighting(uint256)": {
        "notice": "Set the weighting of the task to `_weighting` which represent the proportion of the project cost it represents"
      },
      "setup(bytes32,address,address)": {
        "notice": "Initialize a task related to a project with a hash of the description and weighting `_hash` and the addresses of the TokenRegistry `_tokenRegistry` and ReputationRegistry"
      }
    },
    "notice": "This contract manages a single task for a project"
  }
}