{
  "contractName": "Task",
  "abi": [
    {
      "constant": true,
      "inputs": [],
      "name": "reputationRegistryAddress",
      "outputs": [
        {
          "name": "",
          "type": "address"
        }
      ],
      "payable": false,
      "stateMutability": "view",
      "type": "function"
    },
    {
      "constant": true,
      "inputs": [],
      "name": "claimTime",
      "outputs": [
        {
          "name": "",
          "type": "uint256"
        }
      ],
      "payable": false,
      "stateMutability": "view",
      "type": "function"
    },
    {
      "constant": true,
      "inputs": [
        {
          "name": "",
          "type": "uint256"
        }
      ],
      "name": "negativeValidators",
      "outputs": [
        {
          "name": "",
          "type": "address"
        }
      ],
      "payable": false,
      "stateMutability": "view",
      "type": "function"
    },
    {
      "constant": true,
      "inputs": [],
      "name": "complete",
      "outputs": [
        {
          "name": "",
          "type": "bool"
        }
      ],
      "payable": false,
      "stateMutability": "view",
      "type": "function"
    },
    {
      "constant": true,
      "inputs": [],
      "name": "weighting",
      "outputs": [
        {
          "name": "",
          "type": "uint256"
        }
      ],
      "payable": false,
      "stateMutability": "view",
      "type": "function"
    },
    {
      "constant": true,
      "inputs": [],
      "name": "tokenRegistryAddress",
      "outputs": [
        {
          "name": "",
          "type": "address"
        }
      ],
      "payable": false,
      "stateMutability": "view",
      "type": "function"
    },
    {
      "constant": true,
      "inputs": [],
      "name": "pollId",
      "outputs": [
        {
          "name": "",
          "type": "uint256"
        }
      ],
      "payable": false,
      "stateMutability": "view",
      "type": "function"
    },
    {
      "constant": true,
      "inputs": [],
      "name": "affirmativeIndex",
      "outputs": [
        {
          "name": "",
          "type": "uint256"
        }
      ],
      "payable": false,
      "stateMutability": "view",
      "type": "function"
    },
    {
      "constant": true,
      "inputs": [],
      "name": "validationEntryFee",
      "outputs": [
        {
          "name": "",
          "type": "uint256"
        }
      ],
      "payable": false,
      "stateMutability": "view",
      "type": "function"
    },
    {
      "constant": true,
      "inputs": [
        {
          "name": "",
          "type": "uint256"
        }
      ],
      "name": "affirmativeValidators",
      "outputs": [
        {
          "name": "",
          "type": "address"
        }
      ],
      "payable": false,
      "stateMutability": "view",
      "type": "function"
    },
    {
      "constant": true,
      "inputs": [],
      "name": "weiReward",
      "outputs": [
        {
          "name": "",
          "type": "uint256"
        }
      ],
      "payable": false,
      "stateMutability": "view",
      "type": "function"
    },
    {
      "constant": true,
      "inputs": [],
      "name": "claimable",
      "outputs": [
        {
          "name": "",
          "type": "bool"
        }
      ],
      "payable": false,
      "stateMutability": "view",
      "type": "function"
    },
    {
      "constant": true,
      "inputs": [],
      "name": "taskHash",
      "outputs": [
        {
          "name": "",
          "type": "bytes32"
        }
      ],
      "payable": false,
      "stateMutability": "view",
      "type": "function"
    },
    {
      "constant": true,
      "inputs": [],
      "name": "projectRegistryAddress",
      "outputs": [
        {
          "name": "",
          "type": "address"
        }
      ],
      "payable": false,
      "stateMutability": "view",
      "type": "function"
    },
    {
      "constant": true,
      "inputs": [],
      "name": "claimer",
      "outputs": [
        {
          "name": "",
          "type": "address"
        }
      ],
      "payable": false,
      "stateMutability": "view",
      "type": "function"
    },
    {
      "constant": true,
      "inputs": [],
      "name": "reputationReward",
      "outputs": [
        {
          "name": "",
          "type": "uint256"
        }
      ],
      "payable": false,
      "stateMutability": "view",
      "type": "function"
    },
    {
      "constant": true,
      "inputs": [],
      "name": "claimableByRep",
      "outputs": [
        {
          "name": "",
          "type": "bool"
        }
      ],
      "payable": false,
      "stateMutability": "view",
      "type": "function"
    },
    {
      "constant": true,
      "inputs": [
        {
          "name": "",
          "type": "address"
        }
      ],
      "name": "validators",
      "outputs": [
        {
          "name": "status",
          "type": "uint256"
        },
        {
          "name": "index",
          "type": "uint256"
        },
        {
          "name": "initialized",
          "type": "bool"
        }
      ],
      "payable": false,
      "stateMutability": "view",
      "type": "function"
    },
    {
      "constant": true,
      "inputs": [],
      "name": "validateReward",
      "outputs": [
        {
          "name": "",
          "type": "uint256"
        }
      ],
      "payable": false,
      "stateMutability": "view",
      "type": "function"
    },
    {
      "constant": true,
      "inputs": [],
      "name": "negativeIndex",
      "outputs": [
        {
          "name": "",
          "type": "uint256"
        }
      ],
      "payable": false,
      "stateMutability": "view",
      "type": "function"
    },
    {
      "constant": false,
      "inputs": [
        {
          "name": "_hash",
          "type": "bytes32"
        },
        {
          "name": "_tokenRegistry",
          "type": "address"
        },
        {
          "name": "_reputationRegistry",
          "type": "address"
        }
      ],
      "name": "setup",
      "outputs": [],
      "payable": false,
      "stateMutability": "nonpayable",
      "type": "function"
    },
    {
      "constant": false,
      "inputs": [
        {
          "name": "_weighting",
          "type": "uint256"
        }
      ],
      "name": "setWeighting",
      "outputs": [],
      "payable": false,
      "stateMutability": "nonpayable",
      "type": "function"
    },
    {
      "constant": false,
      "inputs": [
        {
          "name": "_weiVal",
          "type": "uint256"
        },
        {
          "name": "_reputationVal",
          "type": "uint256"
        },
        {
          "name": "_claimer",
          "type": "address"
        }
      ],
      "name": "setTaskReward",
      "outputs": [],
      "payable": false,
      "stateMutability": "nonpayable",
      "type": "function"
    },
    {
      "constant": false,
      "inputs": [],
      "name": "markTaskComplete",
      "outputs": [],
      "payable": false,
      "stateMutability": "nonpayable",
      "type": "function"
    },
    {
      "constant": false,
      "inputs": [
        {
          "name": "_entryFee",
          "type": "uint256"
        }
      ],
      "name": "setValidationEntryFee",
      "outputs": [
        {
          "name": "",
          "type": "uint256"
        }
      ],
      "payable": false,
      "stateMutability": "nonpayable",
      "type": "function"
    },
    {
      "constant": false,
      "inputs": [
        {
          "name": "_validator",
          "type": "address"
        },
        {
          "name": "_validationVal",
          "type": "uint256"
        }
      ],
      "name": "setValidator",
      "outputs": [],
      "payable": false,
      "stateMutability": "nonpayable",
      "type": "function"
    },
    {
      "constant": false,
      "inputs": [
        {
          "name": "_pollId",
          "type": "uint256"
        }
      ],
      "name": "setPollId",
      "outputs": [],
      "payable": false,
      "stateMutability": "nonpayable",
      "type": "function"
    },
    {
      "constant": false,
      "inputs": [
        {
          "name": "_passed",
          "type": "bool"
        }
      ],
      "name": "markTaskClaimable",
      "outputs": [
        {
          "name": "",
          "type": "bool"
        }
      ],
      "payable": false,
      "stateMutability": "nonpayable",
      "type": "function"
    },
    {
      "constant": true,
      "inputs": [
        {
          "name": "_validator",
          "type": "address"
        }
      ],
      "name": "getValidatorStatus",
      "outputs": [
        {
          "name": "",
          "type": "uint256"
        }
      ],
      "payable": false,
      "stateMutability": "view",
      "type": "function"
    },
    {
      "constant": true,
      "inputs": [
        {
          "name": "_validator",
          "type": "address"
        }
      ],
      "name": "getValidatorIndex",
      "outputs": [
        {
          "name": "",
          "type": "uint256"
        }
      ],
      "payable": false,
      "stateMutability": "view",
      "type": "function"
    },
    {
      "constant": false,
      "inputs": [
        {
          "name": "_validator",
          "type": "address"
        }
      ],
      "name": "setValidatorIndex",
      "outputs": [],
      "payable": false,
      "stateMutability": "nonpayable",
      "type": "function"
    }
  ],
  "bytecode": "0x608060405234801561001057600080fd5b506109fb806100206000396000f3006080604052600436106101895763ffffffff7c010000000000000000000000000000000000000000000000000000000060003504166232be7f811461018e5780630a139925146101bf57806318d35b64146101d95780631fcc449e14610203578063206cf0a81461022457806327b3bf11146102455780634a7de6dd1461025a578063522e117714610272578063599b6d231461029b5780635be2aca0146102b05780636f13ab00146102c5578063704d3126146102da57806373cc18da146102ef57806376e567631461031657806379fd95761461032b5780637b56686014610343578063a310624f14610358578063a58fcbaa14610379578063abb9406b14610391578063ae4d1af6146103b5578063af38d757146103df578063b1ed11d1146103f4578063b3e9fd2c1461040e578063b56750fd14610423578063c41a326514610438578063d379be231461044d578063ed1ff6d814610462578063edb151a814610477578063fa52c7d81461048c578063fb92bdd8146104cd578063fc6ebece146104e2575b600080fd5b34801561019a57600080fd5b506101a36104f7565b60408051600160a060020a039092168252519081900360200190f35b3480156101cb57600080fd5b506101d7600435610506565b005b3480156101e557600080fd5b506101f1600435610522565b60408051918252519081900360200190f35b34801561020f57600080fd5b506101f1600160a060020a0360043516610543565b34801561023057600080fd5b506101d7600160a060020a036004351661058c565b34801561025157600080fd5b506101f16105c4565b34801561026657600080fd5b506101a36004356105ca565b34801561027e57600080fd5b506102876105e7565b604080519115158252519081900360200190f35b3480156102a757600080fd5b506101f16105f0565b3480156102bc57600080fd5b506101a36105f6565b3480156102d157600080fd5b506101f1610605565b3480156102e657600080fd5b506101f161060b565b3480156102fb57600080fd5b506101d7600435602435600160a060020a0360443516610611565b34801561032257600080fd5b506101f1610681565b34801561033757600080fd5b506101a3600435610687565b34801561034f57600080fd5b506101f1610694565b34801561036457600080fd5b506101f1600160a060020a036004351661069a565b34801561038557600080fd5b506101d76004356106e0565b34801561039d57600080fd5b506101d7600160a060020a0360043516602435610709565b3480156103c157600080fd5b506101d7600435600160a060020a036024358116906044351661089f565b3480156103eb57600080fd5b506102876108e8565b34801561040057600080fd5b5061028760043515156108f1565b34801561041a57600080fd5b506101f161093c565b34801561042f57600080fd5b506101a3610942565b34801561044457600080fd5b506101d7610951565b34801561045957600080fd5b506101a3610977565b34801561046e57600080fd5b506101f161098b565b34801561048357600080fd5b50610287610991565b34801561049857600080fd5b506104ad600160a060020a036004351661099f565b604080519384526020840192909252151582820152519081900360600190f35b3480156104d957600080fd5b506101f16109c3565b3480156104ee57600080fd5b506101f16109c9565b600254600160a060020a031681565b600054600160a060020a0316331461051d57600080fd5b600655565b60008054600160a060020a0316331461053a57600080fd5b50600d81905590565b600160a060020a0381166000908152600b602052604081206002015460ff16151561056d57600080fd5b50600160a060020a03166000908152600b602052604090206001015490565b600154600160a060020a031633146105a357600080fd5b600160a060020a03166000908152600b602052604090206005600190910155565b60095481565b601581600581106105d757fe5b0154600160a060020a0316905081565b600a5460ff1681565b60065481565b600154600160a060020a031681565b60055481565b600e5481565b600054600160a060020a03163314806106345750600254600160a060020a031633145b151561063f57600080fd5b60079290925560085542600955600a8054600160a060020a039092166101000274ffffffffffffffffffffffffffffffffffffffffff19909216919091179055565b600d5481565b601081600581106105d757fe5b60075481565b600160a060020a0381166000908152600b602052604081206002015460ff1615156106c457600080fd5b50600160a060020a03166000908152600b602052604090205490565b600054600160a060020a031633146106f757600080fd5b6005541561070457600080fd5b600555565b600154600160a060020a0316331461072057600080fd5b600160a060020a0382166000908152600b602052604090206002015460ff161561074957600080fd5b80600114156107f557600e5460051161076157600080fd5b816010600e5460058110151561077357fe5b01805473ffffffffffffffffffffffffffffffffffffffff1916600160a060020a0392831617905560408051606081018252838152600e8054602080840191825260018486018181529689166000908152600b90925294902092518355518284015592516002909101805460ff1916911515919091179055815401905561089b565b80151561089b57600f5460051161080b57600080fd5b816015600f5460058110151561081d57fe5b01805473ffffffffffffffffffffffffffffffffffffffff1916600160a060020a0392831617905560408051606081018252838152600f8054602080840191825260018486018181529689166000908152600b90925294902092518355518284015592516002909101805460ff191691151591909117905581540190555b5050565b6000805473ffffffffffffffffffffffffffffffffffffffff19908116331790915560018054600160a060020a0394851690831617905560028054929093169116179055600355565b60045460ff1681565b60008054600160a060020a0316331461090957600080fd5b6004805460ff19166001179055811561092c576004805461ff0019166101001790555b5050600454610100900460ff1690565b60035481565b600054600160a060020a031681565b600054600160a060020a0316331461096857600080fd5b600a805460ff19166001179055565b600a546101009004600160a060020a031681565b60085481565b600454610100900460ff1681565b600b6020526000908152604090208054600182015460029092015490919060ff1683565b600c5481565b600f54815600a165627a7a72305820b40d0e71484038f520ea8127a4db403657f06ec008107178e390d84b1da159cc0029",
  "source": "pragma solidity ^0.4.21;\n\nimport \"./Project.sol\";\nimport \"./library/SafeMath.sol\";\n\n/**\n@title Task Contract for Distribute Network\n@author Team: Jessica Marshall, Ashoka Finley\n@notice  This contract manages a single task for a project\n@dev This contract is initialized by the Project Registry contract with the address of a valid\nTokenRegistry, and ReputationRegistry.\n*/\ncontract Task {\n\n    using SafeMath for uint256;\n\n    // =====================================================================\n    // STATE VARIABLES\n    // =====================================================================\n\n    address public projectRegistryAddress;\n    address public tokenRegistryAddress;\n    address public reputationRegistryAddress;\n\n    bytes32 public taskHash;\n    bool public claimable;\n    bool public claimableByRep;\n    uint256 public pollId;\n    uint256 public weighting;\n\n    uint256 public weiReward;\n    uint256 public reputationReward;\n    uint256 public claimTime;\n    bool public complete;\n    address public claimer;\n\n    mapping (address => Validator) public validators;\n    uint256 public validateReward;\n    uint256 public validationEntryFee;\n    uint256 public affirmativeIndex;\n    uint256 public negativeIndex;\n    address[5] public affirmativeValidators;\n    address[5] public negativeValidators;\n\n    struct Validator {\n        uint256 status;\n        uint256 index;\n        bool initialized;\n    }\n\n    // =====================================================================\n    // MODIFIERS\n    // =====================================================================\n\n    modifier onlyPR() {\n        require(msg.sender == projectRegistryAddress);\n        _;\n    }\n\n    modifier onlyTR() {\n        require(msg.sender == tokenRegistryAddress);\n        _;\n    }\n\n    modifier onlyPRorRR() {\n        require(msg.sender == projectRegistryAddress || msg.sender == reputationRegistryAddress);\n        _;\n    }\n\n    // =====================================================================\n    // CONSTRUCTOR\n    // =====================================================================\n\n    /**\n    @notice Initialize a task related to a project with a hash of the description and weighting\n    `_hash` and the addresses of the TokenRegistry `_tokenRegistry` and ReputationRegistry\n    `_reputationRegistry`    @dev Used for proxy deployment of this contract.\n    @param _hash Hash of the tasks Description and Weighting\n    @param _tokenRegistry Address of the TokenRegistry\n    @param _reputationRegistry Address of the ReputationRegistry\n    */\n    function setup(bytes32 _hash, address _tokenRegistry, address _reputationRegistry) public {\n        projectRegistryAddress = msg.sender;\n        tokenRegistryAddress = _tokenRegistry;\n        reputationRegistryAddress = _reputationRegistry;\n        taskHash = _hash;\n    }\n\n    // =====================================================================\n    // SETTERS\n    // =====================================================================\n\n    /**\n    @notice Set the weighting of the task to `_weighting` which represent the proportion of the project\n    cost it represents\n    @dev Only callable by the Project Registry\n    @param _weighting Weighting of the task\n    */\n    function setWeighting(uint256 _weighting) external onlyPR {\n        weighting = _weighting;\n    }\n\n    /**\n    @notice Set the ether reward of the task to `weiVal` and the required reputation to claim to\n    `_reputationVal`, with the address of the claimer `_claimer`\n    @dev Only callable by the ReputationRegistry or ProjectRegistry\n    @param _weiVal Ether Reward of the Task\n    @param _reputationVal Reputation threshold for claiming\n    @param _claimer Address of account who has claimed the task\n    */\n    function setTaskReward(uint256 _weiVal, uint256 _reputationVal, address _claimer) external onlyPRorRR {\n        weiReward = _weiVal;\n        reputationReward = _reputationVal;\n        claimTime = block.timestamp;\n        complete = false;\n        claimer = _claimer;\n    }\n\n    /**\n    @notice Marks task as completed\n    @dev Only callable by the Project Registry\n    */\n    function markTaskComplete() external onlyPR {\n        complete = true;\n    }\n\n    /**\n    @notice Sets the entry fee for validation\n    @dev Only callable by the Project Registry\n    */\n    function setValidationEntryFee(uint256 _entryFee) external onlyPR returns (uint) {\n        validationEntryFee = _entryFee;\n        return validationEntryFee;\n    }\n\n    /**\n    @notice Set a validator of the current task,\n    @dev Only callable by the Token Registry\n    @param _validator Address of validator\n    @param _validationVal Flag for positive or negative validation\n    */\n    function setValidator(address _validator, uint256 _validationVal) external onlyTR {\n        require(!validators[_validator].initialized);\n        if (_validationVal == 1) {\n          require(affirmativeIndex < 5);\n          affirmativeValidators[affirmativeIndex] = _validator;\n          validators[_validator] = Validator(_validationVal, affirmativeIndex, true);\n          affirmativeIndex += 1;\n        } else if (_validationVal == 0) {\n          require(negativeIndex < 5);\n          negativeValidators[negativeIndex] = _validator;\n          validators[_validator] = Validator(_validationVal, negativeIndex, true);\n          negativeIndex += 1;\n        }\n    }\n\n    /**\n    @notice Sets the PLCR poll id of the current task\n    @dev Only callable by Project Registery\n    @param _pollId Poll ID of PLCRVoting poll.\n    */\n    function setPollId(uint256 _pollId) external onlyPR {\n        require(pollId == 0);\n        pollId = _pollId;\n    }\n\n    /**\n    @notice Marks a task claimable by the correct or only validators. Determines if the task reward\n    is claimableByRep for the reputation holder who initially claimed the task.\n    @dev Only callable by the ProjectRegistry\n    @param _passed Boolean describing the validation state the task should be claimable for.\n    */\n    function markTaskClaimable(bool _passed) external onlyPR returns (bool) {\n        claimable = true;            // passed only matters in voting\n        if (_passed) { claimableByRep = true; }\n        return claimableByRep;\n    }\n\n    /**\n    @notice Return the validator status (affirmative or negative) of validator at `_validator`\n    @param _validator Address of validator\n    */\n    function getValidatorStatus(address _validator) external view returns (uint) {\n      require(validators[_validator].initialized);\n      return validators[_validator].status;\n    }\n\n    /**\n    @notice Return the validator validationindex of validator at `_validator`\n    @param _validator Address of validator\n    */\n    function getValidatorIndex(address _validator) external view returns (uint) {\n      require(validators[_validator].initialized);\n      return validators[_validator].index;\n    }\n\n\n    /**\n    @notice Clear the validator stake of validator at `_validator`\n    @dev Only callable by TokenRegistry\n    @param _validator Address of validator\n    */\n    function setValidatorIndex(address _validator) external onlyTR {\n        validators[_validator].index = 5;\n    }\n}\n",
  "sourcePath": "/Users/jessicamarshall/distribute-app/contracts/contracts/Task.sol",
  "compiler": {
    "name": "solc",
    "version": "0.4.24+commit.e67f0147.Emscripten.clang"
  },
  "schemaVersion": "2.0.1",
  "updatedAt": "2018-11-28T18:55:51.094Z"
}