{
  "contractName": "TokenRegistry",
  "abi": [
    {
      "constant": false,
      "inputs": [],
      "name": "renounceOwnership",
      "outputs": [],
      "payable": false,
      "stateMutability": "nonpayable",
      "type": "function",
      "signature": "0x715018a6"
    },
    {
      "constant": true,
      "inputs": [],
      "name": "owner",
      "outputs": [
        {
          "name": "",
          "type": "address"
        }
      ],
      "payable": false,
      "stateMutability": "view",
      "type": "function",
      "signature": "0x8da5cb5b"
    },
    {
      "constant": false,
      "inputs": [
        {
          "name": "_newOwner",
          "type": "address"
        }
      ],
      "name": "transferOwnership",
      "outputs": [],
      "payable": false,
      "stateMutability": "nonpayable",
      "type": "function",
      "signature": "0xf2fde38b"
    },
    {
      "payable": true,
      "stateMutability": "payable",
      "type": "fallback"
    },
    {
      "anonymous": false,
      "inputs": [
        {
          "indexed": false,
          "name": "projectAddress",
          "type": "address"
        },
        {
          "indexed": false,
          "name": "weiCost",
          "type": "uint256"
        },
        {
          "indexed": false,
          "name": "tokenCost",
          "type": "uint256"
        }
      ],
      "name": "LogProjectCreated",
      "type": "event",
      "signature": "0x809523e516336d444261958e529ac0ff837801879a12fe6b90c087a267adde4a"
    },
    {
      "anonymous": false,
      "inputs": [
        {
          "indexed": true,
          "name": "projectAddress",
          "type": "address"
        },
        {
          "indexed": false,
          "name": "tokens",
          "type": "uint256"
        },
        {
          "indexed": false,
          "name": "weiChange",
          "type": "uint256"
        },
        {
          "indexed": false,
          "name": "staker",
          "type": "address"
        },
        {
          "indexed": false,
          "name": "staked",
          "type": "bool"
        }
      ],
      "name": "LogStakedTokens",
      "type": "event",
      "signature": "0xa8371176c22bf281f3dc4915c8ef1ce66ba9399788cdc0a97b11546e6a7fa58b"
    },
    {
      "anonymous": false,
      "inputs": [
        {
          "indexed": true,
          "name": "projectAddress",
          "type": "address"
        },
        {
          "indexed": false,
          "name": "tokens",
          "type": "uint256"
        },
        {
          "indexed": false,
          "name": "weiChange",
          "type": "uint256"
        },
        {
          "indexed": false,
          "name": "unstaker",
          "type": "address"
        }
      ],
      "name": "LogUnstakedTokens",
      "type": "event",
      "signature": "0x62d1d6ab164da3479211e8a3d70cd851b256bafcd0944d19e63f4cc7a844dcc1"
    },
    {
      "anonymous": false,
      "inputs": [
        {
          "indexed": true,
          "name": "projectAddress",
          "type": "address"
        },
        {
          "indexed": false,
          "name": "validationFee",
          "type": "uint256"
        },
        {
          "indexed": false,
          "name": "validationState",
          "type": "bool"
        },
        {
          "indexed": false,
          "name": "taskIndex",
          "type": "uint256"
        },
        {
          "indexed": false,
          "name": "validator",
          "type": "address"
        }
      ],
      "name": "LogValidateTask",
      "type": "event",
      "signature": "0xfcf6e0d779a85721c9473df9f29a18721c43158bf6a1a0dad03051657d3835ec"
    },
    {
      "anonymous": false,
      "inputs": [
        {
          "indexed": true,
          "name": "projectAddress",
          "type": "address"
        },
        {
          "indexed": false,
          "name": "index",
          "type": "uint256"
        },
        {
          "indexed": false,
          "name": "weiReward",
          "type": "uint256"
        },
        {
          "indexed": false,
          "name": "returnAmount",
          "type": "uint256"
        },
        {
          "indexed": false,
          "name": "validator",
          "type": "address"
        }
      ],
      "name": "LogRewardValidator",
      "type": "event",
      "signature": "0x93695f5e3157c7a48c3ea364f7eeb208c65b7cb4a92de4eed5621e667b08b71a"
    },
    {
      "anonymous": false,
      "inputs": [
        {
          "indexed": true,
          "name": "projectAddress",
          "type": "address"
        },
        {
          "indexed": false,
          "name": "index",
          "type": "uint256"
        },
        {
          "indexed": false,
          "name": "tokens",
          "type": "uint256"
        },
        {
          "indexed": false,
          "name": "secretHash",
          "type": "bytes32"
        },
        {
          "indexed": false,
          "name": "pollId",
          "type": "uint256"
        },
        {
          "indexed": false,
          "name": "voter",
          "type": "address"
        }
      ],
      "name": "LogTokenVoteCommitted",
      "type": "event",
      "signature": "0x68221fadcfe0c0fde343f46140139a9eb6c6207de21b416db6fff5c8af60354c"
    },
    {
      "anonymous": false,
      "inputs": [
        {
          "indexed": true,
          "name": "projectAddress",
          "type": "address"
        },
        {
          "indexed": false,
          "name": "index",
          "type": "uint256"
        },
        {
          "indexed": false,
          "name": "voteOption",
          "type": "uint256"
        },
        {
          "indexed": false,
          "name": "salt",
          "type": "uint256"
        },
        {
          "indexed": false,
          "name": "voter",
          "type": "address"
        }
      ],
      "name": "LogTokenVoteRevealed",
      "type": "event",
      "signature": "0xcd3cc68af7e16451e0a3813cbed811e5b4fbf81d420f05de34eb66a57e45802e"
    },
    {
      "anonymous": false,
      "inputs": [
        {
          "indexed": true,
          "name": "projectAddress",
          "type": "address"
        },
        {
          "indexed": false,
          "name": "index",
          "type": "uint256"
        },
        {
          "indexed": false,
          "name": "pollId",
          "type": "uint256"
        },
        {
          "indexed": false,
          "name": "voter",
          "type": "address"
        }
      ],
      "name": "LogTokenVoteRescued",
      "type": "event",
      "signature": "0x2f5ad399033fbb479a9133244f1ac6c0f52e6eacc10a0c83200149062c877e7c"
    },
    {
      "anonymous": false,
      "inputs": [
        {
          "indexed": true,
          "name": "previousOwner",
          "type": "address"
        }
      ],
      "name": "OwnershipRenounced",
      "type": "event",
      "signature": "0xf8df31144d9c2f0f6b59d69b8b98abd5459d07f2742c4df920b25aae33c64820"
    },
    {
      "anonymous": false,
      "inputs": [
        {
          "indexed": true,
          "name": "previousOwner",
          "type": "address"
        },
        {
          "indexed": true,
          "name": "newOwner",
          "type": "address"
        }
      ],
      "name": "OwnershipTransferred",
      "type": "event",
      "signature": "0x8be0079c531659141344cd1fd0a4f28419497f9722a3daafe3b4186f6b6457e0"
    },
    {
      "constant": false,
      "inputs": [
        {
          "name": "_distributeToken",
          "type": "address"
        },
        {
          "name": "_projectRegistry",
          "type": "address"
        },
        {
          "name": "_plcrVoting",
          "type": "address"
        }
      ],
      "name": "init",
      "outputs": [],
      "payable": false,
      "stateMutability": "nonpayable",
      "type": "function",
      "signature": "0x184b9559"
    },
    {
      "constant": false,
      "inputs": [],
      "name": "freezeContract",
      "outputs": [],
      "payable": false,
      "stateMutability": "nonpayable",
      "type": "function",
      "signature": "0xa584a9b5"
    },
    {
      "constant": false,
      "inputs": [],
      "name": "unfreezeContract",
      "outputs": [],
      "payable": false,
      "stateMutability": "nonpayable",
      "type": "function",
      "signature": "0xf4917dd3"
    },
    {
      "constant": false,
      "inputs": [
        {
          "name": "_newPlcrVoting",
          "type": "address"
        }
      ],
      "name": "updatePLCRVoting",
      "outputs": [],
      "payable": false,
      "stateMutability": "nonpayable",
      "type": "function",
      "signature": "0x52a220b7"
    },
    {
      "constant": false,
      "inputs": [
        {
          "name": "_newDistributeToken",
          "type": "address"
        }
      ],
      "name": "updateDistributeToken",
      "outputs": [],
      "payable": false,
      "stateMutability": "nonpayable",
      "type": "function",
      "signature": "0x04b53415"
    },
    {
      "constant": false,
      "inputs": [
        {
          "name": "_newProjectRegistry",
          "type": "address"
        }
      ],
      "name": "updateProjectRegistry",
      "outputs": [],
      "payable": false,
      "stateMutability": "nonpayable",
      "type": "function",
      "signature": "0xf3e6e08a"
    },
    {
      "constant": false,
      "inputs": [
        {
          "name": "_cost",
          "type": "uint256"
        },
        {
          "name": "_stakingPeriod",
          "type": "uint256"
        },
        {
          "name": "_ipfsHash",
          "type": "bytes"
        }
      ],
      "name": "proposeProject",
      "outputs": [],
      "payable": false,
      "stateMutability": "nonpayable",
      "type": "function",
      "signature": "0x74f8c4d2"
    },
    {
      "constant": false,
      "inputs": [
        {
          "name": "_projectAddress",
          "type": "address"
        }
      ],
      "name": "refundProposer",
      "outputs": [],
      "payable": false,
      "stateMutability": "nonpayable",
      "type": "function",
      "signature": "0x4012c2a2"
    },
    {
      "constant": false,
      "inputs": [
        {
          "name": "_projectAddress",
          "type": "address"
        }
      ],
      "name": "rewardOriginator",
      "outputs": [],
      "payable": false,
      "stateMutability": "nonpayable",
      "type": "function",
      "signature": "0x8e03db2b"
    },
    {
      "constant": false,
      "inputs": [
        {
          "name": "_projectAddress",
          "type": "address"
        },
        {
          "name": "_tokens",
          "type": "uint256"
        }
      ],
      "name": "stakeTokens",
      "outputs": [],
      "payable": false,
      "stateMutability": "nonpayable",
      "type": "function",
      "signature": "0x79a83f5a"
    },
    {
      "constant": false,
      "inputs": [
        {
          "name": "_projectAddress",
          "type": "address"
        },
        {
          "name": "_tokens",
          "type": "uint256"
        }
      ],
      "name": "unstakeTokens",
      "outputs": [],
      "payable": false,
      "stateMutability": "nonpayable",
      "type": "function",
      "signature": "0xe89a173e"
    },
    {
      "constant": true,
      "inputs": [
        {
          "name": "_address",
          "type": "address"
        }
      ],
      "name": "calculateWeightOfAddress",
      "outputs": [
        {
          "name": "",
          "type": "uint256"
        }
      ],
      "payable": false,
      "stateMutability": "view",
      "type": "function",
      "signature": "0x8be1c84e"
    },
    {
      "constant": false,
      "inputs": [
        {
          "name": "_projectAddress",
          "type": "address"
        },
        {
          "name": "_taskIndex",
          "type": "uint256"
        },
        {
          "name": "_validationState",
          "type": "bool"
        }
      ],
      "name": "validateTask",
      "outputs": [],
      "payable": false,
      "stateMutability": "nonpayable",
      "type": "function",
      "signature": "0xc71ce415"
    },
    {
      "constant": false,
      "inputs": [
        {
          "name": "_projectAddress",
          "type": "address"
        },
        {
          "name": "_index",
          "type": "uint256"
        }
      ],
      "name": "rewardValidator",
      "outputs": [],
      "payable": false,
      "stateMutability": "nonpayable",
      "type": "function",
      "signature": "0xbdbff2f1"
    },
    {
      "constant": false,
      "inputs": [
        {
          "name": "_projectAddress",
          "type": "address"
        },
        {
          "name": "_index",
          "type": "uint256"
        },
        {
          "name": "_votes",
          "type": "uint256"
        },
        {
          "name": "_secretHash",
          "type": "bytes32"
        },
        {
          "name": "_prevPollID",
          "type": "uint256"
        }
      ],
      "name": "voteCommit",
      "outputs": [],
      "payable": false,
      "stateMutability": "nonpayable",
      "type": "function",
      "signature": "0x2f27ea1f"
    },
    {
      "constant": false,
      "inputs": [
        {
          "name": "_projectAddress",
          "type": "address"
        },
        {
          "name": "_index",
          "type": "uint256"
        },
        {
          "name": "_voteOption",
          "type": "uint256"
        },
        {
          "name": "_salt",
          "type": "uint256"
        }
      ],
      "name": "voteReveal",
      "outputs": [],
      "payable": false,
      "stateMutability": "nonpayable",
      "type": "function",
      "signature": "0xe096fff0"
    },
    {
      "constant": false,
      "inputs": [
        {
          "name": "_votes",
          "type": "uint256"
        }
      ],
      "name": "refundVotingTokens",
      "outputs": [],
      "payable": false,
      "stateMutability": "nonpayable",
      "type": "function",
      "signature": "0x9ab67673"
    },
    {
      "constant": false,
      "inputs": [
        {
          "name": "_projectAddress",
          "type": "address"
        }
      ],
      "name": "refundStaker",
      "outputs": [],
      "payable": false,
      "stateMutability": "nonpayable",
      "type": "function",
      "signature": "0x5c352318"
    },
    {
      "constant": false,
      "inputs": [
        {
          "name": "_projectAddress",
          "type": "address"
        },
        {
          "name": "_index",
          "type": "uint256"
        }
      ],
      "name": "rescueTokens",
      "outputs": [],
      "payable": false,
      "stateMutability": "nonpayable",
      "type": "function",
      "signature": "0x57376198"
    },
    {
      "constant": false,
      "inputs": [
        {
          "name": "_value",
          "type": "uint256"
        }
      ],
      "name": "revertWei",
      "outputs": [],
      "payable": false,
      "stateMutability": "nonpayable",
      "type": "function",
      "signature": "0x75f6857b"
    },
    {
      "constant": false,
      "inputs": [
        {
          "name": "_tokens",
          "type": "uint256"
        }
      ],
      "name": "burnTokens",
      "outputs": [],
      "payable": false,
      "stateMutability": "nonpayable",
      "type": "function",
      "signature": "0x6d1b229d"
    }
  ],
  "bytecode": "0x6080604052642e90edd000600455606460055560008054600160a060020a03191633179055613f2f806100336000396000f3fe60806040526004361061014f5760003560e060020a900480638be1c84e116100ba578063c71ce41511610073578063c71ce41514610532578063e096fff014610573578063e89a173e146105b8578063f2fde38b146105f1578063f3e6e08a14610624578063f4917dd3146106575761014f565b80638be1c84e146104115780638da5cb5b146104565780638e03db2b146104875780639ab67673146104ba578063a584a9b5146104e4578063bdbff2f1146104f95761014f565b80635c3523181161010c5780635c352318146102b35780636d1b229d146102e6578063715018a61461031057806374f8c4d21461032557806375f6857b146103ae57806379a83f5a146103d85761014f565b806304b5341514610151578063184b9559146101845780632f27ea1f146101c95780634012c2a21461021457806352a220b714610247578063573761981461027a575b005b34801561015d57600080fd5b5061014f6004803603602081101561017457600080fd5b5035600160a060020a031661066c565b34801561019057600080fd5b5061014f600480360360608110156101a757600080fd5b50600160a060020a0381358116916020810135821691604090910135166106b2565b3480156101d557600080fd5b5061014f600480360360a08110156101ec57600080fd5b50600160a060020a038135169060208101359060408101359060608101359060800135610740565b34801561022057600080fd5b5061014f6004803603602081101561023757600080fd5b5035600160a060020a0316610c22565b34801561025357600080fd5b5061014f6004803603602081101561026a57600080fd5b5035600160a060020a0316610ef1565b34801561028657600080fd5b5061014f6004803603604081101561029d57600080fd5b50600160a060020a038135169060200135610f37565b3480156102bf57600080fd5b5061014f600480360360208110156102d657600080fd5b5035600160a060020a03166111a4565b3480156102f257600080fd5b5061014f6004803603602081101561030957600080fd5b503561150f565b34801561031c57600080fd5b5061014f6115b7565b34801561033157600080fd5b5061014f6004803603606081101561034857600080fd5b81359160208101359181019060608101604082013564010000000081111561036f57600080fd5b82018360208201111561038157600080fd5b803590602001918460018302840111640100000000831117156103a357600080fd5b509092509050611623565b3480156103ba57600080fd5b5061014f600480360360208110156103d157600080fd5b50356119ea565b3480156103e457600080fd5b5061014f600480360360408110156103fb57600080fd5b50600160a060020a038135169060200135611a77565b34801561041d57600080fd5b506104446004803603602081101561043457600080fd5b5035600160a060020a0316612107565b60408051918252519081900360200190f35b34801561046257600080fd5b5061046b61221e565b60408051600160a060020a039092168252519081900360200190f35b34801561049357600080fd5b5061014f600480360360208110156104aa57600080fd5b5035600160a060020a031661222d565b3480156104c657600080fd5b5061014f600480360360208110156104dd57600080fd5b50356123ff565b3480156104f057600080fd5b5061014f6125d4565b34801561050557600080fd5b5061014f6004803603604081101561051c57600080fd5b50600160a060020a0381351690602001356125fa565b34801561053e57600080fd5b5061014f6004803603606081101561055557600080fd5b50600160a060020a03813516906020810135906040013515156133ea565b34801561057f57600080fd5b5061014f6004803603608081101561059657600080fd5b50600160a060020a038135169060208101359060408101359060600135613791565b3480156105c457600080fd5b5061014f600480360360408110156105db57600080fd5b50600160a060020a038135169060200135613a19565b3480156105fd57600080fd5b5061014f6004803603602081101561061457600080fd5b5035600160a060020a0316613d3c565b34801561063057600080fd5b5061014f6004803603602081101561064757600080fd5b5035600160a060020a0316613d5f565b34801561066357600080fd5b5061014f613da5565b600054600160a060020a0316331461068357600080fd5b6002805473ffffffffffffffffffffffffffffffffffffffff1916600160a060020a0392909216919091179055565b600254600160a060020a03161580156106d45750600154600160a060020a0316155b80156106e95750600354600160a060020a0316155b15156106f457600080fd5b60028054600160a060020a0394851673ffffffffffffffffffffffffffffffffffffffff1991821617909155600180549385169382169390931790925560038054919093169116179055565b60065460ff161561075057600080fd5b6001546040805160e060020a63840e78fd028152600160a060020a0388811660048301529151919092169163840e78fd916024808301926020929190829003018186803b1580156107a057600080fd5b505afa1580156107b4573d6000803e3d6000fd5b505050506040513d60208110156107ca57600080fd5b505115156001146107da57600080fd5b600085600160a060020a0316638d977672866040518263ffffffff1660e060020a0281526004018082815260200191505060206040518083038186803b15801561082357600080fd5b505afa158015610837573d6000803e3d6000fd5b505050506040513d602081101561084d57600080fd5b5051604080517f6f13ab000000000000000000000000000000000000000000000000000000000081529051600160a060020a0390921691636f13ab0091600480820192602092909190829003018186803b1580156108aa57600080fd5b505afa1580156108be573d6000803e3d6000fd5b505050506040513d60208110156108d457600080fd5b5051600354604080517f9f68ce54000000000000000000000000000000000000000000000000000000008152336004820152600160248201529051929350600092600160a060020a0390921691639f68ce5491604480820192602092909190829003018186803b15801561094757600080fd5b505afa15801561095b573d6000803e3d6000fd5b505050506040513d602081101561097157600080fd5b5051905084811015610b2757600061098882613dc8565b61099187613dc8565b6002546040805160e060020a6370a0823102815233600482015290519390920393508392600160a060020a03909116916370a08231916024808301926020929190829003018186803b1580156109e657600080fd5b505afa1580156109fa573d6000803e3d6000fd5b505050506040513d6020811015610a1057600080fd5b50511015610a1d57600080fd5b6002546040805160e060020a639e88fd81028152336004820152602481018490529051600160a060020a0390921691639e88fd81916044808201926020929091908290030181600087803b158015610a7457600080fd5b505af1158015610a88573d6000803e3d6000fd5b505050506040513d6020811015610a9e57600080fd5b5050600354604080517fc5fa801b00000000000000000000000000000000000000000000000000000000815233600482015284890360248201529051600160a060020a039092169163c5fa801b9160448082019260009290919082900301818387803b158015610b0d57600080fd5b505af1158015610b21573d6000803e3d6000fd5b50505050505b600354604080517f5e28fd5e000000000000000000000000000000000000000000000000000000008152336004820152602481018590526044810187905260648101889052608481018690529051600160a060020a0390921691635e28fd5e9160a48082019260009290919082900301818387803b158015610ba857600080fd5b505af1158015610bbc573d6000803e3d6000fd5b50506040805189815260208101899052808201889052606081018690523360808201529051600160a060020a038b1693507f68221fadcfe0c0fde343f46140139a9eb6c6207de21b416db6fff5c8af60354c92509081900360a00190a250505050505050565b60065460ff1615610c3257600080fd5b600081905033600160a060020a031681600160a060020a031663a8e4fb906040518163ffffffff1660e060020a02815260040160206040518083038186803b158015610c7d57600080fd5b505afa158015610c91573d6000803e3d6000fd5b505050506040513d6020811015610ca757600080fd5b5051600160a060020a031614610cbc57600080fd5b80600160a060020a03166316ddf0216040518163ffffffff1660e060020a02815260040160206040518083038186803b158015610cf857600080fd5b505afa158015610d0c573d6000803e3d6000fd5b505050506040513d6020811015610d2257600080fd5b5051600114610d3057600080fd5b610d38613ee8565b600154604080517faab1d6df000000000000000000000000000000000000000000000000000000008152600160a060020a038681166004830152336024830152825193169263aab1d6df926044808401939192918290030181600087803b158015610da257600080fd5b505af1158015610db6573d6000803e3d6000fd5b505050506040513d601f19601f820116820180604052506040811015610ddb57600080fd5b506002546020808301516040805160e160020a63141bb07d028152336004820152602481019290925251939450600160a060020a039092169263283760fa9260448082019392918290030181600087803b158015610e3857600080fd5b505af1158015610e4c573d6000803e3d6000fd5b505050506040513d6020811015610e6257600080fd5b50506002548151604080517f53c333cd0000000000000000000000000000000000000000000000000000000081523360048201526014909204602483015251600160a060020a03909216916353c333cd9160448082019260009290919082900301818387803b158015610ed457600080fd5b505af1158015610ee8573d6000803e3d6000fd5b50505050505050565b600054600160a060020a03163314610f0857600080fd5b6003805473ffffffffffffffffffffffffffffffffffffffff1916600160a060020a0392909216919091179055565b60065460ff1615610f4757600080fd5b6001546040805160e060020a63840e78fd028152600160a060020a0385811660048301529151919092169163840e78fd916024808301926020929190829003018186803b158015610f9757600080fd5b505afa158015610fab573d6000803e3d6000fd5b505050506040513d6020811015610fc157600080fd5b50511515600114610fd157600080fd5b600082600160a060020a0316638d977672836040518263ffffffff1660e060020a0281526004018082815260200191505060206040518083038186803b15801561101a57600080fd5b505afa15801561102e573d6000803e3d6000fd5b505050506040513d602081101561104457600080fd5b5051604080517f6f13ab000000000000000000000000000000000000000000000000000000000081529051600160a060020a0390921691636f13ab0091600480820192602092909190829003018186803b1580156110a157600080fd5b505afa1580156110b5573d6000803e3d6000fd5b505050506040513d60208110156110cb57600080fd5b5051600354604080517f57376198000000000000000000000000000000000000000000000000000000008152336004820152602481018490529051929350600160a060020a039091169163573761989160448082019260009290919082900301818387803b15801561113c57600080fd5b505af1158015611150573d6000803e3d6000fd5b5050604080518581526020810185905233818301529051600160a060020a03871693507f2f5ad399033fbb479a9133244f1ac6c0f52e6eacc10a0c83200149062c877e7c92509081900360600190a2505050565b60065460ff16156111b457600080fd5b6001546040805160e060020a63840e78fd028152600160a060020a0384811660048301529151919092169163840e78fd916024808301926020929190829003018186803b15801561120457600080fd5b505afa158015611218573d6000803e3d6000fd5b505050506040513d602081101561122e57600080fd5b5051151560011461123e57600080fd5b604080517fb7d00f73000000000000000000000000000000000000000000000000000000008152600160a060020a0383166004820152336024820152306044820152905160009173__ProjectLibrary________________________9163b7d00f7391606480820192602092909190829003018186803b1580156112c157600080fd5b505af41580156112d5573d6000803e3d6000fd5b505050506040513d60208110156112eb57600080fd5b50519050600081116112fc57600080fd5b604080517f06a5ab2c0000000000000000000000000000000000000000000000000000000081523360048201529051600160a060020a038416916306a5ab2c91602480830192600092919082900301818387803b15801561135c57600080fd5b505af1158015611370573d6000803e3d6000fd5b50506002546040805160e160020a63141bb07d028152336004820152602481018690529051600160a060020a03909216935063283760fa92506044808201926020929091908290030181600087803b1580156113cb57600080fd5b505af11580156113df573d6000803e3d6000fd5b505050506040513d60208110156113f557600080fd5b5050604080517fc19d93fb0000000000000000000000000000000000000000000000000000000081529051600160a060020a0384169163c19d93fb916004808301926020929190829003018186803b15801561145057600080fd5b505afa158015611464573d6000803e3d6000fd5b505050506040513d602081101561147a57600080fd5b50516006141561150b57600254604080517f2be8c2a50000000000000000000000000000000000000000000000000000000081523360048201526014840460248201529051600160a060020a0390921691632be8c2a59160448082019260009290919082900301818387803b1580156114f257600080fd5b505af1158015611506573d6000803e3d6000fd5b505050505b5050565b600154600160a060020a0316331461152657600080fd5b60065460ff161561153657600080fd5b600254604080517f42966c68000000000000000000000000000000000000000000000000000000008152600481018490529051600160a060020a03909216916342966c689160248082019260009290919082900301818387803b15801561159c57600080fd5b505af11580156115b0573d6000803e3d6000fd5b5050505050565b600054600160a060020a031633146115ce57600080fd5b60008054604051600160a060020a03909116917ff8df31144d9c2f0f6b59d69b8b98abd5459d07f2742c4df920b25aae33c6482091a26000805473ffffffffffffffffffffffffffffffffffffffff19169055565b60065460ff161561163357600080fd5b82421080156116425750600084115b151561164d57600080fd5b60006116d785600260009054906101000a9004600160a060020a0316600160a060020a031663065d5d0a6040518163ffffffff1660e060020a02815260040160206040518083038186803b1580156116a457600080fd5b505afa1580156116b8573d6000803e3d6000fd5b505050506040513d60208110156116ce57600080fd5b5051600a613dda565b9050600061178c6402540be400611780600260009054906101000a9004600160a060020a0316600160a060020a03166318160ddd6040518163ffffffff1660e060020a02815260040160206040518083038186803b15801561173857600080fd5b505afa15801561174c573d6000803e3d6000fd5b505050506040513d602081101561176257600080fd5b5051600454611774908790600a613dda565b9063ffffffff613e1616565b9063ffffffff613e4516565b6002546040805160e060020a6370a0823102815233600482015290519293508392600160a060020a03909216916370a0823191602480820192602092909190829003018186803b1580156117df57600080fd5b505afa1580156117f3573d6000803e3d6000fd5b505050506040513d602081101561180957600080fd5b5051101561181657600080fd5b6002546040805160e060020a639e88fd81028152336004820152602481018490529051600160a060020a0390921691639e88fd81916044808201926020929091908290030181600087803b15801561186d57600080fd5b505af1158015611881573d6000803e3d6000fd5b505050506040513d602081101561189757600080fd5b5050600180546040517f8b4dfc2f00000000000000000000000000000000000000000000000000000000815260048101898152602482018690526044820189905233606483018190526084830185905260a4830186905260e060c4840190815260e48401899052600095600160a060020a0390951694638b4dfc2f948d948a948e949093928b928f928f9261010401848480828437600081840152601f19601f8201169050808301925050509950505050505050505050602060405180830381600087803b15801561196857600080fd5b505af115801561197c573d6000803e3d6000fd5b505050506040513d602081101561199257600080fd5b505160408051600160a060020a0383168152602081018a905280820185905290519192507f809523e516336d444261958e529ac0ff837801879a12fe6b90c087a267adde4a919081900360600190a150505050505050565b600154600160a060020a03163314611a0157600080fd5b60065460ff1615611a1157600080fd5b600254604080517fe99364ed000000000000000000000000000000000000000000000000000000008152600481018490529051600160a060020a039092169163e99364ed9160248082019260009290919082900301818387803b15801561159c57600080fd5b60065460ff1615611a8757600080fd5b6001546040805160e060020a63840e78fd028152600160a060020a0385811660048301529151919092169163840e78fd916024808301926020929190829003018186803b158015611ad757600080fd5b505afa158015611aeb573d6000803e3d6000fd5b505050506040513d6020811015611b0157600080fd5b50511515600114611b1157600080fd5b6002546040805160e060020a6370a0823102815233600482015290518392600160a060020a0316916370a08231916024808301926020929190829003018186803b158015611b5e57600080fd5b505afa158015611b72573d6000803e3d6000fd5b505050506040513d6020811015611b8857600080fd5b50511015611b9557600080fd5b600154604080517f247f8e14000000000000000000000000000000000000000000000000000000008152600160a060020a03808616600483015291518593929092169163247f8e14916024808201926020929091908290030181600087803b158015611c0057600080fd5b505af1158015611c14573d6000803e3d6000fd5b505050506040513d6020811015611c2a57600080fd5b5050604080517fc19d93fb0000000000000000000000000000000000000000000000000000000081529051600160a060020a0383169163c19d93fb916004808301926020929190829003018186803b158015611c8557600080fd5b505afa158015611c99573d6000803e3d6000fd5b505050506040513d6020811015611caf57600080fd5b5051600114611cbd57600080fd5b600081600160a060020a031663065d5d0a6040518163ffffffff1660e060020a02815260040160206040518083038186803b158015611cfb57600080fd5b505afa158015611d0f573d6000803e3d6000fd5b505050506040513d6020811015611d2557600080fd5b5051604080517f12ff35bc0000000000000000000000000000000000000000000000000000000081529051600160a060020a038516916312ff35bc916004808301926020929190829003018186803b158015611d8057600080fd5b505afa158015611d94573d6000803e3d6000fd5b505050506040513d6020811015611daa57600080fd5b505103905060008111611dbc57600080fd5b600254604080517f9d1b464a0000000000000000000000000000000000000000000000000000000081529051600092600160a060020a031691639d1b464a916004808301926020929190829003018186803b158015611e1a57600080fd5b505afa158015611e2e573d6000803e3d6000fd5b505050506040513d6020811015611e4457600080fd5b50519050838102828111600081611e5b5782611e5d565b845b9050600082611e6c5787611e7c565b8486811515611e7757fe5b046001015b604080517f0cff8e8f00000000000000000000000000000000000000000000000000000000815233600482015260248101839052604481018590529051919250600160a060020a03891691630cff8e8f9160648082019260009290919082900301818387803b158015611eee57600080fd5b505af1158015611f02573d6000803e3d6000fd5b5050600254604080517f53c333cd000000000000000000000000000000000000000000000000000000008152600160a060020a038e811660048301526024820188905291519190921693506353c333cd9250604480830192600092919082900301818387803b158015611f7457600080fd5b505af1158015611f88573d6000803e3d6000fd5b50506002546040805160e060020a639e88fd81028152336004820152602481018690529051600160a060020a039092169350639e88fd8192506044808201926020929091908290030181600087803b158015611fe357600080fd5b505af1158015611ff7573d6000803e3d6000fd5b505050506040513d602081101561200d57600080fd5b5050600154604080517f247f8e14000000000000000000000000000000000000000000000000000000008152600160a060020a038c811660048301529151600093929092169163247f8e149160248082019260209290919082900301818787803b15801561207a57600080fd5b505af115801561208e573d6000803e3d6000fd5b505050506040513d60208110156120a457600080fd5b50516040805184815260208101869052338183015282151560608201529051919250600160a060020a038c16917fa8371176c22bf281f3dc4915c8ef1ce66ba9399788cdc0a97b11546e6a7fa58b9181900360800190a250505050505050505050565b6002546040805160e060020a6370a08231028152600160a060020a03848116600483015291516000936122189316916370a08231916024808301926020929190829003018186803b15801561215b57600080fd5b505afa15801561216f573d6000803e3d6000fd5b505050506040513d602081101561218557600080fd5b5051600254604080517f18160ddd0000000000000000000000000000000000000000000000000000000081529051600160a060020a03909216916318160ddd91600480820192602092909190829003018186803b1580156121e557600080fd5b505afa1580156121f9573d6000803e3d6000fd5b505050506040513d602081101561220f57600080fd5b5051600f613dda565b92915050565b600054600160a060020a031681565b60065460ff161561223d57600080fd5b600081905080600160a060020a031663c19d93fb6040518163ffffffff1660e060020a02815260040160206040518083038186803b15801561227e57600080fd5b505afa158015612292573d6000803e3d6000fd5b505050506040513d60208110156122a857600080fd5b50516006146122b657600080fd5b600154604080517f0e728a76000000000000000000000000000000000000000000000000000000008152600160a060020a03858116600483015233602483015291519190921691630e728a7691604480830192600092919082900301818387803b15801561232357600080fd5b505af1158015612337573d6000803e3d6000fd5b5050505080600160a060020a031663b10bbaab3383600160a060020a031663eb28c0986040518163ffffffff1660e060020a02815260040160206040518083038186803b15801561238757600080fd5b505afa15801561239b573d6000803e3d6000fd5b505050506040513d60208110156123b157600080fd5b50516040805160e060020a63ffffffff8616028152600160a060020a039093166004840152602483019190915251604480830192600092919082900301818387803b1580156114f257600080fd5b60065460ff161561240f57600080fd5b600354604080517f9f68ce54000000000000000000000000000000000000000000000000000000008152336004820152600160248201529051600092600160a060020a031691639f68ce54916044808301926020929190829003018186803b15801561247a57600080fd5b505afa15801561248e573d6000803e3d6000fd5b505050506040513d60208110156124a457600080fd5b50519050808211156124b557600080fd5b60006124c2838303613dc8565b6124cb83613dc8565b600354604080517fef348e40000000000000000000000000000000000000000000000000000000008152336004820152602481018890529051939092039350600160a060020a03169163ef348e409160448082019260009290919082900301818387803b15801561253b57600080fd5b505af115801561254f573d6000803e3d6000fd5b50506002546040805160e160020a63141bb07d028152336004820152602481018690529051600160a060020a03909216935063283760fa92506044808201926020929091908290030181600087803b1580156125aa57600080fd5b505af11580156125be573d6000803e3d6000fd5b505050506040513d60208110156115b057600080fd5b600054600160a060020a031633146125eb57600080fd5b6006805460ff19166001179055565b60065460ff161561260a57600080fd5b6001546040805160e060020a63840e78fd028152600160a060020a0385811660048301529151919092169163840e78fd916024808301926020929190829003018186803b15801561265a57600080fd5b505afa15801561266e573d6000803e3d6000fd5b505050506040513d602081101561268457600080fd5b5051151560011461269457600080fd5b6000829050600081600160a060020a0316638d977672846040518263ffffffff1660e060020a0281526004018082815260200191505060206040518083038186803b1580156126e257600080fd5b505afa1580156126f6573d6000803e3d6000fd5b505050506040513d602081101561270c57600080fd5b5051604080517faf38d7570000000000000000000000000000000000000000000000000000000081529051919250600160a060020a0383169163af38d75791600480820192602092909190829003018186803b15801561276b57600080fd5b505afa15801561277f573d6000803e3d6000fd5b505050506040513d602081101561279557600080fd5b505115156127a257600080fd5b604080517f1fcc449e00000000000000000000000000000000000000000000000000000000815233600482015290516000918291600160a060020a03851691631fcc449e916024808301926020929190829003018186803b15801561280657600080fd5b505afa15801561281a573d6000803e3d6000fd5b505050506040513d602081101561283057600080fd5b505190506005811061284157600080fd5b604080517f206cf0a80000000000000000000000000000000000000000000000000000000081523360048201529051600160a060020a0385169163206cf0a891602480830192600092919082900301818387803b1580156128a157600080fd5b505af11580156128b5573d6000803e3d6000fd5b5050600154604080517f873299b400000000000000000000000000000000000000000000000000000000815260048101869052905160009450600160a060020a03909216925063873299b4916024808301926020929190829003018186803b15801561292057600080fd5b505afa158015612934573d6000803e3d6000fd5b505050506040513d602081101561294a57600080fd5b5051604080517fedb151a80000000000000000000000000000000000000000000000000000000081529051919250600091600160a060020a0387169163edb151a8916004808301926020929190829003018186803b1580156129ab57600080fd5b505afa1580156129bf573d6000803e3d6000fd5b505050506040513d60208110156129d557600080fd5b50516129e25760006129e5565b60015b60ff169050600085600160a060020a031663a310624f336040518263ffffffff1660e060020a0281526004018082600160a060020a0316600160a060020a0316815260200191505060206040518083038186803b158015612a4557600080fd5b505afa158015612a59573d6000803e3d6000fd5b505050506040513d6020811015612a6f57600080fd5b505182141561302d5785600160a060020a03166376e567636040518163ffffffff1660e060020a02815260040160206040518083038186803b158015612ab457600080fd5b505afa158015612ac8573d6000803e3d6000fd5b505050506040513d6020811015612ade57600080fd5b5051604080517fa310624f00000000000000000000000000000000000000000000000000000000815233600482015290519690910195600091600160a060020a0389169163a310624f91602480820192602092909190829003018186803b158015612b4857600080fd5b505afa158015612b5c573d6000803e3d6000fd5b505050506040513d6020811015612b7257600080fd5b505160011415612c7b5733600160a060020a031687600160a060020a03166379fd9576876040518263ffffffff1660e060020a0281526004018082815260200191505060206040518083038186803b158015612bcd57600080fd5b505afa158015612be1573d6000803e3d6000fd5b505050506040513d6020811015612bf757600080fd5b5051600160a060020a031614612c0c57600080fd5b86600160a060020a031663704d31266040518163ffffffff1660e060020a02815260040160206040518083038186803b158015612c4857600080fd5b505afa158015612c5c573d6000803e3d6000fd5b505050506040513d6020811015612c7257600080fd5b50519050612d76565b33600160a060020a031687600160a060020a0316634a7de6dd876040518263ffffffff1660e060020a0281526004018082815260200191505060206040518083038186803b158015612ccc57600080fd5b505afa158015612ce0573d6000803e3d6000fd5b505050506040513d6020811015612cf657600080fd5b5051600160a060020a031614612d0b57600080fd5b86600160a060020a031663fc6ebece6040518163ffffffff1660e060020a02815260040160206040518083038186803b158015612d4757600080fd5b505afa158015612d5b573d6000803e3d6000fd5b505050506040513d6020811015612d7157600080fd5b505190505b6005811015612e5a576000815b6005811015612e3557600154604080517f873299b4000000000000000000000000000000000000000000000000000000008152600481018490529051612e2b92600160a060020a03169163873299b4916024808301926020929190829003018186803b158015612df257600080fd5b505afa158015612e06573d6000803e3d6000fd5b505050506040513d6020811015612e1c57600080fd5b5051839063ffffffff613e5c16565b9150600101612d83565b50612e56612e49828463ffffffff613e4516565b869063ffffffff613e5c16565b9450505b612f52612710611780866117748b600160a060020a031663599b6d236040518163ffffffff1660e060020a02815260040160206040518083038186803b158015612ea357600080fd5b505afa158015612eb7573d6000803e3d6000fd5b505050506040513d6020811015612ecd57600080fd5b81019080805190602001909291905050508d600160a060020a0316638cf86deb6040518163ffffffff1660e060020a02815260040160206040518083038186803b158015612f1a57600080fd5b505afa158015612f2e573d6000803e3d6000fd5b505050506040513d6020811015612f4457600080fd5b50519063ffffffff613e1616565b604080517fb10bbaab000000000000000000000000000000000000000000000000000000008152336004820152602481018390529051919350600160a060020a038a169163b10bbaab9160448082019260009290919082900301818387803b158015612fbd57600080fd5b505af1158015612fd1573d6000803e3d6000fd5b5050604080518c8152602081018690528082018a90523360608201529051600160a060020a038e1693507f93695f5e3157c7a48c3ea364f7eeb208c65b7cb4a92de4eed5621e667b08b71a92509081900360800190a25061330a565b506000600182146130cd5733600160a060020a031686600160a060020a03166379fd9576866040518263ffffffff1660e060020a0281526004018082815260200191505060206040518083038186803b15801561308957600080fd5b505afa15801561309d573d6000803e3d6000fd5b505050506040513d60208110156130b357600080fd5b5051600160a060020a0316146130c857600080fd5b61315d565b33600160a060020a031686600160a060020a0316634a7de6dd866040518263ffffffff1660e060020a0281526004018082815260200191505060206040518083038186803b15801561311e57600080fd5b505afa158015613132573d6000803e3d6000fd5b505050506040513d602081101561314857600080fd5b5051600160a060020a03161461315d57600080fd5b600286600160a060020a03166376e567636040518163ffffffff1660e060020a02815260040160206040518083038186803b15801561319b57600080fd5b505afa1580156131af573d6000803e3d6000fd5b505050506040513d60208110156131c557600080fd5b50518115156131d057fe5b0485019450600260009054906101000a9004600160a060020a0316600160a060020a03166342966c688688600160a060020a03166376e567636040518163ffffffff1660e060020a02815260040160206040518083038186803b15801561323657600080fd5b505afa15801561324a573d6000803e3d6000fd5b505050506040513d602081101561326057600080fd5b50516040805160e060020a63ffffffff861602815292909103600483015251602480830192600092919082900301818387803b15801561329f57600080fd5b505af11580156132b3573d6000803e3d6000fd5b5050604080518b8152600060208201528082018990523360608201529051600160a060020a038d1693507f93695f5e3157c7a48c3ea364f7eeb208c65b7cb4a92de4eed5621e667b08b71a92509081900360800190a25b60408051898152602081018390528082018790523360608201529051600160a060020a038b16917f93695f5e3157c7a48c3ea364f7eeb208c65b7cb4a92de4eed5621e667b08b71a919081900360800190a26002546040805160e160020a63141bb07d028152336004820152602481018890529051600160a060020a039092169163283760fa916044808201926020929091908290030181600087803b1580156133b357600080fd5b505af11580156133c7573d6000803e3d6000fd5b505050506040513d60208110156133dd57600080fd5b5050505050505050505050565b60065460ff16156133fa57600080fd5b6001546040805160e060020a63840e78fd028152600160a060020a0386811660048301529151919092169163840e78fd916024808301926020929190829003018186803b15801561344a57600080fd5b505afa15801561345e573d6000803e3d6000fd5b505050506040513d602081101561347457600080fd5b5051151560011461348457600080fd5b6000839050600081600160a060020a0316638d977672856040518263ffffffff1660e060020a0281526004018082815260200191505060206040518083038186803b1580156134d257600080fd5b505afa1580156134e6573d6000803e3d6000fd5b505050506040513d60208110156134fc57600080fd5b5051604080517f76e567630000000000000000000000000000000000000000000000000000000081529051919250600091600160a060020a038416916376e56763916004808301926020929190829003018186803b15801561355d57600080fd5b505afa158015613571573d6000803e3d6000fd5b505050506040513d602081101561358757600080fd5b50516002546040805160e060020a6370a0823102815233600482015290519293508392600160a060020a03909216916370a0823191602480820192602092909190829003018186803b1580156135dc57600080fd5b505afa1580156135f0573d6000803e3d6000fd5b505050506040513d602081101561360657600080fd5b5051101561361357600080fd5b6002546040805160e060020a639e88fd81028152336004820152602481018490529051600160a060020a0390921691639e88fd81916044808201926020929091908290030181600087803b15801561366a57600080fd5b505af115801561367e573d6000803e3d6000fd5b505050506040513d602081101561369457600080fd5b5050604080517f1e00d38c000000000000000000000000000000000000000000000000000000008152600160a060020a0388166004820152336024820152604481018790528515156064820152905173__ProjectLibrary________________________91631e00d38c916084808301926000929190829003018186803b15801561371e57600080fd5b505af4158015613732573d6000803e3d6000fd5b50506040805184815287151560208201528082018990523360608201529051600160a060020a038a1693507ffcf6e0d779a85721c9473df9f29a18721c43158bf6a1a0dad03051657d3835ec92509081900360800190a2505050505050565b60065460ff16156137a157600080fd5b6001546040805160e060020a63840e78fd028152600160a060020a0387811660048301529151919092169163840e78fd916024808301926020929190829003018186803b1580156137f157600080fd5b505afa158015613805573d6000803e3d6000fd5b505050506040513d602081101561381b57600080fd5b5051151560011461382b57600080fd5b600354604080517f8d977672000000000000000000000000000000000000000000000000000000008152600481018690529051600160a060020a039283169263bfd9957192339291891691638d97767291602480820192602092909190829003018186803b15801561389c57600080fd5b505afa1580156138b0573d6000803e3d6000fd5b505050506040513d60208110156138c657600080fd5b5051604080517f6f13ab000000000000000000000000000000000000000000000000000000000081529051600160a060020a0390921691636f13ab0091600480820192602092909190829003018186803b15801561392357600080fd5b505afa158015613937573d6000803e3d6000fd5b505050506040513d602081101561394d57600080fd5b50516040805160e060020a63ffffffff8616028152600160a060020a0390931660048401526024830191909152604482018690526064820185905251608480830192600092919082900301818387803b1580156139a957600080fd5b505af11580156139bd573d6000803e3d6000fd5b505060408051868152602081018690528082018590523360608201529051600160a060020a03881693507fcd3cc68af7e16451e0a3813cbed811e5b4fbf81d420f05de34eb66a57e45802e92509081900360800190a250505050565b60065460ff1615613a2957600080fd5b6001546040805160e060020a63840e78fd028152600160a060020a0385811660048301529151919092169163840e78fd916024808301926020929190829003018186803b158015613a7957600080fd5b505afa158015613a8d573d6000803e3d6000fd5b505050506040513d6020811015613aa357600080fd5b50511515600114613ab357600080fd5b600154604080517f247f8e14000000000000000000000000000000000000000000000000000000008152600160a060020a0385811660048301529151919092169163247f8e149160248083019260209291908290030181600087803b158015613b1b57600080fd5b505af1158015613b2f573d6000803e3d6000fd5b505050506040513d6020811015613b4557600080fd5b5050600254604080517f181f8d2400000000000000000000000000000000000000000000000000000000815233600482015260248101849052600160a060020a039283166044820152905160009285169163181f8d2491606480830192602092919082900301818787803b158015613bbc57600080fd5b505af1158015613bd0573d6000803e3d6000fd5b505050506040513d6020811015613be657600080fd5b5051600254604080517fe99364ed000000000000000000000000000000000000000000000000000000008152600481018490529051929350600160a060020a039091169163e99364ed9160248082019260009290919082900301818387803b158015613c5157600080fd5b505af1158015613c65573d6000803e3d6000fd5b50506002546040805160e160020a63141bb07d028152336004820152602481018790529051600160a060020a03909216935063283760fa92506044808201926020929091908290030181600087803b158015613cc057600080fd5b505af1158015613cd4573d6000803e3d6000fd5b505050506040513d6020811015613cea57600080fd5b5050604080518381526020810183905233818301529051600160a060020a038516917f62d1d6ab164da3479211e8a3d70cd851b256bafcd0944d19e63f4cc7a844dcc1919081900360600190a2505050565b600054600160a060020a03163314613d5357600080fd5b613d5c81613e6b565b50565b600054600160a060020a03163314613d7657600080fd5b6001805473ffffffffffffffffffffffffffffffffffffffff1916600160a060020a0392909216919091179055565b600054600160a060020a03163314613dbc57600080fd5b6006805460ff19169055565b6000612218828063ffffffff613e1616565b6000808311613de857600080fd5b60018201600a90810a8502908482811515613dff57fe5b04600501811515613e0c57fe5b0495945050505050565b6000821515613e2757506000612218565b828202828482811515613e3657fe5b0414613e3e57fe5b9392505050565b6000808284811515613e5357fe5b04949350505050565b600082820183811015613e3e57fe5b600160a060020a0381161515613e8057600080fd5b60008054604051600160a060020a03808516939216917f8be0079c531659141344cd1fd0a4f28419497f9722a3daafe3b4186f6b6457e091a36000805473ffffffffffffffffffffffffffffffffffffffff1916600160a060020a0392909216919091179055565b6040805180820182529060029082908038833950919291505056fea165627a7a72305820b0a824e5e0808a971c1360e7500b41d3b7433462db061071adf07ccf04677e2b0029",
  "source": "pragma solidity ^0.5.0;\n\nimport \"./ProjectRegistry.sol\";\nimport \"./DistributeToken.sol\";\nimport \"./Project.sol\";\nimport \"./ProjectLibrary.sol\";\nimport \"./Task.sol\";\nimport \"./library/PLCRVoting.sol\";\nimport \"./library/Division.sol\";\nimport \"./library/SafeMath.sol\";\nimport \"./library/Ownable.sol\";\n\n/**\n@title This contract serves as the interface through which users propose projects, stake tokens,\ncome to consensus around tasks, validate projects, vote on projects, refund their stakes, and\nclaim their rewards.\n@author Team: Jessica Marshall, Ashoka Finley\n@notice This contract implements how users perform actions using capital tokens in the various stages of a project.\n*/\ncontract TokenRegistry is Ownable {\n\n    using ProjectLibrary for address;\n    using SafeMath for uint256;\n\n    // =====================================================================\n    // EVENTS\n    // =====================================================================\n\n    event LogProjectCreated(address projectAddress, uint256 weiCost, uint256 tokenCost);\n    event LogStakedTokens(address indexed projectAddress, uint256 tokens, uint256 weiChange, address staker, bool staked);\n    event LogUnstakedTokens(address indexed projectAddress, uint256 tokens, uint256 weiChange, address unstaker);\n    event LogValidateTask(address indexed projectAddress, uint256 validationFee, bool validationState, uint256 taskIndex, address validator);\n    event LogRewardValidator(address indexed projectAddress, uint256 index, uint256 weiReward, uint256 returnAmount, address validator);\n    event LogTokenVoteCommitted(address indexed projectAddress, uint256 index, uint256 tokens, bytes32 secretHash, uint256 pollId, address voter);\n    event LogTokenVoteRevealed(address indexed projectAddress, uint256 index, uint256 voteOption, uint256 salt, address voter);\n    event LogTokenVoteRescued(address indexed projectAddress, uint256 index, uint256 pollId, address voter);\n\n    // =====================================================================\n    // STATE VARIABLES\n    // =====================================================================\n\n    ProjectRegistry projectRegistry;\n    DistributeToken distributeToken;\n    PLCRVoting plcrVoting;\n\n    uint256 proposeProportion = 200000000000;  // tokensupply/proposeProportion is the number of tokens the proposer must stake\n    uint256 rewardProportion = 100;\n\n    bool freeze;\n\n    // =====================================================================\n    // MODIFIERS\n    // =====================================================================\n\n    modifier onlyPR() {\n        require(msg.sender == address(projectRegistry));\n        _;\n    }\n\n    // =====================================================================\n    // CONSTRUCTOR\n    // =====================================================================\n\n    /**\n    @dev Quasi constructor is called after contract is deployed, must be called with distributeToken,\n    projectRegistry, and plcrVoting intialized to 0\n    @param _distributeToken Address of DistributeToken contract\n    @param _projectRegistry Address of ProjectRegistry contract\n    @param _plcrVoting Address of PLCRVoting contract\n    */\n    function init(address payable _distributeToken, address _projectRegistry, address _plcrVoting) public { //contract is created\n        require(\n            address(distributeToken) == address(0) &&\n            address(projectRegistry) == address(0) &&\n            address(plcrVoting) == address(0)\n        );\n\n        distributeToken = DistributeToken(_distributeToken);\n        projectRegistry = ProjectRegistry(_projectRegistry);\n        plcrVoting = PLCRVoting(_plcrVoting);\n    }\n\n    // =====================================================================\n    // OWNABLE\n    // =====================================================================\n\n    /**\n     * @dev Freezes the contract and allows existing token holders to withdraw tokens\n     */\n    function freezeContract() external onlyOwner {\n      freeze = true;\n    }\n\n    /**\n     * @dev Unfreezes the contract and allows existing token holders to withdraw tokens\n     */\n    function unfreezeContract() external onlyOwner {\n      freeze = false;\n    }\n\n    /**\n     * @dev Instantiate a new instance of plcrVoting contract\n     * @param _newPlcrVoting Address of the new plcr contract\n     */\n    function updatePLCRVoting(address _newPlcrVoting) external onlyOwner {\n      plcrVoting = PLCRVoting(_newPlcrVoting);\n    }\n\n    /**\n     * @dev Update the address of the distributeToken\n     * @param _newDistributeToken Address of the new distribute token\n     */\n    function updateDistributeToken(address payable _newDistributeToken) external onlyOwner {\n      distributeToken = DistributeToken(_newDistributeToken);\n    }\n\n    /**\n     * @dev Update the address of the base product proxy contract\n     * @param _newProjectRegistry Address of the new project contract\n     */\n    function updateProjectRegistry(address _newProjectRegistry) external onlyOwner {\n      projectRegistry = ProjectRegistry(_newProjectRegistry);\n    }\n\n    function squaredAmount(uint _amount) internal pure returns (uint) {\n      return _amount.mul(_amount);\n    }\n\n\n    // =====================================================================\n    // FALLBACK\n    // =====================================================================\n\n    function() external payable {}\n\n    // =====================================================================\n    // PROPOSE\n    // =====================================================================\n\n    /**\n    @notice Propose a project of cost `_cost` with staking period `_stakingPeriod` and hash `_ipfsHash`,\n    with tokens.\n    @dev Calls ProjectRegistry.createProject to finalize transaction and emits ProjectCreated event\n    @param _cost Total project cost in wei\n    @param _stakingPeriod Length of time the project can be staked on before it expires\n    @param _ipfsHash Hash of the project description\n    */\n    function proposeProject(uint256 _cost, uint256 _stakingPeriod, bytes calldata _ipfsHash) external {\n        require(!freeze);\n        require(block.timestamp < _stakingPeriod && _cost > 0);\n        uint256 costProportion = Division.percent(_cost, distributeToken.weiBal(), 10);\n        uint256 proposerTokenCost = (\n            Division.percent(costProportion, proposeProportion, 10).mul(\n            distributeToken.totalSupply())).div(\n            10000000000);\n            //divide by 20 to get 5 percent of tokens\n        require(distributeToken.balanceOf(msg.sender) >= proposerTokenCost);\n\n        distributeToken.transferToEscrow(msg.sender, proposerTokenCost);\n        address projectAddress = projectRegistry.createProject(\n            _cost,\n            costProportion,\n            _stakingPeriod,\n            msg.sender,\n            1,\n            proposerTokenCost,\n            _ipfsHash\n        );\n        emit LogProjectCreated(projectAddress, _cost, proposerTokenCost);\n    }\n\n    /**\n    @notice Refund a token proposer upon proposal success, transfer 5% of the project cost in\n    wei as a reward along with any tokens staked on the project.\n    @dev token proposer types are denoted by '1' and reputation proposers by '2'\n    @param _projectAddress Address of the project\n    */\n    function refundProposer(address payable _projectAddress) external {                                 //called by proposer to get refund once project is active\n        require(!freeze);\n        Project project = Project(_projectAddress);                            //called by proposer to get refund once project is active\n        require(project.proposer() == msg.sender);\n        require(project.proposerType() == 1);\n\n        uint256[2] memory proposerVals = projectRegistry.refundProposer(_projectAddress, msg.sender);        //call project to \"send back\" staked tokens to put in proposer's balances\n        distributeToken.transferFromEscrow(msg.sender, proposerVals[1]);\n        distributeToken.transferWeiTo(msg.sender, proposerVals[0] / (20));\n    }\n\n    /**\n    @notice Rewards the originator of a project plan in tokens.\n    @param _projectAddress Address of the project\n    */\n    function rewardOriginator(address payable _projectAddress) external {\n      require(!freeze);\n      Project project = Project(_projectAddress);\n      require(project.state() == 6);\n      projectRegistry.rewardOriginator(_projectAddress, msg.sender);\n      project.transferWeiReward(msg.sender, project.originatorReward());\n    }\n\n    // =====================================================================\n    // STAKE\n    // =====================================================================\n\n    /**\n    @notice Stake `_tokens` tokens on project at `_projectAddress`\n    @dev Prevents over staking and returns any excess tokens staked.\n    @param _projectAddress Address of the project\n    @param _tokens Amount of tokens to stake\n    */\n    function stakeTokens(address payable _projectAddress, uint256 _tokens) external {\n        require(!freeze);\n        require(projectRegistry.projects(_projectAddress) == true);\n        require(distributeToken.balanceOf(msg.sender) >= _tokens);\n        Project project = Project(_projectAddress);\n        // handles edge case where someone attempts to stake past the staking deadline\n        projectRegistry.checkStaked(_projectAddress);\n        require(project.state() == 1);\n\n        // calculate amount of wei the project still needs\n        uint256 weiRemaining = project.weiCost() - project.weiBal();\n        require(weiRemaining > 0);\n\n        uint256 currentPrice = distributeToken.currentPrice();\n        uint256 weiVal =  currentPrice * _tokens;\n        bool flag = weiVal > weiRemaining;\n        uint256 weiChange = flag\n            ? weiRemaining\n            : weiVal;       //how much ether to send on change\n        uint256 tokens = flag\n            ? ((weiRemaining/currentPrice) + 1)     // round up to prevent loophole where user can stake without losing tokens\n            : _tokens;\n        // updating of P weiBal happens via the next line\n        project.stakeTokens(msg.sender, tokens, weiChange);\n        // the transfer of wei and the updating of DT weiBal happens via the next line\n        distributeToken.transferWeiTo(_projectAddress, weiChange);\n        distributeToken.transferToEscrow(msg.sender, tokens);\n        bool staked = projectRegistry.checkStaked(_projectAddress);\n        emit LogStakedTokens(_projectAddress, tokens, weiChange, msg.sender, staked);\n    }\n\n    /**\n    @notice Unstake `_tokens` tokens from project at `_projectAddress`\n    @dev Require tokens unstaked is greater than 0\n    @param _projectAddress Address of the project\n    @param _tokens Amount of reputation to unstake\n    */\n    function unstakeTokens(address payable _projectAddress, uint256 _tokens) external {\n        require(!freeze);\n        require(projectRegistry.projects(_projectAddress) == true);\n        // handles edge case where someone attempts to unstake past the staking deadline\n        projectRegistry.checkStaked(_projectAddress);\n\n        uint256 weiVal = Project(_projectAddress).unstakeTokens(msg.sender, _tokens, address(distributeToken));\n        // the actual wei is sent back to DT via Project.unstakeTokens()\n        // the weiBal is updated via the next line\n        distributeToken.returnWei(weiVal);\n        distributeToken.transferFromEscrow(msg.sender, _tokens);\n        emit LogUnstakedTokens(_projectAddress, _tokens, weiVal, msg.sender);\n    }\n\n    /**\n    @notice Calculates the relative weight of an `_address`.\n    Weighting is calculated by the proportional amount of tokens a user possess in relation to the total supply.\n    @param _address Address of the staker\n    @return The relative weight of a staker as a whole integer\n    */\n    function calculateWeightOfAddress(\n        address _address\n    ) public view returns (uint256) {\n        return Division.percent(distributeToken.balanceOf(_address), distributeToken.totalSupply(), 15);\n    }\n\n    // =====================================================================\n    // VALIDATION\n    // =====================================================================\n\n    /**\n    @notice Validate a task at index `_index` from project at `_projectAddress` with `_tokens`\n    tokens for validation state `_validationState`\n    @dev Requires the token balance of msg.sender to be greater than the reputationVal of the task\n    @param _projectAddress Address of the project\n    @param _taskIndex Index of the task\n    @param _validationState Approve or Deny task\n    */\n    function validateTask(\n        address payable _projectAddress,\n        uint256 _taskIndex,\n        bool _validationState\n    ) external {\n        require(!freeze);\n        require(projectRegistry.projects(_projectAddress) == true);\n        Project project = Project(_projectAddress);\n        Task task = Task(project.tasks(_taskIndex));\n        uint256 validationFee = task.validationEntryFee();\n        require(distributeToken.balanceOf(msg.sender) >= validationFee);\n        distributeToken.transferToEscrow(msg.sender, validationFee);\n        ProjectLibrary.validate(_projectAddress, msg.sender, _taskIndex, _validationState);\n        emit LogValidateTask(_projectAddress, validationFee, _validationState, _taskIndex, msg.sender);\n    }\n\n    /**\n    @notice Reward the validator of a task if they have been determined to have validated correctly.\n    @param _projectAddress Address of the project\n    @param _index Index of the task\n    */\n    function rewardValidator(address payable _projectAddress, uint256 _index) external {\n        require(!freeze);\n        require(projectRegistry.projects(_projectAddress) == true);\n        Project project = Project(_projectAddress);\n        Task task = Task(project.tasks(_index));\n        require(task.claimable());\n        uint returnAmount;\n        uint index = task.getValidatorIndex(msg.sender);\n        require(index < 5);\n        task.setValidatorIndex(msg.sender);\n        uint rewardWeighting = projectRegistry.validationRewardWeightings(index);\n        uint statusNeed = task.claimableByRep() ? 1 : 0;\n        uint weiReward;\n\n        if (statusNeed == task.getValidatorStatus(msg.sender)) {\n            returnAmount += task.validationEntryFee();\n            uint validationIndex;\n            if (task.getValidatorStatus(msg.sender) == 1) {\n              require(task.affirmativeValidators(index) == msg.sender);\n              validationIndex = task.affirmativeIndex();\n            } else {\n              require(task.negativeValidators(index) == msg.sender);\n              validationIndex = task.negativeIndex();\n            }\n            if (validationIndex < 5) {\n                uint addtlWeighting;\n                for(uint i = validationIndex ; i < 5; i++) {\n                    addtlWeighting = addtlWeighting.add(projectRegistry.validationRewardWeightings(i));\n                }\n                rewardWeighting = rewardWeighting.add(addtlWeighting.div(validationIndex));\n            }\n            weiReward = project.validationReward().mul(task.weighting()).mul(rewardWeighting).div(10000);\n            project.transferWeiReward(msg.sender, weiReward);\n            emit LogRewardValidator(_projectAddress, _index, weiReward, returnAmount, msg.sender);\n        } else {\n            weiReward = 0;\n            statusNeed == 1\n                ? require(task.negativeValidators(index) == msg.sender)\n                : require(task.affirmativeValidators(index) == msg.sender);\n            returnAmount += task.validationEntryFee() / 2;\n            distributeToken.burn(task.validationEntryFee() - returnAmount);\n            emit LogRewardValidator(_projectAddress, _index, 0, returnAmount, msg.sender);\n        }\n        emit LogRewardValidator(_projectAddress, _index, weiReward, returnAmount, msg.sender);\n        distributeToken.transferFromEscrow(msg.sender, returnAmount);\n    }\n\n    // =====================================================================\n    // VOTING\n    // =====================================================================\n\n    /**\n    @notice First part of voting process. Commits a vote using tokens to task at index `_index`\n    of project at `projectAddress` for tokens `_tokens`. Submits a secrect hash `_secretHash`,\n    which is a tightly packed hash of the voters choice and their salt\n    @param _projectAddress Address of the project\n    @param _index Index of the task\n    @param _votes Tokens to vote with\n    @param _secretHash Secret Hash of voter choice and salt\n    @param _prevPollID The nonce of the previous poll. This is stored off chain\n    */\n    function voteCommit(\n        address payable _projectAddress,\n        uint256 _index,\n        uint256 _votes,\n        bytes32 _secretHash,\n        uint256 _prevPollID\n    ) external {     // _secretHash Commit keccak256 hash of voter's choice and salt (tightly packed in this order), done off-chain\n        require(!freeze);\n        require(projectRegistry.projects(_projectAddress) == true);\n        uint256 pollId = Task(Project(_projectAddress).tasks(_index)).pollId();\n        // calculate available tokens for voting\n        uint256 availableVotes = plcrVoting.getAvailableTokens(msg.sender, 1);\n        // make sure msg.sender has tokens available in PLCR contract\n        // if not, request voting rights for token holder\n        if (availableVotes < _votes) {\n            uint votesCost = squaredAmount(_votes) - squaredAmount(availableVotes);\n            require(distributeToken.balanceOf(msg.sender) >= votesCost);\n            distributeToken.transferToEscrow(msg.sender, votesCost);\n            plcrVoting.requestVotingRights(msg.sender, _votes - availableVotes);\n        }\n        plcrVoting.commitVote(msg.sender, pollId, _secretHash, _votes, _prevPollID);\n        emit LogTokenVoteCommitted(_projectAddress, _index, _votes, _secretHash, pollId, msg.sender);\n    }\n\n    /**\n    @notice Second part of voting process. Reveal existing vote.\n    @param _projectAddress Address of the project\n    @param _index Index of the task\n    @param _voteOption Vote choice of account\n    @param _salt Salt of account\n    */\n    function voteReveal(\n        address payable _projectAddress,\n        uint256 _index,\n        uint256 _voteOption,\n        uint256 _salt\n    ) external {\n        require(!freeze);\n        require(projectRegistry.projects(_projectAddress) == true);\n        plcrVoting.revealVote(msg.sender, Task(Project(_projectAddress).tasks(_index)).pollId(), _voteOption, _salt);\n        emit LogTokenVoteRevealed(_projectAddress, _index, _voteOption, _salt, msg.sender);\n    }\n\n    /**\n    @notice Refunds staked tokens, thus also withdrawing voting rights from PLCR Contract\n    @param _votes Amount of tokens to withdraw\n    */\n    function refundVotingTokens(uint256 _votes) external {\n        require(!freeze);\n        uint userVotes = plcrVoting.getAvailableTokens(msg.sender, 1);\n        require(_votes <= userVotes);\n        uint votesPrice = squaredAmount(userVotes) - squaredAmount(userVotes - _votes);\n        plcrVoting.withdrawVotingRights(msg.sender, _votes);\n        distributeToken.transferFromEscrow(msg.sender, votesPrice);\n    }\n\n    // =====================================================================\n    // COMPLETE\n    // =====================================================================\n\n    /**\n    @notice Refund a token staker from project at `_projectAddress`\n    @param _projectAddress Address of the project\n    */\n    function refundStaker(address payable _projectAddress) external {\n        require(!freeze);\n        require(projectRegistry.projects(_projectAddress) == true);\n        uint256 refund = ProjectLibrary.refundStaker(_projectAddress, msg.sender, address(this));\n        require(refund > 0);\n        Project(_projectAddress).clearTokenStake(msg.sender);\n        distributeToken.transferFromEscrow(msg.sender, refund);\n        if (Project(_projectAddress).state() == 6) {\n          distributeToken.transferTokensTo(msg.sender, refund / 20);\n        }\n    }\n\n    /**\n    @notice Rescue unrevealed token votes from expired polls of task at `_index` of project at\n    `_projectAddress`\n    @param _projectAddress Address of the project\n    @param _index Index of the task\n    */\n    function rescueTokens(address payable _projectAddress, uint _index) external {\n        require(!freeze);\n        require(projectRegistry.projects(_projectAddress) == true);\n        uint256 pollId = Task(Project(_projectAddress).tasks(_index)).pollId();\n        plcrVoting.rescueTokens(msg.sender, pollId);\n        emit LogTokenVoteRescued(_projectAddress, _index, pollId, msg.sender);\n    }\n\n    // =====================================================================\n    // FAILED\n    // =====================================================================\n\n    /**\n    @notice Return wei from project balance if task fails\n    @dev Only callable by the ProjectRegistry contract\n    @param _value Amount of wei to transfer to the distributeToken contract\n    */\n    function revertWei(uint256 _value) external onlyPR {\n        require(!freeze);\n        distributeToken.returnWei(_value);\n    }\n\n    /**\n    @notice Burn tokens in event of project failure\n    @dev Only callable by the ProjectRegistry contract\n    @param _tokens Amount of reputation to burn\n    */\n    function burnTokens(uint256 _tokens) external onlyPR {\n        require(!freeze);\n        distributeToken.burn(_tokens);\n    }\n\n}\n",
  "sourcePath": "/Users/shokishoki/development/hypha/distribute-app/contracts/contracts/TokenRegistry.sol",
  "compiler": {
    "name": "solc",
    "version": "0.5.2+commit.1df8f40c.Emscripten.clang"
  },
  "schemaVersion": "3.0.0",
  "updatedAt": "2018-12-21T20:46:41.339Z",
  "devdoc": {
    "author": "Team: Jessica Marshall, Ashoka Finley",
    "methods": {
      "burnTokens(uint256)": {
        "details": "Only callable by the ProjectRegistry contract",
        "params": {
          "_tokens": "Amount of reputation to burn"
        }
      },
      "calculateWeightOfAddress(address)": {
        "params": {
          "_address": "Address of the staker"
        },
        "return": "The relative weight of a staker as a whole integer"
      },
      "freezeContract()": {
        "details": "Freezes the contract and allows existing token holders to withdraw tokens"
      },
      "init(address,address,address)": {
        "details": "Quasi constructor is called after contract is deployed, must be called with distributeToken, projectRegistry, and plcrVoting intialized to 0",
        "params": {
          "_distributeToken": "Address of DistributeToken contract",
          "_plcrVoting": "Address of PLCRVoting contract",
          "_projectRegistry": "Address of ProjectRegistry contract"
        }
      },
      "proposeProject(uint256,uint256,bytes)": {
        "details": "Calls ProjectRegistry.createProject to finalize transaction and emits ProjectCreated event",
        "params": {
          "_cost": "Total project cost in wei",
          "_ipfsHash": "Hash of the project description",
          "_stakingPeriod": "Length of time the project can be staked on before it expires"
        }
      },
      "refundProposer(address)": {
        "details": "token proposer types are denoted by '1' and reputation proposers by '2'",
        "params": {
          "_projectAddress": "Address of the project"
        }
      },
      "refundStaker(address)": {
        "params": {
          "_projectAddress": "Address of the project"
        }
      },
      "refundVotingTokens(uint256)": {
        "params": {
          "_votes": "Amount of tokens to withdraw"
        }
      },
      "renounceOwnership()": {
        "details": "Allows the current owner to relinquish control of the contract."
      },
      "rescueTokens(address,uint256)": {
        "params": {
          "_index": "Index of the task",
          "_projectAddress": "Address of the project"
        }
      },
      "revertWei(uint256)": {
        "details": "Only callable by the ProjectRegistry contract",
        "params": {
          "_value": "Amount of wei to transfer to the distributeToken contract"
        }
      },
      "rewardOriginator(address)": {
        "params": {
          "_projectAddress": "Address of the project"
        }
      },
      "rewardValidator(address,uint256)": {
        "params": {
          "_index": "Index of the task",
          "_projectAddress": "Address of the project"
        }
      },
      "stakeTokens(address,uint256)": {
        "details": "Prevents over staking and returns any excess tokens staked.",
        "params": {
          "_projectAddress": "Address of the project",
          "_tokens": "Amount of tokens to stake"
        }
      },
      "transferOwnership(address)": {
        "details": "Allows the current owner to transfer control of the contract to a newOwner.",
        "params": {
          "_newOwner": "The address to transfer ownership to."
        }
      },
      "unfreezeContract()": {
        "details": "Unfreezes the contract and allows existing token holders to withdraw tokens"
      },
      "unstakeTokens(address,uint256)": {
        "details": "Require tokens unstaked is greater than 0",
        "params": {
          "_projectAddress": "Address of the project",
          "_tokens": "Amount of reputation to unstake"
        }
      },
      "updateDistributeToken(address)": {
        "details": "Update the address of the distributeToken",
        "params": {
          "_newDistributeToken": "Address of the new distribute token"
        }
      },
      "updatePLCRVoting(address)": {
        "details": "Instantiate a new instance of plcrVoting contract",
        "params": {
          "_newPlcrVoting": "Address of the new plcr contract"
        }
      },
      "updateProjectRegistry(address)": {
        "details": "Update the address of the base product proxy contract",
        "params": {
          "_newProjectRegistry": "Address of the new project contract"
        }
      },
      "validateTask(address,uint256,bool)": {
        "details": "Requires the token balance of msg.sender to be greater than the reputationVal of the task",
        "params": {
          "_projectAddress": "Address of the project",
          "_taskIndex": "Index of the task",
          "_validationState": "Approve or Deny task"
        }
      },
      "voteCommit(address,uint256,uint256,bytes32,uint256)": {
        "params": {
          "_index": "Index of the task",
          "_prevPollID": "The nonce of the previous poll. This is stored off chain",
          "_projectAddress": "Address of the project",
          "_secretHash": "Secret Hash of voter choice and salt",
          "_votes": "Tokens to vote with"
        }
      },
      "voteReveal(address,uint256,uint256,uint256)": {
        "params": {
          "_index": "Index of the task",
          "_projectAddress": "Address of the project",
          "_salt": "Salt of account",
          "_voteOption": "Vote choice of account"
        }
      }
    },
    "title": "This contract serves as the interface through which users propose projects, stake tokens, come to consensus around tasks, validate projects, vote on projects, refund their stakes, and claim their rewards."
  },
  "userdoc": {
    "methods": {
      "burnTokens(uint256)": {
        "notice": "Burn tokens in event of project failure"
      },
      "calculateWeightOfAddress(address)": {
        "notice": "Calculates the relative weight of an `_address`. Weighting is calculated by the proportional amount of tokens a user possess in relation to the total supply."
      },
      "proposeProject(uint256,uint256,bytes)": {
        "notice": "Propose a project of cost `_cost` with staking period `_stakingPeriod` and hash `_ipfsHash`, with tokens."
      },
      "refundProposer(address)": {
        "notice": "Refund a token proposer upon proposal success, transfer 5% of the project cost in wei as a reward along with any tokens staked on the project."
      },
      "refundStaker(address)": {
        "notice": "Refund a token staker from project at `_projectAddress`"
      },
      "refundVotingTokens(uint256)": {
        "notice": "Refunds staked tokens, thus also withdrawing voting rights from PLCR Contract"
      },
      "renounceOwnership()": {
        "notice": "Renouncing to ownership will leave the contract without an owner. It will not be possible to call the functions with the `onlyOwner` modifier anymore."
      },
      "rescueTokens(address,uint256)": {
        "notice": "Rescue unrevealed token votes from expired polls of task at `_index` of project at `_projectAddress`"
      },
      "revertWei(uint256)": {
        "notice": "Return wei from project balance if task fails"
      },
      "rewardOriginator(address)": {
        "notice": "Rewards the originator of a project plan in tokens."
      },
      "rewardValidator(address,uint256)": {
        "notice": "Reward the validator of a task if they have been determined to have validated correctly."
      },
      "stakeTokens(address,uint256)": {
        "notice": "Stake `_tokens` tokens on project at `_projectAddress`"
      },
      "unstakeTokens(address,uint256)": {
        "notice": "Unstake `_tokens` tokens from project at `_projectAddress`"
      },
      "validateTask(address,uint256,bool)": {
        "notice": "Validate a task at index `_index` from project at `_projectAddress` with `_tokens` tokens for validation state `_validationState`"
      },
      "voteCommit(address,uint256,uint256,bytes32,uint256)": {
        "notice": "First part of voting process. Commits a vote using tokens to task at index `_index` of project at `projectAddress` for tokens `_tokens`. Submits a secrect hash `_secretHash`, which is a tightly packed hash of the voters choice and their salt"
      },
      "voteReveal(address,uint256,uint256,uint256)": {
        "notice": "Second part of voting process. Reveal existing vote."
      }
    },
    "notice": "This contract implements how users perform actions using capital tokens in the various stages of a project."
  }
}